{
	"contracts/ClaConvertNFT.sol": {
		"ClaConvertNFT": {
			"abi": [
				{
					"inputs": [],
					"payable": false,
					"stateMutability": "nonpayable",
					"type": "constructor"
				},
				{
					"anonymous": false,
					"inputs": [
						{
							"indexed": true,
							"internalType": "address",
							"name": "owner",
							"type": "address"
						},
						{
							"indexed": true,
							"internalType": "address",
							"name": "approved",
							"type": "address"
						},
						{
							"indexed": true,
							"internalType": "uint256",
							"name": "tokenId",
							"type": "uint256"
						}
					],
					"name": "Approval",
					"type": "event"
				},
				{
					"anonymous": false,
					"inputs": [
						{
							"indexed": true,
							"internalType": "address",
							"name": "owner",
							"type": "address"
						},
						{
							"indexed": true,
							"internalType": "address",
							"name": "operator",
							"type": "address"
						},
						{
							"indexed": false,
							"internalType": "bool",
							"name": "approved",
							"type": "bool"
						}
					],
					"name": "ApprovalForAll",
					"type": "event"
				},
				{
					"anonymous": false,
					"inputs": [
						{
							"indexed": false,
							"internalType": "uint256",
							"name": "tokenId",
							"type": "uint256"
						},
						{
							"indexed": false,
							"internalType": "uint256",
							"name": "claAmount",
							"type": "uint256"
						}
					],
					"name": "BurnedCCT",
					"type": "event"
				},
				{
					"anonymous": false,
					"inputs": [
						{
							"indexed": false,
							"internalType": "uint256",
							"name": "tokenId",
							"type": "uint256"
						},
						{
							"indexed": false,
							"internalType": "uint256",
							"name": "claAmount",
							"type": "uint256"
						},
						{
							"indexed": false,
							"internalType": "uint32",
							"name": "endDay",
							"type": "uint32"
						},
						{
							"indexed": false,
							"internalType": "address",
							"name": "owner",
							"type": "address"
						}
					],
					"name": "MintedCCT",
					"type": "event"
				},
				{
					"anonymous": false,
					"inputs": [
						{
							"indexed": true,
							"internalType": "address",
							"name": "from",
							"type": "address"
						},
						{
							"indexed": true,
							"internalType": "address",
							"name": "to",
							"type": "address"
						},
						{
							"indexed": true,
							"internalType": "uint256",
							"name": "tokenId",
							"type": "uint256"
						}
					],
					"name": "Transfer",
					"type": "event"
				},
				{
					"anonymous": false,
					"inputs": [
						{
							"indexed": false,
							"internalType": "uint256",
							"name": "tokenId",
							"type": "uint256"
						},
						{
							"indexed": false,
							"internalType": "uint256",
							"name": "distributedRewardPerToken",
							"type": "uint256"
						}
					],
					"name": "UpdatedAccumulatedRewardPerToken",
					"type": "event"
				},
				{
					"constant": true,
					"inputs": [
						{
							"internalType": "uint256",
							"name": "tokenId",
							"type": "uint256"
						}
					],
					"name": "accumulatedRewardCla",
					"outputs": [
						{
							"internalType": "uint256",
							"name": "",
							"type": "uint256"
						}
					],
					"payable": false,
					"stateMutability": "view",
					"type": "function"
				},
				{
					"constant": false,
					"inputs": [
						{
							"internalType": "address",
							"name": "to",
							"type": "address"
						},
						{
							"internalType": "uint256",
							"name": "tokenId",
							"type": "uint256"
						}
					],
					"name": "approve",
					"outputs": [],
					"payable": false,
					"stateMutability": "nonpayable",
					"type": "function"
				},
				{
					"constant": false,
					"inputs": [
						{
							"internalType": "uint256",
							"name": "amount",
							"type": "uint256"
						}
					],
					"name": "approveCla",
					"outputs": [
						{
							"internalType": "bool",
							"name": "",
							"type": "bool"
						}
					],
					"payable": false,
					"stateMutability": "nonpayable",
					"type": "function"
				},
				{
					"constant": true,
					"inputs": [
						{
							"internalType": "address",
							"name": "owner",
							"type": "address"
						}
					],
					"name": "balanceOf",
					"outputs": [
						{
							"internalType": "uint256",
							"name": "",
							"type": "uint256"
						}
					],
					"payable": false,
					"stateMutability": "view",
					"type": "function"
				},
				{
					"constant": false,
					"inputs": [
						{
							"internalType": "uint256",
							"name": "tokenId",
							"type": "uint256"
						}
					],
					"name": "burn",
					"outputs": [],
					"payable": false,
					"stateMutability": "nonpayable",
					"type": "function"
				},
				{
					"constant": true,
					"inputs": [
						{
							"internalType": "uint256",
							"name": "",
							"type": "uint256"
						}
					],
					"name": "ccts",
					"outputs": [
						{
							"internalType": "uint256",
							"name": "claAmount",
							"type": "uint256"
						},
						{
							"internalType": "uint32",
							"name": "endDay",
							"type": "uint32"
						}
					],
					"payable": false,
					"stateMutability": "view",
					"type": "function"
				},
				{
					"constant": true,
					"inputs": [
						{
							"internalType": "address",
							"name": "account",
							"type": "address"
						}
					],
					"name": "claBalanceOf",
					"outputs": [
						{
							"internalType": "uint256",
							"name": "",
							"type": "uint256"
						}
					],
					"payable": false,
					"stateMutability": "view",
					"type": "function"
				},
				{
					"constant": false,
					"inputs": [
						{
							"internalType": "uint256",
							"name": "tokenId",
							"type": "uint256"
						}
					],
					"name": "claimClaReward",
					"outputs": [],
					"payable": false,
					"stateMutability": "nonpayable",
					"type": "function"
				},
				{
					"constant": false,
					"inputs": [
						{
							"internalType": "uint256",
							"name": "amount",
							"type": "uint256"
						}
					],
					"name": "convertClaToCct",
					"outputs": [],
					"payable": false,
					"stateMutability": "nonpayable",
					"type": "function"
				},
				{
					"constant": true,
					"inputs": [
						{
							"internalType": "uint256",
							"name": "tokenId",
							"type": "uint256"
						}
					],
					"name": "getApproved",
					"outputs": [
						{
							"internalType": "address",
							"name": "",
							"type": "address"
						}
					],
					"payable": false,
					"stateMutability": "view",
					"type": "function"
				},
				{
					"constant": true,
					"inputs": [
						{
							"internalType": "address",
							"name": "owner",
							"type": "address"
						},
						{
							"internalType": "address",
							"name": "operator",
							"type": "address"
						}
					],
					"name": "isApprovedForAll",
					"outputs": [
						{
							"internalType": "bool",
							"name": "",
							"type": "bool"
						}
					],
					"payable": false,
					"stateMutability": "view",
					"type": "function"
				},
				{
					"constant": true,
					"inputs": [
						{
							"internalType": "uint256",
							"name": "tokenId",
							"type": "uint256"
						}
					],
					"name": "ownerOf",
					"outputs": [
						{
							"internalType": "address",
							"name": "",
							"type": "address"
						}
					],
					"payable": false,
					"stateMutability": "view",
					"type": "function"
				},
				{
					"constant": false,
					"inputs": [
						{
							"internalType": "address",
							"name": "from",
							"type": "address"
						},
						{
							"internalType": "address",
							"name": "to",
							"type": "address"
						},
						{
							"internalType": "uint256",
							"name": "tokenId",
							"type": "uint256"
						}
					],
					"name": "safeTransferFrom",
					"outputs": [],
					"payable": false,
					"stateMutability": "nonpayable",
					"type": "function"
				},
				{
					"constant": false,
					"inputs": [
						{
							"internalType": "address",
							"name": "from",
							"type": "address"
						},
						{
							"internalType": "address",
							"name": "to",
							"type": "address"
						},
						{
							"internalType": "uint256",
							"name": "tokenId",
							"type": "uint256"
						},
						{
							"internalType": "bytes",
							"name": "_data",
							"type": "bytes"
						}
					],
					"name": "safeTransferFrom",
					"outputs": [],
					"payable": false,
					"stateMutability": "nonpayable",
					"type": "function"
				},
				{
					"constant": false,
					"inputs": [
						{
							"internalType": "address",
							"name": "to",
							"type": "address"
						},
						{
							"internalType": "bool",
							"name": "approved",
							"type": "bool"
						}
					],
					"name": "setApprovalForAll",
					"outputs": [],
					"payable": false,
					"stateMutability": "nonpayable",
					"type": "function"
				},
				{
					"constant": true,
					"inputs": [
						{
							"internalType": "bytes4",
							"name": "interfaceId",
							"type": "bytes4"
						}
					],
					"name": "supportsInterface",
					"outputs": [
						{
							"internalType": "bool",
							"name": "",
							"type": "bool"
						}
					],
					"payable": false,
					"stateMutability": "view",
					"type": "function"
				},
				{
					"constant": true,
					"inputs": [
						{
							"internalType": "uint256",
							"name": "index",
							"type": "uint256"
						}
					],
					"name": "tokenByIndex",
					"outputs": [
						{
							"internalType": "uint256",
							"name": "",
							"type": "uint256"
						}
					],
					"payable": false,
					"stateMutability": "view",
					"type": "function"
				},
				{
					"constant": true,
					"inputs": [
						{
							"internalType": "address",
							"name": "owner",
							"type": "address"
						},
						{
							"internalType": "uint256",
							"name": "index",
							"type": "uint256"
						}
					],
					"name": "tokenOfOwnerByIndex",
					"outputs": [
						{
							"internalType": "uint256",
							"name": "",
							"type": "uint256"
						}
					],
					"payable": false,
					"stateMutability": "view",
					"type": "function"
				},
				{
					"constant": true,
					"inputs": [
						{
							"internalType": "address",
							"name": "owner",
							"type": "address"
						}
					],
					"name": "totalAccumulatedRewardCla",
					"outputs": [
						{
							"internalType": "uint256",
							"name": "",
							"type": "uint256"
						}
					],
					"payable": false,
					"stateMutability": "view",
					"type": "function"
				},
				{
					"constant": true,
					"inputs": [],
					"name": "totalSupply",
					"outputs": [
						{
							"internalType": "uint256",
							"name": "",
							"type": "uint256"
						}
					],
					"payable": false,
					"stateMutability": "view",
					"type": "function"
				},
				{
					"constant": false,
					"inputs": [
						{
							"internalType": "address",
							"name": "from",
							"type": "address"
						},
						{
							"internalType": "address",
							"name": "to",
							"type": "address"
						},
						{
							"internalType": "uint256",
							"name": "tokenId",
							"type": "uint256"
						}
					],
					"name": "transferFrom",
					"outputs": [],
					"payable": false,
					"stateMutability": "nonpayable",
					"type": "function"
				}
			],
			"devdoc": {
				"methods": {
					"accumulatedRewardCla(uint256)": {
						"return": "uint256 해당 NFT에 축적된 CLA 이자"
					},
					"approve(address,uint256)": {
						"details": "Approves another address to transfer the given token ID The zero address indicates there is no approved address. There can only be one approved address per token at a given time. Can only be called by the token owner or an approved operator.",
						"params": {
							"to": "address to be approved for the given token ID",
							"tokenId": "uint256 ID of the token to be approved"
						}
					},
					"balanceOf(address)": {
						"details": "Gets the balance of the specified address.",
						"params": {
							"owner": "address to query the balance of"
						},
						"return": "uint256 representing the amount owned by the passed address"
					},
					"claimClaReward(uint256)": {
						"details": "먼저 CCT 홀더들에게 pendingCla 이자를 지분에 따라 분배하고 홀더 계정으로 CLA 이자 전송"
					},
					"getApproved(uint256)": {
						"details": "Gets the approved address for a token ID, or zero if no address set Reverts if the token ID does not exist.",
						"params": {
							"tokenId": "uint256 ID of the token to query the approval of"
						},
						"return": "address currently approved for the given token ID"
					},
					"isApprovedForAll(address,address)": {
						"details": "Tells whether an operator is approved by a given owner.",
						"params": {
							"operator": "operator address which you want to query the approval of",
							"owner": "owner address which you want to query the approval of"
						},
						"return": "bool whether the given operator is approved by the given owner"
					},
					"ownerOf(uint256)": {
						"details": "Gets the owner of the specified token ID.",
						"params": {
							"tokenId": "uint256 ID of the token to query the owner of"
						},
						"return": "address currently marked as the owner of the given token ID"
					},
					"safeTransferFrom(address,address,uint256)": {
						"details": "Safely transfers the ownership of a given token ID to another address If the target address is a contract, it must implement {IERC721Receiver-onERC721Received}, which is called upon a safe transfer, and return the magic value `bytes4(keccak256(\"onERC721Received(address,address,uint256,bytes)\"))`; otherwise, the transfer is reverted. Requires the msg.sender to be the owner, approved, or operator",
						"params": {
							"from": "current owner of the token",
							"to": "address to receive the ownership of the given token ID",
							"tokenId": "uint256 ID of the token to be transferred"
						}
					},
					"safeTransferFrom(address,address,uint256,bytes)": {
						"details": "Safely transfers the ownership of a given token ID to another address If the target address is a contract, it must implement {IERC721Receiver-onERC721Received}, which is called upon a safe transfer, and return the magic value `bytes4(keccak256(\"onERC721Received(address,address,uint256,bytes)\"))`; otherwise, the transfer is reverted. Requires the _msgSender() to be the owner, approved, or operator",
						"params": {
							"_data": "bytes data to send along with a safe transfer check",
							"from": "current owner of the token",
							"to": "address to receive the ownership of the given token ID",
							"tokenId": "uint256 ID of the token to be transferred"
						}
					},
					"setApprovalForAll(address,bool)": {
						"details": "Sets or unsets the approval of a given operator An operator is allowed to transfer all tokens of the sender on their behalf.",
						"params": {
							"approved": "representing the status of the approval to be set",
							"to": "operator address to set the approval"
						}
					},
					"supportsInterface(bytes4)": {
						"details": "See {IERC165-supportsInterface}.     * Time complexity O(1), guaranteed to always use less than 30 000 gas."
					},
					"tokenByIndex(uint256)": {
						"details": "Gets the token ID at a given index of all the tokens in this contract Reverts if the index is greater or equal to the total number of tokens.",
						"params": {
							"index": "uint256 representing the index to be accessed of the tokens list"
						},
						"return": "uint256 token ID at the given index of the tokens list"
					},
					"tokenOfOwnerByIndex(address,uint256)": {
						"details": "Gets the token ID at a given index of the tokens list of the requested owner.",
						"params": {
							"index": "uint256 representing the index to be accessed of the requested tokens list",
							"owner": "address owning the tokens list to be accessed"
						},
						"return": "uint256 token ID at the given index of the tokens list owned by the requested address"
					},
					"totalSupply()": {
						"details": "Gets the total amount of tokens stored by the contract.",
						"return": "uint256 representing the total amount of tokens"
					},
					"transferFrom(address,address,uint256)": {
						"details": "Transfers the ownership of a given token ID to another address. Usage of this method is discouraged, use {safeTransferFrom} whenever possible. Requires the msg.sender to be the owner, approved, or operator.",
						"params": {
							"from": "current owner of the token",
							"to": "address to receive the ownership of the given token ID",
							"tokenId": "uint256 ID of the token to be transferred"
						}
					}
				}
			},
			"evm": {
				"assembly": "    /* \"contracts/ClaConvertNFT.sol\":221:6326  contract ClaConvertNFT is ERC721Enumerable {\r... */\n  mstore(0x40, 0x80)\n    /* \"contracts/ClaConvertNFT.sol\":960:1002  0xCF87f94fD8F6B6f0b479771F10dF672f99eADa63 */\n  0xcf87f94fd8f6b6f0b479771f10df672f99eada63\n    /* \"contracts/ClaConvertNFT.sol\":1184:1237  IClaContract claContract = IClaContract(CLA_CONTRACT) */\n  0x0b\n  exp(0x0100, 0x00)\n  dup2\n  sload\n  dup2\n  0xffffffffffffffffffffffffffffffffffffffff\n  mul\n  not\n  and\n  swap1\n  dup4\n  0xffffffffffffffffffffffffffffffffffffffff\n  and\n  mul\n  or\n  swap1\n  sstore\n  pop\n    /* \"contracts/ClaConvertNFT.sol\":1045:1087  0x5F5dEC0d6402408eE81f52ab985a9C665b6e6010 */\n  0x5f5dec0d6402408ee81f52ab985a9c665b6e6010\n    /* \"contracts/ClaConvertNFT.sol\":1242:1283  IClsToken clsToken = IClsToken(CLS_TOKEN) */\n  0x0c\n  exp(0x0100, 0x00)\n  dup2\n  sload\n  dup2\n  0xffffffffffffffffffffffffffffffffffffffff\n  mul\n  not\n  and\n  swap1\n  dup4\n  0xffffffffffffffffffffffffffffffffffffffff\n  and\n  mul\n  or\n  swap1\n  sstore\n  pop\n    /* \"contracts/ClaConvertNFT.sol\":1135:1177  0xE9e1031eEAA5817E4706BE294c3Bb4681FDb2447 */\n  0xe9e1031eeaa5817e4706be294c3bb4681fdb2447\n    /* \"contracts/ClaConvertNFT.sol\":1288:1353  IClaDistributor claDistributor = IClaDistributor(CLA_DISTRIBUTOR) */\n  0x0d\n  exp(0x0100, 0x00)\n  dup2\n  sload\n  dup2\n  0xffffffffffffffffffffffffffffffffffffffff\n  mul\n  not\n  and\n  swap1\n  dup4\n  0xffffffffffffffffffffffffffffffffffffffff\n  and\n  mul\n  or\n  swap1\n  sstore\n  pop\n    /* \"contracts/ClaConvertNFT.sol\":269:315  constructor() ERC721Enumerable() public {\r... */\n  callvalue\n    /* \"--CODEGEN--\":8:17   */\n  dup1\n    /* \"--CODEGEN--\":5:7   */\n  iszero\n  tag_1\n  jumpi\n    /* \"--CODEGEN--\":30:31   */\n  0x00\n    /* \"--CODEGEN--\":27:28   */\n  dup1\n    /* \"--CODEGEN--\":20:32   */\n  revert\n    /* \"--CODEGEN--\":5:7   */\ntag_1:\n    /* \"contracts/ClaConvertNFT.sol\":269:315  constructor() ERC721Enumerable() public {\r... */\n  pop\n    /* \"@openzeppelin/contracts/introspection/ERC165.sol\":718:758  _registerInterface(_INTERFACE_ID_ERC165) */\n  tag_9\n    /* \"@openzeppelin/contracts/introspection/ERC165.sol\":385:395  0x01ffc9a7 */\n  0x01ffc9a7\n    /* \"@openzeppelin/contracts/introspection/ERC165.sol\":737:757  _INTERFACE_ID_ERC165 */\n  0xe0\n  shl\n    /* \"@openzeppelin/contracts/introspection/ERC165.sol\":718:736  _registerInterface */\n  shl(0x20, tag_10)\n    /* \"@openzeppelin/contracts/introspection/ERC165.sol\":718:758  _registerInterface(_INTERFACE_ID_ERC165) */\n  0x20\n  shr\n  jump\t// in\ntag_9:\n    /* \"@openzeppelin/contracts/token/ERC721/ERC721.sol\":2262:2302  _registerInterface(_INTERFACE_ID_ERC721) */\n  tag_12\n    /* \"@openzeppelin/contracts/token/ERC721/ERC721.sol\":2136:2146  0x80ac58cd */\n  0x80ac58cd\n    /* \"@openzeppelin/contracts/token/ERC721/ERC721.sol\":2281:2301  _INTERFACE_ID_ERC721 */\n  0xe0\n  shl\n    /* \"@openzeppelin/contracts/token/ERC721/ERC721.sol\":2262:2280  _registerInterface */\n  shl(0x20, tag_10)\n    /* \"@openzeppelin/contracts/token/ERC721/ERC721.sol\":2262:2302  _registerInterface(_INTERFACE_ID_ERC721) */\n  0x20\n  shr\n  jump\t// in\ntag_12:\n    /* \"@openzeppelin/contracts/token/ERC721/ERC721Enumerable.sol\":1357:1408  _registerInterface(_INTERFACE_ID_ERC721_ENUMERABLE) */\n  tag_14\n    /* \"@openzeppelin/contracts/token/ERC721/ERC721Enumerable.sol\":1172:1182  0x780e9d63 */\n  0x780e9d63\n    /* \"@openzeppelin/contracts/token/ERC721/ERC721Enumerable.sol\":1376:1407  _INTERFACE_ID_ERC721_ENUMERABLE */\n  0xe0\n  shl\n    /* \"@openzeppelin/contracts/token/ERC721/ERC721Enumerable.sol\":1357:1375  _registerInterface */\n  shl(0x20, tag_10)\n    /* \"@openzeppelin/contracts/token/ERC721/ERC721Enumerable.sol\":1357:1408  _registerInterface(_INTERFACE_ID_ERC721_ENUMERABLE) */\n  0x20\n  shr\n  jump\t// in\ntag_14:\n    /* \"contracts/ClaConvertNFT.sol\":221:6326  contract ClaConvertNFT is ERC721Enumerable {\r... */\n  jump(tag_16)\n    /* \"@openzeppelin/contracts/introspection/ERC165.sol\":1442:1632  function _registerInterface(bytes4 interfaceId) internal {... */\ntag_10:\n    /* \"@openzeppelin/contracts/introspection/ERC165.sol\":1532:1542  0xffffffff */\n  0xffffffff\n    /* \"@openzeppelin/contracts/introspection/ERC165.sol\":1517:1542  interfaceId != 0xffffffff */\n  0xe0\n  shl\n    /* \"@openzeppelin/contracts/introspection/ERC165.sol\":1517:1528  interfaceId */\n  dup2\n    /* \"@openzeppelin/contracts/introspection/ERC165.sol\":1517:1542  interfaceId != 0xffffffff */\n  not(0xffffffffffffffffffffffffffffffffffffffffffffffffffffffff)\n  and\n  eq\n  iszero\n    /* \"@openzeppelin/contracts/introspection/ERC165.sol\":1509:1575  require(interfaceId != 0xffffffff, \"ERC165: invalid interface id\") */\n  tag_18\n  jumpi\n  mload(0x40)\n  0x08c379a000000000000000000000000000000000000000000000000000000000\n  dup2\n  mstore\n  0x04\n  add\n  dup1\n  dup1\n  0x20\n  add\n  dup3\n  dup2\n  sub\n  dup3\n  mstore\n  0x1c\n  dup2\n  mstore\n  0x20\n  add\n  dup1\n  0x4552433136353a20696e76616c696420696e7465726661636520696400000000\n  dup2\n  mstore\n  pop\n  0x20\n  add\n  swap2\n  pop\n  pop\n  mload(0x40)\n  dup1\n  swap2\n  sub\n  swap1\n  revert\ntag_18:\n    /* \"@openzeppelin/contracts/introspection/ERC165.sol\":1621:1625  true */\n  0x01\n    /* \"@openzeppelin/contracts/introspection/ERC165.sol\":1585:1605  _supportedInterfaces */\n  0x00\n    /* \"@openzeppelin/contracts/introspection/ERC165.sol\":1585:1618  _supportedInterfaces[interfaceId] */\n  dup1\n    /* \"@openzeppelin/contracts/introspection/ERC165.sol\":1606:1617  interfaceId */\n  dup4\n    /* \"@openzeppelin/contracts/introspection/ERC165.sol\":1585:1618  _supportedInterfaces[interfaceId] */\n  not(0xffffffffffffffffffffffffffffffffffffffffffffffffffffffff)\n  and\n  not(0xffffffffffffffffffffffffffffffffffffffffffffffffffffffff)\n  and\n  dup2\n  mstore\n  0x20\n  add\n  swap1\n  dup2\n  mstore\n  0x20\n  add\n  0x00\n  keccak256\n  0x00\n    /* \"@openzeppelin/contracts/introspection/ERC165.sol\":1585:1625  _supportedInterfaces[interfaceId] = true */\n  0x0100\n  exp\n  dup2\n  sload\n  dup2\n  0xff\n  mul\n  not\n  and\n  swap1\n  dup4\n  iszero\n  iszero\n  mul\n  or\n  swap1\n  sstore\n  pop\n    /* \"@openzeppelin/contracts/introspection/ERC165.sol\":1442:1632  function _registerInterface(bytes4 interfaceId) internal {... */\n  pop\n  jump\t// out\n    /* \"contracts/ClaConvertNFT.sol\":221:6326  contract ClaConvertNFT is ERC721Enumerable {\r... */\ntag_16:\n  dataSize(sub_0)\n  dup1\n  dataOffset(sub_0)\n  0x00\n  codecopy\n  0x00\n  return\nstop\n\nsub_0: assembly {\n        /* \"contracts/ClaConvertNFT.sol\":221:6326  contract ClaConvertNFT is ERC721Enumerable {\r... */\n      mstore(0x40, 0x80)\n      callvalue\n        /* \"--CODEGEN--\":8:17   */\n      dup1\n        /* \"--CODEGEN--\":5:7   */\n      iszero\n      tag_1\n      jumpi\n        /* \"--CODEGEN--\":30:31   */\n      0x00\n        /* \"--CODEGEN--\":27:28   */\n      dup1\n        /* \"--CODEGEN--\":20:32   */\n      revert\n        /* \"--CODEGEN--\":5:7   */\n    tag_1:\n        /* \"contracts/ClaConvertNFT.sol\":221:6326  contract ClaConvertNFT is ERC721Enumerable {\r... */\n      pop\n      jumpi(tag_2, lt(calldatasize, 0x04))\n      shr(0xe0, calldataload(0x00))\n      dup1\n      0x6cd3e0eb\n      gt\n      tag_24\n      jumpi\n      dup1\n      0xb40e5cfb\n      gt\n      tag_25\n      jumpi\n      dup1\n      0xb40e5cfb\n      eq\n      tag_18\n      jumpi\n      dup1\n      0xb88d4fde\n      eq\n      tag_19\n      jumpi\n      dup1\n      0xe985e9c5\n      eq\n      tag_20\n      jumpi\n      dup1\n      0xfad27ffe\n      eq\n      tag_21\n      jumpi\n      dup1\n      0xfba2a1b2\n      eq\n      tag_22\n      jumpi\n      dup1\n      0xfc86bf15\n      eq\n      tag_23\n      jumpi\n      jump(tag_2)\n    tag_25:\n      dup1\n      0x6cd3e0eb\n      eq\n      tag_13\n      jumpi\n      dup1\n      0x70a08231\n      eq\n      tag_14\n      jumpi\n      dup1\n      0x9dc5d5ef\n      eq\n      tag_15\n      jumpi\n      dup1\n      0xa22cb465\n      eq\n      tag_16\n      jumpi\n      dup1\n      0xa56236e4\n      eq\n      tag_17\n      jumpi\n      jump(tag_2)\n    tag_24:\n      dup1\n      0x2f745c59\n      gt\n      tag_26\n      jumpi\n      dup1\n      0x2f745c59\n      eq\n      tag_8\n      jumpi\n      dup1\n      0x42842e0e\n      eq\n      tag_9\n      jumpi\n      dup1\n      0x42966c68\n      eq\n      tag_10\n      jumpi\n      dup1\n      0x4f6ccce7\n      eq\n      tag_11\n      jumpi\n      dup1\n      0x6352211e\n      eq\n      tag_12\n      jumpi\n      jump(tag_2)\n    tag_26:\n      dup1\n      0x01ffc9a7\n      eq\n      tag_3\n      jumpi\n      dup1\n      0x081812fc\n      eq\n      tag_4\n      jumpi\n      dup1\n      0x095ea7b3\n      eq\n      tag_5\n      jumpi\n      dup1\n      0x18160ddd\n      eq\n      tag_6\n      jumpi\n      dup1\n      0x23b872dd\n      eq\n      tag_7\n      jumpi\n    tag_2:\n      0x00\n      dup1\n      revert\n        /* \"@openzeppelin/contracts/introspection/ERC165.sol\":915:1048  function supportsInterface(bytes4 interfaceId) external view returns (bool) {... */\n    tag_3:\n      tag_27\n      0x04\n      dup1\n      calldatasize\n      sub\n        /* \"--CODEGEN--\":13:15   */\n      0x20\n        /* \"--CODEGEN--\":8:11   */\n      dup2\n        /* \"--CODEGEN--\":5:16   */\n      lt\n        /* \"--CODEGEN--\":2:4   */\n      iszero\n      tag_28\n      jumpi\n        /* \"--CODEGEN--\":29:30   */\n      0x00\n        /* \"--CODEGEN--\":26:27   */\n      dup1\n        /* \"--CODEGEN--\":19:31   */\n      revert\n        /* \"--CODEGEN--\":2:4   */\n    tag_28:\n        /* \"@openzeppelin/contracts/introspection/ERC165.sol\":915:1048  function supportsInterface(bytes4 interfaceId) external view returns (bool) {... */\n      dup2\n      add\n      swap1\n      dup1\n      dup1\n      calldataload\n      not(0xffffffffffffffffffffffffffffffffffffffffffffffffffffffff)\n      and\n      swap1\n      0x20\n      add\n      swap1\n      swap3\n      swap2\n      swap1\n      pop\n      pop\n      pop\n      tag_29\n      jump\t// in\n    tag_27:\n      mload(0x40)\n      dup1\n      dup3\n      iszero\n      iszero\n      iszero\n      iszero\n      dup2\n      mstore\n      0x20\n      add\n      swap2\n      pop\n      pop\n      mload(0x40)\n      dup1\n      swap2\n      sub\n      swap1\n      return\n        /* \"@openzeppelin/contracts/token/ERC721/ERC721.sol\":4283:4483  function getApproved(uint256 tokenId) public view returns (address) {... */\n    tag_4:\n      tag_30\n      0x04\n      dup1\n      calldatasize\n      sub\n        /* \"--CODEGEN--\":13:15   */\n      0x20\n        /* \"--CODEGEN--\":8:11   */\n      dup2\n        /* \"--CODEGEN--\":5:16   */\n      lt\n        /* \"--CODEGEN--\":2:4   */\n      iszero\n      tag_31\n      jumpi\n        /* \"--CODEGEN--\":29:30   */\n      0x00\n        /* \"--CODEGEN--\":26:27   */\n      dup1\n        /* \"--CODEGEN--\":19:31   */\n      revert\n        /* \"--CODEGEN--\":2:4   */\n    tag_31:\n        /* \"@openzeppelin/contracts/token/ERC721/ERC721.sol\":4283:4483  function getApproved(uint256 tokenId) public view returns (address) {... */\n      dup2\n      add\n      swap1\n      dup1\n      dup1\n      calldataload\n      swap1\n      0x20\n      add\n      swap1\n      swap3\n      swap2\n      swap1\n      pop\n      pop\n      pop\n      tag_32\n      jump\t// in\n    tag_30:\n      mload(0x40)\n      dup1\n      dup3\n      0xffffffffffffffffffffffffffffffffffffffff\n      and\n      0xffffffffffffffffffffffffffffffffffffffff\n      and\n      dup2\n      mstore\n      0x20\n      add\n      swap2\n      pop\n      pop\n      mload(0x40)\n      dup1\n      swap2\n      sub\n      swap1\n      return\n        /* \"@openzeppelin/contracts/token/ERC721/ERC721.sol\":3583:3998  function approve(address to, uint256 tokenId) public {... */\n    tag_5:\n      tag_33\n      0x04\n      dup1\n      calldatasize\n      sub\n        /* \"--CODEGEN--\":13:15   */\n      0x40\n        /* \"--CODEGEN--\":8:11   */\n      dup2\n        /* \"--CODEGEN--\":5:16   */\n      lt\n        /* \"--CODEGEN--\":2:4   */\n      iszero\n      tag_34\n      jumpi\n        /* \"--CODEGEN--\":29:30   */\n      0x00\n        /* \"--CODEGEN--\":26:27   */\n      dup1\n        /* \"--CODEGEN--\":19:31   */\n      revert\n        /* \"--CODEGEN--\":2:4   */\n    tag_34:\n        /* \"@openzeppelin/contracts/token/ERC721/ERC721.sol\":3583:3998  function approve(address to, uint256 tokenId) public {... */\n      dup2\n      add\n      swap1\n      dup1\n      dup1\n      calldataload\n      0xffffffffffffffffffffffffffffffffffffffff\n      and\n      swap1\n      0x20\n      add\n      swap1\n      swap3\n      swap2\n      swap1\n      dup1\n      calldataload\n      swap1\n      0x20\n      add\n      swap1\n      swap3\n      swap2\n      swap1\n      pop\n      pop\n      pop\n      tag_35\n      jump\t// in\n    tag_33:\n      stop\n        /* \"@openzeppelin/contracts/token/ERC721/ERC721Enumerable.sol\":2171:2265  function totalSupply() public view returns (uint256) {... */\n    tag_6:\n      tag_36\n      tag_37\n      jump\t// in\n    tag_36:\n      mload(0x40)\n      dup1\n      dup3\n      dup2\n      mstore\n      0x20\n      add\n      swap2\n      pop\n      pop\n      mload(0x40)\n      dup1\n      swap2\n      sub\n      swap1\n      return\n        /* \"@openzeppelin/contracts/token/ERC721/ERC721.sol\":5929:6216  function transferFrom(address from, address to, uint256 tokenId) public {... */\n    tag_7:\n      tag_38\n      0x04\n      dup1\n      calldatasize\n      sub\n        /* \"--CODEGEN--\":13:15   */\n      0x60\n        /* \"--CODEGEN--\":8:11   */\n      dup2\n        /* \"--CODEGEN--\":5:16   */\n      lt\n        /* \"--CODEGEN--\":2:4   */\n      iszero\n      tag_39\n      jumpi\n        /* \"--CODEGEN--\":29:30   */\n      0x00\n        /* \"--CODEGEN--\":26:27   */\n      dup1\n        /* \"--CODEGEN--\":19:31   */\n      revert\n        /* \"--CODEGEN--\":2:4   */\n    tag_39:\n        /* \"@openzeppelin/contracts/token/ERC721/ERC721.sol\":5929:6216  function transferFrom(address from, address to, uint256 tokenId) public {... */\n      dup2\n      add\n      swap1\n      dup1\n      dup1\n      calldataload\n      0xffffffffffffffffffffffffffffffffffffffff\n      and\n      swap1\n      0x20\n      add\n      swap1\n      swap3\n      swap2\n      swap1\n      dup1\n      calldataload\n      0xffffffffffffffffffffffffffffffffffffffff\n      and\n      swap1\n      0x20\n      add\n      swap1\n      swap3\n      swap2\n      swap1\n      dup1\n      calldataload\n      swap1\n      0x20\n      add\n      swap1\n      swap3\n      swap2\n      swap1\n      pop\n      pop\n      pop\n      tag_40\n      jump\t// in\n    tag_38:\n      stop\n        /* \"@openzeppelin/contracts/token/ERC721/ERC721Enumerable.sol\":1789:2018  function tokenOfOwnerByIndex(address owner, uint256 index) public view returns (uint256) {... */\n    tag_8:\n      tag_41\n      0x04\n      dup1\n      calldatasize\n      sub\n        /* \"--CODEGEN--\":13:15   */\n      0x40\n        /* \"--CODEGEN--\":8:11   */\n      dup2\n        /* \"--CODEGEN--\":5:16   */\n      lt\n        /* \"--CODEGEN--\":2:4   */\n      iszero\n      tag_42\n      jumpi\n        /* \"--CODEGEN--\":29:30   */\n      0x00\n        /* \"--CODEGEN--\":26:27   */\n      dup1\n        /* \"--CODEGEN--\":19:31   */\n      revert\n        /* \"--CODEGEN--\":2:4   */\n    tag_42:\n        /* \"@openzeppelin/contracts/token/ERC721/ERC721Enumerable.sol\":1789:2018  function tokenOfOwnerByIndex(address owner, uint256 index) public view returns (uint256) {... */\n      dup2\n      add\n      swap1\n      dup1\n      dup1\n      calldataload\n      0xffffffffffffffffffffffffffffffffffffffff\n      and\n      swap1\n      0x20\n      add\n      swap1\n      swap3\n      swap2\n      swap1\n      dup1\n      calldataload\n      swap1\n      0x20\n      add\n      swap1\n      swap3\n      swap2\n      swap1\n      pop\n      pop\n      pop\n      tag_43\n      jump\t// in\n    tag_41:\n      mload(0x40)\n      dup1\n      dup3\n      dup2\n      mstore\n      0x20\n      add\n      swap2\n      pop\n      pop\n      mload(0x40)\n      dup1\n      swap2\n      sub\n      swap1\n      return\n        /* \"@openzeppelin/contracts/token/ERC721/ERC721.sol\":6865:6997  function safeTransferFrom(address from, address to, uint256 tokenId) public {... */\n    tag_9:\n      tag_44\n      0x04\n      dup1\n      calldatasize\n      sub\n        /* \"--CODEGEN--\":13:15   */\n      0x60\n        /* \"--CODEGEN--\":8:11   */\n      dup2\n        /* \"--CODEGEN--\":5:16   */\n      lt\n        /* \"--CODEGEN--\":2:4   */\n      iszero\n      tag_45\n      jumpi\n        /* \"--CODEGEN--\":29:30   */\n      0x00\n        /* \"--CODEGEN--\":26:27   */\n      dup1\n        /* \"--CODEGEN--\":19:31   */\n      revert\n        /* \"--CODEGEN--\":2:4   */\n    tag_45:\n        /* \"@openzeppelin/contracts/token/ERC721/ERC721.sol\":6865:6997  function safeTransferFrom(address from, address to, uint256 tokenId) public {... */\n      dup2\n      add\n      swap1\n      dup1\n      dup1\n      calldataload\n      0xffffffffffffffffffffffffffffffffffffffff\n      and\n      swap1\n      0x20\n      add\n      swap1\n      swap3\n      swap2\n      swap1\n      dup1\n      calldataload\n      0xffffffffffffffffffffffffffffffffffffffff\n      and\n      swap1\n      0x20\n      add\n      swap1\n      swap3\n      swap2\n      swap1\n      dup1\n      calldataload\n      swap1\n      0x20\n      add\n      swap1\n      swap3\n      swap2\n      swap1\n      pop\n      pop\n      pop\n      tag_46\n      jump\t// in\n    tag_44:\n      stop\n        /* \"contracts/ClaConvertNFT.sol\":2188:2533  function burn(uint256 tokenId) public {\r... */\n    tag_10:\n      tag_47\n      0x04\n      dup1\n      calldatasize\n      sub\n        /* \"--CODEGEN--\":13:15   */\n      0x20\n        /* \"--CODEGEN--\":8:11   */\n      dup2\n        /* \"--CODEGEN--\":5:16   */\n      lt\n        /* \"--CODEGEN--\":2:4   */\n      iszero\n      tag_48\n      jumpi\n        /* \"--CODEGEN--\":29:30   */\n      0x00\n        /* \"--CODEGEN--\":26:27   */\n      dup1\n        /* \"--CODEGEN--\":19:31   */\n      revert\n        /* \"--CODEGEN--\":2:4   */\n    tag_48:\n        /* \"contracts/ClaConvertNFT.sol\":2188:2533  function burn(uint256 tokenId) public {\r... */\n      dup2\n      add\n      swap1\n      dup1\n      dup1\n      calldataload\n      swap1\n      0x20\n      add\n      swap1\n      swap3\n      swap2\n      swap1\n      pop\n      pop\n      pop\n      tag_49\n      jump\t// in\n    tag_47:\n      stop\n        /* \"@openzeppelin/contracts/token/ERC721/ERC721Enumerable.sol\":2603:2799  function tokenByIndex(uint256 index) public view returns (uint256) {... */\n    tag_11:\n      tag_50\n      0x04\n      dup1\n      calldatasize\n      sub\n        /* \"--CODEGEN--\":13:15   */\n      0x20\n        /* \"--CODEGEN--\":8:11   */\n      dup2\n        /* \"--CODEGEN--\":5:16   */\n      lt\n        /* \"--CODEGEN--\":2:4   */\n      iszero\n      tag_51\n      jumpi\n        /* \"--CODEGEN--\":29:30   */\n      0x00\n        /* \"--CODEGEN--\":26:27   */\n      dup1\n        /* \"--CODEGEN--\":19:31   */\n      revert\n        /* \"--CODEGEN--\":2:4   */\n    tag_51:\n        /* \"@openzeppelin/contracts/token/ERC721/ERC721Enumerable.sol\":2603:2799  function tokenByIndex(uint256 index) public view returns (uint256) {... */\n      dup2\n      add\n      swap1\n      dup1\n      dup1\n      calldataload\n      swap1\n      0x20\n      add\n      swap1\n      swap3\n      swap2\n      swap1\n      pop\n      pop\n      pop\n      tag_52\n      jump\t// in\n    tag_50:\n      mload(0x40)\n      dup1\n      dup3\n      dup2\n      mstore\n      0x20\n      add\n      swap2\n      pop\n      pop\n      mload(0x40)\n      dup1\n      swap2\n      sub\n      swap1\n      return\n        /* \"@openzeppelin/contracts/token/ERC721/ERC721.sol\":2939:3162  function ownerOf(uint256 tokenId) public view returns (address) {... */\n    tag_12:\n      tag_53\n      0x04\n      dup1\n      calldatasize\n      sub\n        /* \"--CODEGEN--\":13:15   */\n      0x20\n        /* \"--CODEGEN--\":8:11   */\n      dup2\n        /* \"--CODEGEN--\":5:16   */\n      lt\n        /* \"--CODEGEN--\":2:4   */\n      iszero\n      tag_54\n      jumpi\n        /* \"--CODEGEN--\":29:30   */\n      0x00\n        /* \"--CODEGEN--\":26:27   */\n      dup1\n        /* \"--CODEGEN--\":19:31   */\n      revert\n        /* \"--CODEGEN--\":2:4   */\n    tag_54:\n        /* \"@openzeppelin/contracts/token/ERC721/ERC721.sol\":2939:3162  function ownerOf(uint256 tokenId) public view returns (address) {... */\n      dup2\n      add\n      swap1\n      dup1\n      dup1\n      calldataload\n      swap1\n      0x20\n      add\n      swap1\n      swap3\n      swap2\n      swap1\n      pop\n      pop\n      pop\n      tag_55\n      jump\t// in\n    tag_53:\n      mload(0x40)\n      dup1\n      dup3\n      0xffffffffffffffffffffffffffffffffffffffff\n      and\n      0xffffffffffffffffffffffffffffffffffffffff\n      and\n      dup2\n      mstore\n      0x20\n      add\n      swap2\n      pop\n      pop\n      mload(0x40)\n      dup1\n      swap2\n      sub\n      swap1\n      return\n        /* \"contracts/ClaConvertNFT.sol\":386:422  mapping (uint256 => CCT) public ccts */\n    tag_13:\n      tag_56\n      0x04\n      dup1\n      calldatasize\n      sub\n        /* \"--CODEGEN--\":13:15   */\n      0x20\n        /* \"--CODEGEN--\":8:11   */\n      dup2\n        /* \"--CODEGEN--\":5:16   */\n      lt\n        /* \"--CODEGEN--\":2:4   */\n      iszero\n      tag_57\n      jumpi\n        /* \"--CODEGEN--\":29:30   */\n      0x00\n        /* \"--CODEGEN--\":26:27   */\n      dup1\n        /* \"--CODEGEN--\":19:31   */\n      revert\n        /* \"--CODEGEN--\":2:4   */\n    tag_57:\n        /* \"contracts/ClaConvertNFT.sol\":386:422  mapping (uint256 => CCT) public ccts */\n      dup2\n      add\n      swap1\n      dup1\n      dup1\n      calldataload\n      swap1\n      0x20\n      add\n      swap1\n      swap3\n      swap2\n      swap1\n      pop\n      pop\n      pop\n      tag_58\n      jump\t// in\n    tag_56:\n      mload(0x40)\n      dup1\n      dup4\n      dup2\n      mstore\n      0x20\n      add\n      dup3\n      0xffffffff\n      and\n      0xffffffff\n      and\n      dup2\n      mstore\n      0x20\n      add\n      swap3\n      pop\n      pop\n      pop\n      mload(0x40)\n      dup1\n      swap2\n      sub\n      swap1\n      return\n        /* \"@openzeppelin/contracts/token/ERC721/ERC721.sol\":2513:2720  function balanceOf(address owner) public view returns (uint256) {... */\n    tag_14:\n      tag_59\n      0x04\n      dup1\n      calldatasize\n      sub\n        /* \"--CODEGEN--\":13:15   */\n      0x20\n        /* \"--CODEGEN--\":8:11   */\n      dup2\n        /* \"--CODEGEN--\":5:16   */\n      lt\n        /* \"--CODEGEN--\":2:4   */\n      iszero\n      tag_60\n      jumpi\n        /* \"--CODEGEN--\":29:30   */\n      0x00\n        /* \"--CODEGEN--\":26:27   */\n      dup1\n        /* \"--CODEGEN--\":19:31   */\n      revert\n        /* \"--CODEGEN--\":2:4   */\n    tag_60:\n        /* \"@openzeppelin/contracts/token/ERC721/ERC721.sol\":2513:2720  function balanceOf(address owner) public view returns (uint256) {... */\n      dup2\n      add\n      swap1\n      dup1\n      dup1\n      calldataload\n      0xffffffffffffffffffffffffffffffffffffffff\n      and\n      swap1\n      0x20\n      add\n      swap1\n      swap3\n      swap2\n      swap1\n      pop\n      pop\n      pop\n      tag_61\n      jump\t// in\n    tag_59:\n      mload(0x40)\n      dup1\n      dup3\n      dup2\n      mstore\n      0x20\n      add\n      swap2\n      pop\n      pop\n      mload(0x40)\n      dup1\n      swap2\n      sub\n      swap1\n      return\n        /* \"contracts/ClaConvertNFT.sol\":4639:4758  function claBalanceOf(address account) public view returns (uint256) {\r... */\n    tag_15:\n      tag_62\n      0x04\n      dup1\n      calldatasize\n      sub\n        /* \"--CODEGEN--\":13:15   */\n      0x20\n        /* \"--CODEGEN--\":8:11   */\n      dup2\n        /* \"--CODEGEN--\":5:16   */\n      lt\n        /* \"--CODEGEN--\":2:4   */\n      iszero\n      tag_63\n      jumpi\n        /* \"--CODEGEN--\":29:30   */\n      0x00\n        /* \"--CODEGEN--\":26:27   */\n      dup1\n        /* \"--CODEGEN--\":19:31   */\n      revert\n        /* \"--CODEGEN--\":2:4   */\n    tag_63:\n        /* \"contracts/ClaConvertNFT.sol\":4639:4758  function claBalanceOf(address account) public view returns (uint256) {\r... */\n      dup2\n      add\n      swap1\n      dup1\n      dup1\n      calldataload\n      0xffffffffffffffffffffffffffffffffffffffff\n      and\n      swap1\n      0x20\n      add\n      swap1\n      swap3\n      swap2\n      swap1\n      pop\n      pop\n      pop\n      tag_64\n      jump\t// in\n    tag_62:\n      mload(0x40)\n      dup1\n      dup3\n      dup2\n      mstore\n      0x20\n      add\n      swap2\n      pop\n      pop\n      mload(0x40)\n      dup1\n      swap2\n      sub\n      swap1\n      return\n        /* \"@openzeppelin/contracts/token/ERC721/ERC721.sol\":4776:5025  function setApprovalForAll(address to, bool approved) public {... */\n    tag_16:\n      tag_65\n      0x04\n      dup1\n      calldatasize\n      sub\n        /* \"--CODEGEN--\":13:15   */\n      0x40\n        /* \"--CODEGEN--\":8:11   */\n      dup2\n        /* \"--CODEGEN--\":5:16   */\n      lt\n        /* \"--CODEGEN--\":2:4   */\n      iszero\n      tag_66\n      jumpi\n        /* \"--CODEGEN--\":29:30   */\n      0x00\n        /* \"--CODEGEN--\":26:27   */\n      dup1\n        /* \"--CODEGEN--\":19:31   */\n      revert\n        /* \"--CODEGEN--\":2:4   */\n    tag_66:\n        /* \"@openzeppelin/contracts/token/ERC721/ERC721.sol\":4776:5025  function setApprovalForAll(address to, bool approved) public {... */\n      dup2\n      add\n      swap1\n      dup1\n      dup1\n      calldataload\n      0xffffffffffffffffffffffffffffffffffffffff\n      and\n      swap1\n      0x20\n      add\n      swap1\n      swap3\n      swap2\n      swap1\n      dup1\n      calldataload\n      iszero\n      iszero\n      swap1\n      0x20\n      add\n      swap1\n      swap3\n      swap2\n      swap1\n      pop\n      pop\n      pop\n      tag_67\n      jump\t// in\n    tag_65:\n      stop\n        /* \"contracts/ClaConvertNFT.sol\":5246:5651  function convertClaToCct(uint amount) public {\r... */\n    tag_17:\n      tag_68\n      0x04\n      dup1\n      calldatasize\n      sub\n        /* \"--CODEGEN--\":13:15   */\n      0x20\n        /* \"--CODEGEN--\":8:11   */\n      dup2\n        /* \"--CODEGEN--\":5:16   */\n      lt\n        /* \"--CODEGEN--\":2:4   */\n      iszero\n      tag_69\n      jumpi\n        /* \"--CODEGEN--\":29:30   */\n      0x00\n        /* \"--CODEGEN--\":26:27   */\n      dup1\n        /* \"--CODEGEN--\":19:31   */\n      revert\n        /* \"--CODEGEN--\":2:4   */\n    tag_69:\n        /* \"contracts/ClaConvertNFT.sol\":5246:5651  function convertClaToCct(uint amount) public {\r... */\n      dup2\n      add\n      swap1\n      dup1\n      dup1\n      calldataload\n      swap1\n      0x20\n      add\n      swap1\n      swap3\n      swap2\n      swap1\n      pop\n      pop\n      pop\n      tag_70\n      jump\t// in\n    tag_68:\n      stop\n        /* \"contracts/ClaConvertNFT.sol\":3166:3630  function totalAccumulatedRewardCla(address owner) public view returns (uint256) {\r... */\n    tag_18:\n      tag_71\n      0x04\n      dup1\n      calldatasize\n      sub\n        /* \"--CODEGEN--\":13:15   */\n      0x20\n        /* \"--CODEGEN--\":8:11   */\n      dup2\n        /* \"--CODEGEN--\":5:16   */\n      lt\n        /* \"--CODEGEN--\":2:4   */\n      iszero\n      tag_72\n      jumpi\n        /* \"--CODEGEN--\":29:30   */\n      0x00\n        /* \"--CODEGEN--\":26:27   */\n      dup1\n        /* \"--CODEGEN--\":19:31   */\n      revert\n        /* \"--CODEGEN--\":2:4   */\n    tag_72:\n        /* \"contracts/ClaConvertNFT.sol\":3166:3630  function totalAccumulatedRewardCla(address owner) public view returns (uint256) {\r... */\n      dup2\n      add\n      swap1\n      dup1\n      dup1\n      calldataload\n      0xffffffffffffffffffffffffffffffffffffffff\n      and\n      swap1\n      0x20\n      add\n      swap1\n      swap3\n      swap2\n      swap1\n      pop\n      pop\n      pop\n      tag_73\n      jump\t// in\n    tag_71:\n      mload(0x40)\n      dup1\n      dup3\n      dup2\n      mstore\n      0x20\n      add\n      swap2\n      pop\n      pop\n      mload(0x40)\n      dup1\n      swap2\n      sub\n      swap1\n      return\n        /* \"@openzeppelin/contracts/token/ERC721/ERC721.sol\":7720:7989  function safeTransferFrom(address from, address to, uint256 tokenId, bytes memory _data) public {... */\n    tag_19:\n      tag_74\n      0x04\n      dup1\n      calldatasize\n      sub\n        /* \"--CODEGEN--\":13:16   */\n      0x80\n        /* \"--CODEGEN--\":8:11   */\n      dup2\n        /* \"--CODEGEN--\":5:17   */\n      lt\n        /* \"--CODEGEN--\":2:4   */\n      iszero\n      tag_75\n      jumpi\n        /* \"--CODEGEN--\":30:31   */\n      0x00\n        /* \"--CODEGEN--\":27:28   */\n      dup1\n        /* \"--CODEGEN--\":20:32   */\n      revert\n        /* \"--CODEGEN--\":2:4   */\n    tag_75:\n        /* \"@openzeppelin/contracts/token/ERC721/ERC721.sol\":7720:7989  function safeTransferFrom(address from, address to, uint256 tokenId, bytes memory _data) public {... */\n      dup2\n      add\n      swap1\n      dup1\n      dup1\n      calldataload\n      0xffffffffffffffffffffffffffffffffffffffff\n      and\n      swap1\n      0x20\n      add\n      swap1\n      swap3\n      swap2\n      swap1\n      dup1\n      calldataload\n      0xffffffffffffffffffffffffffffffffffffffff\n      and\n      swap1\n      0x20\n      add\n      swap1\n      swap3\n      swap2\n      swap1\n      dup1\n      calldataload\n      swap1\n      0x20\n      add\n      swap1\n      swap3\n      swap2\n      swap1\n      dup1\n      calldataload\n      swap1\n      0x20\n      add\n      swap1\n        /* \"--CODEGEN--\":21:32   */\n      0x0100000000\n        /* \"--CODEGEN--\":8:19   */\n      dup2\n        /* \"--CODEGEN--\":5:33   */\n      gt\n        /* \"--CODEGEN--\":2:4   */\n      iszero\n      tag_76\n      jumpi\n        /* \"--CODEGEN--\":46:47   */\n      0x00\n        /* \"--CODEGEN--\":43:44   */\n      dup1\n        /* \"--CODEGEN--\":36:48   */\n      revert\n        /* \"--CODEGEN--\":2:4   */\n    tag_76:\n        /* \"@openzeppelin/contracts/token/ERC721/ERC721.sol\":7720:7989  function safeTransferFrom(address from, address to, uint256 tokenId, bytes memory _data) public {... */\n      dup3\n      add\n        /* \"--CODEGEN--\":35:44   */\n      dup4\n        /* \"--CODEGEN--\":28:32   */\n      0x20\n        /* \"--CODEGEN--\":12:26   */\n      dup3\n        /* \"--CODEGEN--\":8:33   */\n      add\n        /* \"--CODEGEN--\":5:45   */\n      gt\n        /* \"--CODEGEN--\":2:4   */\n      iszero\n      tag_77\n      jumpi\n        /* \"--CODEGEN--\":58:59   */\n      0x00\n        /* \"--CODEGEN--\":55:56   */\n      dup1\n        /* \"--CODEGEN--\":48:60   */\n      revert\n        /* \"--CODEGEN--\":2:4   */\n    tag_77:\n        /* \"@openzeppelin/contracts/token/ERC721/ERC721.sol\":7720:7989  function safeTransferFrom(address from, address to, uint256 tokenId, bytes memory _data) public {... */\n      dup1\n      calldataload\n      swap1\n      0x20\n      add\n      swap2\n        /* \"--CODEGEN--\":100:109   */\n      dup5\n        /* \"--CODEGEN--\":95:96   */\n      0x01\n        /* \"--CODEGEN--\":81:93   */\n      dup4\n        /* \"--CODEGEN--\":77:97   */\n      mul\n        /* \"--CODEGEN--\":67:75   */\n      dup5\n        /* \"--CODEGEN--\":63:98   */\n      add\n        /* \"--CODEGEN--\":60:110   */\n      gt\n        /* \"--CODEGEN--\":39:50   */\n      0x0100000000\n        /* \"--CODEGEN--\":25:37   */\n      dup4\n        /* \"--CODEGEN--\":22:51   */\n      gt\n        /* \"--CODEGEN--\":11:118   */\n      or\n        /* \"--CODEGEN--\":8:10   */\n      iszero\n      tag_78\n      jumpi\n        /* \"--CODEGEN--\":131:132   */\n      0x00\n        /* \"--CODEGEN--\":128:129   */\n      dup1\n        /* \"--CODEGEN--\":121:133   */\n      revert\n        /* \"--CODEGEN--\":8:10   */\n    tag_78:\n        /* \"@openzeppelin/contracts/token/ERC721/ERC721.sol\":7720:7989  function safeTransferFrom(address from, address to, uint256 tokenId, bytes memory _data) public {... */\n      swap2\n      swap1\n      dup1\n      dup1\n      0x1f\n      add\n      0x20\n      dup1\n      swap2\n      div\n      mul\n      0x20\n      add\n      mload(0x40)\n      swap1\n      dup2\n      add\n      0x40\n      mstore\n      dup1\n      swap4\n      swap3\n      swap2\n      swap1\n      dup2\n      dup2\n      mstore\n      0x20\n      add\n      dup4\n      dup4\n        /* \"--CODEGEN--\":30:33   */\n      dup1\n        /* \"--CODEGEN--\":22:28   */\n      dup3\n        /* \"--CODEGEN--\":14:20   */\n      dup5\n        /* \"--CODEGEN--\":1:34   */\n      calldatacopy\n        /* \"--CODEGEN--\":99:100   */\n      0x00\n        /* \"--CODEGEN--\":93:96   */\n      dup2\n        /* \"--CODEGEN--\":85:91   */\n      dup5\n        /* \"--CODEGEN--\":81:97   */\n      add\n        /* \"--CODEGEN--\":74:101   */\n      mstore\n        /* \"--CODEGEN--\":137:141   */\n      0x1f\n        /* \"--CODEGEN--\":133:142   */\n      not\n        /* \"--CODEGEN--\":126:130   */\n      0x1f\n        /* \"--CODEGEN--\":121:124   */\n      dup3\n        /* \"--CODEGEN--\":117:131   */\n      add\n        /* \"--CODEGEN--\":113:143   */\n      and\n        /* \"--CODEGEN--\":106:143   */\n      swap1\n      pop\n        /* \"--CODEGEN--\":169:172   */\n      dup1\n        /* \"--CODEGEN--\":161:167   */\n      dup4\n        /* \"--CODEGEN--\":157:173   */\n      add\n        /* \"--CODEGEN--\":147:173   */\n      swap3\n      pop\n        /* \"@openzeppelin/contracts/token/ERC721/ERC721.sol\":7720:7989  function safeTransferFrom(address from, address to, uint256 tokenId, bytes memory _data) public {... */\n      pop\n      pop\n      pop\n      pop\n      pop\n      pop\n      swap2\n      swap3\n      swap2\n      swap3\n      swap1\n      pop\n      pop\n      pop\n      tag_79\n      jump\t// in\n    tag_74:\n      stop\n        /* \"@openzeppelin/contracts/token/ERC721/ERC721.sol\":5347:5492  function isApprovedForAll(address owner, address operator) public view returns (bool) {... */\n    tag_20:\n      tag_80\n      0x04\n      dup1\n      calldatasize\n      sub\n        /* \"--CODEGEN--\":13:15   */\n      0x40\n        /* \"--CODEGEN--\":8:11   */\n      dup2\n        /* \"--CODEGEN--\":5:16   */\n      lt\n        /* \"--CODEGEN--\":2:4   */\n      iszero\n      tag_81\n      jumpi\n        /* \"--CODEGEN--\":29:30   */\n      0x00\n        /* \"--CODEGEN--\":26:27   */\n      dup1\n        /* \"--CODEGEN--\":19:31   */\n      revert\n        /* \"--CODEGEN--\":2:4   */\n    tag_81:\n        /* \"@openzeppelin/contracts/token/ERC721/ERC721.sol\":5347:5492  function isApprovedForAll(address owner, address operator) public view returns (bool) {... */\n      dup2\n      add\n      swap1\n      dup1\n      dup1\n      calldataload\n      0xffffffffffffffffffffffffffffffffffffffff\n      and\n      swap1\n      0x20\n      add\n      swap1\n      swap3\n      swap2\n      swap1\n      dup1\n      calldataload\n      0xffffffffffffffffffffffffffffffffffffffff\n      and\n      swap1\n      0x20\n      add\n      swap1\n      swap3\n      swap2\n      swap1\n      pop\n      pop\n      pop\n      tag_82\n      jump\t// in\n    tag_80:\n      mload(0x40)\n      dup1\n      dup3\n      iszero\n      iszero\n      iszero\n      iszero\n      dup2\n      mstore\n      0x20\n      add\n      swap2\n      pop\n      pop\n      mload(0x40)\n      dup1\n      swap2\n      sub\n      swap1\n      return\n        /* \"contracts/ClaConvertNFT.sol\":4818:5109  function approveCla(uint256 amount) public returns (bool) {\r... */\n    tag_21:\n      tag_83\n      0x04\n      dup1\n      calldatasize\n      sub\n        /* \"--CODEGEN--\":13:15   */\n      0x20\n        /* \"--CODEGEN--\":8:11   */\n      dup2\n        /* \"--CODEGEN--\":5:16   */\n      lt\n        /* \"--CODEGEN--\":2:4   */\n      iszero\n      tag_84\n      jumpi\n        /* \"--CODEGEN--\":29:30   */\n      0x00\n        /* \"--CODEGEN--\":26:27   */\n      dup1\n        /* \"--CODEGEN--\":19:31   */\n      revert\n        /* \"--CODEGEN--\":2:4   */\n    tag_84:\n        /* \"contracts/ClaConvertNFT.sol\":4818:5109  function approveCla(uint256 amount) public returns (bool) {\r... */\n      dup2\n      add\n      swap1\n      dup1\n      dup1\n      calldataload\n      swap1\n      0x20\n      add\n      swap1\n      swap3\n      swap2\n      swap1\n      pop\n      pop\n      pop\n      tag_85\n      jump\t// in\n    tag_83:\n      mload(0x40)\n      dup1\n      dup3\n      iszero\n      iszero\n      iszero\n      iszero\n      dup2\n      mstore\n      0x20\n      add\n      swap2\n      pop\n      pop\n      mload(0x40)\n      dup1\n      swap2\n      sub\n      swap1\n      return\n        /* \"contracts/ClaConvertNFT.sol\":2849:3089  function accumulatedRewardCla(uint tokenId) public view returns (uint256) {\r... */\n    tag_22:\n      tag_86\n      0x04\n      dup1\n      calldatasize\n      sub\n        /* \"--CODEGEN--\":13:15   */\n      0x20\n        /* \"--CODEGEN--\":8:11   */\n      dup2\n        /* \"--CODEGEN--\":5:16   */\n      lt\n        /* \"--CODEGEN--\":2:4   */\n      iszero\n      tag_87\n      jumpi\n        /* \"--CODEGEN--\":29:30   */\n      0x00\n        /* \"--CODEGEN--\":26:27   */\n      dup1\n        /* \"--CODEGEN--\":19:31   */\n      revert\n        /* \"--CODEGEN--\":2:4   */\n    tag_87:\n        /* \"contracts/ClaConvertNFT.sol\":2849:3089  function accumulatedRewardCla(uint tokenId) public view returns (uint256) {\r... */\n      dup2\n      add\n      swap1\n      dup1\n      dup1\n      calldataload\n      swap1\n      0x20\n      add\n      swap1\n      swap3\n      swap2\n      swap1\n      pop\n      pop\n      pop\n      tag_88\n      jump\t// in\n    tag_86:\n      mload(0x40)\n      dup1\n      dup3\n      dup2\n      mstore\n      0x20\n      add\n      swap2\n      pop\n      pop\n      mload(0x40)\n      dup1\n      swap2\n      sub\n      swap1\n      return\n        /* \"contracts/ClaConvertNFT.sol\":5843:6170  function claimClaReward(uint256 tokenId) public {\r... */\n    tag_23:\n      tag_89\n      0x04\n      dup1\n      calldatasize\n      sub\n        /* \"--CODEGEN--\":13:15   */\n      0x20\n        /* \"--CODEGEN--\":8:11   */\n      dup2\n        /* \"--CODEGEN--\":5:16   */\n      lt\n        /* \"--CODEGEN--\":2:4   */\n      iszero\n      tag_90\n      jumpi\n        /* \"--CODEGEN--\":29:30   */\n      0x00\n        /* \"--CODEGEN--\":26:27   */\n      dup1\n        /* \"--CODEGEN--\":19:31   */\n      revert\n        /* \"--CODEGEN--\":2:4   */\n    tag_90:\n        /* \"contracts/ClaConvertNFT.sol\":5843:6170  function claimClaReward(uint256 tokenId) public {\r... */\n      dup2\n      add\n      swap1\n      dup1\n      dup1\n      calldataload\n      swap1\n      0x20\n      add\n      swap1\n      swap3\n      swap2\n      swap1\n      pop\n      pop\n      pop\n      tag_91\n      jump\t// in\n    tag_89:\n      stop\n        /* \"@openzeppelin/contracts/introspection/ERC165.sol\":915:1048  function supportsInterface(bytes4 interfaceId) external view returns (bool) {... */\n    tag_29:\n        /* \"@openzeppelin/contracts/introspection/ERC165.sol\":985:989  bool */\n      0x00\n        /* \"@openzeppelin/contracts/introspection/ERC165.sol\":1008:1028  _supportedInterfaces */\n      dup1\n        /* \"@openzeppelin/contracts/introspection/ERC165.sol\":1008:1041  _supportedInterfaces[interfaceId] */\n      0x00\n        /* \"@openzeppelin/contracts/introspection/ERC165.sol\":1029:1040  interfaceId */\n      dup4\n        /* \"@openzeppelin/contracts/introspection/ERC165.sol\":1008:1041  _supportedInterfaces[interfaceId] */\n      not(0xffffffffffffffffffffffffffffffffffffffffffffffffffffffff)\n      and\n      not(0xffffffffffffffffffffffffffffffffffffffffffffffffffffffff)\n      and\n      dup2\n      mstore\n      0x20\n      add\n      swap1\n      dup2\n      mstore\n      0x20\n      add\n      0x00\n      keccak256\n      0x00\n      swap1\n      sload\n      swap1\n      0x0100\n      exp\n      swap1\n      div\n      0xff\n      and\n        /* \"@openzeppelin/contracts/introspection/ERC165.sol\":1001:1041  return _supportedInterfaces[interfaceId] */\n      swap1\n      pop\n        /* \"@openzeppelin/contracts/introspection/ERC165.sol\":915:1048  function supportsInterface(bytes4 interfaceId) external view returns (bool) {... */\n      swap2\n      swap1\n      pop\n      jump\t// out\n        /* \"@openzeppelin/contracts/token/ERC721/ERC721.sol\":4283:4483  function getApproved(uint256 tokenId) public view returns (address) {... */\n    tag_32:\n        /* \"@openzeppelin/contracts/token/ERC721/ERC721.sol\":4342:4349  address */\n      0x00\n        /* \"@openzeppelin/contracts/token/ERC721/ERC721.sol\":4369:4385  _exists(tokenId) */\n      tag_94\n        /* \"@openzeppelin/contracts/token/ERC721/ERC721.sol\":4377:4384  tokenId */\n      dup3\n        /* \"@openzeppelin/contracts/token/ERC721/ERC721.sol\":4369:4376  _exists */\n      tag_95\n        /* \"@openzeppelin/contracts/token/ERC721/ERC721.sol\":4369:4385  _exists(tokenId) */\n      jump\t// in\n    tag_94:\n        /* \"@openzeppelin/contracts/token/ERC721/ERC721.sol\":4361:4434  require(_exists(tokenId), \"ERC721: approved query for nonexistent token\") */\n      tag_96\n      jumpi\n      mload(0x40)\n      0x08c379a000000000000000000000000000000000000000000000000000000000\n      dup2\n      mstore\n      0x04\n      add\n      dup1\n      dup1\n      0x20\n      add\n      dup3\n      dup2\n      sub\n      dup3\n      mstore\n      0x2c\n      dup2\n      mstore\n      0x20\n      add\n      dup1\n      data_9291e0f44949204f2e9b40e6be090924979d6047b2365868f4e9f027722eb89d\n      0x2c\n      swap2\n      codecopy\n      0x40\n      add\n      swap2\n      pop\n      pop\n      mload(0x40)\n      dup1\n      swap2\n      sub\n      swap1\n      revert\n    tag_96:\n        /* \"@openzeppelin/contracts/token/ERC721/ERC721.sol\":4452:4467  _tokenApprovals */\n      0x02\n        /* \"@openzeppelin/contracts/token/ERC721/ERC721.sol\":4452:4476  _tokenApprovals[tokenId] */\n      0x00\n        /* \"@openzeppelin/contracts/token/ERC721/ERC721.sol\":4468:4475  tokenId */\n      dup4\n        /* \"@openzeppelin/contracts/token/ERC721/ERC721.sol\":4452:4476  _tokenApprovals[tokenId] */\n      dup2\n      mstore\n      0x20\n      add\n      swap1\n      dup2\n      mstore\n      0x20\n      add\n      0x00\n      keccak256\n      0x00\n      swap1\n      sload\n      swap1\n      0x0100\n      exp\n      swap1\n      div\n      0xffffffffffffffffffffffffffffffffffffffff\n      and\n        /* \"@openzeppelin/contracts/token/ERC721/ERC721.sol\":4445:4476  return _tokenApprovals[tokenId] */\n      swap1\n      pop\n        /* \"@openzeppelin/contracts/token/ERC721/ERC721.sol\":4283:4483  function getApproved(uint256 tokenId) public view returns (address) {... */\n      swap2\n      swap1\n      pop\n      jump\t// out\n        /* \"@openzeppelin/contracts/token/ERC721/ERC721.sol\":3583:3998  function approve(address to, uint256 tokenId) public {... */\n    tag_35:\n        /* \"@openzeppelin/contracts/token/ERC721/ERC721.sol\":3646:3659  address owner */\n      0x00\n        /* \"@openzeppelin/contracts/token/ERC721/ERC721.sol\":3662:3678  ownerOf(tokenId) */\n      tag_98\n        /* \"@openzeppelin/contracts/token/ERC721/ERC721.sol\":3670:3677  tokenId */\n      dup3\n        /* \"@openzeppelin/contracts/token/ERC721/ERC721.sol\":3662:3669  ownerOf */\n      tag_55\n        /* \"@openzeppelin/contracts/token/ERC721/ERC721.sol\":3662:3678  ownerOf(tokenId) */\n      jump\t// in\n    tag_98:\n        /* \"@openzeppelin/contracts/token/ERC721/ERC721.sol\":3646:3678  address owner = ownerOf(tokenId) */\n      swap1\n      pop\n        /* \"@openzeppelin/contracts/token/ERC721/ERC721.sol\":3702:3707  owner */\n      dup1\n        /* \"@openzeppelin/contracts/token/ERC721/ERC721.sol\":3696:3707  to != owner */\n      0xffffffffffffffffffffffffffffffffffffffff\n      and\n        /* \"@openzeppelin/contracts/token/ERC721/ERC721.sol\":3696:3698  to */\n      dup4\n        /* \"@openzeppelin/contracts/token/ERC721/ERC721.sol\":3696:3707  to != owner */\n      0xffffffffffffffffffffffffffffffffffffffff\n      and\n      eq\n      iszero\n        /* \"@openzeppelin/contracts/token/ERC721/ERC721.sol\":3688:3745  require(to != owner, \"ERC721: approval to current owner\") */\n      tag_99\n      jumpi\n      mload(0x40)\n      0x08c379a000000000000000000000000000000000000000000000000000000000\n      dup2\n      mstore\n      0x04\n      add\n      dup1\n      dup1\n      0x20\n      add\n      dup3\n      dup2\n      sub\n      dup3\n      mstore\n      0x21\n      dup2\n      mstore\n      0x20\n      add\n      dup1\n      data_b51b4875eede07862961e8f9365c6749f5fe55c6ee5d7a9e42b6912ad0b15942\n      0x21\n      swap2\n      codecopy\n      0x40\n      add\n      swap2\n      pop\n      pop\n      mload(0x40)\n      dup1\n      swap2\n      sub\n      swap1\n      revert\n    tag_99:\n        /* \"@openzeppelin/contracts/token/ERC721/ERC721.sol\":3780:3785  owner */\n      dup1\n        /* \"@openzeppelin/contracts/token/ERC721/ERC721.sol\":3764:3785  _msgSender() == owner */\n      0xffffffffffffffffffffffffffffffffffffffff\n      and\n        /* \"@openzeppelin/contracts/token/ERC721/ERC721.sol\":3764:3776  _msgSender() */\n      tag_100\n        /* \"@openzeppelin/contracts/token/ERC721/ERC721.sol\":3764:3774  _msgSender */\n      tag_101\n        /* \"@openzeppelin/contracts/token/ERC721/ERC721.sol\":3764:3776  _msgSender() */\n      jump\t// in\n    tag_100:\n        /* \"@openzeppelin/contracts/token/ERC721/ERC721.sol\":3764:3785  _msgSender() == owner */\n      0xffffffffffffffffffffffffffffffffffffffff\n      and\n      eq\n        /* \"@openzeppelin/contracts/token/ERC721/ERC721.sol\":3764:3826  _msgSender() == owner || isApprovedForAll(owner, _msgSender()) */\n      dup1\n      tag_102\n      jumpi\n      pop\n        /* \"@openzeppelin/contracts/token/ERC721/ERC721.sol\":3789:3826  isApprovedForAll(owner, _msgSender()) */\n      tag_103\n        /* \"@openzeppelin/contracts/token/ERC721/ERC721.sol\":3806:3811  owner */\n      dup2\n        /* \"@openzeppelin/contracts/token/ERC721/ERC721.sol\":3813:3825  _msgSender() */\n      tag_104\n        /* \"@openzeppelin/contracts/token/ERC721/ERC721.sol\":3813:3823  _msgSender */\n      tag_101\n        /* \"@openzeppelin/contracts/token/ERC721/ERC721.sol\":3813:3825  _msgSender() */\n      jump\t// in\n    tag_104:\n        /* \"@openzeppelin/contracts/token/ERC721/ERC721.sol\":3789:3805  isApprovedForAll */\n      tag_82\n        /* \"@openzeppelin/contracts/token/ERC721/ERC721.sol\":3789:3826  isApprovedForAll(owner, _msgSender()) */\n      jump\t// in\n    tag_103:\n        /* \"@openzeppelin/contracts/token/ERC721/ERC721.sol\":3764:3826  _msgSender() == owner || isApprovedForAll(owner, _msgSender()) */\n    tag_102:\n        /* \"@openzeppelin/contracts/token/ERC721/ERC721.sol\":3756:3908  require(_msgSender() == owner || isApprovedForAll(owner, _msgSender()),... */\n      tag_105\n      jumpi\n      mload(0x40)\n      0x08c379a000000000000000000000000000000000000000000000000000000000\n      dup2\n      mstore\n      0x04\n      add\n      dup1\n      dup1\n      0x20\n      add\n      dup3\n      dup2\n      sub\n      dup3\n      mstore\n      0x38\n      dup2\n      mstore\n      0x20\n      add\n      dup1\n      data_6d83cef3e0cb19b8320a9c5feb26b56bbb08f152a8e61b12eca3302d8d68b23d\n      0x38\n      swap2\n      codecopy\n      0x40\n      add\n      swap2\n      pop\n      pop\n      mload(0x40)\n      dup1\n      swap2\n      sub\n      swap1\n      revert\n    tag_105:\n        /* \"@openzeppelin/contracts/token/ERC721/ERC721.sol\":3946:3948  to */\n      dup3\n        /* \"@openzeppelin/contracts/token/ERC721/ERC721.sol\":3919:3934  _tokenApprovals */\n      0x02\n        /* \"@openzeppelin/contracts/token/ERC721/ERC721.sol\":3919:3943  _tokenApprovals[tokenId] */\n      0x00\n        /* \"@openzeppelin/contracts/token/ERC721/ERC721.sol\":3935:3942  tokenId */\n      dup5\n        /* \"@openzeppelin/contracts/token/ERC721/ERC721.sol\":3919:3943  _tokenApprovals[tokenId] */\n      dup2\n      mstore\n      0x20\n      add\n      swap1\n      dup2\n      mstore\n      0x20\n      add\n      0x00\n      keccak256\n      0x00\n        /* \"@openzeppelin/contracts/token/ERC721/ERC721.sol\":3919:3948  _tokenApprovals[tokenId] = to */\n      0x0100\n      exp\n      dup2\n      sload\n      dup2\n      0xffffffffffffffffffffffffffffffffffffffff\n      mul\n      not\n      and\n      swap1\n      dup4\n      0xffffffffffffffffffffffffffffffffffffffff\n      and\n      mul\n      or\n      swap1\n      sstore\n      pop\n        /* \"@openzeppelin/contracts/token/ERC721/ERC721.sol\":3983:3990  tokenId */\n      dup2\n        /* \"@openzeppelin/contracts/token/ERC721/ERC721.sol\":3979:3981  to */\n      dup4\n        /* \"@openzeppelin/contracts/token/ERC721/ERC721.sol\":3963:3991  Approval(owner, to, tokenId) */\n      0xffffffffffffffffffffffffffffffffffffffff\n      and\n        /* \"@openzeppelin/contracts/token/ERC721/ERC721.sol\":3972:3977  owner */\n      dup3\n        /* \"@openzeppelin/contracts/token/ERC721/ERC721.sol\":3963:3991  Approval(owner, to, tokenId) */\n      0xffffffffffffffffffffffffffffffffffffffff\n      and\n      0x8c5be1e5ebec7d5bd14f71427d1e84f3dd0314c0f7b2291e5b200ac8c7c3b925\n      mload(0x40)\n      mload(0x40)\n      dup1\n      swap2\n      sub\n      swap1\n      log4\n        /* \"@openzeppelin/contracts/token/ERC721/ERC721.sol\":3583:3998  function approve(address to, uint256 tokenId) public {... */\n      pop\n      pop\n      pop\n      jump\t// out\n        /* \"@openzeppelin/contracts/token/ERC721/ERC721Enumerable.sol\":2171:2265  function totalSupply() public view returns (uint256) {... */\n    tag_37:\n        /* \"@openzeppelin/contracts/token/ERC721/ERC721Enumerable.sol\":2215:2222  uint256 */\n      0x00\n        /* \"@openzeppelin/contracts/token/ERC721/ERC721Enumerable.sol\":2241:2251  _allTokens */\n      0x07\n        /* \"@openzeppelin/contracts/token/ERC721/ERC721Enumerable.sol\":2241:2258  _allTokens.length */\n      dup1\n      sload\n      swap1\n      pop\n        /* \"@openzeppelin/contracts/token/ERC721/ERC721Enumerable.sol\":2234:2258  return _allTokens.length */\n      swap1\n      pop\n        /* \"@openzeppelin/contracts/token/ERC721/ERC721Enumerable.sol\":2171:2265  function totalSupply() public view returns (uint256) {... */\n      swap1\n      jump\t// out\n        /* \"@openzeppelin/contracts/token/ERC721/ERC721.sol\":5929:6216  function transferFrom(address from, address to, uint256 tokenId) public {... */\n    tag_40:\n        /* \"@openzeppelin/contracts/token/ERC721/ERC721.sol\":6071:6112  _isApprovedOrOwner(_msgSender(), tokenId) */\n      tag_108\n        /* \"@openzeppelin/contracts/token/ERC721/ERC721.sol\":6090:6102  _msgSender() */\n      tag_109\n        /* \"@openzeppelin/contracts/token/ERC721/ERC721.sol\":6090:6100  _msgSender */\n      tag_101\n        /* \"@openzeppelin/contracts/token/ERC721/ERC721.sol\":6090:6102  _msgSender() */\n      jump\t// in\n    tag_109:\n        /* \"@openzeppelin/contracts/token/ERC721/ERC721.sol\":6104:6111  tokenId */\n      dup3\n        /* \"@openzeppelin/contracts/token/ERC721/ERC721.sol\":6071:6089  _isApprovedOrOwner */\n      tag_110\n        /* \"@openzeppelin/contracts/token/ERC721/ERC721.sol\":6071:6112  _isApprovedOrOwner(_msgSender(), tokenId) */\n      jump\t// in\n    tag_108:\n        /* \"@openzeppelin/contracts/token/ERC721/ERC721.sol\":6063:6166  require(_isApprovedOrOwner(_msgSender(), tokenId), \"ERC721: transfer caller is not owner nor approved\") */\n      tag_111\n      jumpi\n      mload(0x40)\n      0x08c379a000000000000000000000000000000000000000000000000000000000\n      dup2\n      mstore\n      0x04\n      add\n      dup1\n      dup1\n      0x20\n      add\n      dup3\n      dup2\n      sub\n      dup3\n      mstore\n      0x31\n      dup2\n      mstore\n      0x20\n      add\n      dup1\n      data_c8682f3ad98807db59a6ec6bb812b72fed0a66e3150fa8239699ee83885247f2\n      0x31\n      swap2\n      codecopy\n      0x40\n      add\n      swap2\n      pop\n      pop\n      mload(0x40)\n      dup1\n      swap2\n      sub\n      swap1\n      revert\n    tag_111:\n        /* \"@openzeppelin/contracts/token/ERC721/ERC721.sol\":6177:6209  _transferFrom(from, to, tokenId) */\n      tag_112\n        /* \"@openzeppelin/contracts/token/ERC721/ERC721.sol\":6191:6195  from */\n      dup4\n        /* \"@openzeppelin/contracts/token/ERC721/ERC721.sol\":6197:6199  to */\n      dup4\n        /* \"@openzeppelin/contracts/token/ERC721/ERC721.sol\":6201:6208  tokenId */\n      dup4\n        /* \"@openzeppelin/contracts/token/ERC721/ERC721.sol\":6177:6190  _transferFrom */\n      tag_113\n        /* \"@openzeppelin/contracts/token/ERC721/ERC721.sol\":6177:6209  _transferFrom(from, to, tokenId) */\n      jump\t// in\n    tag_112:\n        /* \"@openzeppelin/contracts/token/ERC721/ERC721.sol\":5929:6216  function transferFrom(address from, address to, uint256 tokenId) public {... */\n      pop\n      pop\n      pop\n      jump\t// out\n        /* \"@openzeppelin/contracts/token/ERC721/ERC721Enumerable.sol\":1789:2018  function tokenOfOwnerByIndex(address owner, uint256 index) public view returns (uint256) {... */\n    tag_43:\n        /* \"@openzeppelin/contracts/token/ERC721/ERC721Enumerable.sol\":1869:1876  uint256 */\n      0x00\n        /* \"@openzeppelin/contracts/token/ERC721/ERC721Enumerable.sol\":1904:1920  balanceOf(owner) */\n      tag_115\n        /* \"@openzeppelin/contracts/token/ERC721/ERC721Enumerable.sol\":1914:1919  owner */\n      dup4\n        /* \"@openzeppelin/contracts/token/ERC721/ERC721Enumerable.sol\":1904:1913  balanceOf */\n      tag_61\n        /* \"@openzeppelin/contracts/token/ERC721/ERC721Enumerable.sol\":1904:1920  balanceOf(owner) */\n      jump\t// in\n    tag_115:\n        /* \"@openzeppelin/contracts/token/ERC721/ERC721Enumerable.sol\":1896:1901  index */\n      dup3\n        /* \"@openzeppelin/contracts/token/ERC721/ERC721Enumerable.sol\":1896:1920  index < balanceOf(owner) */\n      lt\n        /* \"@openzeppelin/contracts/token/ERC721/ERC721Enumerable.sol\":1888:1968  require(index < balanceOf(owner), \"ERC721Enumerable: owner index out of bounds\") */\n      tag_116\n      jumpi\n      mload(0x40)\n      0x08c379a000000000000000000000000000000000000000000000000000000000\n      dup2\n      mstore\n      0x04\n      add\n      dup1\n      dup1\n      0x20\n      add\n      dup3\n      dup2\n      sub\n      dup3\n      mstore\n      0x2b\n      dup2\n      mstore\n      0x20\n      add\n      dup1\n      data_1d7f5dcf03a65f41ee49b0ab593e3851cfbe3fd7da53b6cf4eddd83c7df5734c\n      0x2b\n      swap2\n      codecopy\n      0x40\n      add\n      swap2\n      pop\n      pop\n      mload(0x40)\n      dup1\n      swap2\n      sub\n      swap1\n      revert\n    tag_116:\n        /* \"@openzeppelin/contracts/token/ERC721/ERC721Enumerable.sol\":1985:1997  _ownedTokens */\n      0x05\n        /* \"@openzeppelin/contracts/token/ERC721/ERC721Enumerable.sol\":1985:2004  _ownedTokens[owner] */\n      0x00\n        /* \"@openzeppelin/contracts/token/ERC721/ERC721Enumerable.sol\":1998:2003  owner */\n      dup5\n        /* \"@openzeppelin/contracts/token/ERC721/ERC721Enumerable.sol\":1985:2004  _ownedTokens[owner] */\n      0xffffffffffffffffffffffffffffffffffffffff\n      and\n      0xffffffffffffffffffffffffffffffffffffffff\n      and\n      dup2\n      mstore\n      0x20\n      add\n      swap1\n      dup2\n      mstore\n      0x20\n      add\n      0x00\n      keccak256\n        /* \"@openzeppelin/contracts/token/ERC721/ERC721Enumerable.sol\":2005:2010  index */\n      dup3\n        /* \"@openzeppelin/contracts/token/ERC721/ERC721Enumerable.sol\":1985:2011  _ownedTokens[owner][index] */\n      dup2\n      sload\n      dup2\n      lt\n      tag_117\n      jumpi\n      invalid\n    tag_117:\n      swap1\n      0x00\n      mstore\n      keccak256(0x00, 0x20)\n      add\n      sload\n        /* \"@openzeppelin/contracts/token/ERC721/ERC721Enumerable.sol\":1978:2011  return _ownedTokens[owner][index] */\n      swap1\n      pop\n        /* \"@openzeppelin/contracts/token/ERC721/ERC721Enumerable.sol\":1789:2018  function tokenOfOwnerByIndex(address owner, uint256 index) public view returns (uint256) {... */\n      swap3\n      swap2\n      pop\n      pop\n      jump\t// out\n        /* \"@openzeppelin/contracts/token/ERC721/ERC721.sol\":6865:6997  function safeTransferFrom(address from, address to, uint256 tokenId) public {... */\n    tag_46:\n        /* \"@openzeppelin/contracts/token/ERC721/ERC721.sol\":6951:6990  safeTransferFrom(from, to, tokenId, \"\") */\n      tag_120\n        /* \"@openzeppelin/contracts/token/ERC721/ERC721.sol\":6968:6972  from */\n      dup4\n        /* \"@openzeppelin/contracts/token/ERC721/ERC721.sol\":6974:6976  to */\n      dup4\n        /* \"@openzeppelin/contracts/token/ERC721/ERC721.sol\":6978:6985  tokenId */\n      dup4\n        /* \"@openzeppelin/contracts/token/ERC721/ERC721.sol\":6951:6990  safeTransferFrom(from, to, tokenId, \"\") */\n      mload(0x40)\n      dup1\n      0x20\n      add\n      0x40\n      mstore\n      dup1\n      0x00\n      dup2\n      mstore\n      pop\n        /* \"@openzeppelin/contracts/token/ERC721/ERC721.sol\":6951:6967  safeTransferFrom */\n      tag_79\n        /* \"@openzeppelin/contracts/token/ERC721/ERC721.sol\":6951:6990  safeTransferFrom(from, to, tokenId, \"\") */\n      jump\t// in\n    tag_120:\n        /* \"@openzeppelin/contracts/token/ERC721/ERC721.sol\":6865:6997  function safeTransferFrom(address from, address to, uint256 tokenId) public {... */\n      pop\n      pop\n      pop\n      jump\t// out\n        /* \"contracts/ClaConvertNFT.sol\":2188:2533  function burn(uint256 tokenId) public {\r... */\n    tag_49:\n        /* \"contracts/ClaConvertNFT.sol\":2233:2248  CCT memory _cct */\n      tag_122\n      tag_123\n      jump\t// in\n    tag_122:\n        /* \"contracts/ClaConvertNFT.sol\":2251:2255  ccts */\n      0x09\n        /* \"contracts/ClaConvertNFT.sol\":2251:2264  ccts[tokenId] */\n      0x00\n        /* \"contracts/ClaConvertNFT.sol\":2256:2263  tokenId */\n      dup4\n        /* \"contracts/ClaConvertNFT.sol\":2251:2264  ccts[tokenId] */\n      dup2\n      mstore\n      0x20\n      add\n      swap1\n      dup2\n      mstore\n      0x20\n      add\n      0x00\n      keccak256\n        /* \"contracts/ClaConvertNFT.sol\":2233:2264  CCT memory _cct = ccts[tokenId] */\n      mload(0x40)\n      dup1\n      0x40\n      add\n      0x40\n      mstore\n      swap1\n      dup2\n      0x00\n      dup3\n      add\n      sload\n      dup2\n      mstore\n      0x20\n      add\n      0x01\n      dup3\n      add\n      0x00\n      swap1\n      sload\n      swap1\n      0x0100\n      exp\n      swap1\n      div\n      0xffffffff\n      and\n      0xffffffff\n      and\n      0xffffffff\n      and\n      dup2\n      mstore\n      pop\n      pop\n      swap1\n      pop\n        /* \"contracts/ClaConvertNFT.sol\":2294:2303  _getDay() */\n      tag_124\n        /* \"contracts/ClaConvertNFT.sol\":2294:2301  _getDay */\n      tag_125\n        /* \"contracts/ClaConvertNFT.sol\":2294:2303  _getDay() */\n      jump\t// in\n    tag_124:\n        /* \"contracts/ClaConvertNFT.sol\":2279:2303  _cct.endDay <= _getDay() */\n      0xffffffff\n      and\n        /* \"contracts/ClaConvertNFT.sol\":2279:2283  _cct */\n      dup2\n        /* \"contracts/ClaConvertNFT.sol\":2279:2290  _cct.endDay */\n      0x20\n      add\n      mload\n        /* \"contracts/ClaConvertNFT.sol\":2279:2303  _cct.endDay <= _getDay() */\n      0xffffffff\n      and\n      gt\n      iszero\n        /* \"contracts/ClaConvertNFT.sol\":2271:2304  require(_cct.endDay <= _getDay()) */\n      tag_126\n      jumpi\n      0x00\n      dup1\n      revert\n    tag_126:\n        /* \"contracts/ClaConvertNFT.sol\":2339:2349  msg.sender */\n      caller\n        /* \"contracts/ClaConvertNFT.sol\":2319:2349  ownerOf(tokenId) == msg.sender */\n      0xffffffffffffffffffffffffffffffffffffffff\n      and\n        /* \"contracts/ClaConvertNFT.sol\":2319:2335  ownerOf(tokenId) */\n      tag_127\n        /* \"contracts/ClaConvertNFT.sol\":2327:2334  tokenId */\n      dup4\n        /* \"contracts/ClaConvertNFT.sol\":2319:2326  ownerOf */\n      tag_55\n        /* \"contracts/ClaConvertNFT.sol\":2319:2335  ownerOf(tokenId) */\n      jump\t// in\n    tag_127:\n        /* \"contracts/ClaConvertNFT.sol\":2319:2349  ownerOf(tokenId) == msg.sender */\n      0xffffffffffffffffffffffffffffffffffffffff\n      and\n      eq\n        /* \"contracts/ClaConvertNFT.sol\":2311:2350  require(ownerOf(tokenId) == msg.sender) */\n      tag_128\n      jumpi\n      0x00\n      dup1\n      revert\n    tag_128:\n        /* \"contracts/ClaConvertNFT.sol\":2363:2386  claimClaReward(tokenId) */\n      tag_129\n        /* \"contracts/ClaConvertNFT.sol\":2378:2385  tokenId */\n      dup3\n        /* \"contracts/ClaConvertNFT.sol\":2363:2377  claimClaReward */\n      tag_91\n        /* \"contracts/ClaConvertNFT.sol\":2363:2386  claimClaReward(tokenId) */\n      jump\t// in\n    tag_129:\n        /* \"contracts/ClaConvertNFT.sol\":2393:2401  clsToken */\n      0x0c\n      0x00\n      swap1\n      sload\n      swap1\n      0x0100\n      exp\n      swap1\n      div\n      0xffffffffffffffffffffffffffffffffffffffff\n      and\n        /* \"contracts/ClaConvertNFT.sol\":2393:2406  clsToken.burn */\n      0xffffffffffffffffffffffffffffffffffffffff\n      and\n      0xa29b3f5b\n        /* \"contracts/ClaConvertNFT.sol\":2407:2417  msg.sender */\n      caller\n        /* \"contracts/ClaConvertNFT.sol\":738:739  2 */\n      0x02\n        /* \"contracts/ClaConvertNFT.sol\":2441:2445  _cct */\n      dup5\n        /* \"contracts/ClaConvertNFT.sol\":2441:2455  _cct.claAmount */\n      0x00\n      add\n      mload\n        /* \"contracts/ClaConvertNFT.sol\":2393:2457  clsToken.burn(msg.sender, MULTIPLE_FOR_180DAYS, _cct.claAmount ) */\n      mload(0x40)\n      dup5\n      0xffffffff\n      and\n      0xe0\n      shl\n      dup2\n      mstore\n      0x04\n      add\n      dup1\n      dup5\n      0xffffffffffffffffffffffffffffffffffffffff\n      and\n      0xffffffffffffffffffffffffffffffffffffffff\n      and\n      dup2\n      mstore\n      0x20\n      add\n      dup4\n      0xff\n      and\n      0xff\n      and\n      dup2\n      mstore\n      0x20\n      add\n      dup3\n      dup2\n      mstore\n      0x20\n      add\n      swap4\n      pop\n      pop\n      pop\n      pop\n      0x00\n      mload(0x40)\n      dup1\n      dup4\n      sub\n      dup2\n      0x00\n      dup8\n      dup1\n      extcodesize\n      iszero\n        /* \"--CODEGEN--\":8:17   */\n      dup1\n        /* \"--CODEGEN--\":5:7   */\n      iszero\n      tag_130\n      jumpi\n        /* \"--CODEGEN--\":30:31   */\n      0x00\n        /* \"--CODEGEN--\":27:28   */\n      dup1\n        /* \"--CODEGEN--\":20:32   */\n      revert\n        /* \"--CODEGEN--\":5:7   */\n    tag_130:\n        /* \"contracts/ClaConvertNFT.sol\":2393:2457  clsToken.burn(msg.sender, MULTIPLE_FOR_180DAYS, _cct.claAmount ) */\n      pop\n      gas\n      call\n      iszero\n        /* \"--CODEGEN--\":8:17   */\n      dup1\n        /* \"--CODEGEN--\":5:7   */\n      iszero\n      tag_131\n      jumpi\n        /* \"--CODEGEN--\":45:61   */\n      returndatasize\n        /* \"--CODEGEN--\":42:43   */\n      0x00\n        /* \"--CODEGEN--\":39:40   */\n      dup1\n        /* \"--CODEGEN--\":24:62   */\n      returndatacopy\n        /* \"--CODEGEN--\":77:93   */\n      returndatasize\n        /* \"--CODEGEN--\":74:75   */\n      0x00\n        /* \"--CODEGEN--\":67:94   */\n      revert\n        /* \"--CODEGEN--\":5:7   */\n    tag_131:\n        /* \"contracts/ClaConvertNFT.sol\":2393:2457  clsToken.burn(msg.sender, MULTIPLE_FOR_180DAYS, _cct.claAmount ) */\n      pop\n      pop\n      pop\n      pop\n        /* \"contracts/ClaConvertNFT.sol\":2464:2478  _burn(tokenId) */\n      tag_132\n        /* \"contracts/ClaConvertNFT.sol\":2470:2477  tokenId */\n      dup3\n        /* \"contracts/ClaConvertNFT.sol\":2464:2469  _burn */\n      tag_133\n        /* \"contracts/ClaConvertNFT.sol\":2464:2478  _burn(tokenId) */\n      jump\t// in\n    tag_132:\n        /* \"contracts/ClaConvertNFT.sol\":2492:2527  BurnedCCT( tokenId, _cct.claAmount) */\n      0xe5771ca835d75662152150dce65b057c47b5ce118330212bc43eaff94c5bd80c\n        /* \"contracts/ClaConvertNFT.sol\":2503:2510  tokenId */\n      dup3\n        /* \"contracts/ClaConvertNFT.sol\":2512:2516  _cct */\n      dup3\n        /* \"contracts/ClaConvertNFT.sol\":2512:2526  _cct.claAmount */\n      0x00\n      add\n      mload\n        /* \"contracts/ClaConvertNFT.sol\":2492:2527  BurnedCCT( tokenId, _cct.claAmount) */\n      mload(0x40)\n      dup1\n      dup4\n      dup2\n      mstore\n      0x20\n      add\n      dup3\n      dup2\n      mstore\n      0x20\n      add\n      swap3\n      pop\n      pop\n      pop\n      mload(0x40)\n      dup1\n      swap2\n      sub\n      swap1\n      log1\n        /* \"contracts/ClaConvertNFT.sol\":2188:2533  function burn(uint256 tokenId) public {\r... */\n      pop\n      pop\n      jump\t// out\n        /* \"@openzeppelin/contracts/token/ERC721/ERC721Enumerable.sol\":2603:2799  function tokenByIndex(uint256 index) public view returns (uint256) {... */\n    tag_52:\n        /* \"@openzeppelin/contracts/token/ERC721/ERC721Enumerable.sol\":2661:2668  uint256 */\n      0x00\n        /* \"@openzeppelin/contracts/token/ERC721/ERC721Enumerable.sol\":2696:2709  totalSupply() */\n      tag_135\n        /* \"@openzeppelin/contracts/token/ERC721/ERC721Enumerable.sol\":2696:2707  totalSupply */\n      tag_37\n        /* \"@openzeppelin/contracts/token/ERC721/ERC721Enumerable.sol\":2696:2709  totalSupply() */\n      jump\t// in\n    tag_135:\n        /* \"@openzeppelin/contracts/token/ERC721/ERC721Enumerable.sol\":2688:2693  index */\n      dup3\n        /* \"@openzeppelin/contracts/token/ERC721/ERC721Enumerable.sol\":2688:2709  index < totalSupply() */\n      lt\n        /* \"@openzeppelin/contracts/token/ERC721/ERC721Enumerable.sol\":2680:2758  require(index < totalSupply(), \"ERC721Enumerable: global index out of bounds\") */\n      tag_136\n      jumpi\n      mload(0x40)\n      0x08c379a000000000000000000000000000000000000000000000000000000000\n      dup2\n      mstore\n      0x04\n      add\n      dup1\n      dup1\n      0x20\n      add\n      dup3\n      dup2\n      sub\n      dup3\n      mstore\n      0x2c\n      dup2\n      mstore\n      0x20\n      add\n      dup1\n      data_d269a4e9f5820dcdb69ea21f528512eb9b927c8d846d48aa51c9219f461d4dcc\n      0x2c\n      swap2\n      codecopy\n      0x40\n      add\n      swap2\n      pop\n      pop\n      mload(0x40)\n      dup1\n      swap2\n      sub\n      swap1\n      revert\n    tag_136:\n        /* \"@openzeppelin/contracts/token/ERC721/ERC721Enumerable.sol\":2775:2785  _allTokens */\n      0x07\n        /* \"@openzeppelin/contracts/token/ERC721/ERC721Enumerable.sol\":2786:2791  index */\n      dup3\n        /* \"@openzeppelin/contracts/token/ERC721/ERC721Enumerable.sol\":2775:2792  _allTokens[index] */\n      dup2\n      sload\n      dup2\n      lt\n      tag_137\n      jumpi\n      invalid\n    tag_137:\n      swap1\n      0x00\n      mstore\n      keccak256(0x00, 0x20)\n      add\n      sload\n        /* \"@openzeppelin/contracts/token/ERC721/ERC721Enumerable.sol\":2768:2792  return _allTokens[index] */\n      swap1\n      pop\n        /* \"@openzeppelin/contracts/token/ERC721/ERC721Enumerable.sol\":2603:2799  function tokenByIndex(uint256 index) public view returns (uint256) {... */\n      swap2\n      swap1\n      pop\n      jump\t// out\n        /* \"@openzeppelin/contracts/token/ERC721/ERC721.sol\":2939:3162  function ownerOf(uint256 tokenId) public view returns (address) {... */\n    tag_55:\n        /* \"@openzeppelin/contracts/token/ERC721/ERC721.sol\":2994:3001  address */\n      0x00\n        /* \"@openzeppelin/contracts/token/ERC721/ERC721.sol\":3013:3026  address owner */\n      dup1\n        /* \"@openzeppelin/contracts/token/ERC721/ERC721.sol\":3029:3040  _tokenOwner */\n      0x01\n        /* \"@openzeppelin/contracts/token/ERC721/ERC721.sol\":3029:3049  _tokenOwner[tokenId] */\n      0x00\n        /* \"@openzeppelin/contracts/token/ERC721/ERC721.sol\":3041:3048  tokenId */\n      dup5\n        /* \"@openzeppelin/contracts/token/ERC721/ERC721.sol\":3029:3049  _tokenOwner[tokenId] */\n      dup2\n      mstore\n      0x20\n      add\n      swap1\n      dup2\n      mstore\n      0x20\n      add\n      0x00\n      keccak256\n      0x00\n      swap1\n      sload\n      swap1\n      0x0100\n      exp\n      swap1\n      div\n      0xffffffffffffffffffffffffffffffffffffffff\n      and\n        /* \"@openzeppelin/contracts/token/ERC721/ERC721.sol\":3013:3049  address owner = _tokenOwner[tokenId] */\n      swap1\n      pop\n        /* \"@openzeppelin/contracts/token/ERC721/ERC721.sol\":3084:3085  0 */\n      0x00\n        /* \"@openzeppelin/contracts/token/ERC721/ERC721.sol\":3067:3086  owner != address(0) */\n      0xffffffffffffffffffffffffffffffffffffffff\n      and\n        /* \"@openzeppelin/contracts/token/ERC721/ERC721.sol\":3067:3072  owner */\n      dup2\n        /* \"@openzeppelin/contracts/token/ERC721/ERC721.sol\":3067:3086  owner != address(0) */\n      0xffffffffffffffffffffffffffffffffffffffff\n      and\n      eq\n      iszero\n        /* \"@openzeppelin/contracts/token/ERC721/ERC721.sol\":3059:3132  require(owner != address(0), \"ERC721: owner query for nonexistent token\") */\n      tag_140\n      jumpi\n      mload(0x40)\n      0x08c379a000000000000000000000000000000000000000000000000000000000\n      dup2\n      mstore\n      0x04\n      add\n      dup1\n      dup1\n      0x20\n      add\n      dup3\n      dup2\n      sub\n      dup3\n      mstore\n      0x29\n      dup2\n      mstore\n      0x20\n      add\n      dup1\n      data_7481f3df2a424c0755a1ad2356614e9a5a358d461ea2eae1f89cb21cbad00397\n      0x29\n      swap2\n      codecopy\n      0x40\n      add\n      swap2\n      pop\n      pop\n      mload(0x40)\n      dup1\n      swap2\n      sub\n      swap1\n      revert\n    tag_140:\n        /* \"@openzeppelin/contracts/token/ERC721/ERC721.sol\":3150:3155  owner */\n      dup1\n        /* \"@openzeppelin/contracts/token/ERC721/ERC721.sol\":3143:3155  return owner */\n      swap2\n      pop\n      pop\n        /* \"@openzeppelin/contracts/token/ERC721/ERC721.sol\":2939:3162  function ownerOf(uint256 tokenId) public view returns (address) {... */\n      swap2\n      swap1\n      pop\n      jump\t// out\n        /* \"contracts/ClaConvertNFT.sol\":386:422  mapping (uint256 => CCT) public ccts */\n    tag_58:\n      mstore(0x20, 0x09)\n      dup1\n      0x00\n      mstore\n      keccak256(0x00, 0x40)\n      0x00\n      swap2\n      pop\n      swap1\n      pop\n      dup1\n      0x00\n      add\n      sload\n      swap1\n      dup1\n      0x01\n      add\n      0x00\n      swap1\n      sload\n      swap1\n      0x0100\n      exp\n      swap1\n      div\n      0xffffffff\n      and\n      swap1\n      pop\n      dup3\n      jump\t// out\n        /* \"@openzeppelin/contracts/token/ERC721/ERC721.sol\":2513:2720  function balanceOf(address owner) public view returns (uint256) {... */\n    tag_61:\n        /* \"@openzeppelin/contracts/token/ERC721/ERC721.sol\":2568:2575  uint256 */\n      0x00\n        /* \"@openzeppelin/contracts/token/ERC721/ERC721.sol\":2612:2613  0 */\n      dup1\n        /* \"@openzeppelin/contracts/token/ERC721/ERC721.sol\":2595:2614  owner != address(0) */\n      0xffffffffffffffffffffffffffffffffffffffff\n      and\n        /* \"@openzeppelin/contracts/token/ERC721/ERC721.sol\":2595:2600  owner */\n      dup3\n        /* \"@openzeppelin/contracts/token/ERC721/ERC721.sol\":2595:2614  owner != address(0) */\n      0xffffffffffffffffffffffffffffffffffffffff\n      and\n      eq\n      iszero\n        /* \"@openzeppelin/contracts/token/ERC721/ERC721.sol\":2587:2661  require(owner != address(0), \"ERC721: balance query for the zero address\") */\n      tag_142\n      jumpi\n      mload(0x40)\n      0x08c379a000000000000000000000000000000000000000000000000000000000\n      dup2\n      mstore\n      0x04\n      add\n      dup1\n      dup1\n      0x20\n      add\n      dup3\n      dup2\n      sub\n      dup3\n      mstore\n      0x2a\n      dup2\n      mstore\n      0x20\n      add\n      dup1\n      data_7395d4d3901c50cdfcab223d072f9aa36241df5d883e62cbf147ee1b05a9e6ba\n      0x2a\n      swap2\n      codecopy\n      0x40\n      add\n      swap2\n      pop\n      pop\n      mload(0x40)\n      dup1\n      swap2\n      sub\n      swap1\n      revert\n    tag_142:\n        /* \"@openzeppelin/contracts/token/ERC721/ERC721.sol\":2679:2713  _ownedTokensCount[owner].current() */\n      tag_143\n        /* \"@openzeppelin/contracts/token/ERC721/ERC721.sol\":2679:2696  _ownedTokensCount */\n      0x03\n        /* \"@openzeppelin/contracts/token/ERC721/ERC721.sol\":2679:2703  _ownedTokensCount[owner] */\n      0x00\n        /* \"@openzeppelin/contracts/token/ERC721/ERC721.sol\":2697:2702  owner */\n      dup5\n        /* \"@openzeppelin/contracts/token/ERC721/ERC721.sol\":2679:2703  _ownedTokensCount[owner] */\n      0xffffffffffffffffffffffffffffffffffffffff\n      and\n      0xffffffffffffffffffffffffffffffffffffffff\n      and\n      dup2\n      mstore\n      0x20\n      add\n      swap1\n      dup2\n      mstore\n      0x20\n      add\n      0x00\n      keccak256\n        /* \"@openzeppelin/contracts/token/ERC721/ERC721.sol\":2679:2711  _ownedTokensCount[owner].current */\n      tag_144\n        /* \"@openzeppelin/contracts/token/ERC721/ERC721.sol\":2679:2713  _ownedTokensCount[owner].current() */\n      jump\t// in\n    tag_143:\n        /* \"@openzeppelin/contracts/token/ERC721/ERC721.sol\":2672:2713  return _ownedTokensCount[owner].current() */\n      swap1\n      pop\n        /* \"@openzeppelin/contracts/token/ERC721/ERC721.sol\":2513:2720  function balanceOf(address owner) public view returns (uint256) {... */\n      swap2\n      swap1\n      pop\n      jump\t// out\n        /* \"contracts/ClaConvertNFT.sol\":4639:4758  function claBalanceOf(address account) public view returns (uint256) {\r... */\n    tag_64:\n        /* \"contracts/ClaConvertNFT.sol\":4699:4706  uint256 */\n      0x00\n        /* \"contracts/ClaConvertNFT.sol\":4722:4733  claContract */\n      0x0b\n      0x00\n      swap1\n      sload\n      swap1\n      0x0100\n      exp\n      swap1\n      div\n      0xffffffffffffffffffffffffffffffffffffffff\n      and\n        /* \"contracts/ClaConvertNFT.sol\":4722:4743  claContract.balanceOf */\n      0xffffffffffffffffffffffffffffffffffffffff\n      and\n      0x70a08231\n        /* \"contracts/ClaConvertNFT.sol\":4744:4751  account */\n      dup4\n        /* \"contracts/ClaConvertNFT.sol\":4722:4752  claContract.balanceOf(account) */\n      mload(0x40)\n      dup3\n      0xffffffff\n      and\n      0xe0\n      shl\n      dup2\n      mstore\n      0x04\n      add\n      dup1\n      dup3\n      0xffffffffffffffffffffffffffffffffffffffff\n      and\n      0xffffffffffffffffffffffffffffffffffffffff\n      and\n      dup2\n      mstore\n      0x20\n      add\n      swap2\n      pop\n      pop\n      0x20\n      mload(0x40)\n      dup1\n      dup4\n      sub\n      dup2\n      dup7\n      dup1\n      extcodesize\n      iszero\n        /* \"--CODEGEN--\":8:17   */\n      dup1\n        /* \"--CODEGEN--\":5:7   */\n      iszero\n      tag_146\n      jumpi\n        /* \"--CODEGEN--\":30:31   */\n      0x00\n        /* \"--CODEGEN--\":27:28   */\n      dup1\n        /* \"--CODEGEN--\":20:32   */\n      revert\n        /* \"--CODEGEN--\":5:7   */\n    tag_146:\n        /* \"contracts/ClaConvertNFT.sol\":4722:4752  claContract.balanceOf(account) */\n      pop\n      gas\n      staticcall\n      iszero\n        /* \"--CODEGEN--\":8:17   */\n      dup1\n        /* \"--CODEGEN--\":5:7   */\n      iszero\n      tag_147\n      jumpi\n        /* \"--CODEGEN--\":45:61   */\n      returndatasize\n        /* \"--CODEGEN--\":42:43   */\n      0x00\n        /* \"--CODEGEN--\":39:40   */\n      dup1\n        /* \"--CODEGEN--\":24:62   */\n      returndatacopy\n        /* \"--CODEGEN--\":77:93   */\n      returndatasize\n        /* \"--CODEGEN--\":74:75   */\n      0x00\n        /* \"--CODEGEN--\":67:94   */\n      revert\n        /* \"--CODEGEN--\":5:7   */\n    tag_147:\n        /* \"contracts/ClaConvertNFT.sol\":4722:4752  claContract.balanceOf(account) */\n      pop\n      pop\n      pop\n      pop\n      mload(0x40)\n      returndatasize\n        /* \"--CODEGEN--\":13:15   */\n      0x20\n        /* \"--CODEGEN--\":8:11   */\n      dup2\n        /* \"--CODEGEN--\":5:16   */\n      lt\n        /* \"--CODEGEN--\":2:4   */\n      iszero\n      tag_148\n      jumpi\n        /* \"--CODEGEN--\":29:30   */\n      0x00\n        /* \"--CODEGEN--\":26:27   */\n      dup1\n        /* \"--CODEGEN--\":19:31   */\n      revert\n        /* \"--CODEGEN--\":2:4   */\n    tag_148:\n        /* \"contracts/ClaConvertNFT.sol\":4722:4752  claContract.balanceOf(account) */\n      dup2\n      add\n      swap1\n      dup1\n      dup1\n      mload\n      swap1\n      0x20\n      add\n      swap1\n      swap3\n      swap2\n      swap1\n      pop\n      pop\n      pop\n        /* \"contracts/ClaConvertNFT.sol\":4715:4752  return claContract.balanceOf(account) */\n      swap1\n      pop\n        /* \"contracts/ClaConvertNFT.sol\":4639:4758  function claBalanceOf(address account) public view returns (uint256) {\r... */\n      swap2\n      swap1\n      pop\n      jump\t// out\n        /* \"@openzeppelin/contracts/token/ERC721/ERC721.sol\":4776:5025  function setApprovalForAll(address to, bool approved) public {... */\n    tag_67:\n        /* \"@openzeppelin/contracts/token/ERC721/ERC721.sol\":4861:4873  _msgSender() */\n      tag_150\n        /* \"@openzeppelin/contracts/token/ERC721/ERC721.sol\":4861:4871  _msgSender */\n      tag_101\n        /* \"@openzeppelin/contracts/token/ERC721/ERC721.sol\":4861:4873  _msgSender() */\n      jump\t// in\n    tag_150:\n        /* \"@openzeppelin/contracts/token/ERC721/ERC721.sol\":4855:4873  to != _msgSender() */\n      0xffffffffffffffffffffffffffffffffffffffff\n      and\n        /* \"@openzeppelin/contracts/token/ERC721/ERC721.sol\":4855:4857  to */\n      dup3\n        /* \"@openzeppelin/contracts/token/ERC721/ERC721.sol\":4855:4873  to != _msgSender() */\n      0xffffffffffffffffffffffffffffffffffffffff\n      and\n      eq\n      iszero\n        /* \"@openzeppelin/contracts/token/ERC721/ERC721.sol\":4847:4903  require(to != _msgSender(), \"ERC721: approve to caller\") */\n      tag_151\n      jumpi\n      mload(0x40)\n      0x08c379a000000000000000000000000000000000000000000000000000000000\n      dup2\n      mstore\n      0x04\n      add\n      dup1\n      dup1\n      0x20\n      add\n      dup3\n      dup2\n      sub\n      dup3\n      mstore\n      0x19\n      dup2\n      mstore\n      0x20\n      add\n      dup1\n      0x4552433732313a20617070726f766520746f2063616c6c657200000000000000\n      dup2\n      mstore\n      pop\n      0x20\n      add\n      swap2\n      pop\n      pop\n      mload(0x40)\n      dup1\n      swap2\n      sub\n      swap1\n      revert\n    tag_151:\n        /* \"@openzeppelin/contracts/token/ERC721/ERC721.sol\":4953:4961  approved */\n      dup1\n        /* \"@openzeppelin/contracts/token/ERC721/ERC721.sol\":4914:4932  _operatorApprovals */\n      0x04\n        /* \"@openzeppelin/contracts/token/ERC721/ERC721.sol\":4914:4946  _operatorApprovals[_msgSender()] */\n      0x00\n        /* \"@openzeppelin/contracts/token/ERC721/ERC721.sol\":4933:4945  _msgSender() */\n      tag_152\n        /* \"@openzeppelin/contracts/token/ERC721/ERC721.sol\":4933:4943  _msgSender */\n      tag_101\n        /* \"@openzeppelin/contracts/token/ERC721/ERC721.sol\":4933:4945  _msgSender() */\n      jump\t// in\n    tag_152:\n        /* \"@openzeppelin/contracts/token/ERC721/ERC721.sol\":4914:4946  _operatorApprovals[_msgSender()] */\n      0xffffffffffffffffffffffffffffffffffffffff\n      and\n      0xffffffffffffffffffffffffffffffffffffffff\n      and\n      dup2\n      mstore\n      0x20\n      add\n      swap1\n      dup2\n      mstore\n      0x20\n      add\n      0x00\n      keccak256\n        /* \"@openzeppelin/contracts/token/ERC721/ERC721.sol\":4914:4950  _operatorApprovals[_msgSender()][to] */\n      0x00\n        /* \"@openzeppelin/contracts/token/ERC721/ERC721.sol\":4947:4949  to */\n      dup5\n        /* \"@openzeppelin/contracts/token/ERC721/ERC721.sol\":4914:4950  _operatorApprovals[_msgSender()][to] */\n      0xffffffffffffffffffffffffffffffffffffffff\n      and\n      0xffffffffffffffffffffffffffffffffffffffff\n      and\n      dup2\n      mstore\n      0x20\n      add\n      swap1\n      dup2\n      mstore\n      0x20\n      add\n      0x00\n      keccak256\n      0x00\n        /* \"@openzeppelin/contracts/token/ERC721/ERC721.sol\":4914:4961  _operatorApprovals[_msgSender()][to] = approved */\n      0x0100\n      exp\n      dup2\n      sload\n      dup2\n      0xff\n      mul\n      not\n      and\n      swap1\n      dup4\n      iszero\n      iszero\n      mul\n      or\n      swap1\n      sstore\n      pop\n        /* \"@openzeppelin/contracts/token/ERC721/ERC721.sol\":5005:5007  to */\n      dup2\n        /* \"@openzeppelin/contracts/token/ERC721/ERC721.sol\":4976:5018  ApprovalForAll(_msgSender(), to, approved) */\n      0xffffffffffffffffffffffffffffffffffffffff\n      and\n        /* \"@openzeppelin/contracts/token/ERC721/ERC721.sol\":4991:5003  _msgSender() */\n      tag_153\n        /* \"@openzeppelin/contracts/token/ERC721/ERC721.sol\":4991:5001  _msgSender */\n      tag_101\n        /* \"@openzeppelin/contracts/token/ERC721/ERC721.sol\":4991:5003  _msgSender() */\n      jump\t// in\n    tag_153:\n        /* \"@openzeppelin/contracts/token/ERC721/ERC721.sol\":4976:5018  ApprovalForAll(_msgSender(), to, approved) */\n      0xffffffffffffffffffffffffffffffffffffffff\n      and\n      0x17307eab39ab6107e8899845ad3d59bd9653f200f220920489ca2b5937696c31\n        /* \"@openzeppelin/contracts/token/ERC721/ERC721.sol\":5009:5017  approved */\n      dup4\n        /* \"@openzeppelin/contracts/token/ERC721/ERC721.sol\":4976:5018  ApprovalForAll(_msgSender(), to, approved) */\n      mload(0x40)\n      dup1\n      dup3\n      iszero\n      iszero\n      iszero\n      iszero\n      dup2\n      mstore\n      0x20\n      add\n      swap2\n      pop\n      pop\n      mload(0x40)\n      dup1\n      swap2\n      sub\n      swap1\n      log3\n        /* \"@openzeppelin/contracts/token/ERC721/ERC721.sol\":4776:5025  function setApprovalForAll(address to, bool approved) public {... */\n      pop\n      pop\n      jump\t// out\n        /* \"contracts/ClaConvertNFT.sol\":5246:5651  function convertClaToCct(uint amount) public {\r... */\n    tag_70:\n        /* \"contracts/ClaConvertNFT.sol\":5315:5316  0 */\n      0x00\n        /* \"contracts/ClaConvertNFT.sol\":5306:5312  amount */\n      dup2\n        /* \"contracts/ClaConvertNFT.sol\":5306:5316  amount > 0 */\n      gt\n        /* \"contracts/ClaConvertNFT.sol\":5298:5317  require(amount > 0) */\n      tag_155\n      jumpi\n      0x00\n      dup1\n      revert\n    tag_155:\n        /* \"contracts/ClaConvertNFT.sol\":5371:5382  claContract */\n      0x0b\n      0x00\n      swap1\n      sload\n      swap1\n      0x0100\n      exp\n      swap1\n      div\n      0xffffffffffffffffffffffffffffffffffffffff\n      and\n        /* \"contracts/ClaConvertNFT.sol\":5371:5395  claContract.transferFrom */\n      0xffffffffffffffffffffffffffffffffffffffff\n      and\n      0x23b872dd\n        /* \"contracts/ClaConvertNFT.sol\":5396:5406  msg.sender */\n      caller\n        /* \"contracts/ClaConvertNFT.sol\":5416:5420  this */\n      address\n        /* \"contracts/ClaConvertNFT.sol\":5423:5429  amount */\n      dup5\n        /* \"contracts/ClaConvertNFT.sol\":5371:5430  claContract.transferFrom(msg.sender, address(this), amount) */\n      mload(0x40)\n      dup5\n      0xffffffff\n      and\n      0xe0\n      shl\n      dup2\n      mstore\n      0x04\n      add\n      dup1\n      dup5\n      0xffffffffffffffffffffffffffffffffffffffff\n      and\n      0xffffffffffffffffffffffffffffffffffffffff\n      and\n      dup2\n      mstore\n      0x20\n      add\n      dup4\n      0xffffffffffffffffffffffffffffffffffffffff\n      and\n      0xffffffffffffffffffffffffffffffffffffffff\n      and\n      dup2\n      mstore\n      0x20\n      add\n      dup3\n      dup2\n      mstore\n      0x20\n      add\n      swap4\n      pop\n      pop\n      pop\n      pop\n      0x20\n      mload(0x40)\n      dup1\n      dup4\n      sub\n      dup2\n      0x00\n      dup8\n      dup1\n      extcodesize\n      iszero\n        /* \"--CODEGEN--\":8:17   */\n      dup1\n        /* \"--CODEGEN--\":5:7   */\n      iszero\n      tag_156\n      jumpi\n        /* \"--CODEGEN--\":30:31   */\n      0x00\n        /* \"--CODEGEN--\":27:28   */\n      dup1\n        /* \"--CODEGEN--\":20:32   */\n      revert\n        /* \"--CODEGEN--\":5:7   */\n    tag_156:\n        /* \"contracts/ClaConvertNFT.sol\":5371:5430  claContract.transferFrom(msg.sender, address(this), amount) */\n      pop\n      gas\n      call\n      iszero\n        /* \"--CODEGEN--\":8:17   */\n      dup1\n        /* \"--CODEGEN--\":5:7   */\n      iszero\n      tag_157\n      jumpi\n        /* \"--CODEGEN--\":45:61   */\n      returndatasize\n        /* \"--CODEGEN--\":42:43   */\n      0x00\n        /* \"--CODEGEN--\":39:40   */\n      dup1\n        /* \"--CODEGEN--\":24:62   */\n      returndatacopy\n        /* \"--CODEGEN--\":77:93   */\n      returndatasize\n        /* \"--CODEGEN--\":74:75   */\n      0x00\n        /* \"--CODEGEN--\":67:94   */\n      revert\n        /* \"--CODEGEN--\":5:7   */\n    tag_157:\n        /* \"contracts/ClaConvertNFT.sol\":5371:5430  claContract.transferFrom(msg.sender, address(this), amount) */\n      pop\n      pop\n      pop\n      pop\n      mload(0x40)\n      returndatasize\n        /* \"--CODEGEN--\":13:15   */\n      0x20\n        /* \"--CODEGEN--\":8:11   */\n      dup2\n        /* \"--CODEGEN--\":5:16   */\n      lt\n        /* \"--CODEGEN--\":2:4   */\n      iszero\n      tag_158\n      jumpi\n        /* \"--CODEGEN--\":29:30   */\n      0x00\n        /* \"--CODEGEN--\":26:27   */\n      dup1\n        /* \"--CODEGEN--\":19:31   */\n      revert\n        /* \"--CODEGEN--\":2:4   */\n    tag_158:\n        /* \"contracts/ClaConvertNFT.sol\":5371:5430  claContract.transferFrom(msg.sender, address(this), amount) */\n      dup2\n      add\n      swap1\n      dup1\n      dup1\n      mload\n      swap1\n      0x20\n      add\n      swap1\n      swap3\n      swap2\n      swap1\n      pop\n      pop\n      pop\n      pop\n        /* \"contracts/ClaConvertNFT.sol\":5504:5528  _updateAllTokensReward() */\n      tag_159\n        /* \"contracts/ClaConvertNFT.sol\":5504:5526  _updateAllTokensReward */\n      tag_160\n        /* \"contracts/ClaConvertNFT.sol\":5504:5528  _updateAllTokensReward() */\n      jump\t// in\n    tag_159:\n        /* \"contracts/ClaConvertNFT.sol\":5535:5543  clsToken */\n      0x0c\n      0x00\n      swap1\n      sload\n      swap1\n      0x0100\n      exp\n      swap1\n      div\n      0xffffffffffffffffffffffffffffffffffffffff\n      and\n        /* \"contracts/ClaConvertNFT.sol\":5535:5548  clsToken.mint */\n      0xffffffffffffffffffffffffffffffffffffffff\n      and\n      0x6112e8ac\n        /* \"contracts/ClaConvertNFT.sol\":5557:5561  this */\n      address\n        /* \"contracts/ClaConvertNFT.sol\":5564:5570  amount */\n      dup4\n        /* \"contracts/ClaConvertNFT.sol\":738:739  2 */\n      0x02\n        /* \"contracts/ClaConvertNFT.sol\":5535:5593  clsToken.mint(address(this), amount, MULTIPLE_FOR_180DAYS) */\n      mload(0x40)\n      dup5\n      0xffffffff\n      and\n      0xe0\n      shl\n      dup2\n      mstore\n      0x04\n      add\n      dup1\n      dup5\n      0xffffffffffffffffffffffffffffffffffffffff\n      and\n      0xffffffffffffffffffffffffffffffffffffffff\n      and\n      dup2\n      mstore\n      0x20\n      add\n      dup4\n      dup2\n      mstore\n      0x20\n      add\n      dup3\n      0xff\n      and\n      0xff\n      and\n      dup2\n      mstore\n      0x20\n      add\n      swap4\n      pop\n      pop\n      pop\n      pop\n      0x00\n      mload(0x40)\n      dup1\n      dup4\n      sub\n      dup2\n      0x00\n      dup8\n      dup1\n      extcodesize\n      iszero\n        /* \"--CODEGEN--\":8:17   */\n      dup1\n        /* \"--CODEGEN--\":5:7   */\n      iszero\n      tag_161\n      jumpi\n        /* \"--CODEGEN--\":30:31   */\n      0x00\n        /* \"--CODEGEN--\":27:28   */\n      dup1\n        /* \"--CODEGEN--\":20:32   */\n      revert\n        /* \"--CODEGEN--\":5:7   */\n    tag_161:\n        /* \"contracts/ClaConvertNFT.sol\":5535:5593  clsToken.mint(address(this), amount, MULTIPLE_FOR_180DAYS) */\n      pop\n      gas\n      call\n      iszero\n        /* \"--CODEGEN--\":8:17   */\n      dup1\n        /* \"--CODEGEN--\":5:7   */\n      iszero\n      tag_162\n      jumpi\n        /* \"--CODEGEN--\":45:61   */\n      returndatasize\n        /* \"--CODEGEN--\":42:43   */\n      0x00\n        /* \"--CODEGEN--\":39:40   */\n      dup1\n        /* \"--CODEGEN--\":24:62   */\n      returndatacopy\n        /* \"--CODEGEN--\":77:93   */\n      returndatasize\n        /* \"--CODEGEN--\":74:75   */\n      0x00\n        /* \"--CODEGEN--\":67:94   */\n      revert\n        /* \"--CODEGEN--\":5:7   */\n    tag_162:\n        /* \"contracts/ClaConvertNFT.sol\":5535:5593  clsToken.mint(address(this), amount, MULTIPLE_FOR_180DAYS) */\n      pop\n      pop\n      pop\n      pop\n        /* \"contracts/ClaConvertNFT.sol\":5617:5645  _mintCCT(msg.sender, amount) */\n      tag_163\n        /* \"contracts/ClaConvertNFT.sol\":5626:5636  msg.sender */\n      caller\n        /* \"contracts/ClaConvertNFT.sol\":5638:5644  amount */\n      dup3\n        /* \"contracts/ClaConvertNFT.sol\":5617:5625  _mintCCT */\n      tag_164\n        /* \"contracts/ClaConvertNFT.sol\":5617:5645  _mintCCT(msg.sender, amount) */\n      jump\t// in\n    tag_163:\n      pop\n        /* \"contracts/ClaConvertNFT.sol\":5246:5651  function convertClaToCct(uint amount) public {\r... */\n      pop\n      jump\t// out\n        /* \"contracts/ClaConvertNFT.sol\":3166:3630  function totalAccumulatedRewardCla(address owner) public view returns (uint256) {\r... */\n    tag_73:\n        /* \"contracts/ClaConvertNFT.sol\":3237:3244  uint256 */\n      0x00\n        /* \"contracts/ClaConvertNFT.sol\":3253:3279  uint256[] memory tokenList */\n      0x60\n        /* \"contracts/ClaConvertNFT.sol\":3282:3303  _tokensOfOwner(owner) */\n      tag_166\n        /* \"contracts/ClaConvertNFT.sol\":3297:3302  owner */\n      dup4\n        /* \"contracts/ClaConvertNFT.sol\":3282:3296  _tokensOfOwner */\n      tag_167\n        /* \"contracts/ClaConvertNFT.sol\":3282:3303  _tokensOfOwner(owner) */\n      jump\t// in\n    tag_166:\n        /* \"contracts/ClaConvertNFT.sol\":3253:3303  uint256[] memory tokenList = _tokensOfOwner(owner) */\n      dup1\n      sload\n      dup1\n      0x20\n      mul\n      0x20\n      add\n      mload(0x40)\n      swap1\n      dup2\n      add\n      0x40\n      mstore\n      dup1\n      swap3\n      swap2\n      swap1\n      dup2\n      dup2\n      mstore\n      0x20\n      add\n      dup3\n      dup1\n      sload\n      dup1\n      iszero\n      tag_168\n      jumpi\n      0x20\n      mul\n      dup3\n      add\n      swap2\n      swap1\n      0x00\n      mstore\n      keccak256(0x00, 0x20)\n      swap1\n    tag_169:\n      dup2\n      sload\n      dup2\n      mstore\n      0x20\n      add\n      swap1\n      0x01\n      add\n      swap1\n      dup1\n      dup4\n      gt\n      tag_169\n      jumpi\n    tag_168:\n      pop\n      pop\n      pop\n      pop\n      pop\n      swap1\n      pop\n        /* \"contracts/ClaConvertNFT.sol\":3310:3329  uint256 totalReward */\n      0x00\n        /* \"contracts/ClaConvertNFT.sol\":3336:3354  uint256 pendingCla */\n      dup1\n        /* \"contracts/ClaConvertNFT.sol\":3357:3371  claDistributor */\n      0x0d\n      0x00\n      swap1\n      sload\n      swap1\n      0x0100\n      exp\n      swap1\n      div\n      0xffffffffffffffffffffffffffffffffffffffff\n      and\n        /* \"contracts/ClaConvertNFT.sol\":3357:3382  claDistributor.pendingCla */\n      0xffffffffffffffffffffffffffffffffffffffff\n      and\n      0x77b170f2\n        /* \"contracts/ClaConvertNFT.sol\":3391:3395  this */\n      address\n        /* \"contracts/ClaConvertNFT.sol\":3357:3397  claDistributor.pendingCla(address(this)) */\n      mload(0x40)\n      dup3\n      0xffffffff\n      and\n      0xe0\n      shl\n      dup2\n      mstore\n      0x04\n      add\n      dup1\n      dup3\n      0xffffffffffffffffffffffffffffffffffffffff\n      and\n      0xffffffffffffffffffffffffffffffffffffffff\n      and\n      dup2\n      mstore\n      0x20\n      add\n      swap2\n      pop\n      pop\n      0x20\n      mload(0x40)\n      dup1\n      dup4\n      sub\n      dup2\n      dup7\n      dup1\n      extcodesize\n      iszero\n        /* \"--CODEGEN--\":8:17   */\n      dup1\n        /* \"--CODEGEN--\":5:7   */\n      iszero\n      tag_170\n      jumpi\n        /* \"--CODEGEN--\":30:31   */\n      0x00\n        /* \"--CODEGEN--\":27:28   */\n      dup1\n        /* \"--CODEGEN--\":20:32   */\n      revert\n        /* \"--CODEGEN--\":5:7   */\n    tag_170:\n        /* \"contracts/ClaConvertNFT.sol\":3357:3397  claDistributor.pendingCla(address(this)) */\n      pop\n      gas\n      staticcall\n      iszero\n        /* \"--CODEGEN--\":8:17   */\n      dup1\n        /* \"--CODEGEN--\":5:7   */\n      iszero\n      tag_171\n      jumpi\n        /* \"--CODEGEN--\":45:61   */\n      returndatasize\n        /* \"--CODEGEN--\":42:43   */\n      0x00\n        /* \"--CODEGEN--\":39:40   */\n      dup1\n        /* \"--CODEGEN--\":24:62   */\n      returndatacopy\n        /* \"--CODEGEN--\":77:93   */\n      returndatasize\n        /* \"--CODEGEN--\":74:75   */\n      0x00\n        /* \"--CODEGEN--\":67:94   */\n      revert\n        /* \"--CODEGEN--\":5:7   */\n    tag_171:\n        /* \"contracts/ClaConvertNFT.sol\":3357:3397  claDistributor.pendingCla(address(this)) */\n      pop\n      pop\n      pop\n      pop\n      mload(0x40)\n      returndatasize\n        /* \"--CODEGEN--\":13:15   */\n      0x20\n        /* \"--CODEGEN--\":8:11   */\n      dup2\n        /* \"--CODEGEN--\":5:16   */\n      lt\n        /* \"--CODEGEN--\":2:4   */\n      iszero\n      tag_172\n      jumpi\n        /* \"--CODEGEN--\":29:30   */\n      0x00\n        /* \"--CODEGEN--\":26:27   */\n      dup1\n        /* \"--CODEGEN--\":19:31   */\n      revert\n        /* \"--CODEGEN--\":2:4   */\n    tag_172:\n        /* \"contracts/ClaConvertNFT.sol\":3357:3397  claDistributor.pendingCla(address(this)) */\n      dup2\n      add\n      swap1\n      dup1\n      dup1\n      mload\n      swap1\n      0x20\n      add\n      swap1\n      swap3\n      swap2\n      swap1\n      pop\n      pop\n      pop\n        /* \"contracts/ClaConvertNFT.sol\":3336:3397  uint256 pendingCla = claDistributor.pendingCla(address(this)) */\n      swap1\n      pop\n        /* \"contracts/ClaConvertNFT.sol\":3411:3417  uint i */\n      0x00\n        /* \"contracts/ClaConvertNFT.sol\":3420:3421  0 */\n      dup1\n        /* \"contracts/ClaConvertNFT.sol\":3411:3421  uint i = 0 */\n      swap1\n      pop\n        /* \"contracts/ClaConvertNFT.sol\":3406:3600  for (uint i = 0 ; i < tokenList.length; i++) {\r... */\n    tag_173:\n        /* \"contracts/ClaConvertNFT.sol\":3428:3437  tokenList */\n      dup4\n        /* \"contracts/ClaConvertNFT.sol\":3428:3444  tokenList.length */\n      mload\n        /* \"contracts/ClaConvertNFT.sol\":3424:3425  i */\n      dup2\n        /* \"contracts/ClaConvertNFT.sol\":3424:3444  i < tokenList.length */\n      lt\n        /* \"contracts/ClaConvertNFT.sol\":3406:3600  for (uint i = 0 ; i < tokenList.length; i++) {\r... */\n      iszero\n      tag_174\n      jumpi\n        /* \"contracts/ClaConvertNFT.sol\":3460:3475  uint256 tokenId */\n      0x00\n        /* \"contracts/ClaConvertNFT.sol\":3478:3487  tokenList */\n      dup5\n        /* \"contracts/ClaConvertNFT.sol\":3488:3489  i */\n      dup3\n        /* \"contracts/ClaConvertNFT.sol\":3478:3490  tokenList[i] */\n      dup2\n      mload\n      dup2\n      lt\n      tag_176\n      jumpi\n      invalid\n    tag_176:\n      0x20\n      mul\n      0x20\n      add\n      add\n      mload\n        /* \"contracts/ClaConvertNFT.sol\":3460:3490  uint256 tokenId = tokenList[i] */\n      swap1\n      pop\n        /* \"contracts/ClaConvertNFT.sol\":3552:3592  _pendingClaPerToken(tokenId, pendingCla) */\n      tag_177\n        /* \"contracts/ClaConvertNFT.sol\":3572:3579  tokenId */\n      dup2\n        /* \"contracts/ClaConvertNFT.sol\":3581:3591  pendingCla */\n      dup5\n        /* \"contracts/ClaConvertNFT.sol\":3552:3571  _pendingClaPerToken */\n      tag_178\n        /* \"contracts/ClaConvertNFT.sol\":3552:3592  _pendingClaPerToken(tokenId, pendingCla) */\n      jump\t// in\n    tag_177:\n        /* \"contracts/ClaConvertNFT.sol\":3514:3540  _distributedRewardPerToken */\n      0x0a\n        /* \"contracts/ClaConvertNFT.sol\":3514:3549  _distributedRewardPerToken[tokenId] */\n      0x00\n        /* \"contracts/ClaConvertNFT.sol\":3541:3548  tokenId */\n      dup4\n        /* \"contracts/ClaConvertNFT.sol\":3514:3549  _distributedRewardPerToken[tokenId] */\n      dup2\n      mstore\n      0x20\n      add\n      swap1\n      dup2\n      mstore\n      0x20\n      add\n      0x00\n      keccak256\n      sload\n        /* \"contracts/ClaConvertNFT.sol\":3514:3592  _distributedRewardPerToken[tokenId] + _pendingClaPerToken(tokenId, pendingCla) */\n      add\n        /* \"contracts/ClaConvertNFT.sol\":3499:3592  totalReward += _distributedRewardPerToken[tokenId] + _pendingClaPerToken(tokenId, pendingCla) */\n      dup5\n      add\n      swap4\n      pop\n        /* \"contracts/ClaConvertNFT.sol\":3406:3600  for (uint i = 0 ; i < tokenList.length; i++) {\r... */\n      pop\n        /* \"contracts/ClaConvertNFT.sol\":3446:3449  i++ */\n      dup1\n      dup1\n      0x01\n      add\n      swap2\n      pop\n      pop\n        /* \"contracts/ClaConvertNFT.sol\":3406:3600  for (uint i = 0 ; i < tokenList.length; i++) {\r... */\n      jump(tag_173)\n    tag_174:\n      pop\n        /* \"contracts/ClaConvertNFT.sol\":3613:3624  totalReward */\n      dup2\n        /* \"contracts/ClaConvertNFT.sol\":3606:3624  return totalReward */\n      swap4\n      pop\n      pop\n      pop\n      pop\n        /* \"contracts/ClaConvertNFT.sol\":3166:3630  function totalAccumulatedRewardCla(address owner) public view returns (uint256) {\r... */\n      swap2\n      swap1\n      pop\n      jump\t// out\n        /* \"@openzeppelin/contracts/token/ERC721/ERC721.sol\":7720:7989  function safeTransferFrom(address from, address to, uint256 tokenId, bytes memory _data) public {... */\n    tag_79:\n        /* \"@openzeppelin/contracts/token/ERC721/ERC721.sol\":7834:7875  _isApprovedOrOwner(_msgSender(), tokenId) */\n      tag_180\n        /* \"@openzeppelin/contracts/token/ERC721/ERC721.sol\":7853:7865  _msgSender() */\n      tag_181\n        /* \"@openzeppelin/contracts/token/ERC721/ERC721.sol\":7853:7863  _msgSender */\n      tag_101\n        /* \"@openzeppelin/contracts/token/ERC721/ERC721.sol\":7853:7865  _msgSender() */\n      jump\t// in\n    tag_181:\n        /* \"@openzeppelin/contracts/token/ERC721/ERC721.sol\":7867:7874  tokenId */\n      dup4\n        /* \"@openzeppelin/contracts/token/ERC721/ERC721.sol\":7834:7852  _isApprovedOrOwner */\n      tag_110\n        /* \"@openzeppelin/contracts/token/ERC721/ERC721.sol\":7834:7875  _isApprovedOrOwner(_msgSender(), tokenId) */\n      jump\t// in\n    tag_180:\n        /* \"@openzeppelin/contracts/token/ERC721/ERC721.sol\":7826:7929  require(_isApprovedOrOwner(_msgSender(), tokenId), \"ERC721: transfer caller is not owner nor approved\") */\n      tag_182\n      jumpi\n      mload(0x40)\n      0x08c379a000000000000000000000000000000000000000000000000000000000\n      dup2\n      mstore\n      0x04\n      add\n      dup1\n      dup1\n      0x20\n      add\n      dup3\n      dup2\n      sub\n      dup3\n      mstore\n      0x31\n      dup2\n      mstore\n      0x20\n      add\n      dup1\n      data_c8682f3ad98807db59a6ec6bb812b72fed0a66e3150fa8239699ee83885247f2\n      0x31\n      swap2\n      codecopy\n      0x40\n      add\n      swap2\n      pop\n      pop\n      mload(0x40)\n      dup1\n      swap2\n      sub\n      swap1\n      revert\n    tag_182:\n        /* \"@openzeppelin/contracts/token/ERC721/ERC721.sol\":7939:7982  _safeTransferFrom(from, to, tokenId, _data) */\n      tag_183\n        /* \"@openzeppelin/contracts/token/ERC721/ERC721.sol\":7957:7961  from */\n      dup5\n        /* \"@openzeppelin/contracts/token/ERC721/ERC721.sol\":7963:7965  to */\n      dup5\n        /* \"@openzeppelin/contracts/token/ERC721/ERC721.sol\":7967:7974  tokenId */\n      dup5\n        /* \"@openzeppelin/contracts/token/ERC721/ERC721.sol\":7976:7981  _data */\n      dup5\n        /* \"@openzeppelin/contracts/token/ERC721/ERC721.sol\":7939:7956  _safeTransferFrom */\n      tag_184\n        /* \"@openzeppelin/contracts/token/ERC721/ERC721.sol\":7939:7982  _safeTransferFrom(from, to, tokenId, _data) */\n      jump\t// in\n    tag_183:\n        /* \"@openzeppelin/contracts/token/ERC721/ERC721.sol\":7720:7989  function safeTransferFrom(address from, address to, uint256 tokenId, bytes memory _data) public {... */\n      pop\n      pop\n      pop\n      pop\n      jump\t// out\n        /* \"@openzeppelin/contracts/token/ERC721/ERC721.sol\":5347:5492  function isApprovedForAll(address owner, address operator) public view returns (bool) {... */\n    tag_82:\n        /* \"@openzeppelin/contracts/token/ERC721/ERC721.sol\":5427:5431  bool */\n      0x00\n        /* \"@openzeppelin/contracts/token/ERC721/ERC721.sol\":5450:5468  _operatorApprovals */\n      0x04\n        /* \"@openzeppelin/contracts/token/ERC721/ERC721.sol\":5450:5475  _operatorApprovals[owner] */\n      0x00\n        /* \"@openzeppelin/contracts/token/ERC721/ERC721.sol\":5469:5474  owner */\n      dup5\n        /* \"@openzeppelin/contracts/token/ERC721/ERC721.sol\":5450:5475  _operatorApprovals[owner] */\n      0xffffffffffffffffffffffffffffffffffffffff\n      and\n      0xffffffffffffffffffffffffffffffffffffffff\n      and\n      dup2\n      mstore\n      0x20\n      add\n      swap1\n      dup2\n      mstore\n      0x20\n      add\n      0x00\n      keccak256\n        /* \"@openzeppelin/contracts/token/ERC721/ERC721.sol\":5450:5485  _operatorApprovals[owner][operator] */\n      0x00\n        /* \"@openzeppelin/contracts/token/ERC721/ERC721.sol\":5476:5484  operator */\n      dup4\n        /* \"@openzeppelin/contracts/token/ERC721/ERC721.sol\":5450:5485  _operatorApprovals[owner][operator] */\n      0xffffffffffffffffffffffffffffffffffffffff\n      and\n      0xffffffffffffffffffffffffffffffffffffffff\n      and\n      dup2\n      mstore\n      0x20\n      add\n      swap1\n      dup2\n      mstore\n      0x20\n      add\n      0x00\n      keccak256\n      0x00\n      swap1\n      sload\n      swap1\n      0x0100\n      exp\n      swap1\n      div\n      0xff\n      and\n        /* \"@openzeppelin/contracts/token/ERC721/ERC721.sol\":5443:5485  return _operatorApprovals[owner][operator] */\n      swap1\n      pop\n        /* \"@openzeppelin/contracts/token/ERC721/ERC721.sol\":5347:5492  function isApprovedForAll(address owner, address operator) public view returns (bool) {... */\n      swap3\n      swap2\n      pop\n      pop\n      jump\t// out\n        /* \"contracts/ClaConvertNFT.sol\":4818:5109  function approveCla(uint256 amount) public returns (bool) {\r... */\n    tag_85:\n        /* \"contracts/ClaConvertNFT.sol\":4870:4874  bool */\n      0x00\n        /* \"contracts/ClaConvertNFT.sol\":4884:4894  bool check */\n      dup1\n        /* \"contracts/ClaConvertNFT.sol\":4896:4913  bytes memory data */\n      0x60\n        /* \"contracts/ClaConvertNFT.sol\":960:1002  0xCF87f94fD8F6B6f0b479771F10dF672f99eADa63 */\n      0xcf87f94fd8f6b6f0b479771f10df672f99eada63\n        /* \"contracts/ClaConvertNFT.sol\":4917:4951  address(CLA_CONTRACT).delegatecall */\n      0xffffffffffffffffffffffffffffffffffffffff\n      and\n        /* \"contracts/ClaConvertNFT.sol\":5012:5016  this */\n      address\n        /* \"contracts/ClaConvertNFT.sol\":5018:5024  amount */\n      dup6\n        /* \"contracts/ClaConvertNFT.sol\":4952:5025  abi.encodeWithSignature(\"approve(address, uint256)\",address(this),amount) */\n      add(0x24, mload(0x40))\n      dup1\n      dup4\n      0xffffffffffffffffffffffffffffffffffffffff\n      and\n      0xffffffffffffffffffffffffffffffffffffffff\n      and\n      dup2\n      mstore\n      0x20\n      add\n      dup3\n      dup2\n      mstore\n      0x20\n      add\n      swap3\n      pop\n      pop\n      pop\n      mload(0x40)\n        /* \"--CODEGEN--\":49:53   */\n      0x20\n        /* \"--CODEGEN--\":39:46   */\n      dup2\n        /* \"--CODEGEN--\":30:37   */\n      dup4\n        /* \"--CODEGEN--\":26:47   */\n      sub\n        /* \"--CODEGEN--\":22:54   */\n      sub\n        /* \"--CODEGEN--\":13:20   */\n      dup2\n        /* \"--CODEGEN--\":6:55   */\n      mstore\n        /* \"contracts/ClaConvertNFT.sol\":4952:5025  abi.encodeWithSignature(\"approve(address, uint256)\",address(this),amount) */\n      swap1\n      0x40\n      mstore\n      and(not(0xffffffffffffffffffffffffffffffffffffffffffffffffffffffff), 0x8b069f2a00000000000000000000000000000000000000000000000000000000)\n        /* \"--CODEGEN--\":38:42   */\n      0x20\n        /* \"--CODEGEN--\":29:36   */\n      dup3\n        /* \"--CODEGEN--\":25:43   */\n      add\n        /* \"--CODEGEN--\":67:77   */\n      dup1\n        /* \"--CODEGEN--\":61:78   */\n      mload\n        /* \"--CODEGEN--\":96:154   */\n      0xffffffffffffffffffffffffffffffffffffffffffffffffffffffff\n        /* \"--CODEGEN--\":199:207   */\n      dup4\n        /* \"--CODEGEN--\":192:196   */\n      dup2\n        /* \"--CODEGEN--\":186:190   */\n      dup4\n        /* \"--CODEGEN--\":182:197   */\n      and\n        /* \"--CODEGEN--\":179:208   */\n      or\n        /* \"--CODEGEN--\":167:177   */\n      dup4\n        /* \"--CODEGEN--\":160:209   */\n      mstore\n        /* \"--CODEGEN--\":0:215   */\n      pop\n      pop\n      pop\n        /* \"contracts/ClaConvertNFT.sol\":4952:5025  abi.encodeWithSignature(\"approve(address, uint256)\",address(this),amount) */\n      pop\n        /* \"contracts/ClaConvertNFT.sol\":4917:5026  address(CLA_CONTRACT).delegatecall(abi.encodeWithSignature(\"approve(address, uint256)\",address(this),amount)) */\n      mload(0x40)\n      dup1\n      dup3\n      dup1\n      mload\n      swap1\n      0x20\n      add\n      swap1\n      dup1\n      dup4\n      dup4\n        /* \"--CODEGEN--\":36:189   */\n    tag_187:\n        /* \"--CODEGEN--\":66:68   */\n      0x20\n        /* \"--CODEGEN--\":61:64   */\n      dup4\n        /* \"--CODEGEN--\":58:69   */\n      lt\n        /* \"--CODEGEN--\":36:189   */\n      tag_189\n      jumpi\n        /* \"--CODEGEN--\":182:185   */\n      dup1\n        /* \"--CODEGEN--\":176:186   */\n      mload\n        /* \"--CODEGEN--\":171:174   */\n      dup3\n        /* \"--CODEGEN--\":164:187   */\n      mstore\n        /* \"--CODEGEN--\":98:100   */\n      0x20\n        /* \"--CODEGEN--\":93:96   */\n      dup3\n        /* \"--CODEGEN--\":89:101   */\n      add\n        /* \"--CODEGEN--\":82:101   */\n      swap2\n      pop\n        /* \"--CODEGEN--\":123:125   */\n      0x20\n        /* \"--CODEGEN--\":118:121   */\n      dup2\n        /* \"--CODEGEN--\":114:126   */\n      add\n        /* \"--CODEGEN--\":107:126   */\n      swap1\n      pop\n        /* \"--CODEGEN--\":148:150   */\n      0x20\n        /* \"--CODEGEN--\":143:146   */\n      dup4\n        /* \"--CODEGEN--\":139:151   */\n      sub\n        /* \"--CODEGEN--\":132:151   */\n      swap3\n      pop\n        /* \"--CODEGEN--\":36:189   */\n      jump(tag_187)\n    tag_189:\n        /* \"--CODEGEN--\":274:275   */\n      0x01\n        /* \"--CODEGEN--\":267:270   */\n      dup4\n        /* \"--CODEGEN--\":263:265   */\n      0x20\n        /* \"--CODEGEN--\":259:271   */\n      sub\n        /* \"--CODEGEN--\":254:257   */\n      0x0100\n        /* \"--CODEGEN--\":250:272   */\n      exp\n        /* \"--CODEGEN--\":246:276   */\n      sub\n        /* \"--CODEGEN--\":315:319   */\n      dup1\n        /* \"--CODEGEN--\":311:320   */\n      not\n        /* \"--CODEGEN--\":305:308   */\n      dup3\n        /* \"--CODEGEN--\":299:309   */\n      mload\n        /* \"--CODEGEN--\":295:321   */\n      and\n        /* \"--CODEGEN--\":356:360   */\n      dup2\n        /* \"--CODEGEN--\":350:353   */\n      dup5\n        /* \"--CODEGEN--\":344:354   */\n      mload\n        /* \"--CODEGEN--\":340:361   */\n      and\n        /* \"--CODEGEN--\":389:396   */\n      dup1\n        /* \"--CODEGEN--\":380:387   */\n      dup3\n        /* \"--CODEGEN--\":377:397   */\n      or\n        /* \"--CODEGEN--\":372:375   */\n      dup6\n        /* \"--CODEGEN--\":365:398   */\n      mstore\n        /* \"--CODEGEN--\":3:402   */\n      pop\n      pop\n      pop\n        /* \"contracts/ClaConvertNFT.sol\":4917:5026  address(CLA_CONTRACT).delegatecall(abi.encodeWithSignature(\"approve(address, uint256)\",address(this),amount)) */\n      pop\n      pop\n      pop\n      swap1\n      pop\n      add\n      swap2\n      pop\n      pop\n      0x00\n      mload(0x40)\n      dup1\n      dup4\n      sub\n      dup2\n      dup6\n      gas\n      delegatecall\n      swap2\n      pop\n      pop\n      returndatasize\n        /* \"--CODEGEN--\":14:15   */\n      dup1\n        /* \"--CODEGEN--\":21:22   */\n      0x00\n        /* \"--CODEGEN--\":16:47   */\n      dup2\n      eq\n      tag_191\n      jumpi\n        /* \"--CODEGEN--\":75:79   */\n      0x40\n        /* \"--CODEGEN--\":69:80   */\n      mload\n        /* \"--CODEGEN--\":64:80   */\n      swap2\n      pop\n        /* \"--CODEGEN--\":144:148   */\n      0x1f\n        /* \"--CODEGEN--\":140:149   */\n      not\n        /* \"--CODEGEN--\":133:137   */\n      0x3f\n        /* \"--CODEGEN--\":115:131   */\n      returndatasize\n        /* \"--CODEGEN--\":111:138   */\n      add\n        /* \"--CODEGEN--\":107:150   */\n      and\n        /* \"--CODEGEN--\":104:105   */\n      dup3\n        /* \"--CODEGEN--\":100:151   */\n      add\n        /* \"--CODEGEN--\":94:98   */\n      0x40\n        /* \"--CODEGEN--\":87:152   */\n      mstore\n        /* \"--CODEGEN--\":169:185   */\n      returndatasize\n        /* \"--CODEGEN--\":166:167   */\n      dup3\n        /* \"--CODEGEN--\":159:186   */\n      mstore\n        /* \"--CODEGEN--\":225:241   */\n      returndatasize\n        /* \"--CODEGEN--\":222:223   */\n      0x00\n        /* \"--CODEGEN--\":215:219   */\n      0x20\n        /* \"--CODEGEN--\":212:213   */\n      dup5\n        /* \"--CODEGEN--\":208:220   */\n      add\n        /* \"--CODEGEN--\":193:242   */\n      returndatacopy\n        /* \"--CODEGEN--\":7:249   */\n      jump(tag_190)\n        /* \"--CODEGEN--\":16:47   */\n    tag_191:\n        /* \"--CODEGEN--\":36:40   */\n      0x60\n        /* \"--CODEGEN--\":31:40   */\n      swap2\n      pop\n        /* \"--CODEGEN--\":7:249   */\n    tag_190:\n      pop\n        /* \"contracts/ClaConvertNFT.sol\":4883:5026  (bool check, bytes memory data) = address(CLA_CONTRACT).delegatecall(abi.encodeWithSignature(\"approve(address, uint256)\",address(this),amount)) */\n      swap2\n      pop\n      swap2\n      pop\n        /* \"contracts/ClaConvertNFT.sol\":5036:5051  bool returnBool */\n      0x00\n        /* \"contracts/ClaConvertNFT.sol\":5066:5070  data */\n      dup2\n        /* \"contracts/ClaConvertNFT.sol\":5055:5079  abi.decode(data, (bool)) */\n      dup1\n      0x20\n      add\n      swap1\n      mload\n        /* \"--CODEGEN--\":13:15   */\n      0x20\n        /* \"--CODEGEN--\":8:11   */\n      dup2\n        /* \"--CODEGEN--\":5:16   */\n      lt\n        /* \"--CODEGEN--\":2:4   */\n      iszero\n      tag_192\n      jumpi\n        /* \"--CODEGEN--\":29:30   */\n      0x00\n        /* \"--CODEGEN--\":26:27   */\n      dup1\n        /* \"--CODEGEN--\":19:31   */\n      revert\n        /* \"--CODEGEN--\":2:4   */\n    tag_192:\n        /* \"contracts/ClaConvertNFT.sol\":5055:5079  abi.decode(data, (bool)) */\n      dup2\n      add\n      swap1\n      dup1\n      dup1\n      mload\n      swap1\n      0x20\n      add\n      swap1\n      swap3\n      swap2\n      swap1\n      pop\n      pop\n      pop\n        /* \"contracts/ClaConvertNFT.sol\":5035:5079  (bool returnBool) = abi.decode(data, (bool)) */\n      swap1\n      pop\n        /* \"contracts/ClaConvertNFT.sol\":5093:5103  returnBool */\n      dup1\n        /* \"contracts/ClaConvertNFT.sol\":5086:5103  return returnBool */\n      swap4\n      pop\n      pop\n      pop\n      pop\n        /* \"contracts/ClaConvertNFT.sol\":4818:5109  function approveCla(uint256 amount) public returns (bool) {\r... */\n      swap2\n      swap1\n      pop\n      jump\t// out\n        /* \"contracts/ClaConvertNFT.sol\":2849:3089  function accumulatedRewardCla(uint tokenId) public view returns (uint256) {\r... */\n    tag_88:\n        /* \"contracts/ClaConvertNFT.sol\":2914:2921  uint256 */\n      0x00\n        /* \"contracts/ClaConvertNFT.sol\":2930:2948  uint256 pendingCla */\n      dup1\n        /* \"contracts/ClaConvertNFT.sol\":2951:2965  claDistributor */\n      0x0d\n      0x00\n      swap1\n      sload\n      swap1\n      0x0100\n      exp\n      swap1\n      div\n      0xffffffffffffffffffffffffffffffffffffffff\n      and\n        /* \"contracts/ClaConvertNFT.sol\":2951:2976  claDistributor.pendingCla */\n      0xffffffffffffffffffffffffffffffffffffffff\n      and\n      0x77b170f2\n        /* \"contracts/ClaConvertNFT.sol\":2985:2989  this */\n      address\n        /* \"contracts/ClaConvertNFT.sol\":2951:2991  claDistributor.pendingCla(address(this)) */\n      mload(0x40)\n      dup3\n      0xffffffff\n      and\n      0xe0\n      shl\n      dup2\n      mstore\n      0x04\n      add\n      dup1\n      dup3\n      0xffffffffffffffffffffffffffffffffffffffff\n      and\n      0xffffffffffffffffffffffffffffffffffffffff\n      and\n      dup2\n      mstore\n      0x20\n      add\n      swap2\n      pop\n      pop\n      0x20\n      mload(0x40)\n      dup1\n      dup4\n      sub\n      dup2\n      dup7\n      dup1\n      extcodesize\n      iszero\n        /* \"--CODEGEN--\":8:17   */\n      dup1\n        /* \"--CODEGEN--\":5:7   */\n      iszero\n      tag_194\n      jumpi\n        /* \"--CODEGEN--\":30:31   */\n      0x00\n        /* \"--CODEGEN--\":27:28   */\n      dup1\n        /* \"--CODEGEN--\":20:32   */\n      revert\n        /* \"--CODEGEN--\":5:7   */\n    tag_194:\n        /* \"contracts/ClaConvertNFT.sol\":2951:2991  claDistributor.pendingCla(address(this)) */\n      pop\n      gas\n      staticcall\n      iszero\n        /* \"--CODEGEN--\":8:17   */\n      dup1\n        /* \"--CODEGEN--\":5:7   */\n      iszero\n      tag_195\n      jumpi\n        /* \"--CODEGEN--\":45:61   */\n      returndatasize\n        /* \"--CODEGEN--\":42:43   */\n      0x00\n        /* \"--CODEGEN--\":39:40   */\n      dup1\n        /* \"--CODEGEN--\":24:62   */\n      returndatacopy\n        /* \"--CODEGEN--\":77:93   */\n      returndatasize\n        /* \"--CODEGEN--\":74:75   */\n      0x00\n        /* \"--CODEGEN--\":67:94   */\n      revert\n        /* \"--CODEGEN--\":5:7   */\n    tag_195:\n        /* \"contracts/ClaConvertNFT.sol\":2951:2991  claDistributor.pendingCla(address(this)) */\n      pop\n      pop\n      pop\n      pop\n      mload(0x40)\n      returndatasize\n        /* \"--CODEGEN--\":13:15   */\n      0x20\n        /* \"--CODEGEN--\":8:11   */\n      dup2\n        /* \"--CODEGEN--\":5:16   */\n      lt\n        /* \"--CODEGEN--\":2:4   */\n      iszero\n      tag_196\n      jumpi\n        /* \"--CODEGEN--\":29:30   */\n      0x00\n        /* \"--CODEGEN--\":26:27   */\n      dup1\n        /* \"--CODEGEN--\":19:31   */\n      revert\n        /* \"--CODEGEN--\":2:4   */\n    tag_196:\n        /* \"contracts/ClaConvertNFT.sol\":2951:2991  claDistributor.pendingCla(address(this)) */\n      dup2\n      add\n      swap1\n      dup1\n      dup1\n      mload\n      swap1\n      0x20\n      add\n      swap1\n      swap3\n      swap2\n      swap1\n      pop\n      pop\n      pop\n        /* \"contracts/ClaConvertNFT.sol\":2930:2991  uint256 pendingCla = claDistributor.pendingCla(address(this)) */\n      swap1\n      pop\n        /* \"contracts/ClaConvertNFT.sol\":3043:3083  _pendingClaPerToken(tokenId, pendingCla) */\n      tag_197\n        /* \"contracts/ClaConvertNFT.sol\":3063:3070  tokenId */\n      dup4\n        /* \"contracts/ClaConvertNFT.sol\":3072:3082  pendingCla */\n      dup3\n        /* \"contracts/ClaConvertNFT.sol\":3043:3062  _pendingClaPerToken */\n      tag_178\n        /* \"contracts/ClaConvertNFT.sol\":3043:3083  _pendingClaPerToken(tokenId, pendingCla) */\n      jump\t// in\n    tag_197:\n        /* \"contracts/ClaConvertNFT.sol\":3005:3031  _distributedRewardPerToken */\n      0x0a\n        /* \"contracts/ClaConvertNFT.sol\":3005:3040  _distributedRewardPerToken[tokenId] */\n      0x00\n        /* \"contracts/ClaConvertNFT.sol\":3032:3039  tokenId */\n      dup6\n        /* \"contracts/ClaConvertNFT.sol\":3005:3040  _distributedRewardPerToken[tokenId] */\n      dup2\n      mstore\n      0x20\n      add\n      swap1\n      dup2\n      mstore\n      0x20\n      add\n      0x00\n      keccak256\n      sload\n        /* \"contracts/ClaConvertNFT.sol\":3005:3083  _distributedRewardPerToken[tokenId] + _pendingClaPerToken(tokenId, pendingCla) */\n      add\n        /* \"contracts/ClaConvertNFT.sol\":2998:3083  return _distributedRewardPerToken[tokenId] + _pendingClaPerToken(tokenId, pendingCla) */\n      swap2\n      pop\n      pop\n        /* \"contracts/ClaConvertNFT.sol\":2849:3089  function accumulatedRewardCla(uint tokenId) public view returns (uint256) {\r... */\n      swap2\n      swap1\n      pop\n      jump\t// out\n        /* \"contracts/ClaConvertNFT.sol\":5843:6170  function claimClaReward(uint256 tokenId) public {\r... */\n    tag_91:\n        /* \"contracts/ClaConvertNFT.sol\":5920:5936  ownerOf(tokenId) */\n      tag_199\n        /* \"contracts/ClaConvertNFT.sol\":5928:5935  tokenId */\n      dup2\n        /* \"contracts/ClaConvertNFT.sol\":5920:5927  ownerOf */\n      tag_55\n        /* \"contracts/ClaConvertNFT.sol\":5920:5936  ownerOf(tokenId) */\n      jump\t// in\n    tag_199:\n        /* \"contracts/ClaConvertNFT.sol\":5906:5936  msg.sender == ownerOf(tokenId) */\n      0xffffffffffffffffffffffffffffffffffffffff\n      and\n        /* \"contracts/ClaConvertNFT.sol\":5906:5916  msg.sender */\n      caller\n        /* \"contracts/ClaConvertNFT.sol\":5906:5936  msg.sender == ownerOf(tokenId) */\n      0xffffffffffffffffffffffffffffffffffffffff\n      and\n      eq\n        /* \"contracts/ClaConvertNFT.sol\":5898:5937  require(msg.sender == ownerOf(tokenId)) */\n      tag_200\n      jumpi\n      0x00\n      dup1\n      revert\n    tag_200:\n        /* \"contracts/ClaConvertNFT.sol\":5944:5968  _updateAllTokensReward() */\n      tag_201\n        /* \"contracts/ClaConvertNFT.sol\":5944:5966  _updateAllTokensReward */\n      tag_160\n        /* \"contracts/ClaConvertNFT.sol\":5944:5968  _updateAllTokensReward() */\n      jump\t// in\n    tag_201:\n        /* \"contracts/ClaConvertNFT.sol\":6021:6022  0 */\n      0x00\n        /* \"contracts/ClaConvertNFT.sol\":5983:6009  _distributedRewardPerToken */\n      0x0a\n        /* \"contracts/ClaConvertNFT.sol\":5983:6018  _distributedRewardPerToken[tokenId] */\n      0x00\n        /* \"contracts/ClaConvertNFT.sol\":6010:6017  tokenId */\n      dup4\n        /* \"contracts/ClaConvertNFT.sol\":5983:6018  _distributedRewardPerToken[tokenId] */\n      dup2\n      mstore\n      0x20\n      add\n      swap1\n      dup2\n      mstore\n      0x20\n      add\n      0x00\n      keccak256\n      sload\n        /* \"contracts/ClaConvertNFT.sol\":5983:6022  _distributedRewardPerToken[tokenId] > 0 */\n      gt\n        /* \"contracts/ClaConvertNFT.sol\":5975:6023  require(_distributedRewardPerToken[tokenId] > 0) */\n      tag_202\n      jumpi\n      0x00\n      dup1\n      revert\n    tag_202:\n        /* \"contracts/ClaConvertNFT.sol\":6030:6041  claContract */\n      0x0b\n      0x00\n      swap1\n      sload\n      swap1\n      0x0100\n      exp\n      swap1\n      div\n      0xffffffffffffffffffffffffffffffffffffffff\n      and\n        /* \"contracts/ClaConvertNFT.sol\":6030:6054  claContract.transferFrom */\n      0xffffffffffffffffffffffffffffffffffffffff\n      and\n      0x23b872dd\n        /* \"contracts/ClaConvertNFT.sol\":6063:6067  this */\n      address\n        /* \"contracts/ClaConvertNFT.sol\":6070:6080  msg.sender */\n      caller\n        /* \"contracts/ClaConvertNFT.sol\":6082:6108  _distributedRewardPerToken */\n      0x0a\n        /* \"contracts/ClaConvertNFT.sol\":6082:6117  _distributedRewardPerToken[tokenId] */\n      0x00\n        /* \"contracts/ClaConvertNFT.sol\":6109:6116  tokenId */\n      dup7\n        /* \"contracts/ClaConvertNFT.sol\":6082:6117  _distributedRewardPerToken[tokenId] */\n      dup2\n      mstore\n      0x20\n      add\n      swap1\n      dup2\n      mstore\n      0x20\n      add\n      0x00\n      keccak256\n      sload\n        /* \"contracts/ClaConvertNFT.sol\":6030:6118  claContract.transferFrom(address(this), msg.sender, _distributedRewardPerToken[tokenId]) */\n      mload(0x40)\n      dup5\n      0xffffffff\n      and\n      0xe0\n      shl\n      dup2\n      mstore\n      0x04\n      add\n      dup1\n      dup5\n      0xffffffffffffffffffffffffffffffffffffffff\n      and\n      0xffffffffffffffffffffffffffffffffffffffff\n      and\n      dup2\n      mstore\n      0x20\n      add\n      dup4\n      0xffffffffffffffffffffffffffffffffffffffff\n      and\n      0xffffffffffffffffffffffffffffffffffffffff\n      and\n      dup2\n      mstore\n      0x20\n      add\n      dup3\n      dup2\n      mstore\n      0x20\n      add\n      swap4\n      pop\n      pop\n      pop\n      pop\n      0x20\n      mload(0x40)\n      dup1\n      dup4\n      sub\n      dup2\n      0x00\n      dup8\n      dup1\n      extcodesize\n      iszero\n        /* \"--CODEGEN--\":8:17   */\n      dup1\n        /* \"--CODEGEN--\":5:7   */\n      iszero\n      tag_203\n      jumpi\n        /* \"--CODEGEN--\":30:31   */\n      0x00\n        /* \"--CODEGEN--\":27:28   */\n      dup1\n        /* \"--CODEGEN--\":20:32   */\n      revert\n        /* \"--CODEGEN--\":5:7   */\n    tag_203:\n        /* \"contracts/ClaConvertNFT.sol\":6030:6118  claContract.transferFrom(address(this), msg.sender, _distributedRewardPerToken[tokenId]) */\n      pop\n      gas\n      call\n      iszero\n        /* \"--CODEGEN--\":8:17   */\n      dup1\n        /* \"--CODEGEN--\":5:7   */\n      iszero\n      tag_204\n      jumpi\n        /* \"--CODEGEN--\":45:61   */\n      returndatasize\n        /* \"--CODEGEN--\":42:43   */\n      0x00\n        /* \"--CODEGEN--\":39:40   */\n      dup1\n        /* \"--CODEGEN--\":24:62   */\n      returndatacopy\n        /* \"--CODEGEN--\":77:93   */\n      returndatasize\n        /* \"--CODEGEN--\":74:75   */\n      0x00\n        /* \"--CODEGEN--\":67:94   */\n      revert\n        /* \"--CODEGEN--\":5:7   */\n    tag_204:\n        /* \"contracts/ClaConvertNFT.sol\":6030:6118  claContract.transferFrom(address(this), msg.sender, _distributedRewardPerToken[tokenId]) */\n      pop\n      pop\n      pop\n      pop\n      mload(0x40)\n      returndatasize\n        /* \"--CODEGEN--\":13:15   */\n      0x20\n        /* \"--CODEGEN--\":8:11   */\n      dup2\n        /* \"--CODEGEN--\":5:16   */\n      lt\n        /* \"--CODEGEN--\":2:4   */\n      iszero\n      tag_205\n      jumpi\n        /* \"--CODEGEN--\":29:30   */\n      0x00\n        /* \"--CODEGEN--\":26:27   */\n      dup1\n        /* \"--CODEGEN--\":19:31   */\n      revert\n        /* \"--CODEGEN--\":2:4   */\n    tag_205:\n        /* \"contracts/ClaConvertNFT.sol\":6030:6118  claContract.transferFrom(address(this), msg.sender, _distributedRewardPerToken[tokenId]) */\n      dup2\n      add\n      swap1\n      dup1\n      dup1\n      mload\n      swap1\n      0x20\n      add\n      swap1\n      swap3\n      swap2\n      swap1\n      pop\n      pop\n      pop\n      pop\n        /* \"contracts/ClaConvertNFT.sol\":6163:6164  0 */\n      0x00\n        /* \"contracts/ClaConvertNFT.sol\":6125:6151  _distributedRewardPerToken */\n      0x0a\n        /* \"contracts/ClaConvertNFT.sol\":6125:6160  _distributedRewardPerToken[tokenId] */\n      0x00\n        /* \"contracts/ClaConvertNFT.sol\":6152:6159  tokenId */\n      dup4\n        /* \"contracts/ClaConvertNFT.sol\":6125:6160  _distributedRewardPerToken[tokenId] */\n      dup2\n      mstore\n      0x20\n      add\n      swap1\n      dup2\n      mstore\n      0x20\n      add\n      0x00\n      keccak256\n        /* \"contracts/ClaConvertNFT.sol\":6125:6164  _distributedRewardPerToken[tokenId] = 0 */\n      dup2\n      swap1\n      sstore\n      pop\n        /* \"contracts/ClaConvertNFT.sol\":5843:6170  function claimClaReward(uint256 tokenId) public {\r... */\n      pop\n      jump\t// out\n        /* \"@openzeppelin/contracts/token/ERC721/ERC721.sol\":9158:9310  function _exists(uint256 tokenId) internal view returns (bool) {... */\n    tag_95:\n        /* \"@openzeppelin/contracts/token/ERC721/ERC721.sol\":9215:9219  bool */\n      0x00\n        /* \"@openzeppelin/contracts/token/ERC721/ERC721.sol\":9231:9244  address owner */\n      dup1\n        /* \"@openzeppelin/contracts/token/ERC721/ERC721.sol\":9247:9258  _tokenOwner */\n      0x01\n        /* \"@openzeppelin/contracts/token/ERC721/ERC721.sol\":9247:9267  _tokenOwner[tokenId] */\n      0x00\n        /* \"@openzeppelin/contracts/token/ERC721/ERC721.sol\":9259:9266  tokenId */\n      dup5\n        /* \"@openzeppelin/contracts/token/ERC721/ERC721.sol\":9247:9267  _tokenOwner[tokenId] */\n      dup2\n      mstore\n      0x20\n      add\n      swap1\n      dup2\n      mstore\n      0x20\n      add\n      0x00\n      keccak256\n      0x00\n      swap1\n      sload\n      swap1\n      0x0100\n      exp\n      swap1\n      div\n      0xffffffffffffffffffffffffffffffffffffffff\n      and\n        /* \"@openzeppelin/contracts/token/ERC721/ERC721.sol\":9231:9267  address owner = _tokenOwner[tokenId] */\n      swap1\n      pop\n        /* \"@openzeppelin/contracts/token/ERC721/ERC721.sol\":9301:9302  0 */\n      0x00\n        /* \"@openzeppelin/contracts/token/ERC721/ERC721.sol\":9284:9303  owner != address(0) */\n      0xffffffffffffffffffffffffffffffffffffffff\n      and\n        /* \"@openzeppelin/contracts/token/ERC721/ERC721.sol\":9284:9289  owner */\n      dup2\n        /* \"@openzeppelin/contracts/token/ERC721/ERC721.sol\":9284:9303  owner != address(0) */\n      0xffffffffffffffffffffffffffffffffffffffff\n      and\n      eq\n      iszero\n        /* \"@openzeppelin/contracts/token/ERC721/ERC721.sol\":9277:9303  return owner != address(0) */\n      swap2\n      pop\n      pop\n        /* \"@openzeppelin/contracts/token/ERC721/ERC721.sol\":9158:9310  function _exists(uint256 tokenId) internal view returns (bool) {... */\n      swap2\n      swap1\n      pop\n      jump\t// out\n        /* \"@openzeppelin/contracts/GSN/Context.sol\":788:884  function _msgSender() internal view returns (address payable) {... */\n    tag_101:\n        /* \"@openzeppelin/contracts/GSN/Context.sol\":833:848  address payable */\n      0x00\n        /* \"@openzeppelin/contracts/GSN/Context.sol\":867:877  msg.sender */\n      caller\n        /* \"@openzeppelin/contracts/GSN/Context.sol\":860:877  return msg.sender */\n      swap1\n      pop\n        /* \"@openzeppelin/contracts/GSN/Context.sol\":788:884  function _msgSender() internal view returns (address payable) {... */\n      swap1\n      jump\t// out\n        /* \"@openzeppelin/contracts/token/ERC721/ERC721.sol\":9671:10000  function _isApprovedOrOwner(address spender, uint256 tokenId) internal view returns (bool) {... */\n    tag_110:\n        /* \"@openzeppelin/contracts/token/ERC721/ERC721.sol\":9756:9760  bool */\n      0x00\n        /* \"@openzeppelin/contracts/token/ERC721/ERC721.sol\":9780:9796  _exists(tokenId) */\n      tag_209\n        /* \"@openzeppelin/contracts/token/ERC721/ERC721.sol\":9788:9795  tokenId */\n      dup3\n        /* \"@openzeppelin/contracts/token/ERC721/ERC721.sol\":9780:9787  _exists */\n      tag_95\n        /* \"@openzeppelin/contracts/token/ERC721/ERC721.sol\":9780:9796  _exists(tokenId) */\n      jump\t// in\n    tag_209:\n        /* \"@openzeppelin/contracts/token/ERC721/ERC721.sol\":9772:9845  require(_exists(tokenId), \"ERC721: operator query for nonexistent token\") */\n      tag_210\n      jumpi\n      mload(0x40)\n      0x08c379a000000000000000000000000000000000000000000000000000000000\n      dup2\n      mstore\n      0x04\n      add\n      dup1\n      dup1\n      0x20\n      add\n      dup3\n      dup2\n      sub\n      dup3\n      mstore\n      0x2c\n      dup2\n      mstore\n      0x20\n      add\n      dup1\n      data_5797d1ccb08b83980dd0c07ea40d8f6a64d35fff736a19bdd17522954cb0899c\n      0x2c\n      swap2\n      codecopy\n      0x40\n      add\n      swap2\n      pop\n      pop\n      mload(0x40)\n      dup1\n      swap2\n      sub\n      swap1\n      revert\n    tag_210:\n        /* \"@openzeppelin/contracts/token/ERC721/ERC721.sol\":9855:9868  address owner */\n      0x00\n        /* \"@openzeppelin/contracts/token/ERC721/ERC721.sol\":9871:9887  ownerOf(tokenId) */\n      tag_211\n        /* \"@openzeppelin/contracts/token/ERC721/ERC721.sol\":9879:9886  tokenId */\n      dup4\n        /* \"@openzeppelin/contracts/token/ERC721/ERC721.sol\":9871:9878  ownerOf */\n      tag_55\n        /* \"@openzeppelin/contracts/token/ERC721/ERC721.sol\":9871:9887  ownerOf(tokenId) */\n      jump\t// in\n    tag_211:\n        /* \"@openzeppelin/contracts/token/ERC721/ERC721.sol\":9855:9887  address owner = ownerOf(tokenId) */\n      swap1\n      pop\n        /* \"@openzeppelin/contracts/token/ERC721/ERC721.sol\":9916:9921  owner */\n      dup1\n        /* \"@openzeppelin/contracts/token/ERC721/ERC721.sol\":9905:9921  spender == owner */\n      0xffffffffffffffffffffffffffffffffffffffff\n      and\n        /* \"@openzeppelin/contracts/token/ERC721/ERC721.sol\":9905:9912  spender */\n      dup5\n        /* \"@openzeppelin/contracts/token/ERC721/ERC721.sol\":9905:9921  spender == owner */\n      0xffffffffffffffffffffffffffffffffffffffff\n      and\n      eq\n        /* \"@openzeppelin/contracts/token/ERC721/ERC721.sol\":9905:9956  spender == owner || getApproved(tokenId) == spender */\n      dup1\n      tag_212\n      jumpi\n      pop\n        /* \"@openzeppelin/contracts/token/ERC721/ERC721.sol\":9949:9956  spender */\n      dup4\n        /* \"@openzeppelin/contracts/token/ERC721/ERC721.sol\":9925:9956  getApproved(tokenId) == spender */\n      0xffffffffffffffffffffffffffffffffffffffff\n      and\n        /* \"@openzeppelin/contracts/token/ERC721/ERC721.sol\":9925:9945  getApproved(tokenId) */\n      tag_213\n        /* \"@openzeppelin/contracts/token/ERC721/ERC721.sol\":9937:9944  tokenId */\n      dup5\n        /* \"@openzeppelin/contracts/token/ERC721/ERC721.sol\":9925:9936  getApproved */\n      tag_32\n        /* \"@openzeppelin/contracts/token/ERC721/ERC721.sol\":9925:9945  getApproved(tokenId) */\n      jump\t// in\n    tag_213:\n        /* \"@openzeppelin/contracts/token/ERC721/ERC721.sol\":9925:9956  getApproved(tokenId) == spender */\n      0xffffffffffffffffffffffffffffffffffffffff\n      and\n      eq\n        /* \"@openzeppelin/contracts/token/ERC721/ERC721.sol\":9905:9956  spender == owner || getApproved(tokenId) == spender */\n    tag_212:\n        /* \"@openzeppelin/contracts/token/ERC721/ERC721.sol\":9905:9992  spender == owner || getApproved(tokenId) == spender || isApprovedForAll(owner, spender) */\n      dup1\n      tag_214\n      jumpi\n      pop\n        /* \"@openzeppelin/contracts/token/ERC721/ERC721.sol\":9960:9992  isApprovedForAll(owner, spender) */\n      tag_215\n        /* \"@openzeppelin/contracts/token/ERC721/ERC721.sol\":9977:9982  owner */\n      dup2\n        /* \"@openzeppelin/contracts/token/ERC721/ERC721.sol\":9984:9991  spender */\n      dup6\n        /* \"@openzeppelin/contracts/token/ERC721/ERC721.sol\":9960:9976  isApprovedForAll */\n      tag_82\n        /* \"@openzeppelin/contracts/token/ERC721/ERC721.sol\":9960:9992  isApprovedForAll(owner, spender) */\n      jump\t// in\n    tag_215:\n        /* \"@openzeppelin/contracts/token/ERC721/ERC721.sol\":9905:9992  spender == owner || getApproved(tokenId) == spender || isApprovedForAll(owner, spender) */\n    tag_214:\n        /* \"@openzeppelin/contracts/token/ERC721/ERC721.sol\":9897:9993  return (spender == owner || getApproved(tokenId) == spender || isApprovedForAll(owner, spender)) */\n      swap2\n      pop\n      pop\n        /* \"@openzeppelin/contracts/token/ERC721/ERC721.sol\":9671:10000  function _isApprovedOrOwner(address spender, uint256 tokenId) internal view returns (bool) {... */\n      swap3\n      swap2\n      pop\n      pop\n      jump\t// out\n        /* \"@openzeppelin/contracts/token/ERC721/ERC721Enumerable.sol\":3174:3413  function _transferFrom(address from, address to, uint256 tokenId) internal {... */\n    tag_113:\n        /* \"@openzeppelin/contracts/token/ERC721/ERC721Enumerable.sol\":3259:3297  super._transferFrom(from, to, tokenId) */\n      tag_217\n        /* \"@openzeppelin/contracts/token/ERC721/ERC721Enumerable.sol\":3279:3283  from */\n      dup4\n        /* \"@openzeppelin/contracts/token/ERC721/ERC721Enumerable.sol\":3285:3287  to */\n      dup4\n        /* \"@openzeppelin/contracts/token/ERC721/ERC721Enumerable.sol\":3289:3296  tokenId */\n      dup4\n        /* \"@openzeppelin/contracts/token/ERC721/ERC721Enumerable.sol\":3259:3278  super._transferFrom */\n      tag_218\n        /* \"@openzeppelin/contracts/token/ERC721/ERC721Enumerable.sol\":3259:3297  super._transferFrom(from, to, tokenId) */\n      jump\t// in\n    tag_217:\n        /* \"@openzeppelin/contracts/token/ERC721/ERC721Enumerable.sol\":3308:3355  _removeTokenFromOwnerEnumeration(from, tokenId) */\n      tag_219\n        /* \"@openzeppelin/contracts/token/ERC721/ERC721Enumerable.sol\":3341:3345  from */\n      dup4\n        /* \"@openzeppelin/contracts/token/ERC721/ERC721Enumerable.sol\":3347:3354  tokenId */\n      dup3\n        /* \"@openzeppelin/contracts/token/ERC721/ERC721Enumerable.sol\":3308:3340  _removeTokenFromOwnerEnumeration */\n      tag_220\n        /* \"@openzeppelin/contracts/token/ERC721/ERC721Enumerable.sol\":3308:3355  _removeTokenFromOwnerEnumeration(from, tokenId) */\n      jump\t// in\n    tag_219:\n        /* \"@openzeppelin/contracts/token/ERC721/ERC721Enumerable.sol\":3366:3406  _addTokenToOwnerEnumeration(to, tokenId) */\n      tag_221\n        /* \"@openzeppelin/contracts/token/ERC721/ERC721Enumerable.sol\":3394:3396  to */\n      dup3\n        /* \"@openzeppelin/contracts/token/ERC721/ERC721Enumerable.sol\":3398:3405  tokenId */\n      dup3\n        /* \"@openzeppelin/contracts/token/ERC721/ERC721Enumerable.sol\":3366:3393  _addTokenToOwnerEnumeration */\n      tag_222\n        /* \"@openzeppelin/contracts/token/ERC721/ERC721Enumerable.sol\":3366:3406  _addTokenToOwnerEnumeration(to, tokenId) */\n      jump\t// in\n    tag_221:\n        /* \"@openzeppelin/contracts/token/ERC721/ERC721Enumerable.sol\":3174:3413  function _transferFrom(address from, address to, uint256 tokenId) internal {... */\n      pop\n      pop\n      pop\n      jump\t// out\n        /* \"contracts/ClaConvertNFT.sol\":6213:6319  function _getDay() private view returns (uint32) {\r... */\n    tag_125:\n        /* \"contracts/ClaConvertNFT.sol\":6254:6260  uint32 */\n      0x00\n        /* \"contracts/ClaConvertNFT.sol\":6306:6312  1 days */\n      0x015180\n        /* \"contracts/ClaConvertNFT.sol\":6288:6303  block.timestamp */\n      timestamp\n        /* \"contracts/ClaConvertNFT.sol\":6288:6312  block.timestamp / 1 days */\n      dup2\n      tag_224\n      jumpi\n      invalid\n    tag_224:\n      div\n        /* \"contracts/ClaConvertNFT.sol\":6274:6313  return uint32(block.timestamp / 1 days) */\n      swap1\n      pop\n        /* \"contracts/ClaConvertNFT.sol\":6213:6319  function _getDay() private view returns (uint32) {\r... */\n      swap1\n      jump\t// out\n        /* \"@openzeppelin/contracts/token/ERC721/ERC721.sol\":12814:12904  function _burn(uint256 tokenId) internal {... */\n    tag_133:\n        /* \"@openzeppelin/contracts/token/ERC721/ERC721.sol\":12865:12897  _burn(ownerOf(tokenId), tokenId) */\n      tag_226\n        /* \"@openzeppelin/contracts/token/ERC721/ERC721.sol\":12871:12887  ownerOf(tokenId) */\n      tag_227\n        /* \"@openzeppelin/contracts/token/ERC721/ERC721.sol\":12879:12886  tokenId */\n      dup3\n        /* \"@openzeppelin/contracts/token/ERC721/ERC721.sol\":12871:12878  ownerOf */\n      tag_55\n        /* \"@openzeppelin/contracts/token/ERC721/ERC721.sol\":12871:12887  ownerOf(tokenId) */\n      jump\t// in\n    tag_227:\n        /* \"@openzeppelin/contracts/token/ERC721/ERC721.sol\":12889:12896  tokenId */\n      dup3\n        /* \"@openzeppelin/contracts/token/ERC721/ERC721.sol\":12865:12870  _burn */\n      tag_228\n        /* \"@openzeppelin/contracts/token/ERC721/ERC721.sol\":12865:12897  _burn(ownerOf(tokenId), tokenId) */\n      jump\t// in\n    tag_226:\n        /* \"@openzeppelin/contracts/token/ERC721/ERC721.sol\":12814:12904  function _burn(uint256 tokenId) internal {... */\n      pop\n      jump\t// out\n        /* \"@openzeppelin/contracts/drafts/Counters.sol\":1065:1177  function current(Counter storage counter) internal view returns (uint256) {... */\n    tag_144:\n        /* \"@openzeppelin/contracts/drafts/Counters.sol\":1130:1137  uint256 */\n      0x00\n        /* \"@openzeppelin/contracts/drafts/Counters.sol\":1156:1163  counter */\n      dup2\n        /* \"@openzeppelin/contracts/drafts/Counters.sol\":1156:1170  counter._value */\n      0x00\n      add\n      sload\n        /* \"@openzeppelin/contracts/drafts/Counters.sol\":1149:1170  return counter._value */\n      swap1\n      pop\n        /* \"@openzeppelin/contracts/drafts/Counters.sol\":1065:1177  function current(Counter storage counter) internal view returns (uint256) {... */\n      swap2\n      swap1\n      pop\n      jump\t// out\n        /* \"contracts/ClaConvertNFT.sol\":4156:4595  function _updateAllTokensReward() private {\r... */\n    tag_160:\n        /* \"contracts/ClaConvertNFT.sol\":4205:4223  uint256 pendingCla */\n      0x00\n        /* \"contracts/ClaConvertNFT.sol\":4226:4240  claDistributor */\n      0x0d\n      0x00\n      swap1\n      sload\n      swap1\n      0x0100\n      exp\n      swap1\n      div\n      0xffffffffffffffffffffffffffffffffffffffff\n      and\n        /* \"contracts/ClaConvertNFT.sol\":4226:4251  claDistributor.pendingCla */\n      0xffffffffffffffffffffffffffffffffffffffff\n      and\n      0x77b170f2\n        /* \"contracts/ClaConvertNFT.sol\":4260:4264  this */\n      address\n        /* \"contracts/ClaConvertNFT.sol\":4226:4266  claDistributor.pendingCla(address(this)) */\n      mload(0x40)\n      dup3\n      0xffffffff\n      and\n      0xe0\n      shl\n      dup2\n      mstore\n      0x04\n      add\n      dup1\n      dup3\n      0xffffffffffffffffffffffffffffffffffffffff\n      and\n      0xffffffffffffffffffffffffffffffffffffffff\n      and\n      dup2\n      mstore\n      0x20\n      add\n      swap2\n      pop\n      pop\n      0x20\n      mload(0x40)\n      dup1\n      dup4\n      sub\n      dup2\n      dup7\n      dup1\n      extcodesize\n      iszero\n        /* \"--CODEGEN--\":8:17   */\n      dup1\n        /* \"--CODEGEN--\":5:7   */\n      iszero\n      tag_231\n      jumpi\n        /* \"--CODEGEN--\":30:31   */\n      0x00\n        /* \"--CODEGEN--\":27:28   */\n      dup1\n        /* \"--CODEGEN--\":20:32   */\n      revert\n        /* \"--CODEGEN--\":5:7   */\n    tag_231:\n        /* \"contracts/ClaConvertNFT.sol\":4226:4266  claDistributor.pendingCla(address(this)) */\n      pop\n      gas\n      staticcall\n      iszero\n        /* \"--CODEGEN--\":8:17   */\n      dup1\n        /* \"--CODEGEN--\":5:7   */\n      iszero\n      tag_232\n      jumpi\n        /* \"--CODEGEN--\":45:61   */\n      returndatasize\n        /* \"--CODEGEN--\":42:43   */\n      0x00\n        /* \"--CODEGEN--\":39:40   */\n      dup1\n        /* \"--CODEGEN--\":24:62   */\n      returndatacopy\n        /* \"--CODEGEN--\":77:93   */\n      returndatasize\n        /* \"--CODEGEN--\":74:75   */\n      0x00\n        /* \"--CODEGEN--\":67:94   */\n      revert\n        /* \"--CODEGEN--\":5:7   */\n    tag_232:\n        /* \"contracts/ClaConvertNFT.sol\":4226:4266  claDistributor.pendingCla(address(this)) */\n      pop\n      pop\n      pop\n      pop\n      mload(0x40)\n      returndatasize\n        /* \"--CODEGEN--\":13:15   */\n      0x20\n        /* \"--CODEGEN--\":8:11   */\n      dup2\n        /* \"--CODEGEN--\":5:16   */\n      lt\n        /* \"--CODEGEN--\":2:4   */\n      iszero\n      tag_233\n      jumpi\n        /* \"--CODEGEN--\":29:30   */\n      0x00\n        /* \"--CODEGEN--\":26:27   */\n      dup1\n        /* \"--CODEGEN--\":19:31   */\n      revert\n        /* \"--CODEGEN--\":2:4   */\n    tag_233:\n        /* \"contracts/ClaConvertNFT.sol\":4226:4266  claDistributor.pendingCla(address(this)) */\n      dup2\n      add\n      swap1\n      dup1\n      dup1\n      mload\n      swap1\n      0x20\n      add\n      swap1\n      swap3\n      swap2\n      swap1\n      pop\n      pop\n      pop\n        /* \"contracts/ClaConvertNFT.sol\":4205:4266  uint256 pendingCla = claDistributor.pendingCla(address(this)) */\n      swap1\n      pop\n        /* \"contracts/ClaConvertNFT.sol\":4273:4287  claDistributor */\n      0x0d\n      0x00\n      swap1\n      sload\n      swap1\n      0x0100\n      exp\n      swap1\n      div\n      0xffffffffffffffffffffffffffffffffffffffff\n      and\n        /* \"contracts/ClaConvertNFT.sol\":4273:4295  claDistributor.harvest */\n      0xffffffffffffffffffffffffffffffffffffffff\n      and\n      0x0e5c011e\n        /* \"contracts/ClaConvertNFT.sol\":4304:4308  this */\n      address\n        /* \"contracts/ClaConvertNFT.sol\":4273:4310  claDistributor.harvest(address(this)) */\n      mload(0x40)\n      dup3\n      0xffffffff\n      and\n      0xe0\n      shl\n      dup2\n      mstore\n      0x04\n      add\n      dup1\n      dup3\n      0xffffffffffffffffffffffffffffffffffffffff\n      and\n      0xffffffffffffffffffffffffffffffffffffffff\n      and\n      dup2\n      mstore\n      0x20\n      add\n      swap2\n      pop\n      pop\n      0x00\n      mload(0x40)\n      dup1\n      dup4\n      sub\n      dup2\n      0x00\n      dup8\n      dup1\n      extcodesize\n      iszero\n        /* \"--CODEGEN--\":8:17   */\n      dup1\n        /* \"--CODEGEN--\":5:7   */\n      iszero\n      tag_234\n      jumpi\n        /* \"--CODEGEN--\":30:31   */\n      0x00\n        /* \"--CODEGEN--\":27:28   */\n      dup1\n        /* \"--CODEGEN--\":20:32   */\n      revert\n        /* \"--CODEGEN--\":5:7   */\n    tag_234:\n        /* \"contracts/ClaConvertNFT.sol\":4273:4310  claDistributor.harvest(address(this)) */\n      pop\n      gas\n      call\n      iszero\n        /* \"--CODEGEN--\":8:17   */\n      dup1\n        /* \"--CODEGEN--\":5:7   */\n      iszero\n      tag_235\n      jumpi\n        /* \"--CODEGEN--\":45:61   */\n      returndatasize\n        /* \"--CODEGEN--\":42:43   */\n      0x00\n        /* \"--CODEGEN--\":39:40   */\n      dup1\n        /* \"--CODEGEN--\":24:62   */\n      returndatacopy\n        /* \"--CODEGEN--\":77:93   */\n      returndatasize\n        /* \"--CODEGEN--\":74:75   */\n      0x00\n        /* \"--CODEGEN--\":67:94   */\n      revert\n        /* \"--CODEGEN--\":5:7   */\n    tag_235:\n        /* \"contracts/ClaConvertNFT.sol\":4273:4310  claDistributor.harvest(address(this)) */\n      pop\n      pop\n      pop\n      pop\n        /* \"contracts/ClaConvertNFT.sol\":4324:4330  uint i */\n      0x00\n        /* \"contracts/ClaConvertNFT.sol\":4333:4334  0 */\n      dup1\n        /* \"contracts/ClaConvertNFT.sol\":4324:4334  uint i = 0 */\n      swap1\n      pop\n        /* \"contracts/ClaConvertNFT.sol\":4319:4590  for (uint i = 0 ; i < totalSupply(); i++) {\r... */\n    tag_236:\n        /* \"contracts/ClaConvertNFT.sol\":4341:4354  totalSupply() */\n      tag_239\n        /* \"contracts/ClaConvertNFT.sol\":4341:4352  totalSupply */\n      tag_37\n        /* \"contracts/ClaConvertNFT.sol\":4341:4354  totalSupply() */\n      jump\t// in\n    tag_239:\n        /* \"contracts/ClaConvertNFT.sol\":4337:4338  i */\n      dup2\n        /* \"contracts/ClaConvertNFT.sol\":4337:4354  i < totalSupply() */\n      lt\n        /* \"contracts/ClaConvertNFT.sol\":4319:4590  for (uint i = 0 ; i < totalSupply(); i++) {\r... */\n      iszero\n      tag_237\n      jumpi\n        /* \"contracts/ClaConvertNFT.sol\":4370:4385  uint256 tokenId */\n      0x00\n        /* \"contracts/ClaConvertNFT.sol\":4388:4403  tokenByIndex(i) */\n      tag_240\n        /* \"contracts/ClaConvertNFT.sol\":4401:4402  i */\n      dup3\n        /* \"contracts/ClaConvertNFT.sol\":4388:4400  tokenByIndex */\n      tag_52\n        /* \"contracts/ClaConvertNFT.sol\":4388:4403  tokenByIndex(i) */\n      jump\t// in\n    tag_240:\n        /* \"contracts/ClaConvertNFT.sol\":4370:4403  uint256 tokenId = tokenByIndex(i) */\n      swap1\n      pop\n        /* \"contracts/ClaConvertNFT.sol\":4450:4490  _pendingClaPerToken(tokenId, pendingCla) */\n      tag_241\n        /* \"contracts/ClaConvertNFT.sol\":4470:4477  tokenId */\n      dup2\n        /* \"contracts/ClaConvertNFT.sol\":4479:4489  pendingCla */\n      dup5\n        /* \"contracts/ClaConvertNFT.sol\":4450:4469  _pendingClaPerToken */\n      tag_178\n        /* \"contracts/ClaConvertNFT.sol\":4450:4490  _pendingClaPerToken(tokenId, pendingCla) */\n      jump\t// in\n    tag_241:\n        /* \"contracts/ClaConvertNFT.sol\":4412:4438  _distributedRewardPerToken */\n      0x0a\n        /* \"contracts/ClaConvertNFT.sol\":4412:4447  _distributedRewardPerToken[tokenId] */\n      0x00\n        /* \"contracts/ClaConvertNFT.sol\":4439:4446  tokenId */\n      dup4\n        /* \"contracts/ClaConvertNFT.sol\":4412:4447  _distributedRewardPerToken[tokenId] */\n      dup2\n      mstore\n      0x20\n      add\n      swap1\n      dup2\n      mstore\n      0x20\n      add\n      0x00\n      keccak256\n      0x00\n        /* \"contracts/ClaConvertNFT.sol\":4412:4490  _distributedRewardPerToken[tokenId]+= _pendingClaPerToken(tokenId, pendingCla) */\n      dup3\n      dup3\n      sload\n      add\n      swap3\n      pop\n      pop\n      dup2\n      swap1\n      sstore\n      pop\n        /* \"contracts/ClaConvertNFT.sol\":4504:4582  UpdatedAccumulatedRewardPerToken(tokenId, _distributedRewardPerToken[tokenId]) */\n      0xbbbde36d7fa86ca28f11d3ff5b6eb4c880b241eca4eff68eac1b043a49133bfc\n        /* \"contracts/ClaConvertNFT.sol\":4537:4544  tokenId */\n      dup2\n        /* \"contracts/ClaConvertNFT.sol\":4546:4572  _distributedRewardPerToken */\n      0x0a\n        /* \"contracts/ClaConvertNFT.sol\":4546:4581  _distributedRewardPerToken[tokenId] */\n      0x00\n        /* \"contracts/ClaConvertNFT.sol\":4573:4580  tokenId */\n      dup5\n        /* \"contracts/ClaConvertNFT.sol\":4546:4581  _distributedRewardPerToken[tokenId] */\n      dup2\n      mstore\n      0x20\n      add\n      swap1\n      dup2\n      mstore\n      0x20\n      add\n      0x00\n      keccak256\n      sload\n        /* \"contracts/ClaConvertNFT.sol\":4504:4582  UpdatedAccumulatedRewardPerToken(tokenId, _distributedRewardPerToken[tokenId]) */\n      mload(0x40)\n      dup1\n      dup4\n      dup2\n      mstore\n      0x20\n      add\n      dup3\n      dup2\n      mstore\n      0x20\n      add\n      swap3\n      pop\n      pop\n      pop\n      mload(0x40)\n      dup1\n      swap2\n      sub\n      swap1\n      log1\n        /* \"contracts/ClaConvertNFT.sol\":4319:4590  for (uint i = 0 ; i < totalSupply(); i++) {\r... */\n      pop\n        /* \"contracts/ClaConvertNFT.sol\":4356:4359  i++ */\n      dup1\n      dup1\n      0x01\n      add\n      swap2\n      pop\n      pop\n        /* \"contracts/ClaConvertNFT.sol\":4319:4590  for (uint i = 0 ; i < totalSupply(); i++) {\r... */\n      jump(tag_236)\n    tag_237:\n      pop\n        /* \"contracts/ClaConvertNFT.sol\":4156:4595  function _updateAllTokensReward() private {\r... */\n      pop\n      jump\t// out\n        /* \"contracts/ClaConvertNFT.sol\":1751:2156  function _mintCCT(address _account, uint256 _claAmount)\r... */\n    tag_164:\n        /* \"contracts/ClaConvertNFT.sol\":1842:1846  bool */\n      0x00\n        /* \"contracts/ClaConvertNFT.sol\":1867:1882  uint256 tokenId */\n      dup1\n        /* \"contracts/ClaConvertNFT.sol\":1885:1905  totalSupply().add(1) */\n      tag_243\n        /* \"contracts/ClaConvertNFT.sol\":1903:1904  1 */\n      0x01\n        /* \"contracts/ClaConvertNFT.sol\":1885:1898  totalSupply() */\n      tag_244\n        /* \"contracts/ClaConvertNFT.sol\":1885:1896  totalSupply */\n      tag_37\n        /* \"contracts/ClaConvertNFT.sol\":1885:1898  totalSupply() */\n      jump\t// in\n    tag_244:\n        /* \"contracts/ClaConvertNFT.sol\":1885:1902  totalSupply().add */\n      tag_245\n      swap1\n        /* \"contracts/ClaConvertNFT.sol\":1885:1905  totalSupply().add(1) */\n      swap2\n      swap1\n      0xffffffff\n      and\n      jump\t// in\n    tag_243:\n        /* \"contracts/ClaConvertNFT.sol\":1867:1905  uint256 tokenId = totalSupply().add(1) */\n      swap1\n      pop\n        /* \"contracts/ClaConvertNFT.sol\":1916:1929  uint32 endDay */\n      0x00\n        /* \"contracts/ClaConvertNFT.sol\":1939:1994  SafeMath.add(uint256(_getDay()),uint256(LOCKUP_PERIOD)) */\n      tag_246\n        /* \"contracts/ClaConvertNFT.sol\":1960:1969  _getDay() */\n      tag_247\n        /* \"contracts/ClaConvertNFT.sol\":1960:1967  _getDay */\n      tag_125\n        /* \"contracts/ClaConvertNFT.sol\":1960:1969  _getDay() */\n      jump\t// in\n    tag_247:\n        /* \"contracts/ClaConvertNFT.sol\":1952:1970  uint256(_getDay()) */\n      0xffffffff\n      and\n        /* \"contracts/ClaConvertNFT.sol\":613:616  180 */\n      0xb4\n        /* \"contracts/ClaConvertNFT.sol\":1971:1993  uint256(LOCKUP_PERIOD) */\n      0xff\n      and\n        /* \"contracts/ClaConvertNFT.sol\":1939:1951  SafeMath.add */\n      tag_245\n        /* \"contracts/ClaConvertNFT.sol\":1939:1994  SafeMath.add(uint256(_getDay()),uint256(LOCKUP_PERIOD)) */\n      jump\t// in\n    tag_246:\n        /* \"contracts/ClaConvertNFT.sol\":1916:1995  uint32 endDay = uint32(SafeMath.add(uint256(_getDay()),uint256(LOCKUP_PERIOD))) */\n      swap1\n      pop\n        /* \"contracts/ClaConvertNFT.sol\":2022:2045  CCT(_claAmount, endDay) */\n      mload(0x40)\n      dup1\n      0x40\n      add\n      0x40\n      mstore\n      dup1\n        /* \"contracts/ClaConvertNFT.sol\":2026:2036  _claAmount */\n      dup6\n        /* \"contracts/ClaConvertNFT.sol\":2022:2045  CCT(_claAmount, endDay) */\n      dup2\n      mstore\n      0x20\n      add\n        /* \"contracts/ClaConvertNFT.sol\":2038:2044  endDay */\n      dup3\n        /* \"contracts/ClaConvertNFT.sol\":2022:2045  CCT(_claAmount, endDay) */\n      0xffffffff\n      and\n      dup2\n      mstore\n      pop\n        /* \"contracts/ClaConvertNFT.sol\":2006:2010  ccts */\n      0x09\n        /* \"contracts/ClaConvertNFT.sol\":2006:2019  ccts[tokenId] */\n      0x00\n        /* \"contracts/ClaConvertNFT.sol\":2011:2018  tokenId */\n      dup5\n        /* \"contracts/ClaConvertNFT.sol\":2006:2019  ccts[tokenId] */\n      dup2\n      mstore\n      0x20\n      add\n      swap1\n      dup2\n      mstore\n      0x20\n      add\n      0x00\n      keccak256\n        /* \"contracts/ClaConvertNFT.sol\":2006:2045  ccts[tokenId] = CCT(_claAmount, endDay) */\n      0x00\n      dup3\n      add\n      mload\n      dup2\n      0x00\n      add\n      sstore\n      0x20\n      dup3\n      add\n      mload\n      dup2\n      0x01\n      add\n      exp(0x0100, 0x00)\n      dup2\n      sload\n      dup2\n      0xffffffff\n      mul\n      not\n      and\n      swap1\n      dup4\n      0xffffffff\n      and\n      mul\n      or\n      swap1\n      sstore\n      pop\n      swap1\n      pop\n      pop\n        /* \"contracts/ClaConvertNFT.sol\":2058:2082  _mint(_account, tokenId) */\n      tag_248\n        /* \"contracts/ClaConvertNFT.sol\":2064:2072  _account */\n      dup6\n        /* \"contracts/ClaConvertNFT.sol\":2074:2081  tokenId */\n      dup4\n        /* \"contracts/ClaConvertNFT.sol\":2058:2063  _mint */\n      tag_249\n        /* \"contracts/ClaConvertNFT.sol\":2058:2082  _mint(_account, tokenId) */\n      jump\t// in\n    tag_248:\n        /* \"contracts/ClaConvertNFT.sol\":2100:2148  MintedCCT(tokenId, _claAmount, endDay, _account) */\n      0xf1bd9a04909cad626a24c087b8c58e50e359af3fb711eac8190471c525cd861e\n        /* \"contracts/ClaConvertNFT.sol\":2110:2117  tokenId */\n      dup3\n        /* \"contracts/ClaConvertNFT.sol\":2119:2129  _claAmount */\n      dup6\n        /* \"contracts/ClaConvertNFT.sol\":2131:2137  endDay */\n      dup4\n        /* \"contracts/ClaConvertNFT.sol\":2139:2147  _account */\n      dup9\n        /* \"contracts/ClaConvertNFT.sol\":2100:2148  MintedCCT(tokenId, _claAmount, endDay, _account) */\n      mload(0x40)\n      dup1\n      dup6\n      dup2\n      mstore\n      0x20\n      add\n      dup5\n      dup2\n      mstore\n      0x20\n      add\n      dup4\n      0xffffffff\n      and\n      0xffffffff\n      and\n      dup2\n      mstore\n      0x20\n      add\n      dup3\n      0xffffffffffffffffffffffffffffffffffffffff\n      and\n      0xffffffffffffffffffffffffffffffffffffffff\n      and\n      dup2\n      mstore\n      0x20\n      add\n      swap5\n      pop\n      pop\n      pop\n      pop\n      pop\n      mload(0x40)\n      dup1\n      swap2\n      sub\n      swap1\n      log1\n        /* \"contracts/ClaConvertNFT.sol\":1751:2156  function _mintCCT(address _account, uint256 _claAmount)\r... */\n      pop\n      pop\n      swap3\n      swap2\n      pop\n      pop\n      jump\t// out\n        /* \"@openzeppelin/contracts/token/ERC721/ERC721Enumerable.sol\":4710:4834  function _tokensOfOwner(address owner) internal view returns (uint256[] storage) {... */\n    tag_167:\n        /* \"@openzeppelin/contracts/token/ERC721/ERC721Enumerable.sol\":4772:4789  uint256[] storage */\n      0x00\n        /* \"@openzeppelin/contracts/token/ERC721/ERC721Enumerable.sol\":4808:4820  _ownedTokens */\n      0x05\n        /* \"@openzeppelin/contracts/token/ERC721/ERC721Enumerable.sol\":4808:4827  _ownedTokens[owner] */\n      0x00\n        /* \"@openzeppelin/contracts/token/ERC721/ERC721Enumerable.sol\":4821:4826  owner */\n      dup4\n        /* \"@openzeppelin/contracts/token/ERC721/ERC721Enumerable.sol\":4808:4827  _ownedTokens[owner] */\n      0xffffffffffffffffffffffffffffffffffffffff\n      and\n      0xffffffffffffffffffffffffffffffffffffffff\n      and\n      dup2\n      mstore\n      0x20\n      add\n      swap1\n      dup2\n      mstore\n      0x20\n      add\n      0x00\n      keccak256\n        /* \"@openzeppelin/contracts/token/ERC721/ERC721Enumerable.sol\":4801:4827  return _ownedTokens[owner] */\n      swap1\n      pop\n        /* \"@openzeppelin/contracts/token/ERC721/ERC721Enumerable.sol\":4710:4834  function _tokensOfOwner(address owner) internal view returns (uint256[] storage) {... */\n      swap2\n      swap1\n      pop\n      jump\t// out\n        /* \"contracts/ClaConvertNFT.sol\":3710:4056  function _pendingClaPerToken(uint256 tokenId, uint256 pendingCla) private view returns (uint256) {\r... */\n    tag_178:\n        /* \"contracts/ClaConvertNFT.sol\":3798:3805  uint256 */\n      0x00\n        /* \"contracts/ClaConvertNFT.sol\":3814:3839  uint256 claAmountPerToken */\n      dup1\n        /* \"contracts/ClaConvertNFT.sol\":3842:3846  ccts */\n      0x09\n        /* \"contracts/ClaConvertNFT.sol\":3842:3855  ccts[tokenId] */\n      0x00\n        /* \"contracts/ClaConvertNFT.sol\":3847:3854  tokenId */\n      dup6\n        /* \"contracts/ClaConvertNFT.sol\":3842:3855  ccts[tokenId] */\n      dup2\n      mstore\n      0x20\n      add\n      swap1\n      dup2\n      mstore\n      0x20\n      add\n      0x00\n      keccak256\n        /* \"contracts/ClaConvertNFT.sol\":3842:3865  ccts[tokenId].claAmount */\n      0x00\n      add\n      sload\n        /* \"contracts/ClaConvertNFT.sol\":3814:3865  uint256 claAmountPerToken = ccts[tokenId].claAmount */\n      swap1\n      pop\n        /* \"contracts/ClaConvertNFT.sol\":3874:3897  uint256 totalClaDeposit */\n      0x00\n        /* \"contracts/ClaConvertNFT.sol\":3903:3911  clsToken */\n      0x0c\n      0x00\n      swap1\n      sload\n      swap1\n      0x0100\n      exp\n      swap1\n      div\n      0xffffffffffffffffffffffffffffffffffffffff\n      and\n        /* \"contracts/ClaConvertNFT.sol\":3903:3925  clsToken.lockedClaInfo */\n      0xffffffffffffffffffffffffffffffffffffffff\n      and\n      0xe4363cca\n        /* \"contracts/ClaConvertNFT.sol\":3934:3938  this */\n      address\n        /* \"contracts/ClaConvertNFT.sol\":738:739  2 */\n      0x02\n        /* \"contracts/ClaConvertNFT.sol\":3903:3962  clsToken.lockedClaInfo(address(this), MULTIPLE_FOR_180DAYS) */\n      mload(0x40)\n      dup4\n      0xffffffff\n      and\n      0xe0\n      shl\n      dup2\n      mstore\n      0x04\n      add\n      dup1\n      dup4\n      0xffffffffffffffffffffffffffffffffffffffff\n      and\n      0xffffffffffffffffffffffffffffffffffffffff\n      and\n      dup2\n      mstore\n      0x20\n      add\n      dup3\n      0xff\n      and\n      0xff\n      and\n      dup2\n      mstore\n      0x20\n      add\n      swap3\n      pop\n      pop\n      pop\n      0x00\n      mload(0x40)\n      dup1\n      dup4\n      sub\n      dup2\n      dup7\n      dup1\n      extcodesize\n      iszero\n        /* \"--CODEGEN--\":8:17   */\n      dup1\n        /* \"--CODEGEN--\":5:7   */\n      iszero\n      tag_252\n      jumpi\n        /* \"--CODEGEN--\":30:31   */\n      0x00\n        /* \"--CODEGEN--\":27:28   */\n      dup1\n        /* \"--CODEGEN--\":20:32   */\n      revert\n        /* \"--CODEGEN--\":5:7   */\n    tag_252:\n        /* \"contracts/ClaConvertNFT.sol\":3903:3962  clsToken.lockedClaInfo(address(this), MULTIPLE_FOR_180DAYS) */\n      pop\n      gas\n      staticcall\n      iszero\n        /* \"--CODEGEN--\":8:17   */\n      dup1\n        /* \"--CODEGEN--\":5:7   */\n      iszero\n      tag_253\n      jumpi\n        /* \"--CODEGEN--\":45:61   */\n      returndatasize\n        /* \"--CODEGEN--\":42:43   */\n      0x00\n        /* \"--CODEGEN--\":39:40   */\n      dup1\n        /* \"--CODEGEN--\":24:62   */\n      returndatacopy\n        /* \"--CODEGEN--\":77:93   */\n      returndatasize\n        /* \"--CODEGEN--\":74:75   */\n      0x00\n        /* \"--CODEGEN--\":67:94   */\n      revert\n        /* \"--CODEGEN--\":5:7   */\n    tag_253:\n        /* \"contracts/ClaConvertNFT.sol\":3903:3962  clsToken.lockedClaInfo(address(this), MULTIPLE_FOR_180DAYS) */\n      pop\n      pop\n      pop\n      pop\n      mload(0x40)\n        /* \"--CODEGEN--\":39:55   */\n      returndatasize\n        /* \"--CODEGEN--\":36:37   */\n      0x00\n        /* \"--CODEGEN--\":17:34   */\n      dup3\n        /* \"--CODEGEN--\":2:56   */\n      returndatacopy\n        /* \"contracts/ClaConvertNFT.sol\":3903:3962  clsToken.lockedClaInfo(address(this), MULTIPLE_FOR_180DAYS) */\n      returndatasize\n        /* \"--CODEGEN--\":101:105   */\n      0x1f\n        /* \"--CODEGEN--\":97:106   */\n      not\n        /* \"--CODEGEN--\":90:94   */\n      0x1f\n        /* \"--CODEGEN--\":84:88   */\n      dup3\n        /* \"--CODEGEN--\":80:95   */\n      add\n        /* \"--CODEGEN--\":76:107   */\n      and\n        /* \"--CODEGEN--\":69:74   */\n      dup3\n        /* \"--CODEGEN--\":65:108   */\n      add\n        /* \"--CODEGEN--\":126:132   */\n      dup1\n        /* \"--CODEGEN--\":120:124   */\n      0x40\n        /* \"--CODEGEN--\":113:133   */\n      mstore\n        /* \"--CODEGEN--\":0:138   */\n      pop\n        /* \"--CODEGEN--\":13:16   */\n      0x80\n        /* \"--CODEGEN--\":8:11   */\n      dup2\n        /* \"--CODEGEN--\":5:17   */\n      lt\n        /* \"--CODEGEN--\":2:4   */\n      iszero\n      tag_254\n      jumpi\n        /* \"--CODEGEN--\":30:31   */\n      0x00\n        /* \"--CODEGEN--\":27:28   */\n      dup1\n        /* \"--CODEGEN--\":20:32   */\n      revert\n        /* \"--CODEGEN--\":2:4   */\n    tag_254:\n        /* \"contracts/ClaConvertNFT.sol\":3903:3962  clsToken.lockedClaInfo(address(this), MULTIPLE_FOR_180DAYS) */\n      dup2\n      add\n      swap1\n      dup1\n      dup1\n      mload\n      swap1\n      0x20\n      add\n      swap1\n      swap3\n      swap2\n      swap1\n      dup1\n      mload\n      swap1\n      0x20\n      add\n      swap1\n      swap3\n      swap2\n      swap1\n      dup1\n      mload\n      mload(0x40)\n      swap4\n      swap3\n      swap2\n      swap1\n      dup5\n        /* \"--CODEGEN--\":19:30   */\n      0x0100000000\n        /* \"--CODEGEN--\":14:17   */\n      dup3\n        /* \"--CODEGEN--\":11:31   */\n      gt\n        /* \"--CODEGEN--\":8:10   */\n      iszero\n      tag_255\n      jumpi\n        /* \"--CODEGEN--\":44:45   */\n      0x00\n        /* \"--CODEGEN--\":41:42   */\n      dup1\n        /* \"--CODEGEN--\":34:46   */\n      revert\n        /* \"--CODEGEN--\":8:10   */\n    tag_255:\n        /* \"--CODEGEN--\":71:82   */\n      dup4\n        /* \"--CODEGEN--\":66:69   */\n      dup3\n        /* \"--CODEGEN--\":62:83   */\n      add\n        /* \"--CODEGEN--\":55:83   */\n      swap2\n      pop\n        /* \"--CODEGEN--\":123:127   */\n      0x20\n        /* \"--CODEGEN--\":118:121   */\n      dup3\n        /* \"--CODEGEN--\":114:128   */\n      add\n        /* \"--CODEGEN--\":159:168   */\n      dup6\n        /* \"--CODEGEN--\":141:157   */\n      dup2\n        /* \"--CODEGEN--\":138:169   */\n      gt\n        /* \"--CODEGEN--\":135:137   */\n      iszero\n      tag_256\n      jumpi\n        /* \"--CODEGEN--\":182:183   */\n      0x00\n        /* \"--CODEGEN--\":179:180   */\n      dup1\n        /* \"--CODEGEN--\":172:184   */\n      revert\n        /* \"--CODEGEN--\":135:137   */\n    tag_256:\n        /* \"--CODEGEN--\":219:222   */\n      dup3\n        /* \"--CODEGEN--\":213:223   */\n      mload\n        /* \"--CODEGEN--\":331:340   */\n      dup7\n        /* \"--CODEGEN--\":325:327   */\n      0x20\n        /* \"--CODEGEN--\":311:323   */\n      dup3\n        /* \"--CODEGEN--\":307:328   */\n      mul\n        /* \"--CODEGEN--\":289:305   */\n      dup4\n        /* \"--CODEGEN--\":285:329   */\n      add\n        /* \"--CODEGEN--\":282:341   */\n      gt\n        /* \"--CODEGEN--\":261:272   */\n      0x0100000000\n        /* \"--CODEGEN--\":247:259   */\n      dup3\n        /* \"--CODEGEN--\":244:273   */\n      gt\n        /* \"--CODEGEN--\":233:349   */\n      or\n        /* \"--CODEGEN--\":230:232   */\n      iszero\n      tag_257\n      jumpi\n        /* \"--CODEGEN--\":362:363   */\n      0x00\n        /* \"--CODEGEN--\":359:360   */\n      dup1\n        /* \"--CODEGEN--\":352:364   */\n      revert\n        /* \"--CODEGEN--\":230:232   */\n    tag_257:\n        /* \"--CODEGEN--\":385:397   */\n      dup1\n        /* \"--CODEGEN--\":380:383   */\n      dup4\n        /* \"--CODEGEN--\":373:398   */\n      mstore\n        /* \"--CODEGEN--\":421:425   */\n      0x20\n        /* \"--CODEGEN--\":416:419   */\n      dup4\n        /* \"--CODEGEN--\":412:426   */\n      add\n        /* \"--CODEGEN--\":405:426   */\n      swap3\n      pop\n        /* \"--CODEGEN--\":0:433   */\n      pop\n      pop\n        /* \"contracts/ClaConvertNFT.sol\":3903:3962  clsToken.lockedClaInfo(address(this), MULTIPLE_FOR_180DAYS) */\n      swap1\n      dup1\n      mload\n      swap1\n      0x20\n      add\n      swap1\n      0x20\n      mul\n      dup1\n      dup4\n      dup4\n        /* \"--CODEGEN--\":23:24   */\n      0x00\n        /* \"--CODEGEN--\":8:108   */\n    tag_258:\n        /* \"--CODEGEN--\":33:36   */\n      dup4\n        /* \"--CODEGEN--\":30:31   */\n      dup2\n        /* \"--CODEGEN--\":27:37   */\n      lt\n        /* \"--CODEGEN--\":8:108   */\n      iszero\n      tag_260\n      jumpi\n        /* \"--CODEGEN--\":99:100   */\n      dup1\n        /* \"--CODEGEN--\":94:97   */\n      dup3\n        /* \"--CODEGEN--\":90:101   */\n      add\n        /* \"--CODEGEN--\":84:102   */\n      mload\n        /* \"--CODEGEN--\":80:81   */\n      dup2\n        /* \"--CODEGEN--\":75:78   */\n      dup5\n        /* \"--CODEGEN--\":71:82   */\n      add\n        /* \"--CODEGEN--\":64:103   */\n      mstore\n        /* \"--CODEGEN--\":52:54   */\n      0x20\n        /* \"--CODEGEN--\":49:50   */\n      dup2\n        /* \"--CODEGEN--\":45:55   */\n      add\n        /* \"--CODEGEN--\":40:55   */\n      swap1\n      pop\n        /* \"--CODEGEN--\":8:108   */\n      jump(tag_258)\n    tag_260:\n        /* \"--CODEGEN--\":12:26   */\n      pop\n        /* \"contracts/ClaConvertNFT.sol\":3903:3962  clsToken.lockedClaInfo(address(this), MULTIPLE_FOR_180DAYS) */\n      pop\n      pop\n      pop\n      swap1\n      pop\n      add\n      0x40\n      mstore\n      0x20\n      add\n      dup1\n      mload\n      mload(0x40)\n      swap4\n      swap3\n      swap2\n      swap1\n      dup5\n        /* \"--CODEGEN--\":19:30   */\n      0x0100000000\n        /* \"--CODEGEN--\":14:17   */\n      dup3\n        /* \"--CODEGEN--\":11:31   */\n      gt\n        /* \"--CODEGEN--\":8:10   */\n      iszero\n      tag_261\n      jumpi\n        /* \"--CODEGEN--\":44:45   */\n      0x00\n        /* \"--CODEGEN--\":41:42   */\n      dup1\n        /* \"--CODEGEN--\":34:46   */\n      revert\n        /* \"--CODEGEN--\":8:10   */\n    tag_261:\n        /* \"--CODEGEN--\":71:82   */\n      dup4\n        /* \"--CODEGEN--\":66:69   */\n      dup3\n        /* \"--CODEGEN--\":62:83   */\n      add\n        /* \"--CODEGEN--\":55:83   */\n      swap2\n      pop\n        /* \"--CODEGEN--\":123:127   */\n      0x20\n        /* \"--CODEGEN--\":118:121   */\n      dup3\n        /* \"--CODEGEN--\":114:128   */\n      add\n        /* \"--CODEGEN--\":159:168   */\n      dup6\n        /* \"--CODEGEN--\":141:157   */\n      dup2\n        /* \"--CODEGEN--\":138:169   */\n      gt\n        /* \"--CODEGEN--\":135:137   */\n      iszero\n      tag_262\n      jumpi\n        /* \"--CODEGEN--\":182:183   */\n      0x00\n        /* \"--CODEGEN--\":179:180   */\n      dup1\n        /* \"--CODEGEN--\":172:184   */\n      revert\n        /* \"--CODEGEN--\":135:137   */\n    tag_262:\n        /* \"--CODEGEN--\":219:222   */\n      dup3\n        /* \"--CODEGEN--\":213:223   */\n      mload\n        /* \"--CODEGEN--\":331:340   */\n      dup7\n        /* \"--CODEGEN--\":325:327   */\n      0x20\n        /* \"--CODEGEN--\":311:323   */\n      dup3\n        /* \"--CODEGEN--\":307:328   */\n      mul\n        /* \"--CODEGEN--\":289:305   */\n      dup4\n        /* \"--CODEGEN--\":285:329   */\n      add\n        /* \"--CODEGEN--\":282:341   */\n      gt\n        /* \"--CODEGEN--\":261:272   */\n      0x0100000000\n        /* \"--CODEGEN--\":247:259   */\n      dup3\n        /* \"--CODEGEN--\":244:273   */\n      gt\n        /* \"--CODEGEN--\":233:349   */\n      or\n        /* \"--CODEGEN--\":230:232   */\n      iszero\n      tag_263\n      jumpi\n        /* \"--CODEGEN--\":362:363   */\n      0x00\n        /* \"--CODEGEN--\":359:360   */\n      dup1\n        /* \"--CODEGEN--\":352:364   */\n      revert\n        /* \"--CODEGEN--\":230:232   */\n    tag_263:\n        /* \"--CODEGEN--\":385:397   */\n      dup1\n        /* \"--CODEGEN--\":380:383   */\n      dup4\n        /* \"--CODEGEN--\":373:398   */\n      mstore\n        /* \"--CODEGEN--\":421:425   */\n      0x20\n        /* \"--CODEGEN--\":416:419   */\n      dup4\n        /* \"--CODEGEN--\":412:426   */\n      add\n        /* \"--CODEGEN--\":405:426   */\n      swap3\n      pop\n        /* \"--CODEGEN--\":0:433   */\n      pop\n      pop\n        /* \"contracts/ClaConvertNFT.sol\":3903:3962  clsToken.lockedClaInfo(address(this), MULTIPLE_FOR_180DAYS) */\n      swap1\n      dup1\n      mload\n      swap1\n      0x20\n      add\n      swap1\n      0x20\n      mul\n      dup1\n      dup4\n      dup4\n        /* \"--CODEGEN--\":23:24   */\n      0x00\n        /* \"--CODEGEN--\":8:108   */\n    tag_264:\n        /* \"--CODEGEN--\":33:36   */\n      dup4\n        /* \"--CODEGEN--\":30:31   */\n      dup2\n        /* \"--CODEGEN--\":27:37   */\n      lt\n        /* \"--CODEGEN--\":8:108   */\n      iszero\n      tag_266\n      jumpi\n        /* \"--CODEGEN--\":99:100   */\n      dup1\n        /* \"--CODEGEN--\":94:97   */\n      dup3\n        /* \"--CODEGEN--\":90:101   */\n      add\n        /* \"--CODEGEN--\":84:102   */\n      mload\n        /* \"--CODEGEN--\":80:81   */\n      dup2\n        /* \"--CODEGEN--\":75:78   */\n      dup5\n        /* \"--CODEGEN--\":71:82   */\n      add\n        /* \"--CODEGEN--\":64:103   */\n      mstore\n        /* \"--CODEGEN--\":52:54   */\n      0x20\n        /* \"--CODEGEN--\":49:50   */\n      dup2\n        /* \"--CODEGEN--\":45:55   */\n      add\n        /* \"--CODEGEN--\":40:55   */\n      swap1\n      pop\n        /* \"--CODEGEN--\":8:108   */\n      jump(tag_264)\n    tag_266:\n        /* \"--CODEGEN--\":12:26   */\n      pop\n        /* \"contracts/ClaConvertNFT.sol\":3903:3962  clsToken.lockedClaInfo(address(this), MULTIPLE_FOR_180DAYS) */\n      pop\n      pop\n      pop\n      swap1\n      pop\n      add\n      0x40\n      mstore\n      pop\n      pop\n      pop\n        /* \"contracts/ClaConvertNFT.sol\":3872:3962  (,uint256 totalClaDeposit,,) = clsToken.lockedClaInfo(address(this), MULTIPLE_FOR_180DAYS) */\n      pop\n      pop\n      swap2\n      pop\n      pop\n        /* \"contracts/ClaConvertNFT.sol\":3976:4050  SafeMath.div(SafeMath.mul(pendingCla, claAmountPerToken), totalClaDeposit) */\n      tag_267\n        /* \"contracts/ClaConvertNFT.sol\":3989:4032  SafeMath.mul(pendingCla, claAmountPerToken) */\n      tag_268\n        /* \"contracts/ClaConvertNFT.sol\":4002:4012  pendingCla */\n      dup6\n        /* \"contracts/ClaConvertNFT.sol\":4014:4031  claAmountPerToken */\n      dup5\n        /* \"contracts/ClaConvertNFT.sol\":3989:4001  SafeMath.mul */\n      tag_269\n        /* \"contracts/ClaConvertNFT.sol\":3989:4032  SafeMath.mul(pendingCla, claAmountPerToken) */\n      jump\t// in\n    tag_268:\n        /* \"contracts/ClaConvertNFT.sol\":4034:4049  totalClaDeposit */\n      dup3\n        /* \"contracts/ClaConvertNFT.sol\":3976:3988  SafeMath.div */\n      tag_270\n        /* \"contracts/ClaConvertNFT.sol\":3976:4050  SafeMath.div(SafeMath.mul(pendingCla, claAmountPerToken), totalClaDeposit) */\n      jump\t// in\n    tag_267:\n        /* \"contracts/ClaConvertNFT.sol\":3969:4050  return SafeMath.div(SafeMath.mul(pendingCla, claAmountPerToken), totalClaDeposit) */\n      swap3\n      pop\n      pop\n      pop\n        /* \"contracts/ClaConvertNFT.sol\":3710:4056  function _pendingClaPerToken(uint256 tokenId, uint256 pendingCla) private view returns (uint256) {\r... */\n      swap3\n      swap2\n      pop\n      pop\n      jump\t// out\n        /* \"@openzeppelin/contracts/token/ERC721/ERC721.sol\":8694:8963  function _safeTransferFrom(address from, address to, uint256 tokenId, bytes memory _data) internal {... */\n    tag_184:\n        /* \"@openzeppelin/contracts/token/ERC721/ERC721.sol\":8803:8835  _transferFrom(from, to, tokenId) */\n      tag_272\n        /* \"@openzeppelin/contracts/token/ERC721/ERC721.sol\":8817:8821  from */\n      dup5\n        /* \"@openzeppelin/contracts/token/ERC721/ERC721.sol\":8823:8825  to */\n      dup5\n        /* \"@openzeppelin/contracts/token/ERC721/ERC721.sol\":8827:8834  tokenId */\n      dup5\n        /* \"@openzeppelin/contracts/token/ERC721/ERC721.sol\":8803:8816  _transferFrom */\n      tag_113\n        /* \"@openzeppelin/contracts/token/ERC721/ERC721.sol\":8803:8835  _transferFrom(from, to, tokenId) */\n      jump\t// in\n    tag_272:\n        /* \"@openzeppelin/contracts/token/ERC721/ERC721.sol\":8853:8901  _checkOnERC721Received(from, to, tokenId, _data) */\n      tag_273\n        /* \"@openzeppelin/contracts/token/ERC721/ERC721.sol\":8876:8880  from */\n      dup5\n        /* \"@openzeppelin/contracts/token/ERC721/ERC721.sol\":8882:8884  to */\n      dup5\n        /* \"@openzeppelin/contracts/token/ERC721/ERC721.sol\":8886:8893  tokenId */\n      dup5\n        /* \"@openzeppelin/contracts/token/ERC721/ERC721.sol\":8895:8900  _data */\n      dup5\n        /* \"@openzeppelin/contracts/token/ERC721/ERC721.sol\":8853:8875  _checkOnERC721Received */\n      tag_274\n        /* \"@openzeppelin/contracts/token/ERC721/ERC721.sol\":8853:8901  _checkOnERC721Received(from, to, tokenId, _data) */\n      jump\t// in\n    tag_273:\n        /* \"@openzeppelin/contracts/token/ERC721/ERC721.sol\":8845:8956  require(_checkOnERC721Received(from, to, tokenId, _data), \"ERC721: transfer to non ERC721Receiver implementer\") */\n      tag_275\n      jumpi\n      mload(0x40)\n      0x08c379a000000000000000000000000000000000000000000000000000000000\n      dup2\n      mstore\n      0x04\n      add\n      dup1\n      dup1\n      0x20\n      add\n      dup3\n      dup2\n      sub\n      dup3\n      mstore\n      0x32\n      dup2\n      mstore\n      0x20\n      add\n      dup1\n      data_1e766a06da43a53d0f4c380e06e5a342e14d5af1bf8501996c844905530ca84e\n      0x32\n      swap2\n      codecopy\n      0x40\n      add\n      swap2\n      pop\n      pop\n      mload(0x40)\n      dup1\n      swap2\n      sub\n      swap1\n      revert\n    tag_275:\n        /* \"@openzeppelin/contracts/token/ERC721/ERC721.sol\":8694:8963  function _safeTransferFrom(address from, address to, uint256 tokenId, bytes memory _data) internal {... */\n      pop\n      pop\n      pop\n      pop\n      jump\t// out\n        /* \"@openzeppelin/contracts/token/ERC721/ERC721.sol\":13281:13728  function _transferFrom(address from, address to, uint256 tokenId) internal {... */\n    tag_218:\n        /* \"@openzeppelin/contracts/token/ERC721/ERC721.sol\":13394:13398  from */\n      dup3\n        /* \"@openzeppelin/contracts/token/ERC721/ERC721.sol\":13374:13398  ownerOf(tokenId) == from */\n      0xffffffffffffffffffffffffffffffffffffffff\n      and\n        /* \"@openzeppelin/contracts/token/ERC721/ERC721.sol\":13374:13390  ownerOf(tokenId) */\n      tag_277\n        /* \"@openzeppelin/contracts/token/ERC721/ERC721.sol\":13382:13389  tokenId */\n      dup3\n        /* \"@openzeppelin/contracts/token/ERC721/ERC721.sol\":13374:13381  ownerOf */\n      tag_55\n        /* \"@openzeppelin/contracts/token/ERC721/ERC721.sol\":13374:13390  ownerOf(tokenId) */\n      jump\t// in\n    tag_277:\n        /* \"@openzeppelin/contracts/token/ERC721/ERC721.sol\":13374:13398  ownerOf(tokenId) == from */\n      0xffffffffffffffffffffffffffffffffffffffff\n      and\n      eq\n        /* \"@openzeppelin/contracts/token/ERC721/ERC721.sol\":13366:13444  require(ownerOf(tokenId) == from, \"ERC721: transfer of token that is not own\") */\n      tag_278\n      jumpi\n      mload(0x40)\n      0x08c379a000000000000000000000000000000000000000000000000000000000\n      dup2\n      mstore\n      0x04\n      add\n      dup1\n      dup1\n      0x20\n      add\n      dup3\n      dup2\n      sub\n      dup3\n      mstore\n      0x29\n      dup2\n      mstore\n      0x20\n      add\n      dup1\n      data_a01073130a885d6c1c1af6ac75fc3b1c4f9403c235362962bbf528e2bd87d950\n      0x29\n      swap2\n      codecopy\n      0x40\n      add\n      swap2\n      pop\n      pop\n      mload(0x40)\n      dup1\n      swap2\n      sub\n      swap1\n      revert\n    tag_278:\n        /* \"@openzeppelin/contracts/token/ERC721/ERC721.sol\":13476:13477  0 */\n      0x00\n        /* \"@openzeppelin/contracts/token/ERC721/ERC721.sol\":13462:13478  to != address(0) */\n      0xffffffffffffffffffffffffffffffffffffffff\n      and\n        /* \"@openzeppelin/contracts/token/ERC721/ERC721.sol\":13462:13464  to */\n      dup3\n        /* \"@openzeppelin/contracts/token/ERC721/ERC721.sol\":13462:13478  to != address(0) */\n      0xffffffffffffffffffffffffffffffffffffffff\n      and\n      eq\n      iszero\n        /* \"@openzeppelin/contracts/token/ERC721/ERC721.sol\":13454:13519  require(to != address(0), \"ERC721: transfer to the zero address\") */\n      tag_279\n      jumpi\n      mload(0x40)\n      0x08c379a000000000000000000000000000000000000000000000000000000000\n      dup2\n      mstore\n      0x04\n      add\n      dup1\n      dup1\n      0x20\n      add\n      dup3\n      dup2\n      sub\n      dup3\n      mstore\n      0x24\n      dup2\n      mstore\n      0x20\n      add\n      dup1\n      data_455fea98ea03c32d7dd1a6f1426917d80529bf47b3ccbde74e7206e889e709f4\n      0x24\n      swap2\n      codecopy\n      0x40\n      add\n      swap2\n      pop\n      pop\n      mload(0x40)\n      dup1\n      swap2\n      sub\n      swap1\n      revert\n    tag_279:\n        /* \"@openzeppelin/contracts/token/ERC721/ERC721.sol\":13530:13553  _clearApproval(tokenId) */\n      tag_280\n        /* \"@openzeppelin/contracts/token/ERC721/ERC721.sol\":13545:13552  tokenId */\n      dup2\n        /* \"@openzeppelin/contracts/token/ERC721/ERC721.sol\":13530:13544  _clearApproval */\n      tag_281\n        /* \"@openzeppelin/contracts/token/ERC721/ERC721.sol\":13530:13553  _clearApproval(tokenId) */\n      jump\t// in\n    tag_280:\n        /* \"@openzeppelin/contracts/token/ERC721/ERC721.sol\":13564:13599  _ownedTokensCount[from].decrement() */\n      tag_282\n        /* \"@openzeppelin/contracts/token/ERC721/ERC721.sol\":13564:13581  _ownedTokensCount */\n      0x03\n        /* \"@openzeppelin/contracts/token/ERC721/ERC721.sol\":13564:13587  _ownedTokensCount[from] */\n      0x00\n        /* \"@openzeppelin/contracts/token/ERC721/ERC721.sol\":13582:13586  from */\n      dup6\n        /* \"@openzeppelin/contracts/token/ERC721/ERC721.sol\":13564:13587  _ownedTokensCount[from] */\n      0xffffffffffffffffffffffffffffffffffffffff\n      and\n      0xffffffffffffffffffffffffffffffffffffffff\n      and\n      dup2\n      mstore\n      0x20\n      add\n      swap1\n      dup2\n      mstore\n      0x20\n      add\n      0x00\n      keccak256\n        /* \"@openzeppelin/contracts/token/ERC721/ERC721.sol\":13564:13597  _ownedTokensCount[from].decrement */\n      tag_283\n        /* \"@openzeppelin/contracts/token/ERC721/ERC721.sol\":13564:13599  _ownedTokensCount[from].decrement() */\n      jump\t// in\n    tag_282:\n        /* \"@openzeppelin/contracts/token/ERC721/ERC721.sol\":13609:13642  _ownedTokensCount[to].increment() */\n      tag_284\n        /* \"@openzeppelin/contracts/token/ERC721/ERC721.sol\":13609:13626  _ownedTokensCount */\n      0x03\n        /* \"@openzeppelin/contracts/token/ERC721/ERC721.sol\":13609:13630  _ownedTokensCount[to] */\n      0x00\n        /* \"@openzeppelin/contracts/token/ERC721/ERC721.sol\":13627:13629  to */\n      dup5\n        /* \"@openzeppelin/contracts/token/ERC721/ERC721.sol\":13609:13630  _ownedTokensCount[to] */\n      0xffffffffffffffffffffffffffffffffffffffff\n      and\n      0xffffffffffffffffffffffffffffffffffffffff\n      and\n      dup2\n      mstore\n      0x20\n      add\n      swap1\n      dup2\n      mstore\n      0x20\n      add\n      0x00\n      keccak256\n        /* \"@openzeppelin/contracts/token/ERC721/ERC721.sol\":13609:13640  _ownedTokensCount[to].increment */\n      tag_285\n        /* \"@openzeppelin/contracts/token/ERC721/ERC721.sol\":13609:13642  _ownedTokensCount[to].increment() */\n      jump\t// in\n    tag_284:\n        /* \"@openzeppelin/contracts/token/ERC721/ERC721.sol\":13676:13678  to */\n      dup2\n        /* \"@openzeppelin/contracts/token/ERC721/ERC721.sol\":13653:13664  _tokenOwner */\n      0x01\n        /* \"@openzeppelin/contracts/token/ERC721/ERC721.sol\":13653:13673  _tokenOwner[tokenId] */\n      0x00\n        /* \"@openzeppelin/contracts/token/ERC721/ERC721.sol\":13665:13672  tokenId */\n      dup4\n        /* \"@openzeppelin/contracts/token/ERC721/ERC721.sol\":13653:13673  _tokenOwner[tokenId] */\n      dup2\n      mstore\n      0x20\n      add\n      swap1\n      dup2\n      mstore\n      0x20\n      add\n      0x00\n      keccak256\n      0x00\n        /* \"@openzeppelin/contracts/token/ERC721/ERC721.sol\":13653:13678  _tokenOwner[tokenId] = to */\n      0x0100\n      exp\n      dup2\n      sload\n      dup2\n      0xffffffffffffffffffffffffffffffffffffffff\n      mul\n      not\n      and\n      swap1\n      dup4\n      0xffffffffffffffffffffffffffffffffffffffff\n      and\n      mul\n      or\n      swap1\n      sstore\n      pop\n        /* \"@openzeppelin/contracts/token/ERC721/ERC721.sol\":13713:13720  tokenId */\n      dup1\n        /* \"@openzeppelin/contracts/token/ERC721/ERC721.sol\":13709:13711  to */\n      dup3\n        /* \"@openzeppelin/contracts/token/ERC721/ERC721.sol\":13694:13721  Transfer(from, to, tokenId) */\n      0xffffffffffffffffffffffffffffffffffffffff\n      and\n        /* \"@openzeppelin/contracts/token/ERC721/ERC721.sol\":13703:13707  from */\n      dup5\n        /* \"@openzeppelin/contracts/token/ERC721/ERC721.sol\":13694:13721  Transfer(from, to, tokenId) */\n      0xffffffffffffffffffffffffffffffffffffffff\n      and\n      0xddf252ad1be2c89b69c2b068fc378daa952ba7f163c4a11628f55a4df523b3ef\n      mload(0x40)\n      mload(0x40)\n      dup1\n      swap2\n      sub\n      swap1\n      log4\n        /* \"@openzeppelin/contracts/token/ERC721/ERC721.sol\":13281:13728  function _transferFrom(address from, address to, uint256 tokenId) internal {... */\n      pop\n      pop\n      pop\n      jump\t// out\n        /* \"@openzeppelin/contracts/token/ERC721/ERC721Enumerable.sol\":6284:7412  function _removeTokenFromOwnerEnumeration(address from, uint256 tokenId) private {... */\n    tag_220:\n        /* \"@openzeppelin/contracts/token/ERC721/ERC721Enumerable.sol\":6546:6568  uint256 lastTokenIndex */\n      0x00\n        /* \"@openzeppelin/contracts/token/ERC721/ERC721Enumerable.sol\":6571:6603  _ownedTokens[from].length.sub(1) */\n      tag_287\n        /* \"@openzeppelin/contracts/token/ERC721/ERC721Enumerable.sol\":6601:6602  1 */\n      0x01\n        /* \"@openzeppelin/contracts/token/ERC721/ERC721Enumerable.sol\":6571:6583  _ownedTokens */\n      0x05\n        /* \"@openzeppelin/contracts/token/ERC721/ERC721Enumerable.sol\":6571:6589  _ownedTokens[from] */\n      0x00\n        /* \"@openzeppelin/contracts/token/ERC721/ERC721Enumerable.sol\":6584:6588  from */\n      dup7\n        /* \"@openzeppelin/contracts/token/ERC721/ERC721Enumerable.sol\":6571:6589  _ownedTokens[from] */\n      0xffffffffffffffffffffffffffffffffffffffff\n      and\n      0xffffffffffffffffffffffffffffffffffffffff\n      and\n      dup2\n      mstore\n      0x20\n      add\n      swap1\n      dup2\n      mstore\n      0x20\n      add\n      0x00\n      keccak256\n        /* \"@openzeppelin/contracts/token/ERC721/ERC721Enumerable.sol\":6571:6596  _ownedTokens[from].length */\n      dup1\n      sload\n      swap1\n      pop\n        /* \"@openzeppelin/contracts/token/ERC721/ERC721Enumerable.sol\":6571:6600  _ownedTokens[from].length.sub */\n      tag_288\n      swap1\n        /* \"@openzeppelin/contracts/token/ERC721/ERC721Enumerable.sol\":6571:6603  _ownedTokens[from].length.sub(1) */\n      swap2\n      swap1\n      0xffffffff\n      and\n      jump\t// in\n    tag_287:\n        /* \"@openzeppelin/contracts/token/ERC721/ERC721Enumerable.sol\":6546:6603  uint256 lastTokenIndex = _ownedTokens[from].length.sub(1) */\n      swap1\n      pop\n        /* \"@openzeppelin/contracts/token/ERC721/ERC721Enumerable.sol\":6613:6631  uint256 tokenIndex */\n      0x00\n        /* \"@openzeppelin/contracts/token/ERC721/ERC721Enumerable.sol\":6634:6651  _ownedTokensIndex */\n      0x06\n        /* \"@openzeppelin/contracts/token/ERC721/ERC721Enumerable.sol\":6634:6660  _ownedTokensIndex[tokenId] */\n      0x00\n        /* \"@openzeppelin/contracts/token/ERC721/ERC721Enumerable.sol\":6652:6659  tokenId */\n      dup5\n        /* \"@openzeppelin/contracts/token/ERC721/ERC721Enumerable.sol\":6634:6660  _ownedTokensIndex[tokenId] */\n      dup2\n      mstore\n      0x20\n      add\n      swap1\n      dup2\n      mstore\n      0x20\n      add\n      0x00\n      keccak256\n      sload\n        /* \"@openzeppelin/contracts/token/ERC721/ERC721Enumerable.sol\":6613:6660  uint256 tokenIndex = _ownedTokensIndex[tokenId] */\n      swap1\n      pop\n        /* \"@openzeppelin/contracts/token/ERC721/ERC721Enumerable.sol\":6778:6792  lastTokenIndex */\n      dup2\n        /* \"@openzeppelin/contracts/token/ERC721/ERC721Enumerable.sol\":6764:6774  tokenIndex */\n      dup2\n        /* \"@openzeppelin/contracts/token/ERC721/ERC721Enumerable.sol\":6764:6792  tokenIndex != lastTokenIndex */\n      eq\n        /* \"@openzeppelin/contracts/token/ERC721/ERC721Enumerable.sol\":6760:7083  if (tokenIndex != lastTokenIndex) {... */\n      tag_289\n      jumpi\n        /* \"@openzeppelin/contracts/token/ERC721/ERC721Enumerable.sol\":6808:6827  uint256 lastTokenId */\n      0x00\n        /* \"@openzeppelin/contracts/token/ERC721/ERC721Enumerable.sol\":6830:6842  _ownedTokens */\n      0x05\n        /* \"@openzeppelin/contracts/token/ERC721/ERC721Enumerable.sol\":6830:6848  _ownedTokens[from] */\n      0x00\n        /* \"@openzeppelin/contracts/token/ERC721/ERC721Enumerable.sol\":6843:6847  from */\n      dup7\n        /* \"@openzeppelin/contracts/token/ERC721/ERC721Enumerable.sol\":6830:6848  _ownedTokens[from] */\n      0xffffffffffffffffffffffffffffffffffffffff\n      and\n      0xffffffffffffffffffffffffffffffffffffffff\n      and\n      dup2\n      mstore\n      0x20\n      add\n      swap1\n      dup2\n      mstore\n      0x20\n      add\n      0x00\n      keccak256\n        /* \"@openzeppelin/contracts/token/ERC721/ERC721Enumerable.sol\":6849:6863  lastTokenIndex */\n      dup4\n        /* \"@openzeppelin/contracts/token/ERC721/ERC721Enumerable.sol\":6830:6864  _ownedTokens[from][lastTokenIndex] */\n      dup2\n      sload\n      dup2\n      lt\n      tag_290\n      jumpi\n      invalid\n    tag_290:\n      swap1\n      0x00\n      mstore\n      keccak256(0x00, 0x20)\n      add\n      sload\n        /* \"@openzeppelin/contracts/token/ERC721/ERC721Enumerable.sol\":6808:6864  uint256 lastTokenId = _ownedTokens[from][lastTokenIndex] */\n      swap1\n      pop\n        /* \"@openzeppelin/contracts/token/ERC721/ERC721Enumerable.sol\":6912:6923  lastTokenId */\n      dup1\n        /* \"@openzeppelin/contracts/token/ERC721/ERC721Enumerable.sol\":6879:6891  _ownedTokens */\n      0x05\n        /* \"@openzeppelin/contracts/token/ERC721/ERC721Enumerable.sol\":6879:6897  _ownedTokens[from] */\n      0x00\n        /* \"@openzeppelin/contracts/token/ERC721/ERC721Enumerable.sol\":6892:6896  from */\n      dup8\n        /* \"@openzeppelin/contracts/token/ERC721/ERC721Enumerable.sol\":6879:6897  _ownedTokens[from] */\n      0xffffffffffffffffffffffffffffffffffffffff\n      and\n      0xffffffffffffffffffffffffffffffffffffffff\n      and\n      dup2\n      mstore\n      0x20\n      add\n      swap1\n      dup2\n      mstore\n      0x20\n      add\n      0x00\n      keccak256\n        /* \"@openzeppelin/contracts/token/ERC721/ERC721Enumerable.sol\":6898:6908  tokenIndex */\n      dup4\n        /* \"@openzeppelin/contracts/token/ERC721/ERC721Enumerable.sol\":6879:6909  _ownedTokens[from][tokenIndex] */\n      dup2\n      sload\n      dup2\n      lt\n      tag_292\n      jumpi\n      invalid\n    tag_292:\n      swap1\n      0x00\n      mstore\n      keccak256(0x00, 0x20)\n      add\n        /* \"@openzeppelin/contracts/token/ERC721/ERC721Enumerable.sol\":6879:6923  _ownedTokens[from][tokenIndex] = lastTokenId */\n      dup2\n      swap1\n      sstore\n      pop\n        /* \"@openzeppelin/contracts/token/ERC721/ERC721Enumerable.sol\":7028:7038  tokenIndex */\n      dup2\n        /* \"@openzeppelin/contracts/token/ERC721/ERC721Enumerable.sol\":6995:7012  _ownedTokensIndex */\n      0x06\n        /* \"@openzeppelin/contracts/token/ERC721/ERC721Enumerable.sol\":6995:7025  _ownedTokensIndex[lastTokenId] */\n      0x00\n        /* \"@openzeppelin/contracts/token/ERC721/ERC721Enumerable.sol\":7013:7024  lastTokenId */\n      dup4\n        /* \"@openzeppelin/contracts/token/ERC721/ERC721Enumerable.sol\":6995:7025  _ownedTokensIndex[lastTokenId] */\n      dup2\n      mstore\n      0x20\n      add\n      swap1\n      dup2\n      mstore\n      0x20\n      add\n      0x00\n      keccak256\n        /* \"@openzeppelin/contracts/token/ERC721/ERC721Enumerable.sol\":6995:7038  _ownedTokensIndex[lastTokenId] = tokenIndex */\n      dup2\n      swap1\n      sstore\n      pop\n        /* \"@openzeppelin/contracts/token/ERC721/ERC721Enumerable.sol\":6760:7083  if (tokenIndex != lastTokenIndex) {... */\n      pop\n    tag_289:\n        /* \"@openzeppelin/contracts/token/ERC721/ERC721Enumerable.sol\":7169:7181  _ownedTokens */\n      0x05\n        /* \"@openzeppelin/contracts/token/ERC721/ERC721Enumerable.sol\":7169:7187  _ownedTokens[from] */\n      0x00\n        /* \"@openzeppelin/contracts/token/ERC721/ERC721Enumerable.sol\":7182:7186  from */\n      dup6\n        /* \"@openzeppelin/contracts/token/ERC721/ERC721Enumerable.sol\":7169:7187  _ownedTokens[from] */\n      0xffffffffffffffffffffffffffffffffffffffff\n      and\n      0xffffffffffffffffffffffffffffffffffffffff\n      and\n      dup2\n      mstore\n      0x20\n      add\n      swap1\n      dup2\n      mstore\n      0x20\n      add\n      0x00\n      keccak256\n        /* \"@openzeppelin/contracts/token/ERC721/ERC721Enumerable.sol\":7169:7196  _ownedTokens[from].length-- */\n      dup1\n      sload\n      dup1\n      swap2\n      swap1\n      0x01\n      swap1\n      sub\n      tag_294\n      swap2\n      swap1\n      tag_295\n      jump\t// in\n    tag_294:\n      pop\n        /* \"@openzeppelin/contracts/token/ERC721/ERC721Enumerable.sol\":6284:7412  function _removeTokenFromOwnerEnumeration(address from, uint256 tokenId) private {... */\n      pop\n      pop\n      pop\n      pop\n      jump\t// out\n        /* \"@openzeppelin/contracts/token/ERC721/ERC721Enumerable.sol\":5128:5311  function _addTokenToOwnerEnumeration(address to, uint256 tokenId) private {... */\n    tag_222:\n        /* \"@openzeppelin/contracts/token/ERC721/ERC721Enumerable.sol\":5241:5253  _ownedTokens */\n      0x05\n        /* \"@openzeppelin/contracts/token/ERC721/ERC721Enumerable.sol\":5241:5257  _ownedTokens[to] */\n      0x00\n        /* \"@openzeppelin/contracts/token/ERC721/ERC721Enumerable.sol\":5254:5256  to */\n      dup4\n        /* \"@openzeppelin/contracts/token/ERC721/ERC721Enumerable.sol\":5241:5257  _ownedTokens[to] */\n      0xffffffffffffffffffffffffffffffffffffffff\n      and\n      0xffffffffffffffffffffffffffffffffffffffff\n      and\n      dup2\n      mstore\n      0x20\n      add\n      swap1\n      dup2\n      mstore\n      0x20\n      add\n      0x00\n      keccak256\n        /* \"@openzeppelin/contracts/token/ERC721/ERC721Enumerable.sol\":5241:5264  _ownedTokens[to].length */\n      dup1\n      sload\n      swap1\n      pop\n        /* \"@openzeppelin/contracts/token/ERC721/ERC721Enumerable.sol\":5212:5229  _ownedTokensIndex */\n      0x06\n        /* \"@openzeppelin/contracts/token/ERC721/ERC721Enumerable.sol\":5212:5238  _ownedTokensIndex[tokenId] */\n      0x00\n        /* \"@openzeppelin/contracts/token/ERC721/ERC721Enumerable.sol\":5230:5237  tokenId */\n      dup4\n        /* \"@openzeppelin/contracts/token/ERC721/ERC721Enumerable.sol\":5212:5238  _ownedTokensIndex[tokenId] */\n      dup2\n      mstore\n      0x20\n      add\n      swap1\n      dup2\n      mstore\n      0x20\n      add\n      0x00\n      keccak256\n        /* \"@openzeppelin/contracts/token/ERC721/ERC721Enumerable.sol\":5212:5264  _ownedTokensIndex[tokenId] = _ownedTokens[to].length */\n      dup2\n      swap1\n      sstore\n      pop\n        /* \"@openzeppelin/contracts/token/ERC721/ERC721Enumerable.sol\":5274:5286  _ownedTokens */\n      0x05\n        /* \"@openzeppelin/contracts/token/ERC721/ERC721Enumerable.sol\":5274:5290  _ownedTokens[to] */\n      0x00\n        /* \"@openzeppelin/contracts/token/ERC721/ERC721Enumerable.sol\":5287:5289  to */\n      dup4\n        /* \"@openzeppelin/contracts/token/ERC721/ERC721Enumerable.sol\":5274:5290  _ownedTokens[to] */\n      0xffffffffffffffffffffffffffffffffffffffff\n      and\n      0xffffffffffffffffffffffffffffffffffffffff\n      and\n      dup2\n      mstore\n      0x20\n      add\n      swap1\n      dup2\n      mstore\n      0x20\n      add\n      0x00\n      keccak256\n        /* \"@openzeppelin/contracts/token/ERC721/ERC721Enumerable.sol\":5296:5303  tokenId */\n      dup2\n        /* \"@openzeppelin/contracts/token/ERC721/ERC721Enumerable.sol\":5274:5304  _ownedTokens[to].push(tokenId) */\n      swap1\n      dup1\n        /* \"--CODEGEN--\":39:40   */\n      0x01\n        /* \"--CODEGEN--\":33:36   */\n      dup2\n        /* \"--CODEGEN--\":27:37   */\n      sload\n        /* \"--CODEGEN--\":23:41   */\n      add\n        /* \"--CODEGEN--\":57:67   */\n      dup1\n        /* \"--CODEGEN--\":52:55   */\n      dup3\n        /* \"--CODEGEN--\":45:68   */\n      sstore\n        /* \"--CODEGEN--\":79:89   */\n      dup1\n        /* \"--CODEGEN--\":72:89   */\n      swap2\n      pop\n        /* \"--CODEGEN--\":0:93   */\n      pop\n        /* \"@openzeppelin/contracts/token/ERC721/ERC721Enumerable.sol\":5274:5304  _ownedTokens[to].push(tokenId) */\n      swap1\n      0x01\n      dup3\n      sub\n      swap1\n      0x00\n      mstore\n      keccak256(0x00, 0x20)\n      add\n      0x00\n      swap1\n      swap2\n      swap3\n      swap1\n      swap2\n      swap1\n      swap2\n      pop\n      sstore\n      pop\n        /* \"@openzeppelin/contracts/token/ERC721/ERC721Enumerable.sol\":5128:5311  function _addTokenToOwnerEnumeration(address to, uint256 tokenId) private {... */\n      pop\n      pop\n      jump\t// out\n        /* \"@openzeppelin/contracts/token/ERC721/ERC721Enumerable.sol\":4141:4505  function _burn(address owner, uint256 tokenId) internal {... */\n    tag_228:\n        /* \"@openzeppelin/contracts/token/ERC721/ERC721Enumerable.sol\":4207:4234  super._burn(owner, tokenId) */\n      tag_299\n        /* \"@openzeppelin/contracts/token/ERC721/ERC721Enumerable.sol\":4219:4224  owner */\n      dup3\n        /* \"@openzeppelin/contracts/token/ERC721/ERC721Enumerable.sol\":4226:4233  tokenId */\n      dup3\n        /* \"@openzeppelin/contracts/token/ERC721/ERC721Enumerable.sol\":4207:4218  super._burn */\n      tag_300\n        /* \"@openzeppelin/contracts/token/ERC721/ERC721Enumerable.sol\":4207:4234  super._burn(owner, tokenId) */\n      jump\t// in\n    tag_299:\n        /* \"@openzeppelin/contracts/token/ERC721/ERC721Enumerable.sol\":4245:4293  _removeTokenFromOwnerEnumeration(owner, tokenId) */\n      tag_301\n        /* \"@openzeppelin/contracts/token/ERC721/ERC721Enumerable.sol\":4278:4283  owner */\n      dup3\n        /* \"@openzeppelin/contracts/token/ERC721/ERC721Enumerable.sol\":4285:4292  tokenId */\n      dup3\n        /* \"@openzeppelin/contracts/token/ERC721/ERC721Enumerable.sol\":4245:4277  _removeTokenFromOwnerEnumeration */\n      tag_220\n        /* \"@openzeppelin/contracts/token/ERC721/ERC721Enumerable.sol\":4245:4293  _removeTokenFromOwnerEnumeration(owner, tokenId) */\n      jump\t// in\n    tag_301:\n        /* \"@openzeppelin/contracts/token/ERC721/ERC721Enumerable.sol\":4441:4442  0 */\n      0x00\n        /* \"@openzeppelin/contracts/token/ERC721/ERC721Enumerable.sol\":4412:4429  _ownedTokensIndex */\n      0x06\n        /* \"@openzeppelin/contracts/token/ERC721/ERC721Enumerable.sol\":4412:4438  _ownedTokensIndex[tokenId] */\n      0x00\n        /* \"@openzeppelin/contracts/token/ERC721/ERC721Enumerable.sol\":4430:4437  tokenId */\n      dup4\n        /* \"@openzeppelin/contracts/token/ERC721/ERC721Enumerable.sol\":4412:4438  _ownedTokensIndex[tokenId] */\n      dup2\n      mstore\n      0x20\n      add\n      swap1\n      dup2\n      mstore\n      0x20\n      add\n      0x00\n      keccak256\n        /* \"@openzeppelin/contracts/token/ERC721/ERC721Enumerable.sol\":4412:4442  _ownedTokensIndex[tokenId] = 0 */\n      dup2\n      swap1\n      sstore\n      pop\n        /* \"@openzeppelin/contracts/token/ERC721/ERC721Enumerable.sol\":4453:4498  _removeTokenFromAllTokensEnumeration(tokenId) */\n      tag_302\n        /* \"@openzeppelin/contracts/token/ERC721/ERC721Enumerable.sol\":4490:4497  tokenId */\n      dup2\n        /* \"@openzeppelin/contracts/token/ERC721/ERC721Enumerable.sol\":4453:4489  _removeTokenFromAllTokensEnumeration */\n      tag_303\n        /* \"@openzeppelin/contracts/token/ERC721/ERC721Enumerable.sol\":4453:4498  _removeTokenFromAllTokensEnumeration(tokenId) */\n      jump\t// in\n    tag_302:\n        /* \"@openzeppelin/contracts/token/ERC721/ERC721Enumerable.sol\":4141:4505  function _burn(address owner, uint256 tokenId) internal {... */\n      pop\n      pop\n      jump\t// out\n        /* \"@openzeppelin/contracts/math/SafeMath.sol\":834:1010  function add(uint256 a, uint256 b) internal pure returns (uint256) {... */\n    tag_245:\n        /* \"@openzeppelin/contracts/math/SafeMath.sol\":892:899  uint256 */\n      0x00\n        /* \"@openzeppelin/contracts/math/SafeMath.sol\":911:920  uint256 c */\n      dup1\n        /* \"@openzeppelin/contracts/math/SafeMath.sol\":927:928  b */\n      dup3\n        /* \"@openzeppelin/contracts/math/SafeMath.sol\":923:924  a */\n      dup5\n        /* \"@openzeppelin/contracts/math/SafeMath.sol\":923:928  a + b */\n      add\n        /* \"@openzeppelin/contracts/math/SafeMath.sol\":911:928  uint256 c = a + b */\n      swap1\n      pop\n        /* \"@openzeppelin/contracts/math/SafeMath.sol\":951:952  a */\n      dup4\n        /* \"@openzeppelin/contracts/math/SafeMath.sol\":946:947  c */\n      dup2\n        /* \"@openzeppelin/contracts/math/SafeMath.sol\":946:952  c >= a */\n      lt\n      iszero\n        /* \"@openzeppelin/contracts/math/SafeMath.sol\":938:984  require(c >= a, \"SafeMath: addition overflow\") */\n      tag_305\n      jumpi\n      mload(0x40)\n      0x08c379a000000000000000000000000000000000000000000000000000000000\n      dup2\n      mstore\n      0x04\n      add\n      dup1\n      dup1\n      0x20\n      add\n      dup3\n      dup2\n      sub\n      dup3\n      mstore\n      0x1b\n      dup2\n      mstore\n      0x20\n      add\n      dup1\n      0x536166654d6174683a206164646974696f6e206f766572666c6f770000000000\n      dup2\n      mstore\n      pop\n      0x20\n      add\n      swap2\n      pop\n      pop\n      mload(0x40)\n      dup1\n      swap2\n      sub\n      swap1\n      revert\n    tag_305:\n        /* \"@openzeppelin/contracts/math/SafeMath.sol\":1002:1003  c */\n      dup1\n        /* \"@openzeppelin/contracts/math/SafeMath.sol\":995:1003  return c */\n      swap2\n      pop\n      pop\n        /* \"@openzeppelin/contracts/math/SafeMath.sol\":834:1010  function add(uint256 a, uint256 b) internal pure returns (uint256) {... */\n      swap3\n      swap2\n      pop\n      pop\n      jump\t// out\n        /* \"@openzeppelin/contracts/token/ERC721/ERC721Enumerable.sol\":3670:3866  function _mint(address to, uint256 tokenId) internal {... */\n    tag_249:\n        /* \"@openzeppelin/contracts/token/ERC721/ERC721Enumerable.sol\":3733:3757  super._mint(to, tokenId) */\n      tag_307\n        /* \"@openzeppelin/contracts/token/ERC721/ERC721Enumerable.sol\":3745:3747  to */\n      dup3\n        /* \"@openzeppelin/contracts/token/ERC721/ERC721Enumerable.sol\":3749:3756  tokenId */\n      dup3\n        /* \"@openzeppelin/contracts/token/ERC721/ERC721Enumerable.sol\":3733:3744  super._mint */\n      tag_308\n        /* \"@openzeppelin/contracts/token/ERC721/ERC721Enumerable.sol\":3733:3757  super._mint(to, tokenId) */\n      jump\t// in\n    tag_307:\n        /* \"@openzeppelin/contracts/token/ERC721/ERC721Enumerable.sol\":3768:3808  _addTokenToOwnerEnumeration(to, tokenId) */\n      tag_309\n        /* \"@openzeppelin/contracts/token/ERC721/ERC721Enumerable.sol\":3796:3798  to */\n      dup3\n        /* \"@openzeppelin/contracts/token/ERC721/ERC721Enumerable.sol\":3800:3807  tokenId */\n      dup3\n        /* \"@openzeppelin/contracts/token/ERC721/ERC721Enumerable.sol\":3768:3795  _addTokenToOwnerEnumeration */\n      tag_222\n        /* \"@openzeppelin/contracts/token/ERC721/ERC721Enumerable.sol\":3768:3808  _addTokenToOwnerEnumeration(to, tokenId) */\n      jump\t// in\n    tag_309:\n        /* \"@openzeppelin/contracts/token/ERC721/ERC721Enumerable.sol\":3819:3859  _addTokenToAllTokensEnumeration(tokenId) */\n      tag_310\n        /* \"@openzeppelin/contracts/token/ERC721/ERC721Enumerable.sol\":3851:3858  tokenId */\n      dup2\n        /* \"@openzeppelin/contracts/token/ERC721/ERC721Enumerable.sol\":3819:3850  _addTokenToAllTokensEnumeration */\n      tag_311\n        /* \"@openzeppelin/contracts/token/ERC721/ERC721Enumerable.sol\":3819:3859  _addTokenToAllTokensEnumeration(tokenId) */\n      jump\t// in\n    tag_310:\n        /* \"@openzeppelin/contracts/token/ERC721/ERC721Enumerable.sol\":3670:3866  function _mint(address to, uint256 tokenId) internal {... */\n      pop\n      pop\n      jump\t// out\n        /* \"@openzeppelin/contracts/math/SafeMath.sol\":2159:2618  function mul(uint256 a, uint256 b) internal pure returns (uint256) {... */\n    tag_269:\n        /* \"@openzeppelin/contracts/math/SafeMath.sol\":2217:2224  uint256 */\n      0x00\n        /* \"@openzeppelin/contracts/math/SafeMath.sol\":2463:2464  0 */\n      dup1\n        /* \"@openzeppelin/contracts/math/SafeMath.sol\":2458:2459  a */\n      dup4\n        /* \"@openzeppelin/contracts/math/SafeMath.sol\":2458:2464  a == 0 */\n      eq\n        /* \"@openzeppelin/contracts/math/SafeMath.sol\":2454:2499  if (a == 0) {... */\n      iszero\n      tag_313\n      jumpi\n        /* \"@openzeppelin/contracts/math/SafeMath.sol\":2487:2488  0 */\n      0x00\n        /* \"@openzeppelin/contracts/math/SafeMath.sol\":2480:2488  return 0 */\n      swap1\n      pop\n      jump(tag_312)\n        /* \"@openzeppelin/contracts/math/SafeMath.sol\":2454:2499  if (a == 0) {... */\n    tag_313:\n        /* \"@openzeppelin/contracts/math/SafeMath.sol\":2509:2518  uint256 c */\n      0x00\n        /* \"@openzeppelin/contracts/math/SafeMath.sol\":2525:2526  b */\n      dup3\n        /* \"@openzeppelin/contracts/math/SafeMath.sol\":2521:2522  a */\n      dup5\n        /* \"@openzeppelin/contracts/math/SafeMath.sol\":2521:2526  a * b */\n      mul\n        /* \"@openzeppelin/contracts/math/SafeMath.sol\":2509:2526  uint256 c = a * b */\n      swap1\n      pop\n        /* \"@openzeppelin/contracts/math/SafeMath.sol\":2553:2554  b */\n      dup3\n        /* \"@openzeppelin/contracts/math/SafeMath.sol\":2548:2549  a */\n      dup5\n        /* \"@openzeppelin/contracts/math/SafeMath.sol\":2544:2545  c */\n      dup3\n        /* \"@openzeppelin/contracts/math/SafeMath.sol\":2544:2549  c / a */\n      dup2\n      tag_314\n      jumpi\n      invalid\n    tag_314:\n      div\n        /* \"@openzeppelin/contracts/math/SafeMath.sol\":2544:2554  c / a == b */\n      eq\n        /* \"@openzeppelin/contracts/math/SafeMath.sol\":2536:2592  require(c / a == b, \"SafeMath: multiplication overflow\") */\n      tag_315\n      jumpi\n      mload(0x40)\n      0x08c379a000000000000000000000000000000000000000000000000000000000\n      dup2\n      mstore\n      0x04\n      add\n      dup1\n      dup1\n      0x20\n      add\n      dup3\n      dup2\n      sub\n      dup3\n      mstore\n      0x21\n      dup2\n      mstore\n      0x20\n      add\n      dup1\n      data_9113bb53c2876a3805b2c9242029423fc540a728243ce887ab24c82cf119fba3\n      0x21\n      swap2\n      codecopy\n      0x40\n      add\n      swap2\n      pop\n      pop\n      mload(0x40)\n      dup1\n      swap2\n      sub\n      swap1\n      revert\n    tag_315:\n        /* \"@openzeppelin/contracts/math/SafeMath.sol\":2610:2611  c */\n      dup1\n        /* \"@openzeppelin/contracts/math/SafeMath.sol\":2603:2611  return c */\n      swap2\n      pop\n      pop\n        /* \"@openzeppelin/contracts/math/SafeMath.sol\":2159:2618  function mul(uint256 a, uint256 b) internal pure returns (uint256) {... */\n    tag_312:\n      swap3\n      swap2\n      pop\n      pop\n      jump\t// out\n        /* \"@openzeppelin/contracts/math/SafeMath.sol\":3073:3203  function div(uint256 a, uint256 b) internal pure returns (uint256) {... */\n    tag_270:\n        /* \"@openzeppelin/contracts/math/SafeMath.sol\":3131:3138  uint256 */\n      0x00\n        /* \"@openzeppelin/contracts/math/SafeMath.sol\":3157:3196  div(a, b, \"SafeMath: division by zero\") */\n      tag_317\n        /* \"@openzeppelin/contracts/math/SafeMath.sol\":3161:3162  a */\n      dup4\n        /* \"@openzeppelin/contracts/math/SafeMath.sol\":3164:3165  b */\n      dup4\n        /* \"@openzeppelin/contracts/math/SafeMath.sol\":3157:3196  div(a, b, \"SafeMath: division by zero\") */\n      mload(0x40)\n      dup1\n      0x40\n      add\n      0x40\n      mstore\n      dup1\n      0x1a\n      dup2\n      mstore\n      0x20\n      add\n      0x536166654d6174683a206469766973696f6e206279207a65726f000000000000\n      dup2\n      mstore\n      pop\n        /* \"@openzeppelin/contracts/math/SafeMath.sol\":3157:3160  div */\n      tag_318\n        /* \"@openzeppelin/contracts/math/SafeMath.sol\":3157:3196  div(a, b, \"SafeMath: division by zero\") */\n      jump\t// in\n    tag_317:\n        /* \"@openzeppelin/contracts/math/SafeMath.sol\":3150:3196  return div(a, b, \"SafeMath: division by zero\") */\n      swap1\n      pop\n        /* \"@openzeppelin/contracts/math/SafeMath.sol\":3073:3203  function div(uint256 a, uint256 b) internal pure returns (uint256) {... */\n      swap3\n      swap2\n      pop\n      pop\n      jump\t// out\n        /* \"@openzeppelin/contracts/token/ERC721/ERC721.sol\":14367:15418  function _checkOnERC721Received(address from, address to, uint256 tokenId, bytes memory _data)... */\n    tag_274:\n        /* \"@openzeppelin/contracts/token/ERC721/ERC721.sol\":14488:14492  bool */\n      0x00\n        /* \"@openzeppelin/contracts/token/ERC721/ERC721.sol\":14513:14528  to.isContract() */\n      tag_320\n        /* \"@openzeppelin/contracts/token/ERC721/ERC721.sol\":14513:14515  to */\n      dup5\n        /* \"@openzeppelin/contracts/token/ERC721/ERC721.sol\":14513:14526  to.isContract */\n      0xffffffffffffffffffffffffffffffffffffffff\n      and\n      tag_321\n        /* \"@openzeppelin/contracts/token/ERC721/ERC721.sol\":14513:14528  to.isContract() */\n      jump\t// in\n    tag_320:\n        /* \"@openzeppelin/contracts/token/ERC721/ERC721.sol\":14508:14566  if (!to.isContract()) {... */\n      tag_322\n      jumpi\n        /* \"@openzeppelin/contracts/token/ERC721/ERC721.sol\":14551:14555  true */\n      0x01\n        /* \"@openzeppelin/contracts/token/ERC721/ERC721.sol\":14544:14555  return true */\n      swap1\n      pop\n      jump(tag_319)\n        /* \"@openzeppelin/contracts/token/ERC721/ERC721.sol\":14508:14566  if (!to.isContract()) {... */\n    tag_322:\n        /* \"@openzeppelin/contracts/token/ERC721/ERC721.sol\":14635:14647  bool success */\n      0x00\n        /* \"@openzeppelin/contracts/token/ERC721/ERC721.sol\":14649:14672  bytes memory returndata */\n      0x60\n        /* \"@openzeppelin/contracts/token/ERC721/ERC721.sol\":14676:14678  to */\n      dup6\n        /* \"@openzeppelin/contracts/token/ERC721/ERC721.sol\":14676:14683  to.call */\n      0xffffffffffffffffffffffffffffffffffffffff\n      and\n        /* \"@openzeppelin/contracts/token/ERC721/ERC721.sol\":14736:14738  to */\n      dup7\n        /* \"@openzeppelin/contracts/token/ERC721/ERC721.sol\":14720:14756  IERC721Receiver(to).onERC721Received */\n      0xffffffffffffffffffffffffffffffffffffffff\n      and\n      0x150b7a02\n        /* \"@openzeppelin/contracts/token/ERC721/ERC721.sol\":14720:14765  IERC721Receiver(to).onERC721Received.selector */\n      swap1\n      pop\n      0xe0\n      shl\n        /* \"@openzeppelin/contracts/token/ERC721/ERC721.sol\":14779:14791  _msgSender() */\n      tag_323\n        /* \"@openzeppelin/contracts/token/ERC721/ERC721.sol\":14779:14789  _msgSender */\n      tag_101\n        /* \"@openzeppelin/contracts/token/ERC721/ERC721.sol\":14779:14791  _msgSender() */\n      jump\t// in\n    tag_323:\n        /* \"@openzeppelin/contracts/token/ERC721/ERC721.sol\":14805:14809  from */\n      dup10\n        /* \"@openzeppelin/contracts/token/ERC721/ERC721.sol\":14823:14830  tokenId */\n      dup9\n        /* \"@openzeppelin/contracts/token/ERC721/ERC721.sol\":14844:14849  _data */\n      dup9\n        /* \"@openzeppelin/contracts/token/ERC721/ERC721.sol\":14684:14859  abi.encodeWithSelector(... */\n      add(0x24, mload(0x40))\n      dup1\n      dup6\n      0xffffffffffffffffffffffffffffffffffffffff\n      and\n      0xffffffffffffffffffffffffffffffffffffffff\n      and\n      dup2\n      mstore\n      0x20\n      add\n      dup5\n      0xffffffffffffffffffffffffffffffffffffffff\n      and\n      0xffffffffffffffffffffffffffffffffffffffff\n      and\n      dup2\n      mstore\n      0x20\n      add\n      dup4\n      dup2\n      mstore\n      0x20\n      add\n      dup1\n      0x20\n      add\n      dup3\n      dup2\n      sub\n      dup3\n      mstore\n      dup4\n      dup2\n      dup2\n      mload\n      dup2\n      mstore\n      0x20\n      add\n      swap2\n      pop\n      dup1\n      mload\n      swap1\n      0x20\n      add\n      swap1\n      dup1\n      dup4\n      dup4\n        /* \"--CODEGEN--\":23:24   */\n      0x00\n        /* \"--CODEGEN--\":8:108   */\n    tag_324:\n        /* \"--CODEGEN--\":33:36   */\n      dup4\n        /* \"--CODEGEN--\":30:31   */\n      dup2\n        /* \"--CODEGEN--\":27:37   */\n      lt\n        /* \"--CODEGEN--\":8:108   */\n      iszero\n      tag_326\n      jumpi\n        /* \"--CODEGEN--\":99:100   */\n      dup1\n        /* \"--CODEGEN--\":94:97   */\n      dup3\n        /* \"--CODEGEN--\":90:101   */\n      add\n        /* \"--CODEGEN--\":84:102   */\n      mload\n        /* \"--CODEGEN--\":80:81   */\n      dup2\n        /* \"--CODEGEN--\":75:78   */\n      dup5\n        /* \"--CODEGEN--\":71:82   */\n      add\n        /* \"--CODEGEN--\":64:103   */\n      mstore\n        /* \"--CODEGEN--\":52:54   */\n      0x20\n        /* \"--CODEGEN--\":49:50   */\n      dup2\n        /* \"--CODEGEN--\":45:55   */\n      add\n        /* \"--CODEGEN--\":40:55   */\n      swap1\n      pop\n        /* \"--CODEGEN--\":8:108   */\n      jump(tag_324)\n    tag_326:\n        /* \"--CODEGEN--\":12:26   */\n      pop\n        /* \"@openzeppelin/contracts/token/ERC721/ERC721.sol\":14684:14859  abi.encodeWithSelector(... */\n      pop\n      pop\n      pop\n      swap1\n      pop\n      swap1\n      dup2\n      add\n      swap1\n      0x1f\n      and\n      dup1\n      iszero\n      tag_327\n      jumpi\n      dup1\n      dup3\n      sub\n      dup1\n      mload\n      0x01\n      dup4\n      0x20\n      sub\n      0x0100\n      exp\n      sub\n      not\n      and\n      dup2\n      mstore\n      0x20\n      add\n      swap2\n      pop\n    tag_327:\n      pop\n      swap6\n      pop\n      pop\n      pop\n      pop\n      pop\n      pop\n      mload(0x40)\n        /* \"--CODEGEN--\":49:53   */\n      0x20\n        /* \"--CODEGEN--\":39:46   */\n      dup2\n        /* \"--CODEGEN--\":30:37   */\n      dup4\n        /* \"--CODEGEN--\":26:47   */\n      sub\n        /* \"--CODEGEN--\":22:54   */\n      sub\n        /* \"--CODEGEN--\":13:20   */\n      dup2\n        /* \"--CODEGEN--\":6:55   */\n      mstore\n        /* \"@openzeppelin/contracts/token/ERC721/ERC721.sol\":14684:14859  abi.encodeWithSelector(... */\n      swap1\n      0x40\n      mstore\n      swap1\n      not(0xffffffffffffffffffffffffffffffffffffffffffffffffffffffff)\n      and\n        /* \"--CODEGEN--\":38:42   */\n      0x20\n        /* \"--CODEGEN--\":29:36   */\n      dup3\n        /* \"--CODEGEN--\":25:43   */\n      add\n        /* \"--CODEGEN--\":67:77   */\n      dup1\n        /* \"--CODEGEN--\":61:78   */\n      mload\n        /* \"--CODEGEN--\":96:154   */\n      0xffffffffffffffffffffffffffffffffffffffffffffffffffffffff\n        /* \"--CODEGEN--\":199:207   */\n      dup4\n        /* \"--CODEGEN--\":192:196   */\n      dup2\n        /* \"--CODEGEN--\":186:190   */\n      dup4\n        /* \"--CODEGEN--\":182:197   */\n      and\n        /* \"--CODEGEN--\":179:208   */\n      or\n        /* \"--CODEGEN--\":167:177   */\n      dup4\n        /* \"--CODEGEN--\":160:209   */\n      mstore\n        /* \"--CODEGEN--\":0:215   */\n      pop\n      pop\n      pop\n        /* \"@openzeppelin/contracts/token/ERC721/ERC721.sol\":14684:14859  abi.encodeWithSelector(... */\n      pop\n        /* \"@openzeppelin/contracts/token/ERC721/ERC721.sol\":14676:14860  to.call(abi.encodeWithSelector(... */\n      mload(0x40)\n      dup1\n      dup3\n      dup1\n      mload\n      swap1\n      0x20\n      add\n      swap1\n      dup1\n      dup4\n      dup4\n        /* \"--CODEGEN--\":36:189   */\n    tag_328:\n        /* \"--CODEGEN--\":66:68   */\n      0x20\n        /* \"--CODEGEN--\":61:64   */\n      dup4\n        /* \"--CODEGEN--\":58:69   */\n      lt\n        /* \"--CODEGEN--\":36:189   */\n      tag_330\n      jumpi\n        /* \"--CODEGEN--\":182:185   */\n      dup1\n        /* \"--CODEGEN--\":176:186   */\n      mload\n        /* \"--CODEGEN--\":171:174   */\n      dup3\n        /* \"--CODEGEN--\":164:187   */\n      mstore\n        /* \"--CODEGEN--\":98:100   */\n      0x20\n        /* \"--CODEGEN--\":93:96   */\n      dup3\n        /* \"--CODEGEN--\":89:101   */\n      add\n        /* \"--CODEGEN--\":82:101   */\n      swap2\n      pop\n        /* \"--CODEGEN--\":123:125   */\n      0x20\n        /* \"--CODEGEN--\":118:121   */\n      dup2\n        /* \"--CODEGEN--\":114:126   */\n      add\n        /* \"--CODEGEN--\":107:126   */\n      swap1\n      pop\n        /* \"--CODEGEN--\":148:150   */\n      0x20\n        /* \"--CODEGEN--\":143:146   */\n      dup4\n        /* \"--CODEGEN--\":139:151   */\n      sub\n        /* \"--CODEGEN--\":132:151   */\n      swap3\n      pop\n        /* \"--CODEGEN--\":36:189   */\n      jump(tag_328)\n    tag_330:\n        /* \"--CODEGEN--\":274:275   */\n      0x01\n        /* \"--CODEGEN--\":267:270   */\n      dup4\n        /* \"--CODEGEN--\":263:265   */\n      0x20\n        /* \"--CODEGEN--\":259:271   */\n      sub\n        /* \"--CODEGEN--\":254:257   */\n      0x0100\n        /* \"--CODEGEN--\":250:272   */\n      exp\n        /* \"--CODEGEN--\":246:276   */\n      sub\n        /* \"--CODEGEN--\":315:319   */\n      dup1\n        /* \"--CODEGEN--\":311:320   */\n      not\n        /* \"--CODEGEN--\":305:308   */\n      dup3\n        /* \"--CODEGEN--\":299:309   */\n      mload\n        /* \"--CODEGEN--\":295:321   */\n      and\n        /* \"--CODEGEN--\":356:360   */\n      dup2\n        /* \"--CODEGEN--\":350:353   */\n      dup5\n        /* \"--CODEGEN--\":344:354   */\n      mload\n        /* \"--CODEGEN--\":340:361   */\n      and\n        /* \"--CODEGEN--\":389:396   */\n      dup1\n        /* \"--CODEGEN--\":380:387   */\n      dup3\n        /* \"--CODEGEN--\":377:397   */\n      or\n        /* \"--CODEGEN--\":372:375   */\n      dup6\n        /* \"--CODEGEN--\":365:398   */\n      mstore\n        /* \"--CODEGEN--\":3:402   */\n      pop\n      pop\n      pop\n        /* \"@openzeppelin/contracts/token/ERC721/ERC721.sol\":14676:14860  to.call(abi.encodeWithSelector(... */\n      pop\n      pop\n      pop\n      swap1\n      pop\n      add\n      swap2\n      pop\n      pop\n      0x00\n      mload(0x40)\n      dup1\n      dup4\n      sub\n      dup2\n      0x00\n      dup7\n      gas\n      call\n      swap2\n      pop\n      pop\n      returndatasize\n        /* \"--CODEGEN--\":14:15   */\n      dup1\n        /* \"--CODEGEN--\":21:22   */\n      0x00\n        /* \"--CODEGEN--\":16:47   */\n      dup2\n      eq\n      tag_332\n      jumpi\n        /* \"--CODEGEN--\":75:79   */\n      0x40\n        /* \"--CODEGEN--\":69:80   */\n      mload\n        /* \"--CODEGEN--\":64:80   */\n      swap2\n      pop\n        /* \"--CODEGEN--\":144:148   */\n      0x1f\n        /* \"--CODEGEN--\":140:149   */\n      not\n        /* \"--CODEGEN--\":133:137   */\n      0x3f\n        /* \"--CODEGEN--\":115:131   */\n      returndatasize\n        /* \"--CODEGEN--\":111:138   */\n      add\n        /* \"--CODEGEN--\":107:150   */\n      and\n        /* \"--CODEGEN--\":104:105   */\n      dup3\n        /* \"--CODEGEN--\":100:151   */\n      add\n        /* \"--CODEGEN--\":94:98   */\n      0x40\n        /* \"--CODEGEN--\":87:152   */\n      mstore\n        /* \"--CODEGEN--\":169:185   */\n      returndatasize\n        /* \"--CODEGEN--\":166:167   */\n      dup3\n        /* \"--CODEGEN--\":159:186   */\n      mstore\n        /* \"--CODEGEN--\":225:241   */\n      returndatasize\n        /* \"--CODEGEN--\":222:223   */\n      0x00\n        /* \"--CODEGEN--\":215:219   */\n      0x20\n        /* \"--CODEGEN--\":212:213   */\n      dup5\n        /* \"--CODEGEN--\":208:220   */\n      add\n        /* \"--CODEGEN--\":193:242   */\n      returndatacopy\n        /* \"--CODEGEN--\":7:249   */\n      jump(tag_331)\n        /* \"--CODEGEN--\":16:47   */\n    tag_332:\n        /* \"--CODEGEN--\":36:40   */\n      0x60\n        /* \"--CODEGEN--\":31:40   */\n      swap2\n      pop\n        /* \"--CODEGEN--\":7:249   */\n    tag_331:\n      pop\n        /* \"@openzeppelin/contracts/token/ERC721/ERC721.sol\":14634:14860  (bool success, bytes memory returndata) = to.call(abi.encodeWithSelector(... */\n      swap2\n      pop\n      swap2\n      pop\n        /* \"@openzeppelin/contracts/token/ERC721/ERC721.sol\":14875:14882  success */\n      dup2\n        /* \"@openzeppelin/contracts/token/ERC721/ERC721.sol\":14870:15412  if (!success) {... */\n      tag_333\n      jumpi\n        /* \"@openzeppelin/contracts/token/ERC721/ERC721.sol\":14922:14923  0 */\n      0x00\n        /* \"@openzeppelin/contracts/token/ERC721/ERC721.sol\":14902:14912  returndata */\n      dup2\n        /* \"@openzeppelin/contracts/token/ERC721/ERC721.sol\":14902:14919  returndata.length */\n      mload\n        /* \"@openzeppelin/contracts/token/ERC721/ERC721.sol\":14902:14923  returndata.length > 0 */\n      gt\n        /* \"@openzeppelin/contracts/token/ERC721/ERC721.sol\":14898:15274  if (returndata.length > 0) {... */\n      iszero\n      tag_334\n      jumpi\n        /* \"@openzeppelin/contracts/token/ERC721/ERC721.sol\":15067:15077  returndata */\n      dup1\n        /* \"@openzeppelin/contracts/token/ERC721/ERC721.sol\":15061:15078  mload(returndata) */\n      mload\n        /* \"@openzeppelin/contracts/token/ERC721/ERC721.sol\":15127:15142  returndata_size */\n      dup1\n        /* \"@openzeppelin/contracts/token/ERC721/ERC721.sol\":15114:15124  returndata */\n      dup3\n        /* \"@openzeppelin/contracts/token/ERC721/ERC721.sol\":15110:15112  32 */\n      0x20\n        /* \"@openzeppelin/contracts/token/ERC721/ERC721.sol\":15106:15125  add(32, returndata) */\n      add\n        /* \"@openzeppelin/contracts/token/ERC721/ERC721.sol\":15099:15143  revert(add(32, returndata), returndata_size) */\n      revert\n        /* \"@openzeppelin/contracts/token/ERC721/ERC721.sol\":15016:15161  {... */\n    tag_334:\n        /* \"@openzeppelin/contracts/token/ERC721/ERC721.sol\":15199:15259  revert(\"ERC721: transfer to non ERC721Receiver implementer\") */\n      mload(0x40)\n      0x08c379a000000000000000000000000000000000000000000000000000000000\n      dup2\n      mstore\n      0x04\n      add\n      dup1\n      dup1\n      0x20\n      add\n      dup3\n      dup2\n      sub\n      dup3\n      mstore\n      0x32\n      dup2\n      mstore\n      0x20\n      add\n      dup1\n      data_1e766a06da43a53d0f4c380e06e5a342e14d5af1bf8501996c844905530ca84e\n      0x32\n      swap2\n      codecopy\n      0x40\n      add\n      swap2\n      pop\n      pop\n      mload(0x40)\n      dup1\n      swap2\n      sub\n      swap1\n      revert\n        /* \"@openzeppelin/contracts/token/ERC721/ERC721.sol\":14870:15412  if (!success) {... */\n    tag_333:\n        /* \"@openzeppelin/contracts/token/ERC721/ERC721.sol\":15304:15317  bytes4 retval */\n      0x00\n        /* \"@openzeppelin/contracts/token/ERC721/ERC721.sol\":15331:15341  returndata */\n      dup2\n        /* \"@openzeppelin/contracts/token/ERC721/ERC721.sol\":15320:15352  abi.decode(returndata, (bytes4)) */\n      dup1\n      0x20\n      add\n      swap1\n      mload\n        /* \"--CODEGEN--\":13:15   */\n      0x20\n        /* \"--CODEGEN--\":8:11   */\n      dup2\n        /* \"--CODEGEN--\":5:16   */\n      lt\n        /* \"--CODEGEN--\":2:4   */\n      iszero\n      tag_337\n      jumpi\n        /* \"--CODEGEN--\":29:30   */\n      0x00\n        /* \"--CODEGEN--\":26:27   */\n      dup1\n        /* \"--CODEGEN--\":19:31   */\n      revert\n        /* \"--CODEGEN--\":2:4   */\n    tag_337:\n        /* \"@openzeppelin/contracts/token/ERC721/ERC721.sol\":15320:15352  abi.decode(returndata, (bytes4)) */\n      dup2\n      add\n      swap1\n      dup1\n      dup1\n      mload\n      swap1\n      0x20\n      add\n      swap1\n      swap3\n      swap2\n      swap1\n      pop\n      pop\n      pop\n        /* \"@openzeppelin/contracts/token/ERC721/ERC721.sol\":15304:15352  bytes4 retval = abi.decode(returndata, (bytes4)) */\n      swap1\n      pop\n        /* \"@openzeppelin/contracts/token/ERC721/ERC721.sol\":754:764  0x150b7a02 */\n      0x150b7a02\n        /* \"@openzeppelin/contracts/token/ERC721/ERC721.sol\":15384:15400  _ERC721_RECEIVED */\n      0xe0\n      shl\n        /* \"@openzeppelin/contracts/token/ERC721/ERC721.sol\":15374:15400  retval == _ERC721_RECEIVED */\n      not(0xffffffffffffffffffffffffffffffffffffffffffffffffffffffff)\n      and\n        /* \"@openzeppelin/contracts/token/ERC721/ERC721.sol\":15374:15380  retval */\n      dup2\n        /* \"@openzeppelin/contracts/token/ERC721/ERC721.sol\":15374:15400  retval == _ERC721_RECEIVED */\n      not(0xffffffffffffffffffffffffffffffffffffffffffffffffffffffff)\n      and\n      eq\n        /* \"@openzeppelin/contracts/token/ERC721/ERC721.sol\":15366:15401  return (retval == _ERC721_RECEIVED) */\n      swap4\n      pop\n      pop\n      pop\n      pop\n        /* \"@openzeppelin/contracts/token/ERC721/ERC721.sol\":14367:15418  function _checkOnERC721Received(address from, address to, uint256 tokenId, bytes memory _data)... */\n    tag_319:\n      swap5\n      swap4\n      pop\n      pop\n      pop\n      pop\n      jump\t// out\n        /* \"@openzeppelin/contracts/token/ERC721/ERC721.sol\":15580:15751  function _clearApproval(uint256 tokenId) private {... */\n    tag_281:\n        /* \"@openzeppelin/contracts/token/ERC721/ERC721.sol\":15679:15680  0 */\n      0x00\n        /* \"@openzeppelin/contracts/token/ERC721/ERC721.sol\":15643:15681  _tokenApprovals[tokenId] != address(0) */\n      0xffffffffffffffffffffffffffffffffffffffff\n      and\n        /* \"@openzeppelin/contracts/token/ERC721/ERC721.sol\":15643:15658  _tokenApprovals */\n      0x02\n        /* \"@openzeppelin/contracts/token/ERC721/ERC721.sol\":15643:15667  _tokenApprovals[tokenId] */\n      0x00\n        /* \"@openzeppelin/contracts/token/ERC721/ERC721.sol\":15659:15666  tokenId */\n      dup4\n        /* \"@openzeppelin/contracts/token/ERC721/ERC721.sol\":15643:15667  _tokenApprovals[tokenId] */\n      dup2\n      mstore\n      0x20\n      add\n      swap1\n      dup2\n      mstore\n      0x20\n      add\n      0x00\n      keccak256\n      0x00\n      swap1\n      sload\n      swap1\n      0x0100\n      exp\n      swap1\n      div\n      0xffffffffffffffffffffffffffffffffffffffff\n      and\n        /* \"@openzeppelin/contracts/token/ERC721/ERC721.sol\":15643:15681  _tokenApprovals[tokenId] != address(0) */\n      0xffffffffffffffffffffffffffffffffffffffff\n      and\n      eq\n        /* \"@openzeppelin/contracts/token/ERC721/ERC721.sol\":15639:15745  if (_tokenApprovals[tokenId] != address(0)) {... */\n      tag_339\n      jumpi\n        /* \"@openzeppelin/contracts/token/ERC721/ERC721.sol\":15732:15733  0 */\n      0x00\n        /* \"@openzeppelin/contracts/token/ERC721/ERC721.sol\":15697:15712  _tokenApprovals */\n      0x02\n        /* \"@openzeppelin/contracts/token/ERC721/ERC721.sol\":15697:15721  _tokenApprovals[tokenId] */\n      0x00\n        /* \"@openzeppelin/contracts/token/ERC721/ERC721.sol\":15713:15720  tokenId */\n      dup4\n        /* \"@openzeppelin/contracts/token/ERC721/ERC721.sol\":15697:15721  _tokenApprovals[tokenId] */\n      dup2\n      mstore\n      0x20\n      add\n      swap1\n      dup2\n      mstore\n      0x20\n      add\n      0x00\n      keccak256\n      0x00\n        /* \"@openzeppelin/contracts/token/ERC721/ERC721.sol\":15697:15734  _tokenApprovals[tokenId] = address(0) */\n      0x0100\n      exp\n      dup2\n      sload\n      dup2\n      0xffffffffffffffffffffffffffffffffffffffff\n      mul\n      not\n      and\n      swap1\n      dup4\n      0xffffffffffffffffffffffffffffffffffffffff\n      and\n      mul\n      or\n      swap1\n      sstore\n      pop\n        /* \"@openzeppelin/contracts/token/ERC721/ERC721.sol\":15639:15745  if (_tokenApprovals[tokenId] != address(0)) {... */\n    tag_339:\n        /* \"@openzeppelin/contracts/token/ERC721/ERC721.sol\":15580:15751  function _clearApproval(uint256 tokenId) private {... */\n      pop\n      jump\t// out\n        /* \"@openzeppelin/contracts/drafts/Counters.sol\":1367:1475  function decrement(Counter storage counter) internal {... */\n    tag_283:\n        /* \"@openzeppelin/contracts/drafts/Counters.sol\":1447:1468  counter._value.sub(1) */\n      tag_341\n        /* \"@openzeppelin/contracts/drafts/Counters.sol\":1466:1467  1 */\n      0x01\n        /* \"@openzeppelin/contracts/drafts/Counters.sol\":1447:1454  counter */\n      dup3\n        /* \"@openzeppelin/contracts/drafts/Counters.sol\":1447:1461  counter._value */\n      0x00\n      add\n      sload\n        /* \"@openzeppelin/contracts/drafts/Counters.sol\":1447:1465  counter._value.sub */\n      tag_288\n      swap1\n        /* \"@openzeppelin/contracts/drafts/Counters.sol\":1447:1468  counter._value.sub(1) */\n      swap2\n      swap1\n      0xffffffff\n      and\n      jump\t// in\n    tag_341:\n        /* \"@openzeppelin/contracts/drafts/Counters.sol\":1430:1437  counter */\n      dup2\n        /* \"@openzeppelin/contracts/drafts/Counters.sol\":1430:1444  counter._value */\n      0x00\n      add\n        /* \"@openzeppelin/contracts/drafts/Counters.sol\":1430:1468  counter._value = counter._value.sub(1) */\n      dup2\n      swap1\n      sstore\n      pop\n        /* \"@openzeppelin/contracts/drafts/Counters.sol\":1367:1475  function decrement(Counter storage counter) internal {... */\n      pop\n      jump\t// out\n        /* \"@openzeppelin/contracts/drafts/Counters.sol\":1183:1361  function increment(Counter storage counter) internal {... */\n    tag_285:\n        /* \"@openzeppelin/contracts/drafts/Counters.sol\":1353:1354  1 */\n      0x01\n        /* \"@openzeppelin/contracts/drafts/Counters.sol\":1335:1342  counter */\n      dup2\n        /* \"@openzeppelin/contracts/drafts/Counters.sol\":1335:1349  counter._value */\n      0x00\n      add\n      0x00\n        /* \"@openzeppelin/contracts/drafts/Counters.sol\":1335:1354  counter._value += 1 */\n      dup3\n      dup3\n      sload\n      add\n      swap3\n      pop\n      pop\n      dup2\n      swap1\n      sstore\n      pop\n        /* \"@openzeppelin/contracts/drafts/Counters.sol\":1183:1361  function increment(Counter storage counter) internal {... */\n      pop\n      jump\t// out\n        /* \"@openzeppelin/contracts/math/SafeMath.sol\":1274:1408  function sub(uint256 a, uint256 b) internal pure returns (uint256) {... */\n    tag_288:\n        /* \"@openzeppelin/contracts/math/SafeMath.sol\":1332:1339  uint256 */\n      0x00\n        /* \"@openzeppelin/contracts/math/SafeMath.sol\":1358:1401  sub(a, b, \"SafeMath: subtraction overflow\") */\n      tag_344\n        /* \"@openzeppelin/contracts/math/SafeMath.sol\":1362:1363  a */\n      dup4\n        /* \"@openzeppelin/contracts/math/SafeMath.sol\":1365:1366  b */\n      dup4\n        /* \"@openzeppelin/contracts/math/SafeMath.sol\":1358:1401  sub(a, b, \"SafeMath: subtraction overflow\") */\n      mload(0x40)\n      dup1\n      0x40\n      add\n      0x40\n      mstore\n      dup1\n      0x1e\n      dup2\n      mstore\n      0x20\n      add\n      0x536166654d6174683a207375627472616374696f6e206f766572666c6f770000\n      dup2\n      mstore\n      pop\n        /* \"@openzeppelin/contracts/math/SafeMath.sol\":1358:1361  sub */\n      tag_345\n        /* \"@openzeppelin/contracts/math/SafeMath.sol\":1358:1401  sub(a, b, \"SafeMath: subtraction overflow\") */\n      jump\t// in\n    tag_344:\n        /* \"@openzeppelin/contracts/math/SafeMath.sol\":1351:1401  return sub(a, b, \"SafeMath: subtraction overflow\") */\n      swap1\n      pop\n        /* \"@openzeppelin/contracts/math/SafeMath.sol\":1274:1408  function sub(uint256 a, uint256 b) internal pure returns (uint256) {... */\n      swap3\n      swap2\n      pop\n      pop\n      jump\t// out\n        /* \"@openzeppelin/contracts/token/ERC721/ERC721.sol\":12309:12633  function _burn(address owner, uint256 tokenId) internal {... */\n    tag_300:\n        /* \"@openzeppelin/contracts/token/ERC721/ERC721.sol\":12403:12408  owner */\n      dup2\n        /* \"@openzeppelin/contracts/token/ERC721/ERC721.sol\":12383:12408  ownerOf(tokenId) == owner */\n      0xffffffffffffffffffffffffffffffffffffffff\n      and\n        /* \"@openzeppelin/contracts/token/ERC721/ERC721.sol\":12383:12399  ownerOf(tokenId) */\n      tag_347\n        /* \"@openzeppelin/contracts/token/ERC721/ERC721.sol\":12391:12398  tokenId */\n      dup3\n        /* \"@openzeppelin/contracts/token/ERC721/ERC721.sol\":12383:12390  ownerOf */\n      tag_55\n        /* \"@openzeppelin/contracts/token/ERC721/ERC721.sol\":12383:12399  ownerOf(tokenId) */\n      jump\t// in\n    tag_347:\n        /* \"@openzeppelin/contracts/token/ERC721/ERC721.sol\":12383:12408  ownerOf(tokenId) == owner */\n      0xffffffffffffffffffffffffffffffffffffffff\n      and\n      eq\n        /* \"@openzeppelin/contracts/token/ERC721/ERC721.sol\":12375:12450  require(ownerOf(tokenId) == owner, \"ERC721: burn of token that is not own\") */\n      tag_348\n      jumpi\n      mload(0x40)\n      0x08c379a000000000000000000000000000000000000000000000000000000000\n      dup2\n      mstore\n      0x04\n      add\n      dup1\n      dup1\n      0x20\n      add\n      dup3\n      dup2\n      sub\n      dup3\n      mstore\n      0x25\n      dup2\n      mstore\n      0x20\n      add\n      dup1\n      data_d9af5b321f427d3820b5fc07b432b1ddf1bb6411d5d926d9de9773fd616ab5ee\n      0x25\n      swap2\n      codecopy\n      0x40\n      add\n      swap2\n      pop\n      pop\n      mload(0x40)\n      dup1\n      swap2\n      sub\n      swap1\n      revert\n    tag_348:\n        /* \"@openzeppelin/contracts/token/ERC721/ERC721.sol\":12461:12484  _clearApproval(tokenId) */\n      tag_349\n        /* \"@openzeppelin/contracts/token/ERC721/ERC721.sol\":12476:12483  tokenId */\n      dup2\n        /* \"@openzeppelin/contracts/token/ERC721/ERC721.sol\":12461:12475  _clearApproval */\n      tag_281\n        /* \"@openzeppelin/contracts/token/ERC721/ERC721.sol\":12461:12484  _clearApproval(tokenId) */\n      jump\t// in\n    tag_349:\n        /* \"@openzeppelin/contracts/token/ERC721/ERC721.sol\":12495:12531  _ownedTokensCount[owner].decrement() */\n      tag_350\n        /* \"@openzeppelin/contracts/token/ERC721/ERC721.sol\":12495:12512  _ownedTokensCount */\n      0x03\n        /* \"@openzeppelin/contracts/token/ERC721/ERC721.sol\":12495:12519  _ownedTokensCount[owner] */\n      0x00\n        /* \"@openzeppelin/contracts/token/ERC721/ERC721.sol\":12513:12518  owner */\n      dup5\n        /* \"@openzeppelin/contracts/token/ERC721/ERC721.sol\":12495:12519  _ownedTokensCount[owner] */\n      0xffffffffffffffffffffffffffffffffffffffff\n      and\n      0xffffffffffffffffffffffffffffffffffffffff\n      and\n      dup2\n      mstore\n      0x20\n      add\n      swap1\n      dup2\n      mstore\n      0x20\n      add\n      0x00\n      keccak256\n        /* \"@openzeppelin/contracts/token/ERC721/ERC721.sol\":12495:12529  _ownedTokensCount[owner].decrement */\n      tag_283\n        /* \"@openzeppelin/contracts/token/ERC721/ERC721.sol\":12495:12531  _ownedTokensCount[owner].decrement() */\n      jump\t// in\n    tag_350:\n        /* \"@openzeppelin/contracts/token/ERC721/ERC721.sol\":12572:12573  0 */\n      0x00\n        /* \"@openzeppelin/contracts/token/ERC721/ERC721.sol\":12541:12552  _tokenOwner */\n      0x01\n        /* \"@openzeppelin/contracts/token/ERC721/ERC721.sol\":12541:12561  _tokenOwner[tokenId] */\n      0x00\n        /* \"@openzeppelin/contracts/token/ERC721/ERC721.sol\":12553:12560  tokenId */\n      dup4\n        /* \"@openzeppelin/contracts/token/ERC721/ERC721.sol\":12541:12561  _tokenOwner[tokenId] */\n      dup2\n      mstore\n      0x20\n      add\n      swap1\n      dup2\n      mstore\n      0x20\n      add\n      0x00\n      keccak256\n      0x00\n        /* \"@openzeppelin/contracts/token/ERC721/ERC721.sol\":12541:12574  _tokenOwner[tokenId] = address(0) */\n      0x0100\n      exp\n      dup2\n      sload\n      dup2\n      0xffffffffffffffffffffffffffffffffffffffff\n      mul\n      not\n      and\n      swap1\n      dup4\n      0xffffffffffffffffffffffffffffffffffffffff\n      and\n      mul\n      or\n      swap1\n      sstore\n      pop\n        /* \"@openzeppelin/contracts/token/ERC721/ERC721.sol\":12618:12625  tokenId */\n      dup1\n        /* \"@openzeppelin/contracts/token/ERC721/ERC721.sol\":12614:12615  0 */\n      0x00\n        /* \"@openzeppelin/contracts/token/ERC721/ERC721.sol\":12590:12626  Transfer(owner, address(0), tokenId) */\n      0xffffffffffffffffffffffffffffffffffffffff\n      and\n        /* \"@openzeppelin/contracts/token/ERC721/ERC721.sol\":12599:12604  owner */\n      dup4\n        /* \"@openzeppelin/contracts/token/ERC721/ERC721.sol\":12590:12626  Transfer(owner, address(0), tokenId) */\n      0xffffffffffffffffffffffffffffffffffffffff\n      and\n      0xddf252ad1be2c89b69c2b068fc378daa952ba7f163c4a11628f55a4df523b3ef\n      mload(0x40)\n      mload(0x40)\n      dup1\n      swap2\n      sub\n      swap1\n      log4\n        /* \"@openzeppelin/contracts/token/ERC721/ERC721.sol\":12309:12633  function _burn(address owner, uint256 tokenId) internal {... */\n      pop\n      pop\n      jump\t// out\n        /* \"@openzeppelin/contracts/token/ERC721/ERC721Enumerable.sol\":7700:8764  function _removeTokenFromAllTokensEnumeration(uint256 tokenId) private {... */\n    tag_303:\n        /* \"@openzeppelin/contracts/token/ERC721/ERC721Enumerable.sol\":7949:7971  uint256 lastTokenIndex */\n      0x00\n        /* \"@openzeppelin/contracts/token/ERC721/ERC721Enumerable.sol\":7974:7998  _allTokens.length.sub(1) */\n      tag_352\n        /* \"@openzeppelin/contracts/token/ERC721/ERC721Enumerable.sol\":7996:7997  1 */\n      0x01\n        /* \"@openzeppelin/contracts/token/ERC721/ERC721Enumerable.sol\":7974:7984  _allTokens */\n      0x07\n        /* \"@openzeppelin/contracts/token/ERC721/ERC721Enumerable.sol\":7974:7991  _allTokens.length */\n      dup1\n      sload\n      swap1\n      pop\n        /* \"@openzeppelin/contracts/token/ERC721/ERC721Enumerable.sol\":7974:7995  _allTokens.length.sub */\n      tag_288\n      swap1\n        /* \"@openzeppelin/contracts/token/ERC721/ERC721Enumerable.sol\":7974:7998  _allTokens.length.sub(1) */\n      swap2\n      swap1\n      0xffffffff\n      and\n      jump\t// in\n    tag_352:\n        /* \"@openzeppelin/contracts/token/ERC721/ERC721Enumerable.sol\":7949:7998  uint256 lastTokenIndex = _allTokens.length.sub(1) */\n      swap1\n      pop\n        /* \"@openzeppelin/contracts/token/ERC721/ERC721Enumerable.sol\":8008:8026  uint256 tokenIndex */\n      0x00\n        /* \"@openzeppelin/contracts/token/ERC721/ERC721Enumerable.sol\":8029:8044  _allTokensIndex */\n      0x08\n        /* \"@openzeppelin/contracts/token/ERC721/ERC721Enumerable.sol\":8029:8053  _allTokensIndex[tokenId] */\n      0x00\n        /* \"@openzeppelin/contracts/token/ERC721/ERC721Enumerable.sol\":8045:8052  tokenId */\n      dup5\n        /* \"@openzeppelin/contracts/token/ERC721/ERC721Enumerable.sol\":8029:8053  _allTokensIndex[tokenId] */\n      dup2\n      mstore\n      0x20\n      add\n      swap1\n      dup2\n      mstore\n      0x20\n      add\n      0x00\n      keccak256\n      sload\n        /* \"@openzeppelin/contracts/token/ERC721/ERC721Enumerable.sol\":8008:8053  uint256 tokenIndex = _allTokensIndex[tokenId] */\n      swap1\n      pop\n        /* \"@openzeppelin/contracts/token/ERC721/ERC721Enumerable.sol\":8375:8394  uint256 lastTokenId */\n      0x00\n        /* \"@openzeppelin/contracts/token/ERC721/ERC721Enumerable.sol\":8397:8407  _allTokens */\n      0x07\n        /* \"@openzeppelin/contracts/token/ERC721/ERC721Enumerable.sol\":8408:8422  lastTokenIndex */\n      dup4\n        /* \"@openzeppelin/contracts/token/ERC721/ERC721Enumerable.sol\":8397:8423  _allTokens[lastTokenIndex] */\n      dup2\n      sload\n      dup2\n      lt\n      tag_353\n      jumpi\n      invalid\n    tag_353:\n      swap1\n      0x00\n      mstore\n      keccak256(0x00, 0x20)\n      add\n      sload\n        /* \"@openzeppelin/contracts/token/ERC721/ERC721Enumerable.sol\":8375:8423  uint256 lastTokenId = _allTokens[lastTokenIndex] */\n      swap1\n      pop\n        /* \"@openzeppelin/contracts/token/ERC721/ERC721Enumerable.sol\":8459:8470  lastTokenId */\n      dup1\n        /* \"@openzeppelin/contracts/token/ERC721/ERC721Enumerable.sol\":8434:8444  _allTokens */\n      0x07\n        /* \"@openzeppelin/contracts/token/ERC721/ERC721Enumerable.sol\":8445:8455  tokenIndex */\n      dup4\n        /* \"@openzeppelin/contracts/token/ERC721/ERC721Enumerable.sol\":8434:8456  _allTokens[tokenIndex] */\n      dup2\n      sload\n      dup2\n      lt\n      tag_355\n      jumpi\n      invalid\n    tag_355:\n      swap1\n      0x00\n      mstore\n      keccak256(0x00, 0x20)\n      add\n        /* \"@openzeppelin/contracts/token/ERC721/ERC721Enumerable.sol\":8434:8470  _allTokens[tokenIndex] = lastTokenId */\n      dup2\n      swap1\n      sstore\n      pop\n        /* \"@openzeppelin/contracts/token/ERC721/ERC721Enumerable.sol\":8569:8579  tokenIndex */\n      dup2\n        /* \"@openzeppelin/contracts/token/ERC721/ERC721Enumerable.sol\":8538:8553  _allTokensIndex */\n      0x08\n        /* \"@openzeppelin/contracts/token/ERC721/ERC721Enumerable.sol\":8538:8566  _allTokensIndex[lastTokenId] */\n      0x00\n        /* \"@openzeppelin/contracts/token/ERC721/ERC721Enumerable.sol\":8554:8565  lastTokenId */\n      dup4\n        /* \"@openzeppelin/contracts/token/ERC721/ERC721Enumerable.sol\":8538:8566  _allTokensIndex[lastTokenId] */\n      dup2\n      mstore\n      0x20\n      add\n      swap1\n      dup2\n      mstore\n      0x20\n      add\n      0x00\n      keccak256\n        /* \"@openzeppelin/contracts/token/ERC721/ERC721Enumerable.sol\":8538:8579  _allTokensIndex[lastTokenId] = tokenIndex */\n      dup2\n      swap1\n      sstore\n      pop\n        /* \"@openzeppelin/contracts/token/ERC721/ERC721Enumerable.sol\":8700:8710  _allTokens */\n      0x07\n        /* \"@openzeppelin/contracts/token/ERC721/ERC721Enumerable.sol\":8700:8719  _allTokens.length-- */\n      dup1\n      sload\n      dup1\n      swap2\n      swap1\n      0x01\n      swap1\n      sub\n      tag_357\n      swap2\n      swap1\n      tag_295\n      jump\t// in\n    tag_357:\n      pop\n        /* \"@openzeppelin/contracts/token/ERC721/ERC721Enumerable.sol\":8756:8757  0 */\n      0x00\n        /* \"@openzeppelin/contracts/token/ERC721/ERC721Enumerable.sol\":8729:8744  _allTokensIndex */\n      0x08\n        /* \"@openzeppelin/contracts/token/ERC721/ERC721Enumerable.sol\":8729:8753  _allTokensIndex[tokenId] */\n      0x00\n        /* \"@openzeppelin/contracts/token/ERC721/ERC721Enumerable.sol\":8745:8752  tokenId */\n      dup7\n        /* \"@openzeppelin/contracts/token/ERC721/ERC721Enumerable.sol\":8729:8753  _allTokensIndex[tokenId] */\n      dup2\n      mstore\n      0x20\n      add\n      swap1\n      dup2\n      mstore\n      0x20\n      add\n      0x00\n      keccak256\n        /* \"@openzeppelin/contracts/token/ERC721/ERC721Enumerable.sol\":8729:8757  _allTokensIndex[tokenId] = 0 */\n      dup2\n      swap1\n      sstore\n      pop\n        /* \"@openzeppelin/contracts/token/ERC721/ERC721Enumerable.sol\":7700:8764  function _removeTokenFromAllTokensEnumeration(uint256 tokenId) private {... */\n      pop\n      pop\n      pop\n      pop\n      jump\t// out\n        /* \"@openzeppelin/contracts/token/ERC721/ERC721.sol\":11714:12041  function _mint(address to, uint256 tokenId) internal {... */\n    tag_308:\n        /* \"@openzeppelin/contracts/token/ERC721/ERC721.sol\":11799:11800  0 */\n      0x00\n        /* \"@openzeppelin/contracts/token/ERC721/ERC721.sol\":11785:11801  to != address(0) */\n      0xffffffffffffffffffffffffffffffffffffffff\n      and\n        /* \"@openzeppelin/contracts/token/ERC721/ERC721.sol\":11785:11787  to */\n      dup3\n        /* \"@openzeppelin/contracts/token/ERC721/ERC721.sol\":11785:11801  to != address(0) */\n      0xffffffffffffffffffffffffffffffffffffffff\n      and\n      eq\n      iszero\n        /* \"@openzeppelin/contracts/token/ERC721/ERC721.sol\":11777:11838  require(to != address(0), \"ERC721: mint to the zero address\") */\n      tag_359\n      jumpi\n      mload(0x40)\n      0x08c379a000000000000000000000000000000000000000000000000000000000\n      dup2\n      mstore\n      0x04\n      add\n      dup1\n      dup1\n      0x20\n      add\n      dup3\n      dup2\n      sub\n      dup3\n      mstore\n      0x20\n      dup2\n      mstore\n      0x20\n      add\n      dup1\n      0x4552433732313a206d696e7420746f20746865207a65726f2061646472657373\n      dup2\n      mstore\n      pop\n      0x20\n      add\n      swap2\n      pop\n      pop\n      mload(0x40)\n      dup1\n      swap2\n      sub\n      swap1\n      revert\n    tag_359:\n        /* \"@openzeppelin/contracts/token/ERC721/ERC721.sol\":11857:11873  _exists(tokenId) */\n      tag_360\n        /* \"@openzeppelin/contracts/token/ERC721/ERC721.sol\":11865:11872  tokenId */\n      dup2\n        /* \"@openzeppelin/contracts/token/ERC721/ERC721.sol\":11857:11864  _exists */\n      tag_95\n        /* \"@openzeppelin/contracts/token/ERC721/ERC721.sol\":11857:11873  _exists(tokenId) */\n      jump\t// in\n    tag_360:\n        /* \"@openzeppelin/contracts/token/ERC721/ERC721.sol\":11856:11873  !_exists(tokenId) */\n      iszero\n        /* \"@openzeppelin/contracts/token/ERC721/ERC721.sol\":11848:11906  require(!_exists(tokenId), \"ERC721: token already minted\") */\n      tag_361\n      jumpi\n      mload(0x40)\n      0x08c379a000000000000000000000000000000000000000000000000000000000\n      dup2\n      mstore\n      0x04\n      add\n      dup1\n      dup1\n      0x20\n      add\n      dup3\n      dup2\n      sub\n      dup3\n      mstore\n      0x1c\n      dup2\n      mstore\n      0x20\n      add\n      dup1\n      0x4552433732313a20746f6b656e20616c7265616479206d696e74656400000000\n      dup2\n      mstore\n      pop\n      0x20\n      add\n      swap2\n      pop\n      pop\n      mload(0x40)\n      dup1\n      swap2\n      sub\n      swap1\n      revert\n    tag_361:\n        /* \"@openzeppelin/contracts/token/ERC721/ERC721.sol\":11940:11942  to */\n      dup2\n        /* \"@openzeppelin/contracts/token/ERC721/ERC721.sol\":11917:11928  _tokenOwner */\n      0x01\n        /* \"@openzeppelin/contracts/token/ERC721/ERC721.sol\":11917:11937  _tokenOwner[tokenId] */\n      0x00\n        /* \"@openzeppelin/contracts/token/ERC721/ERC721.sol\":11929:11936  tokenId */\n      dup4\n        /* \"@openzeppelin/contracts/token/ERC721/ERC721.sol\":11917:11937  _tokenOwner[tokenId] */\n      dup2\n      mstore\n      0x20\n      add\n      swap1\n      dup2\n      mstore\n      0x20\n      add\n      0x00\n      keccak256\n      0x00\n        /* \"@openzeppelin/contracts/token/ERC721/ERC721.sol\":11917:11942  _tokenOwner[tokenId] = to */\n      0x0100\n      exp\n      dup2\n      sload\n      dup2\n      0xffffffffffffffffffffffffffffffffffffffff\n      mul\n      not\n      and\n      swap1\n      dup4\n      0xffffffffffffffffffffffffffffffffffffffff\n      and\n      mul\n      or\n      swap1\n      sstore\n      pop\n        /* \"@openzeppelin/contracts/token/ERC721/ERC721.sol\":11952:11985  _ownedTokensCount[to].increment() */\n      tag_362\n        /* \"@openzeppelin/contracts/token/ERC721/ERC721.sol\":11952:11969  _ownedTokensCount */\n      0x03\n        /* \"@openzeppelin/contracts/token/ERC721/ERC721.sol\":11952:11973  _ownedTokensCount[to] */\n      0x00\n        /* \"@openzeppelin/contracts/token/ERC721/ERC721.sol\":11970:11972  to */\n      dup5\n        /* \"@openzeppelin/contracts/token/ERC721/ERC721.sol\":11952:11973  _ownedTokensCount[to] */\n      0xffffffffffffffffffffffffffffffffffffffff\n      and\n      0xffffffffffffffffffffffffffffffffffffffff\n      and\n      dup2\n      mstore\n      0x20\n      add\n      swap1\n      dup2\n      mstore\n      0x20\n      add\n      0x00\n      keccak256\n        /* \"@openzeppelin/contracts/token/ERC721/ERC721.sol\":11952:11983  _ownedTokensCount[to].increment */\n      tag_285\n        /* \"@openzeppelin/contracts/token/ERC721/ERC721.sol\":11952:11985  _ownedTokensCount[to].increment() */\n      jump\t// in\n    tag_362:\n        /* \"@openzeppelin/contracts/token/ERC721/ERC721.sol\":12026:12033  tokenId */\n      dup1\n        /* \"@openzeppelin/contracts/token/ERC721/ERC721.sol\":12022:12024  to */\n      dup3\n        /* \"@openzeppelin/contracts/token/ERC721/ERC721.sol\":12001:12034  Transfer(address(0), to, tokenId) */\n      0xffffffffffffffffffffffffffffffffffffffff\n      and\n        /* \"@openzeppelin/contracts/token/ERC721/ERC721.sol\":12018:12019  0 */\n      0x00\n        /* \"@openzeppelin/contracts/token/ERC721/ERC721.sol\":12001:12034  Transfer(address(0), to, tokenId) */\n      0xffffffffffffffffffffffffffffffffffffffff\n      and\n      0xddf252ad1be2c89b69c2b068fc378daa952ba7f163c4a11628f55a4df523b3ef\n      mload(0x40)\n      mload(0x40)\n      dup1\n      swap2\n      sub\n      swap1\n      log4\n        /* \"@openzeppelin/contracts/token/ERC721/ERC721.sol\":11714:12041  function _mint(address to, uint256 tokenId) internal {... */\n      pop\n      pop\n      jump\t// out\n        /* \"@openzeppelin/contracts/token/ERC721/ERC721Enumerable.sol\":5506:5667  function _addTokenToAllTokensEnumeration(uint256 tokenId) private {... */\n    tag_311:\n        /* \"@openzeppelin/contracts/token/ERC721/ERC721Enumerable.sol\":5609:5619  _allTokens */\n      0x07\n        /* \"@openzeppelin/contracts/token/ERC721/ERC721Enumerable.sol\":5609:5626  _allTokens.length */\n      dup1\n      sload\n      swap1\n      pop\n        /* \"@openzeppelin/contracts/token/ERC721/ERC721Enumerable.sol\":5582:5597  _allTokensIndex */\n      0x08\n        /* \"@openzeppelin/contracts/token/ERC721/ERC721Enumerable.sol\":5582:5606  _allTokensIndex[tokenId] */\n      0x00\n        /* \"@openzeppelin/contracts/token/ERC721/ERC721Enumerable.sol\":5598:5605  tokenId */\n      dup4\n        /* \"@openzeppelin/contracts/token/ERC721/ERC721Enumerable.sol\":5582:5606  _allTokensIndex[tokenId] */\n      dup2\n      mstore\n      0x20\n      add\n      swap1\n      dup2\n      mstore\n      0x20\n      add\n      0x00\n      keccak256\n        /* \"@openzeppelin/contracts/token/ERC721/ERC721Enumerable.sol\":5582:5626  _allTokensIndex[tokenId] = _allTokens.length */\n      dup2\n      swap1\n      sstore\n      pop\n        /* \"@openzeppelin/contracts/token/ERC721/ERC721Enumerable.sol\":5636:5646  _allTokens */\n      0x07\n        /* \"@openzeppelin/contracts/token/ERC721/ERC721Enumerable.sol\":5652:5659  tokenId */\n      dup2\n        /* \"@openzeppelin/contracts/token/ERC721/ERC721Enumerable.sol\":5636:5660  _allTokens.push(tokenId) */\n      swap1\n      dup1\n        /* \"--CODEGEN--\":39:40   */\n      0x01\n        /* \"--CODEGEN--\":33:36   */\n      dup2\n        /* \"--CODEGEN--\":27:37   */\n      sload\n        /* \"--CODEGEN--\":23:41   */\n      add\n        /* \"--CODEGEN--\":57:67   */\n      dup1\n        /* \"--CODEGEN--\":52:55   */\n      dup3\n        /* \"--CODEGEN--\":45:68   */\n      sstore\n        /* \"--CODEGEN--\":79:89   */\n      dup1\n        /* \"--CODEGEN--\":72:89   */\n      swap2\n      pop\n        /* \"--CODEGEN--\":0:93   */\n      pop\n        /* \"@openzeppelin/contracts/token/ERC721/ERC721Enumerable.sol\":5636:5660  _allTokens.push(tokenId) */\n      swap1\n      0x01\n      dup3\n      sub\n      swap1\n      0x00\n      mstore\n      keccak256(0x00, 0x20)\n      add\n      0x00\n      swap1\n      swap2\n      swap3\n      swap1\n      swap2\n      swap1\n      swap2\n      pop\n      sstore\n      pop\n        /* \"@openzeppelin/contracts/token/ERC721/ERC721Enumerable.sol\":5506:5667  function _addTokenToAllTokensEnumeration(uint256 tokenId) private {... */\n      pop\n      jump\t// out\n        /* \"@openzeppelin/contracts/math/SafeMath.sol\":3718:4056  function div(uint256 a, uint256 b, string memory errorMessage) internal pure returns (uint256) {... */\n    tag_318:\n        /* \"@openzeppelin/contracts/math/SafeMath.sol\":3804:3811  uint256 */\n      0x00\n        /* \"@openzeppelin/contracts/math/SafeMath.sol\":3901:3902  0 */\n      dup1\n        /* \"@openzeppelin/contracts/math/SafeMath.sol\":3897:3898  b */\n      dup4\n        /* \"@openzeppelin/contracts/math/SafeMath.sol\":3897:3902  b > 0 */\n      gt\n        /* \"@openzeppelin/contracts/math/SafeMath.sol\":3904:3916  errorMessage */\n      dup3\n        /* \"@openzeppelin/contracts/math/SafeMath.sol\":3889:3917  require(b > 0, errorMessage) */\n      swap1\n      tag_366\n      jumpi\n      mload(0x40)\n      0x08c379a000000000000000000000000000000000000000000000000000000000\n      dup2\n      mstore\n      0x04\n      add\n      dup1\n      dup1\n      0x20\n      add\n      dup3\n      dup2\n      sub\n      dup3\n      mstore\n      dup4\n      dup2\n      dup2\n      mload\n      dup2\n      mstore\n      0x20\n      add\n      swap2\n      pop\n      dup1\n      mload\n      swap1\n      0x20\n      add\n      swap1\n      dup1\n      dup4\n      dup4\n        /* \"--CODEGEN--\":23:24   */\n      0x00\n        /* \"--CODEGEN--\":8:108   */\n    tag_367:\n        /* \"--CODEGEN--\":33:36   */\n      dup4\n        /* \"--CODEGEN--\":30:31   */\n      dup2\n        /* \"--CODEGEN--\":27:37   */\n      lt\n        /* \"--CODEGEN--\":8:108   */\n      iszero\n      tag_369\n      jumpi\n        /* \"--CODEGEN--\":99:100   */\n      dup1\n        /* \"--CODEGEN--\":94:97   */\n      dup3\n        /* \"--CODEGEN--\":90:101   */\n      add\n        /* \"--CODEGEN--\":84:102   */\n      mload\n        /* \"--CODEGEN--\":80:81   */\n      dup2\n        /* \"--CODEGEN--\":75:78   */\n      dup5\n        /* \"--CODEGEN--\":71:82   */\n      add\n        /* \"--CODEGEN--\":64:103   */\n      mstore\n        /* \"--CODEGEN--\":52:54   */\n      0x20\n        /* \"--CODEGEN--\":49:50   */\n      dup2\n        /* \"--CODEGEN--\":45:55   */\n      add\n        /* \"--CODEGEN--\":40:55   */\n      swap1\n      pop\n        /* \"--CODEGEN--\":8:108   */\n      jump(tag_367)\n    tag_369:\n        /* \"--CODEGEN--\":12:26   */\n      pop\n        /* \"@openzeppelin/contracts/math/SafeMath.sol\":3889:3917  require(b > 0, errorMessage) */\n      pop\n      pop\n      pop\n      swap1\n      pop\n      swap1\n      dup2\n      add\n      swap1\n      0x1f\n      and\n      dup1\n      iszero\n      tag_370\n      jumpi\n      dup1\n      dup3\n      sub\n      dup1\n      mload\n      0x01\n      dup4\n      0x20\n      sub\n      0x0100\n      exp\n      sub\n      not\n      and\n      dup2\n      mstore\n      0x20\n      add\n      swap2\n      pop\n    tag_370:\n      pop\n      swap3\n      pop\n      pop\n      pop\n      mload(0x40)\n      dup1\n      swap2\n      sub\n      swap1\n      revert\n    tag_366:\n      pop\n        /* \"@openzeppelin/contracts/math/SafeMath.sol\":3927:3936  uint256 c */\n      0x00\n        /* \"@openzeppelin/contracts/math/SafeMath.sol\":3943:3944  b */\n      dup4\n        /* \"@openzeppelin/contracts/math/SafeMath.sol\":3939:3940  a */\n      dup6\n        /* \"@openzeppelin/contracts/math/SafeMath.sol\":3939:3944  a / b */\n      dup2\n      tag_371\n      jumpi\n      invalid\n    tag_371:\n      div\n        /* \"@openzeppelin/contracts/math/SafeMath.sol\":3927:3944  uint256 c = a / b */\n      swap1\n      pop\n        /* \"@openzeppelin/contracts/math/SafeMath.sol\":4048:4049  c */\n      dup1\n        /* \"@openzeppelin/contracts/math/SafeMath.sol\":4041:4049  return c */\n      swap2\n      pop\n      pop\n        /* \"@openzeppelin/contracts/math/SafeMath.sol\":3718:4056  function div(uint256 a, uint256 b, string memory errorMessage) internal pure returns (uint256) {... */\n      swap4\n      swap3\n      pop\n      pop\n      pop\n      jump\t// out\n        /* \"@openzeppelin/contracts/utils/Address.sol\":686:1296  function isContract(address account) internal view returns (bool) {... */\n    tag_321:\n        /* \"@openzeppelin/contracts/utils/Address.sol\":746:750  bool */\n      0x00\n        /* \"@openzeppelin/contracts/utils/Address.sol\":1004:1020  bytes32 codehash */\n      dup1\n        /* \"@openzeppelin/contracts/utils/Address.sol\":1030:1049  bytes32 accountHash */\n      0x00\n        /* \"@openzeppelin/contracts/utils/Address.sol\":1052:1118  0xc5d2460186f7233c927e7db2dcc703c0e500b653ca82273b7bfad8045d85a470 */\n      0xc5d2460186f7233c927e7db2dcc703c0e500b653ca82273b7bfad8045d85a470\n        /* \"@openzeppelin/contracts/utils/Address.sol\":1030:1118  bytes32 accountHash = 0xc5d2460186f7233c927e7db2dcc703c0e500b653ca82273b7bfad8045d85a470 */\n      0x00\n      shl\n      swap1\n      pop\n        /* \"@openzeppelin/contracts/utils/Address.sol\":1219:1226  account */\n      dup4\n        /* \"@openzeppelin/contracts/utils/Address.sol\":1207:1227  extcodehash(account) */\n      extcodehash\n        /* \"@openzeppelin/contracts/utils/Address.sol\":1195:1227  codehash := extcodehash(account) */\n      swap2\n      pop\n        /* \"@openzeppelin/contracts/utils/Address.sol\":1258:1269  accountHash */\n      dup1\n        /* \"@openzeppelin/contracts/utils/Address.sol\":1246:1254  codehash */\n      dup3\n        /* \"@openzeppelin/contracts/utils/Address.sol\":1246:1269  codehash != accountHash */\n      eq\n      iszero\n        /* \"@openzeppelin/contracts/utils/Address.sol\":1246:1288  codehash != accountHash && codehash != 0x0 */\n      dup1\n      iszero\n      tag_373\n      jumpi\n      pop\n        /* \"@openzeppelin/contracts/utils/Address.sol\":1285:1288  0x0 */\n      0x00\n        /* \"@openzeppelin/contracts/utils/Address.sol\":1273:1288  codehash != 0x0 */\n      dup1\n      shl\n        /* \"@openzeppelin/contracts/utils/Address.sol\":1273:1281  codehash */\n      dup3\n        /* \"@openzeppelin/contracts/utils/Address.sol\":1273:1288  codehash != 0x0 */\n      eq\n      iszero\n        /* \"@openzeppelin/contracts/utils/Address.sol\":1246:1288  codehash != accountHash && codehash != 0x0 */\n    tag_373:\n        /* \"@openzeppelin/contracts/utils/Address.sol\":1238:1289  return (codehash != accountHash && codehash != 0x0) */\n      swap3\n      pop\n      pop\n      pop\n        /* \"@openzeppelin/contracts/utils/Address.sol\":686:1296  function isContract(address account) internal view returns (bool) {... */\n      swap2\n      swap1\n      pop\n      jump\t// out\n        /* \"@openzeppelin/contracts/math/SafeMath.sol\":1732:1919  function sub(uint256 a, uint256 b, string memory errorMessage) internal pure returns (uint256) {... */\n    tag_345:\n        /* \"@openzeppelin/contracts/math/SafeMath.sol\":1818:1825  uint256 */\n      0x00\n        /* \"@openzeppelin/contracts/math/SafeMath.sol\":1850:1851  a */\n      dup4\n        /* \"@openzeppelin/contracts/math/SafeMath.sol\":1845:1846  b */\n      dup4\n        /* \"@openzeppelin/contracts/math/SafeMath.sol\":1845:1851  b <= a */\n      gt\n      iszero\n        /* \"@openzeppelin/contracts/math/SafeMath.sol\":1853:1865  errorMessage */\n      dup3\n        /* \"@openzeppelin/contracts/math/SafeMath.sol\":1837:1866  require(b <= a, errorMessage) */\n      swap1\n      tag_375\n      jumpi\n      mload(0x40)\n      0x08c379a000000000000000000000000000000000000000000000000000000000\n      dup2\n      mstore\n      0x04\n      add\n      dup1\n      dup1\n      0x20\n      add\n      dup3\n      dup2\n      sub\n      dup3\n      mstore\n      dup4\n      dup2\n      dup2\n      mload\n      dup2\n      mstore\n      0x20\n      add\n      swap2\n      pop\n      dup1\n      mload\n      swap1\n      0x20\n      add\n      swap1\n      dup1\n      dup4\n      dup4\n        /* \"--CODEGEN--\":23:24   */\n      0x00\n        /* \"--CODEGEN--\":8:108   */\n    tag_376:\n        /* \"--CODEGEN--\":33:36   */\n      dup4\n        /* \"--CODEGEN--\":30:31   */\n      dup2\n        /* \"--CODEGEN--\":27:37   */\n      lt\n        /* \"--CODEGEN--\":8:108   */\n      iszero\n      tag_378\n      jumpi\n        /* \"--CODEGEN--\":99:100   */\n      dup1\n        /* \"--CODEGEN--\":94:97   */\n      dup3\n        /* \"--CODEGEN--\":90:101   */\n      add\n        /* \"--CODEGEN--\":84:102   */\n      mload\n        /* \"--CODEGEN--\":80:81   */\n      dup2\n        /* \"--CODEGEN--\":75:78   */\n      dup5\n        /* \"--CODEGEN--\":71:82   */\n      add\n        /* \"--CODEGEN--\":64:103   */\n      mstore\n        /* \"--CODEGEN--\":52:54   */\n      0x20\n        /* \"--CODEGEN--\":49:50   */\n      dup2\n        /* \"--CODEGEN--\":45:55   */\n      add\n        /* \"--CODEGEN--\":40:55   */\n      swap1\n      pop\n        /* \"--CODEGEN--\":8:108   */\n      jump(tag_376)\n    tag_378:\n        /* \"--CODEGEN--\":12:26   */\n      pop\n        /* \"@openzeppelin/contracts/math/SafeMath.sol\":1837:1866  require(b <= a, errorMessage) */\n      pop\n      pop\n      pop\n      swap1\n      pop\n      swap1\n      dup2\n      add\n      swap1\n      0x1f\n      and\n      dup1\n      iszero\n      tag_379\n      jumpi\n      dup1\n      dup3\n      sub\n      dup1\n      mload\n      0x01\n      dup4\n      0x20\n      sub\n      0x0100\n      exp\n      sub\n      not\n      and\n      dup2\n      mstore\n      0x20\n      add\n      swap2\n      pop\n    tag_379:\n      pop\n      swap3\n      pop\n      pop\n      pop\n      mload(0x40)\n      dup1\n      swap2\n      sub\n      swap1\n      revert\n    tag_375:\n      pop\n        /* \"@openzeppelin/contracts/math/SafeMath.sol\":1876:1885  uint256 c */\n      0x00\n        /* \"@openzeppelin/contracts/math/SafeMath.sol\":1892:1893  b */\n      dup4\n        /* \"@openzeppelin/contracts/math/SafeMath.sol\":1888:1889  a */\n      dup6\n        /* \"@openzeppelin/contracts/math/SafeMath.sol\":1888:1893  a - b */\n      sub\n        /* \"@openzeppelin/contracts/math/SafeMath.sol\":1876:1893  uint256 c = a - b */\n      swap1\n      pop\n        /* \"@openzeppelin/contracts/math/SafeMath.sol\":1911:1912  c */\n      dup1\n        /* \"@openzeppelin/contracts/math/SafeMath.sol\":1904:1912  return c */\n      swap2\n      pop\n      pop\n        /* \"@openzeppelin/contracts/math/SafeMath.sol\":1732:1919  function sub(uint256 a, uint256 b, string memory errorMessage) internal pure returns (uint256) {... */\n      swap4\n      swap3\n      pop\n      pop\n      pop\n      jump\t// out\n        /* \"contracts/ClaConvertNFT.sol\":221:6326  contract ClaConvertNFT is ERC721Enumerable {\r... */\n    tag_123:\n      mload(0x40)\n      dup1\n      0x40\n      add\n      0x40\n      mstore\n      dup1\n      0x00\n      dup2\n      mstore\n      0x20\n      add\n      and(0xffffffff, 0x00)\n      dup2\n      mstore\n      pop\n      swap1\n      jump\t// out\n    tag_295:\n      dup2\n      sload\n      dup2\n      dup4\n      sstore\n      dup2\n      dup2\n      gt\n      iszero\n      tag_380\n      jumpi\n      dup2\n      dup4\n      0x00\n      mstore\n      keccak256(0x00, 0x20)\n      swap2\n      dup3\n      add\n      swap2\n      add\n      tag_381\n      swap2\n      swap1\n      tag_382\n      jump\t// in\n    tag_381:\n    tag_380:\n      pop\n      pop\n      pop\n      jump\t// out\n    tag_382:\n      tag_383\n      swap2\n      swap1\n    tag_384:\n      dup1\n      dup3\n      gt\n      iszero\n      tag_385\n      jumpi\n      0x00\n      dup2\n      0x00\n      swap1\n      sstore\n      pop\n      0x01\n      add\n      jump(tag_384)\n    tag_385:\n      pop\n      swap1\n      jump\n    tag_383:\n      swap1\n      jump\t// out\n    stop\n    data_1d7f5dcf03a65f41ee49b0ab593e3851cfbe3fd7da53b6cf4eddd83c7df5734c 455243373231456e756d657261626c653a206f776e657220696e646578206f7574206f6620626f756e6473\n    data_1e766a06da43a53d0f4c380e06e5a342e14d5af1bf8501996c844905530ca84e 4552433732313a207472616e7366657220746f206e6f6e20455243373231526563656976657220696d706c656d656e746572\n    data_455fea98ea03c32d7dd1a6f1426917d80529bf47b3ccbde74e7206e889e709f4 4552433732313a207472616e7366657220746f20746865207a65726f2061646472657373\n    data_5797d1ccb08b83980dd0c07ea40d8f6a64d35fff736a19bdd17522954cb0899c 4552433732313a206f70657261746f7220717565727920666f72206e6f6e6578697374656e7420746f6b656e\n    data_6d83cef3e0cb19b8320a9c5feb26b56bbb08f152a8e61b12eca3302d8d68b23d 4552433732313a20617070726f76652063616c6c6572206973206e6f74206f776e6572206e6f7220617070726f76656420666f7220616c6c\n    data_7395d4d3901c50cdfcab223d072f9aa36241df5d883e62cbf147ee1b05a9e6ba 4552433732313a2062616c616e636520717565727920666f7220746865207a65726f2061646472657373\n    data_7481f3df2a424c0755a1ad2356614e9a5a358d461ea2eae1f89cb21cbad00397 4552433732313a206f776e657220717565727920666f72206e6f6e6578697374656e7420746f6b656e\n    data_9113bb53c2876a3805b2c9242029423fc540a728243ce887ab24c82cf119fba3 536166654d6174683a206d756c7469706c69636174696f6e206f766572666c6f77\n    data_9291e0f44949204f2e9b40e6be090924979d6047b2365868f4e9f027722eb89d 4552433732313a20617070726f76656420717565727920666f72206e6f6e6578697374656e7420746f6b656e\n    data_a01073130a885d6c1c1af6ac75fc3b1c4f9403c235362962bbf528e2bd87d950 4552433732313a207472616e73666572206f6620746f6b656e2074686174206973206e6f74206f776e\n    data_b51b4875eede07862961e8f9365c6749f5fe55c6ee5d7a9e42b6912ad0b15942 4552433732313a20617070726f76616c20746f2063757272656e74206f776e6572\n    data_c8682f3ad98807db59a6ec6bb812b72fed0a66e3150fa8239699ee83885247f2 4552433732313a207472616e736665722063616c6c6572206973206e6f74206f776e6572206e6f7220617070726f766564\n    data_d269a4e9f5820dcdb69ea21f528512eb9b927c8d846d48aa51c9219f461d4dcc 455243373231456e756d657261626c653a20676c6f62616c20696e646578206f7574206f6620626f756e6473\n    data_d9af5b321f427d3820b5fc07b432b1ddf1bb6411d5d926d9de9773fd616ab5ee 4552433732313a206275726e206f6620746f6b656e2074686174206973206e6f74206f776e\n\n    auxdata: 0xa265627a7a72315820cf72d216c5cbf57d070f08ef6f35dc21dab94f9a4fc6503107a92b279744654e64736f6c63430005110032\n}\n",
				"bytecode": {
					"linkReferences": {},
					"object": "608060405273cf87f94fd8f6b6f0b479771f10df672f99eada63600b60006101000a81548173ffffffffffffffffffffffffffffffffffffffff021916908373ffffffffffffffffffffffffffffffffffffffff160217905550735f5dec0d6402408ee81f52ab985a9c665b6e6010600c60006101000a81548173ffffffffffffffffffffffffffffffffffffffff021916908373ffffffffffffffffffffffffffffffffffffffff16021790555073e9e1031eeaa5817e4706be294c3bb4681fdb2447600d60006101000a81548173ffffffffffffffffffffffffffffffffffffffff021916908373ffffffffffffffffffffffffffffffffffffffff1602179055503480156200011057600080fd5b50620001296301ffc9a760e01b6200015f60201b60201c565b620001416380ac58cd60e01b6200015f60201b60201c565b6200015963780e9d6360e01b6200015f60201b60201c565b62000268565b63ffffffff60e01b817bffffffffffffffffffffffffffffffffffffffffffffffffffffffff19161415620001fc576040517f08c379a000000000000000000000000000000000000000000000000000000000815260040180806020018281038252601c8152602001807f4552433136353a20696e76616c696420696e746572666163652069640000000081525060200191505060405180910390fd5b6001600080837bffffffffffffffffffffffffffffffffffffffffffffffffffffffff19167bffffffffffffffffffffffffffffffffffffffffffffffffffffffff1916815260200190815260200160002060006101000a81548160ff02191690831515021790555050565b6139cf80620002786000396000f3fe608060405234801561001057600080fd5b50600436106101375760003560e01c80636cd3e0eb116100b8578063b40e5cfb1161007c578063b40e5cfb1461061a578063b88d4fde14610672578063e985e9c514610777578063fad27ffe146107f3578063fba2a1b214610839578063fc86bf151461087b57610137565b80636cd3e0eb1461049757806370a08231146104ec5780639dc5d5ef14610544578063a22cb4651461059c578063a56236e4146105ec57610137565b80632f745c59116100ff5780632f745c59146102e957806342842e0e1461034b57806342966c68146103b95780634f6ccce7146103e75780636352211e1461042957610137565b806301ffc9a71461013c578063081812fc146101a1578063095ea7b31461020f57806318160ddd1461025d57806323b872dd1461027b575b600080fd5b6101876004803603602081101561015257600080fd5b8101908080357bffffffffffffffffffffffffffffffffffffffffffffffffffffffff191690602001909291905050506108a9565b604051808215151515815260200191505060405180910390f35b6101cd600480360360208110156101b757600080fd5b8101908080359060200190929190505050610910565b604051808273ffffffffffffffffffffffffffffffffffffffff1673ffffffffffffffffffffffffffffffffffffffff16815260200191505060405180910390f35b61025b6004803603604081101561022557600080fd5b81019080803573ffffffffffffffffffffffffffffffffffffffff169060200190929190803590602001909291905050506109ab565b005b610265610b92565b6040518082815260200191505060405180910390f35b6102e76004803603606081101561029157600080fd5b81019080803573ffffffffffffffffffffffffffffffffffffffff169060200190929190803573ffffffffffffffffffffffffffffffffffffffff16906020019092919080359060200190929190505050610b9f565b005b610335600480360360408110156102ff57600080fd5b81019080803573ffffffffffffffffffffffffffffffffffffffff16906020019092919080359060200190929190505050610c15565b6040518082815260200191505060405180910390f35b6103b76004803603606081101561036157600080fd5b81019080803573ffffffffffffffffffffffffffffffffffffffff169060200190929190803573ffffffffffffffffffffffffffffffffffffffff16906020019092919080359060200190929190505050610cd4565b005b6103e5600480360360208110156103cf57600080fd5b8101908080359060200190929190505050610cf4565b005b610413600480360360208110156103fd57600080fd5b8101908080359060200190929190505050610edd565b6040518082815260200191505060405180910390f35b6104556004803603602081101561043f57600080fd5b8101908080359060200190929190505050610f5d565b604051808273ffffffffffffffffffffffffffffffffffffffff1673ffffffffffffffffffffffffffffffffffffffff16815260200191505060405180910390f35b6104c3600480360360208110156104ad57600080fd5b8101908080359060200190929190505050611025565b604051808381526020018263ffffffff1663ffffffff1681526020019250505060405180910390f35b61052e6004803603602081101561050257600080fd5b81019080803573ffffffffffffffffffffffffffffffffffffffff169060200190929190505050611059565b6040518082815260200191505060405180910390f35b6105866004803603602081101561055a57600080fd5b81019080803573ffffffffffffffffffffffffffffffffffffffff16906020019092919050505061112e565b6040518082815260200191505060405180910390f35b6105ea600480360360408110156105b257600080fd5b81019080803573ffffffffffffffffffffffffffffffffffffffff169060200190929190803515159060200190929190505050611211565b005b6106186004803603602081101561060257600080fd5b81019080803590602001909291905050506113c9565b005b61065c6004803603602081101561063057600080fd5b81019080803573ffffffffffffffffffffffffffffffffffffffff1690602001909291905050506115d5565b6040518082815260200191505060405180910390f35b6107756004803603608081101561068857600080fd5b81019080803573ffffffffffffffffffffffffffffffffffffffff169060200190929190803573ffffffffffffffffffffffffffffffffffffffff16906020019092919080359060200190929190803590602001906401000000008111156106ef57600080fd5b82018360208201111561070157600080fd5b8035906020019184600183028401116401000000008311171561072357600080fd5b91908080601f016020809104026020016040519081016040528093929190818152602001838380828437600081840152601f19601f820116905080830192505050505050509192919290505050611776565b005b6107d96004803603604081101561078d57600080fd5b81019080803573ffffffffffffffffffffffffffffffffffffffff169060200190929190803573ffffffffffffffffffffffffffffffffffffffff1690602001909291905050506117ee565b604051808215151515815260200191505060405180910390f35b61081f6004803603602081101561080957600080fd5b8101908080359060200190929190505050611882565b604051808215151515815260200191505060405180910390f35b6108656004803603602081101561084f57600080fd5b8101908080359060200190929190505050611a46565b6040518082815260200191505060405180910390f35b6108a76004803603602081101561089157600080fd5b8101908080359060200190929190505050611b4c565b005b6000806000837bffffffffffffffffffffffffffffffffffffffffffffffffffffffff19167bffffffffffffffffffffffffffffffffffffffffffffffffffffffff1916815260200190815260200160002060009054906101000a900460ff169050919050565b600061091b82611cfc565b610970576040517f08c379a000000000000000000000000000000000000000000000000000000000815260040180806020018281038252602c8152602001806138a3602c913960400191505060405180910390fd5b6002600083815260200190815260200160002060009054906101000a900473ffffffffffffffffffffffffffffffffffffffff169050919050565b60006109b682610f5d565b90508073ffffffffffffffffffffffffffffffffffffffff168373ffffffffffffffffffffffffffffffffffffffff161415610a3d576040517f08c379a00000000000000000000000000000000000000000000000000000000081526004018080602001828103825260218152602001806138f86021913960400191505060405180910390fd5b8073ffffffffffffffffffffffffffffffffffffffff16610a5c611d6e565b73ffffffffffffffffffffffffffffffffffffffff161480610a8b5750610a8a81610a85611d6e565b6117ee565b5b610ae0576040517f08c379a00000000000000000000000000000000000000000000000000000000081526004018080602001828103825260388152602001806137f76038913960400191505060405180910390fd5b826002600084815260200190815260200160002060006101000a81548173ffffffffffffffffffffffffffffffffffffffff021916908373ffffffffffffffffffffffffffffffffffffffff160217905550818373ffffffffffffffffffffffffffffffffffffffff168273ffffffffffffffffffffffffffffffffffffffff167f8c5be1e5ebec7d5bd14f71427d1e84f3dd0314c0f7b2291e5b200ac8c7c3b92560405160405180910390a4505050565b6000600780549050905090565b610bb0610baa611d6e565b82611d76565b610c05576040517f08c379a00000000000000000000000000000000000000000000000000000000081526004018080602001828103825260318152602001806139196031913960400191505060405180910390fd5b610c10838383611e6a565b505050565b6000610c2083611059565b8210610c77576040517f08c379a000000000000000000000000000000000000000000000000000000000815260040180806020018281038252602b81526020018061374a602b913960400191505060405180910390fd5b600560008473ffffffffffffffffffffffffffffffffffffffff1673ffffffffffffffffffffffffffffffffffffffff1681526020019081526020016000208281548110610cc157fe5b9060005260206000200154905092915050565b610cef83838360405180602001604052806000815250611776565b505050565b610cfc6136d8565b60096000838152602001908152602001600020604051806040016040529081600082015481526020016001820160009054906101000a900463ffffffff1663ffffffff1663ffffffff16815250509050610d54611e8e565b63ffffffff16816020015163ffffffff161115610d7057600080fd5b3373ffffffffffffffffffffffffffffffffffffffff16610d9083610f5d565b73ffffffffffffffffffffffffffffffffffffffff1614610db057600080fd5b610db982611b4c565b600c60009054906101000a900473ffffffffffffffffffffffffffffffffffffffff1673ffffffffffffffffffffffffffffffffffffffff1663a29b3f5b33600284600001516040518463ffffffff1660e01b8152600401808473ffffffffffffffffffffffffffffffffffffffff1673ffffffffffffffffffffffffffffffffffffffff1681526020018360ff1660ff1681526020018281526020019350505050600060405180830381600087803b158015610e7557600080fd5b505af1158015610e89573d6000803e3d6000fd5b50505050610e9682611ea2565b7fe5771ca835d75662152150dce65b057c47b5ce118330212bc43eaff94c5bd80c828260000151604051808381526020018281526020019250505060405180910390a15050565b6000610ee7610b92565b8210610f3e576040517f08c379a000000000000000000000000000000000000000000000000000000000815260040180806020018281038252602c81526020018061394a602c913960400191505060405180910390fd5b60078281548110610f4b57fe5b90600052602060002001549050919050565b6000806001600084815260200190815260200160002060009054906101000a900473ffffffffffffffffffffffffffffffffffffffff169050600073ffffffffffffffffffffffffffffffffffffffff168173ffffffffffffffffffffffffffffffffffffffff16141561101c576040517f08c379a00000000000000000000000000000000000000000000000000000000081526004018080602001828103825260298152602001806138596029913960400191505060405180910390fd5b80915050919050565b60096020528060005260406000206000915090508060000154908060010160009054906101000a900463ffffffff16905082565b60008073ffffffffffffffffffffffffffffffffffffffff168273ffffffffffffffffffffffffffffffffffffffff1614156110e0576040517f08c379a000000000000000000000000000000000000000000000000000000000815260040180806020018281038252602a81526020018061382f602a913960400191505060405180910390fd5b611127600360008473ffffffffffffffffffffffffffffffffffffffff1673ffffffffffffffffffffffffffffffffffffffff168152602001908152602001600020611eb7565b9050919050565b6000600b60009054906101000a900473ffffffffffffffffffffffffffffffffffffffff1673ffffffffffffffffffffffffffffffffffffffff166370a08231836040518263ffffffff1660e01b8152600401808273ffffffffffffffffffffffffffffffffffffffff1673ffffffffffffffffffffffffffffffffffffffff16815260200191505060206040518083038186803b1580156111cf57600080fd5b505afa1580156111e3573d6000803e3d6000fd5b505050506040513d60208110156111f957600080fd5b81019080805190602001909291905050509050919050565b611219611d6e565b73ffffffffffffffffffffffffffffffffffffffff168273ffffffffffffffffffffffffffffffffffffffff1614156112ba576040517f08c379a00000000000000000000000000000000000000000000000000000000081526004018080602001828103825260198152602001807f4552433732313a20617070726f766520746f2063616c6c65720000000000000081525060200191505060405180910390fd5b80600460006112c7611d6e565b73ffffffffffffffffffffffffffffffffffffffff1673ffffffffffffffffffffffffffffffffffffffff16815260200190815260200160002060008473ffffffffffffffffffffffffffffffffffffffff1673ffffffffffffffffffffffffffffffffffffffff16815260200190815260200160002060006101000a81548160ff0219169083151502179055508173ffffffffffffffffffffffffffffffffffffffff16611374611d6e565b73ffffffffffffffffffffffffffffffffffffffff167f17307eab39ab6107e8899845ad3d59bd9653f200f220920489ca2b5937696c3183604051808215151515815260200191505060405180910390a35050565b600081116113d657600080fd5b600b60009054906101000a900473ffffffffffffffffffffffffffffffffffffffff1673ffffffffffffffffffffffffffffffffffffffff166323b872dd3330846040518463ffffffff1660e01b8152600401808473ffffffffffffffffffffffffffffffffffffffff1673ffffffffffffffffffffffffffffffffffffffff1681526020018373ffffffffffffffffffffffffffffffffffffffff1673ffffffffffffffffffffffffffffffffffffffff1681526020018281526020019350505050602060405180830381600087803b1580156114b357600080fd5b505af11580156114c7573d6000803e3d6000fd5b505050506040513d60208110156114dd57600080fd5b8101908080519060200190929190505050506114f7611ec5565b600c60009054906101000a900473ffffffffffffffffffffffffffffffffffffffff1673ffffffffffffffffffffffffffffffffffffffff16636112e8ac308360026040518463ffffffff1660e01b8152600401808473ffffffffffffffffffffffffffffffffffffffff1673ffffffffffffffffffffffffffffffffffffffff1681526020018381526020018260ff1660ff1681526020019350505050600060405180830381600087803b1580156115af57600080fd5b505af11580156115c3573d6000803e3d6000fd5b505050506115d1338261210c565b5050565b600060606115e283612246565b80548060200260200160405190810160405280929190818152602001828054801561162c57602002820191906000526020600020905b815481526020019060010190808311611618575b50505050509050600080600d60009054906101000a900473ffffffffffffffffffffffffffffffffffffffff1673ffffffffffffffffffffffffffffffffffffffff166377b170f2306040518263ffffffff1660e01b8152600401808273ffffffffffffffffffffffffffffffffffffffff1673ffffffffffffffffffffffffffffffffffffffff16815260200191505060206040518083038186803b1580156116d557600080fd5b505afa1580156116e9573d6000803e3d6000fd5b505050506040513d60208110156116ff57600080fd5b8101908080519060200190929190505050905060008090505b835181101561176a57600084828151811061172f57fe5b60200260200101519050611743818461228e565b600a6000838152602001908152602001600020540184019350508080600101915050611718565b50819350505050919050565b611787611781611d6e565b83611d76565b6117dc576040517f08c379a00000000000000000000000000000000000000000000000000000000081526004018080602001828103825260318152602001806139196031913960400191505060405180910390fd5b6117e8848484846124f8565b50505050565b6000600460008473ffffffffffffffffffffffffffffffffffffffff1673ffffffffffffffffffffffffffffffffffffffff16815260200190815260200160002060008373ffffffffffffffffffffffffffffffffffffffff1673ffffffffffffffffffffffffffffffffffffffff16815260200190815260200160002060009054906101000a900460ff16905092915050565b600080606073cf87f94fd8f6b6f0b479771f10df672f99eada6373ffffffffffffffffffffffffffffffffffffffff163085604051602401808373ffffffffffffffffffffffffffffffffffffffff1673ffffffffffffffffffffffffffffffffffffffff168152602001828152602001925050506040516020818303038152906040527f8b069f2a000000000000000000000000000000000000000000000000000000007bffffffffffffffffffffffffffffffffffffffffffffffffffffffff19166020820180517bffffffffffffffffffffffffffffffffffffffffffffffffffffffff83818316178352505050506040518082805190602001908083835b602083106119a75780518252602082019150602081019050602083039250611984565b6001836020036101000a038019825116818451168082178552505050505050905001915050600060405180830381855af49150503d8060008114611a07576040519150601f19603f3d011682016040523d82523d6000602084013e611a0c565b606091505b50915091506000818060200190516020811015611a2857600080fd5b81019080805190602001909291905050509050809350505050919050565b600080600d60009054906101000a900473ffffffffffffffffffffffffffffffffffffffff1673ffffffffffffffffffffffffffffffffffffffff166377b170f2306040518263ffffffff1660e01b8152600401808273ffffffffffffffffffffffffffffffffffffffff1673ffffffffffffffffffffffffffffffffffffffff16815260200191505060206040518083038186803b158015611ae857600080fd5b505afa158015611afc573d6000803e3d6000fd5b505050506040513d6020811015611b1257600080fd5b81019080805190602001909291905050509050611b2f838261228e565b600a60008581526020019081526020016000205401915050919050565b611b5581610f5d565b73ffffffffffffffffffffffffffffffffffffffff163373ffffffffffffffffffffffffffffffffffffffff1614611b8c57600080fd5b611b94611ec5565b6000600a60008381526020019081526020016000205411611bb457600080fd5b600b60009054906101000a900473ffffffffffffffffffffffffffffffffffffffff1673ffffffffffffffffffffffffffffffffffffffff166323b872dd3033600a6000868152602001908152602001600020546040518463ffffffff1660e01b8152600401808473ffffffffffffffffffffffffffffffffffffffff1673ffffffffffffffffffffffffffffffffffffffff1681526020018373ffffffffffffffffffffffffffffffffffffffff1673ffffffffffffffffffffffffffffffffffffffff1681526020018281526020019350505050602060405180830381600087803b158015611ca457600080fd5b505af1158015611cb8573d6000803e3d6000fd5b505050506040513d6020811015611cce57600080fd5b8101908080519060200190929190505050506000600a60008381526020019081526020016000208190555050565b6000806001600084815260200190815260200160002060009054906101000a900473ffffffffffffffffffffffffffffffffffffffff169050600073ffffffffffffffffffffffffffffffffffffffff168173ffffffffffffffffffffffffffffffffffffffff161415915050919050565b600033905090565b6000611d8182611cfc565b611dd6576040517f08c379a000000000000000000000000000000000000000000000000000000000815260040180806020018281038252602c8152602001806137cb602c913960400191505060405180910390fd5b6000611de183610f5d565b90508073ffffffffffffffffffffffffffffffffffffffff168473ffffffffffffffffffffffffffffffffffffffff161480611e5057508373ffffffffffffffffffffffffffffffffffffffff16611e3884610910565b73ffffffffffffffffffffffffffffffffffffffff16145b80611e615750611e6081856117ee565b5b91505092915050565b611e7583838361256a565b611e7f83826127c5565b611e898282612963565b505050565b6000620151804281611e9c57fe5b04905090565b611eb4611eae82610f5d565b82612a2a565b50565b600081600001549050919050565b6000600d60009054906101000a900473ffffffffffffffffffffffffffffffffffffffff1673ffffffffffffffffffffffffffffffffffffffff166377b170f2306040518263ffffffff1660e01b8152600401808273ffffffffffffffffffffffffffffffffffffffff1673ffffffffffffffffffffffffffffffffffffffff16815260200191505060206040518083038186803b158015611f6657600080fd5b505afa158015611f7a573d6000803e3d6000fd5b505050506040513d6020811015611f9057600080fd5b81019080805190602001909291905050509050600d60009054906101000a900473ffffffffffffffffffffffffffffffffffffffff1673ffffffffffffffffffffffffffffffffffffffff16630e5c011e306040518263ffffffff1660e01b8152600401808273ffffffffffffffffffffffffffffffffffffffff1673ffffffffffffffffffffffffffffffffffffffff168152602001915050600060405180830381600087803b15801561204457600080fd5b505af1158015612058573d6000803e3d6000fd5b5050505060008090505b61206a610b92565b81101561210857600061207c82610edd565b9050612088818461228e565b600a6000838152602001908152602001600020600082825401925050819055507fbbbde36d7fa86ca28f11d3ff5b6eb4c880b241eca4eff68eac1b043a49133bfc81600a600084815260200190815260200160002054604051808381526020018281526020019250505060405180910390a1508080600101915050612062565b5050565b60008061212a600161211c610b92565b612a6490919063ffffffff16565b90506000612149612139611e8e565b63ffffffff1660b460ff16612a64565b905060405180604001604052808581526020018263ffffffff16815250600960008481526020019081526020016000206000820151816000015560208201518160010160006101000a81548163ffffffff021916908363ffffffff1602179055509050506121b78583612aec565b7ff1bd9a04909cad626a24c087b8c58e50e359af3fb711eac8190471c525cd861e82858388604051808581526020018481526020018363ffffffff1663ffffffff1681526020018273ffffffffffffffffffffffffffffffffffffffff1673ffffffffffffffffffffffffffffffffffffffff16815260200194505050505060405180910390a1505092915050565b6000600560008373ffffffffffffffffffffffffffffffffffffffff1673ffffffffffffffffffffffffffffffffffffffff1681526020019081526020016000209050919050565b600080600960008581526020019081526020016000206000015490506000600c60009054906101000a900473ffffffffffffffffffffffffffffffffffffffff1673ffffffffffffffffffffffffffffffffffffffff1663e4363cca3060026040518363ffffffff1660e01b8152600401808373ffffffffffffffffffffffffffffffffffffffff1673ffffffffffffffffffffffffffffffffffffffff1681526020018260ff1660ff1681526020019250505060006040518083038186803b15801561235a57600080fd5b505afa15801561236e573d6000803e3d6000fd5b505050506040513d6000823e3d601f19601f82011682018060405250608081101561239857600080fd5b810190808051906020019092919080519060200190929190805160405193929190846401000000008211156123cc57600080fd5b838201915060208201858111156123e257600080fd5b82518660208202830111640100000000821117156123ff57600080fd5b8083526020830192505050908051906020019060200280838360005b8381101561243657808201518184015260208101905061241b565b505050509050016040526020018051604051939291908464010000000082111561245f57600080fd5b8382019150602082018581111561247557600080fd5b825186602082028301116401000000008211171561249257600080fd5b8083526020830192505050908051906020019060200280838360005b838110156124c95780820151818401526020810190506124ae565b5050505090500160405250505050509150506124ee6124e88584612b0d565b82612b93565b9250505092915050565b612503848484611e6a565b61250f84848484612bdd565b612564576040517f08c379a00000000000000000000000000000000000000000000000000000000081526004018080602001828103825260328152602001806137756032913960400191505060405180910390fd5b50505050565b8273ffffffffffffffffffffffffffffffffffffffff1661258a82610f5d565b73ffffffffffffffffffffffffffffffffffffffff16146125f6576040517f08c379a00000000000000000000000000000000000000000000000000000000081526004018080602001828103825260298152602001806138cf6029913960400191505060405180910390fd5b600073ffffffffffffffffffffffffffffffffffffffff168273ffffffffffffffffffffffffffffffffffffffff16141561267c576040517f08c379a00000000000000000000000000000000000000000000000000000000081526004018080602001828103825260248152602001806137a76024913960400191505060405180910390fd5b61268581612f19565b6126cc600360008573ffffffffffffffffffffffffffffffffffffffff1673ffffffffffffffffffffffffffffffffffffffff168152602001908152602001600020612fd7565b612713600360008473ffffffffffffffffffffffffffffffffffffffff1673ffffffffffffffffffffffffffffffffffffffff168152602001908152602001600020612ffa565b816001600083815260200190815260200160002060006101000a81548173ffffffffffffffffffffffffffffffffffffffff021916908373ffffffffffffffffffffffffffffffffffffffff160217905550808273ffffffffffffffffffffffffffffffffffffffff168473ffffffffffffffffffffffffffffffffffffffff167fddf252ad1be2c89b69c2b068fc378daa952ba7f163c4a11628f55a4df523b3ef60405160405180910390a4505050565b600061281d6001600560008673ffffffffffffffffffffffffffffffffffffffff1673ffffffffffffffffffffffffffffffffffffffff1681526020019081526020016000208054905061301090919063ffffffff16565b905060006006600084815260200190815260200160002054905081811461290a576000600560008673ffffffffffffffffffffffffffffffffffffffff1673ffffffffffffffffffffffffffffffffffffffff168152602001908152602001600020838154811061288a57fe5b9060005260206000200154905080600560008773ffffffffffffffffffffffffffffffffffffffff1673ffffffffffffffffffffffffffffffffffffffff16815260200190815260200160002083815481106128e257fe5b9060005260206000200181905550816006600083815260200190815260200160002081905550505b600560008573ffffffffffffffffffffffffffffffffffffffff1673ffffffffffffffffffffffffffffffffffffffff16815260200190815260200160002080548091906001900361295c91906136f8565b5050505050565b600560008373ffffffffffffffffffffffffffffffffffffffff1673ffffffffffffffffffffffffffffffffffffffff168152602001908152602001600020805490506006600083815260200190815260200160002081905550600560008373ffffffffffffffffffffffffffffffffffffffff1673ffffffffffffffffffffffffffffffffffffffff1681526020019081526020016000208190806001815401808255809150509060018203906000526020600020016000909192909190915055505050565b612a34828261305a565b612a3e82826127c5565b60006006600083815260200190815260200160002081905550612a60816131e9565b5050565b600080828401905083811015612ae2576040517f08c379a000000000000000000000000000000000000000000000000000000000815260040180806020018281038252601b8152602001807f536166654d6174683a206164646974696f6e206f766572666c6f77000000000081525060200191505060405180910390fd5b8091505092915050565b612af682826132a3565b612b008282612963565b612b09816134bb565b5050565b600080831415612b205760009050612b8d565b6000828402905082848281612b3157fe5b0414612b88576040517f08c379a00000000000000000000000000000000000000000000000000000000081526004018080602001828103825260218152602001806138826021913960400191505060405180910390fd5b809150505b92915050565b6000612bd583836040518060400160405280601a81526020017f536166654d6174683a206469766973696f6e206279207a65726f000000000000815250613507565b905092915050565b6000612bfe8473ffffffffffffffffffffffffffffffffffffffff166135cd565b612c0b5760019050612f11565b600060608573ffffffffffffffffffffffffffffffffffffffff168673ffffffffffffffffffffffffffffffffffffffff1663150b7a02905060e01b612c4f611d6e565b898888604051602401808573ffffffffffffffffffffffffffffffffffffffff1673ffffffffffffffffffffffffffffffffffffffff1681526020018473ffffffffffffffffffffffffffffffffffffffff1673ffffffffffffffffffffffffffffffffffffffff16815260200183815260200180602001828103825283818151815260200191508051906020019080838360005b83811015612cff578082015181840152602081019050612ce4565b50505050905090810190601f168015612d2c5780820380516001836020036101000a031916815260200191505b5095505050505050604051602081830303815290604052907bffffffffffffffffffffffffffffffffffffffffffffffffffffffff19166020820180517bffffffffffffffffffffffffffffffffffffffffffffffffffffffff83818316178352505050506040518082805190602001908083835b60208310612dc45780518252602082019150602081019050602083039250612da1565b6001836020036101000a0380198251168184511680821785525050505050509050019150506000604051808303816000865af19150503d8060008114612e26576040519150601f19603f3d011682016040523d82523d6000602084013e612e2b565b606091505b509150915081612e9957600081511115612e485780518082602001fd5b6040517f08c379a00000000000000000000000000000000000000000000000000000000081526004018080602001828103825260328152602001806137756032913960400191505060405180910390fd5b6000818060200190516020811015612eb057600080fd5b8101908080519060200190929190505050905063150b7a0260e01b7bffffffffffffffffffffffffffffffffffffffffffffffffffffffff1916817bffffffffffffffffffffffffffffffffffffffffffffffffffffffff19161493505050505b949350505050565b600073ffffffffffffffffffffffffffffffffffffffff166002600083815260200190815260200160002060009054906101000a900473ffffffffffffffffffffffffffffffffffffffff1673ffffffffffffffffffffffffffffffffffffffff1614612fd45760006002600083815260200190815260200160002060006101000a81548173ffffffffffffffffffffffffffffffffffffffff021916908373ffffffffffffffffffffffffffffffffffffffff1602179055505b50565b612fef6001826000015461301090919063ffffffff16565b816000018190555050565b6001816000016000828254019250508190555050565b600061305283836040518060400160405280601e81526020017f536166654d6174683a207375627472616374696f6e206f766572666c6f770000815250613618565b905092915050565b8173ffffffffffffffffffffffffffffffffffffffff1661307a82610f5d565b73ffffffffffffffffffffffffffffffffffffffff16146130e6576040517f08c379a00000000000000000000000000000000000000000000000000000000081526004018080602001828103825260258152602001806139766025913960400191505060405180910390fd5b6130ef81612f19565b613136600360008473ffffffffffffffffffffffffffffffffffffffff1673ffffffffffffffffffffffffffffffffffffffff168152602001908152602001600020612fd7565b60006001600083815260200190815260200160002060006101000a81548173ffffffffffffffffffffffffffffffffffffffff021916908373ffffffffffffffffffffffffffffffffffffffff16021790555080600073ffffffffffffffffffffffffffffffffffffffff168373ffffffffffffffffffffffffffffffffffffffff167fddf252ad1be2c89b69c2b068fc378daa952ba7f163c4a11628f55a4df523b3ef60405160405180910390a45050565b6000613204600160078054905061301090919063ffffffff16565b905060006008600084815260200190815260200160002054905060006007838154811061322d57fe5b90600052602060002001549050806007838154811061324857fe5b9060005260206000200181905550816008600083815260200190815260200160002081905550600780548091906001900361328391906136f8565b506000600860008681526020019081526020016000208190555050505050565b600073ffffffffffffffffffffffffffffffffffffffff168273ffffffffffffffffffffffffffffffffffffffff161415613346576040517f08c379a00000000000000000000000000000000000000000000000000000000081526004018080602001828103825260208152602001807f4552433732313a206d696e7420746f20746865207a65726f206164647265737381525060200191505060405180910390fd5b61334f81611cfc565b156133c2576040517f08c379a000000000000000000000000000000000000000000000000000000000815260040180806020018281038252601c8152602001807f4552433732313a20746f6b656e20616c7265616479206d696e7465640000000081525060200191505060405180910390fd5b816001600083815260200190815260200160002060006101000a81548173ffffffffffffffffffffffffffffffffffffffff021916908373ffffffffffffffffffffffffffffffffffffffff16021790555061345b600360008473ffffffffffffffffffffffffffffffffffffffff1673ffffffffffffffffffffffffffffffffffffffff168152602001908152602001600020612ffa565b808273ffffffffffffffffffffffffffffffffffffffff16600073ffffffffffffffffffffffffffffffffffffffff167fddf252ad1be2c89b69c2b068fc378daa952ba7f163c4a11628f55a4df523b3ef60405160405180910390a45050565b6007805490506008600083815260200190815260200160002081905550600781908060018154018082558091505090600182039060005260206000200160009091929091909150555050565b600080831182906135b3576040517f08c379a00000000000000000000000000000000000000000000000000000000081526004018080602001828103825283818151815260200191508051906020019080838360005b8381101561357857808201518184015260208101905061355d565b50505050905090810190601f1680156135a55780820380516001836020036101000a031916815260200191505b509250505060405180910390fd5b5060008385816135bf57fe5b049050809150509392505050565b60008060007fc5d2460186f7233c927e7db2dcc703c0e500b653ca82273b7bfad8045d85a47060001b9050833f915080821415801561360f57506000801b8214155b92505050919050565b60008383111582906136c5576040517f08c379a00000000000000000000000000000000000000000000000000000000081526004018080602001828103825283818151815260200191508051906020019080838360005b8381101561368a57808201518184015260208101905061366f565b50505050905090810190601f1680156136b75780820380516001836020036101000a031916815260200191505b509250505060405180910390fd5b5060008385039050809150509392505050565b604051806040016040528060008152602001600063ffffffff1681525090565b81548183558181111561371f5781836000526020600020918201910161371e9190613724565b5b505050565b61374691905b8082111561374257600081600090555060010161372a565b5090565b9056fe455243373231456e756d657261626c653a206f776e657220696e646578206f7574206f6620626f756e64734552433732313a207472616e7366657220746f206e6f6e20455243373231526563656976657220696d706c656d656e7465724552433732313a207472616e7366657220746f20746865207a65726f20616464726573734552433732313a206f70657261746f7220717565727920666f72206e6f6e6578697374656e7420746f6b656e4552433732313a20617070726f76652063616c6c6572206973206e6f74206f776e6572206e6f7220617070726f76656420666f7220616c6c4552433732313a2062616c616e636520717565727920666f7220746865207a65726f20616464726573734552433732313a206f776e657220717565727920666f72206e6f6e6578697374656e7420746f6b656e536166654d6174683a206d756c7469706c69636174696f6e206f766572666c6f774552433732313a20617070726f76656420717565727920666f72206e6f6e6578697374656e7420746f6b656e4552433732313a207472616e73666572206f6620746f6b656e2074686174206973206e6f74206f776e4552433732313a20617070726f76616c20746f2063757272656e74206f776e65724552433732313a207472616e736665722063616c6c6572206973206e6f74206f776e6572206e6f7220617070726f766564455243373231456e756d657261626c653a20676c6f62616c20696e646578206f7574206f6620626f756e64734552433732313a206275726e206f6620746f6b656e2074686174206973206e6f74206f776ea265627a7a72315820cf72d216c5cbf57d070f08ef6f35dc21dab94f9a4fc6503107a92b279744654e64736f6c63430005110032",
					"opcodes": "PUSH1 0x80 PUSH1 0x40 MSTORE PUSH20 0xCF87F94FD8F6B6F0B479771F10DF672F99EADA63 PUSH1 0xB PUSH1 0x0 PUSH2 0x100 EXP DUP2 SLOAD DUP2 PUSH20 0xFFFFFFFFFFFFFFFFFFFFFFFFFFFFFFFFFFFFFFFF MUL NOT AND SWAP1 DUP4 PUSH20 0xFFFFFFFFFFFFFFFFFFFFFFFFFFFFFFFFFFFFFFFF AND MUL OR SWAP1 SSTORE POP PUSH20 0x5F5DEC0D6402408EE81F52AB985A9C665B6E6010 PUSH1 0xC PUSH1 0x0 PUSH2 0x100 EXP DUP2 SLOAD DUP2 PUSH20 0xFFFFFFFFFFFFFFFFFFFFFFFFFFFFFFFFFFFFFFFF MUL NOT AND SWAP1 DUP4 PUSH20 0xFFFFFFFFFFFFFFFFFFFFFFFFFFFFFFFFFFFFFFFF AND MUL OR SWAP1 SSTORE POP PUSH20 0xE9E1031EEAA5817E4706BE294C3BB4681FDB2447 PUSH1 0xD PUSH1 0x0 PUSH2 0x100 EXP DUP2 SLOAD DUP2 PUSH20 0xFFFFFFFFFFFFFFFFFFFFFFFFFFFFFFFFFFFFFFFF MUL NOT AND SWAP1 DUP4 PUSH20 0xFFFFFFFFFFFFFFFFFFFFFFFFFFFFFFFFFFFFFFFF AND MUL OR SWAP1 SSTORE POP CALLVALUE DUP1 ISZERO PUSH3 0x110 JUMPI PUSH1 0x0 DUP1 REVERT JUMPDEST POP PUSH3 0x129 PUSH4 0x1FFC9A7 PUSH1 0xE0 SHL PUSH3 0x15F PUSH1 0x20 SHL PUSH1 0x20 SHR JUMP JUMPDEST PUSH3 0x141 PUSH4 0x80AC58CD PUSH1 0xE0 SHL PUSH3 0x15F PUSH1 0x20 SHL PUSH1 0x20 SHR JUMP JUMPDEST PUSH3 0x159 PUSH4 0x780E9D63 PUSH1 0xE0 SHL PUSH3 0x15F PUSH1 0x20 SHL PUSH1 0x20 SHR JUMP JUMPDEST PUSH3 0x268 JUMP JUMPDEST PUSH4 0xFFFFFFFF PUSH1 0xE0 SHL DUP2 PUSH28 0xFFFFFFFFFFFFFFFFFFFFFFFFFFFFFFFFFFFFFFFFFFFFFFFFFFFFFFFF NOT AND EQ ISZERO PUSH3 0x1FC JUMPI PUSH1 0x40 MLOAD PUSH32 0x8C379A000000000000000000000000000000000000000000000000000000000 DUP2 MSTORE PUSH1 0x4 ADD DUP1 DUP1 PUSH1 0x20 ADD DUP3 DUP2 SUB DUP3 MSTORE PUSH1 0x1C DUP2 MSTORE PUSH1 0x20 ADD DUP1 PUSH32 0x4552433136353A20696E76616C696420696E7465726661636520696400000000 DUP2 MSTORE POP PUSH1 0x20 ADD SWAP2 POP POP PUSH1 0x40 MLOAD DUP1 SWAP2 SUB SWAP1 REVERT JUMPDEST PUSH1 0x1 PUSH1 0x0 DUP1 DUP4 PUSH28 0xFFFFFFFFFFFFFFFFFFFFFFFFFFFFFFFFFFFFFFFFFFFFFFFFFFFFFFFF NOT AND PUSH28 0xFFFFFFFFFFFFFFFFFFFFFFFFFFFFFFFFFFFFFFFFFFFFFFFFFFFFFFFF NOT AND DUP2 MSTORE PUSH1 0x20 ADD SWAP1 DUP2 MSTORE PUSH1 0x20 ADD PUSH1 0x0 KECCAK256 PUSH1 0x0 PUSH2 0x100 EXP DUP2 SLOAD DUP2 PUSH1 0xFF MUL NOT AND SWAP1 DUP4 ISZERO ISZERO MUL OR SWAP1 SSTORE POP POP JUMP JUMPDEST PUSH2 0x39CF DUP1 PUSH3 0x278 PUSH1 0x0 CODECOPY PUSH1 0x0 RETURN INVALID PUSH1 0x80 PUSH1 0x40 MSTORE CALLVALUE DUP1 ISZERO PUSH2 0x10 JUMPI PUSH1 0x0 DUP1 REVERT JUMPDEST POP PUSH1 0x4 CALLDATASIZE LT PUSH2 0x137 JUMPI PUSH1 0x0 CALLDATALOAD PUSH1 0xE0 SHR DUP1 PUSH4 0x6CD3E0EB GT PUSH2 0xB8 JUMPI DUP1 PUSH4 0xB40E5CFB GT PUSH2 0x7C JUMPI DUP1 PUSH4 0xB40E5CFB EQ PUSH2 0x61A JUMPI DUP1 PUSH4 0xB88D4FDE EQ PUSH2 0x672 JUMPI DUP1 PUSH4 0xE985E9C5 EQ PUSH2 0x777 JUMPI DUP1 PUSH4 0xFAD27FFE EQ PUSH2 0x7F3 JUMPI DUP1 PUSH4 0xFBA2A1B2 EQ PUSH2 0x839 JUMPI DUP1 PUSH4 0xFC86BF15 EQ PUSH2 0x87B JUMPI PUSH2 0x137 JUMP JUMPDEST DUP1 PUSH4 0x6CD3E0EB EQ PUSH2 0x497 JUMPI DUP1 PUSH4 0x70A08231 EQ PUSH2 0x4EC JUMPI DUP1 PUSH4 0x9DC5D5EF EQ PUSH2 0x544 JUMPI DUP1 PUSH4 0xA22CB465 EQ PUSH2 0x59C JUMPI DUP1 PUSH4 0xA56236E4 EQ PUSH2 0x5EC JUMPI PUSH2 0x137 JUMP JUMPDEST DUP1 PUSH4 0x2F745C59 GT PUSH2 0xFF JUMPI DUP1 PUSH4 0x2F745C59 EQ PUSH2 0x2E9 JUMPI DUP1 PUSH4 0x42842E0E EQ PUSH2 0x34B JUMPI DUP1 PUSH4 0x42966C68 EQ PUSH2 0x3B9 JUMPI DUP1 PUSH4 0x4F6CCCE7 EQ PUSH2 0x3E7 JUMPI DUP1 PUSH4 0x6352211E EQ PUSH2 0x429 JUMPI PUSH2 0x137 JUMP JUMPDEST DUP1 PUSH4 0x1FFC9A7 EQ PUSH2 0x13C JUMPI DUP1 PUSH4 0x81812FC EQ PUSH2 0x1A1 JUMPI DUP1 PUSH4 0x95EA7B3 EQ PUSH2 0x20F JUMPI DUP1 PUSH4 0x18160DDD EQ PUSH2 0x25D JUMPI DUP1 PUSH4 0x23B872DD EQ PUSH2 0x27B JUMPI JUMPDEST PUSH1 0x0 DUP1 REVERT JUMPDEST PUSH2 0x187 PUSH1 0x4 DUP1 CALLDATASIZE SUB PUSH1 0x20 DUP2 LT ISZERO PUSH2 0x152 JUMPI PUSH1 0x0 DUP1 REVERT JUMPDEST DUP2 ADD SWAP1 DUP1 DUP1 CALLDATALOAD PUSH28 0xFFFFFFFFFFFFFFFFFFFFFFFFFFFFFFFFFFFFFFFFFFFFFFFFFFFFFFFF NOT AND SWAP1 PUSH1 0x20 ADD SWAP1 SWAP3 SWAP2 SWAP1 POP POP POP PUSH2 0x8A9 JUMP JUMPDEST PUSH1 0x40 MLOAD DUP1 DUP3 ISZERO ISZERO ISZERO ISZERO DUP2 MSTORE PUSH1 0x20 ADD SWAP2 POP POP PUSH1 0x40 MLOAD DUP1 SWAP2 SUB SWAP1 RETURN JUMPDEST PUSH2 0x1CD PUSH1 0x4 DUP1 CALLDATASIZE SUB PUSH1 0x20 DUP2 LT ISZERO PUSH2 0x1B7 JUMPI PUSH1 0x0 DUP1 REVERT JUMPDEST DUP2 ADD SWAP1 DUP1 DUP1 CALLDATALOAD SWAP1 PUSH1 0x20 ADD SWAP1 SWAP3 SWAP2 SWAP1 POP POP POP PUSH2 0x910 JUMP JUMPDEST PUSH1 0x40 MLOAD DUP1 DUP3 PUSH20 0xFFFFFFFFFFFFFFFFFFFFFFFFFFFFFFFFFFFFFFFF AND PUSH20 0xFFFFFFFFFFFFFFFFFFFFFFFFFFFFFFFFFFFFFFFF AND DUP2 MSTORE PUSH1 0x20 ADD SWAP2 POP POP PUSH1 0x40 MLOAD DUP1 SWAP2 SUB SWAP1 RETURN JUMPDEST PUSH2 0x25B PUSH1 0x4 DUP1 CALLDATASIZE SUB PUSH1 0x40 DUP2 LT ISZERO PUSH2 0x225 JUMPI PUSH1 0x0 DUP1 REVERT JUMPDEST DUP2 ADD SWAP1 DUP1 DUP1 CALLDATALOAD PUSH20 0xFFFFFFFFFFFFFFFFFFFFFFFFFFFFFFFFFFFFFFFF AND SWAP1 PUSH1 0x20 ADD SWAP1 SWAP3 SWAP2 SWAP1 DUP1 CALLDATALOAD SWAP1 PUSH1 0x20 ADD SWAP1 SWAP3 SWAP2 SWAP1 POP POP POP PUSH2 0x9AB JUMP JUMPDEST STOP JUMPDEST PUSH2 0x265 PUSH2 0xB92 JUMP JUMPDEST PUSH1 0x40 MLOAD DUP1 DUP3 DUP2 MSTORE PUSH1 0x20 ADD SWAP2 POP POP PUSH1 0x40 MLOAD DUP1 SWAP2 SUB SWAP1 RETURN JUMPDEST PUSH2 0x2E7 PUSH1 0x4 DUP1 CALLDATASIZE SUB PUSH1 0x60 DUP2 LT ISZERO PUSH2 0x291 JUMPI PUSH1 0x0 DUP1 REVERT JUMPDEST DUP2 ADD SWAP1 DUP1 DUP1 CALLDATALOAD PUSH20 0xFFFFFFFFFFFFFFFFFFFFFFFFFFFFFFFFFFFFFFFF AND SWAP1 PUSH1 0x20 ADD SWAP1 SWAP3 SWAP2 SWAP1 DUP1 CALLDATALOAD PUSH20 0xFFFFFFFFFFFFFFFFFFFFFFFFFFFFFFFFFFFFFFFF AND SWAP1 PUSH1 0x20 ADD SWAP1 SWAP3 SWAP2 SWAP1 DUP1 CALLDATALOAD SWAP1 PUSH1 0x20 ADD SWAP1 SWAP3 SWAP2 SWAP1 POP POP POP PUSH2 0xB9F JUMP JUMPDEST STOP JUMPDEST PUSH2 0x335 PUSH1 0x4 DUP1 CALLDATASIZE SUB PUSH1 0x40 DUP2 LT ISZERO PUSH2 0x2FF JUMPI PUSH1 0x0 DUP1 REVERT JUMPDEST DUP2 ADD SWAP1 DUP1 DUP1 CALLDATALOAD PUSH20 0xFFFFFFFFFFFFFFFFFFFFFFFFFFFFFFFFFFFFFFFF AND SWAP1 PUSH1 0x20 ADD SWAP1 SWAP3 SWAP2 SWAP1 DUP1 CALLDATALOAD SWAP1 PUSH1 0x20 ADD SWAP1 SWAP3 SWAP2 SWAP1 POP POP POP PUSH2 0xC15 JUMP JUMPDEST PUSH1 0x40 MLOAD DUP1 DUP3 DUP2 MSTORE PUSH1 0x20 ADD SWAP2 POP POP PUSH1 0x40 MLOAD DUP1 SWAP2 SUB SWAP1 RETURN JUMPDEST PUSH2 0x3B7 PUSH1 0x4 DUP1 CALLDATASIZE SUB PUSH1 0x60 DUP2 LT ISZERO PUSH2 0x361 JUMPI PUSH1 0x0 DUP1 REVERT JUMPDEST DUP2 ADD SWAP1 DUP1 DUP1 CALLDATALOAD PUSH20 0xFFFFFFFFFFFFFFFFFFFFFFFFFFFFFFFFFFFFFFFF AND SWAP1 PUSH1 0x20 ADD SWAP1 SWAP3 SWAP2 SWAP1 DUP1 CALLDATALOAD PUSH20 0xFFFFFFFFFFFFFFFFFFFFFFFFFFFFFFFFFFFFFFFF AND SWAP1 PUSH1 0x20 ADD SWAP1 SWAP3 SWAP2 SWAP1 DUP1 CALLDATALOAD SWAP1 PUSH1 0x20 ADD SWAP1 SWAP3 SWAP2 SWAP1 POP POP POP PUSH2 0xCD4 JUMP JUMPDEST STOP JUMPDEST PUSH2 0x3E5 PUSH1 0x4 DUP1 CALLDATASIZE SUB PUSH1 0x20 DUP2 LT ISZERO PUSH2 0x3CF JUMPI PUSH1 0x0 DUP1 REVERT JUMPDEST DUP2 ADD SWAP1 DUP1 DUP1 CALLDATALOAD SWAP1 PUSH1 0x20 ADD SWAP1 SWAP3 SWAP2 SWAP1 POP POP POP PUSH2 0xCF4 JUMP JUMPDEST STOP JUMPDEST PUSH2 0x413 PUSH1 0x4 DUP1 CALLDATASIZE SUB PUSH1 0x20 DUP2 LT ISZERO PUSH2 0x3FD JUMPI PUSH1 0x0 DUP1 REVERT JUMPDEST DUP2 ADD SWAP1 DUP1 DUP1 CALLDATALOAD SWAP1 PUSH1 0x20 ADD SWAP1 SWAP3 SWAP2 SWAP1 POP POP POP PUSH2 0xEDD JUMP JUMPDEST PUSH1 0x40 MLOAD DUP1 DUP3 DUP2 MSTORE PUSH1 0x20 ADD SWAP2 POP POP PUSH1 0x40 MLOAD DUP1 SWAP2 SUB SWAP1 RETURN JUMPDEST PUSH2 0x455 PUSH1 0x4 DUP1 CALLDATASIZE SUB PUSH1 0x20 DUP2 LT ISZERO PUSH2 0x43F JUMPI PUSH1 0x0 DUP1 REVERT JUMPDEST DUP2 ADD SWAP1 DUP1 DUP1 CALLDATALOAD SWAP1 PUSH1 0x20 ADD SWAP1 SWAP3 SWAP2 SWAP1 POP POP POP PUSH2 0xF5D JUMP JUMPDEST PUSH1 0x40 MLOAD DUP1 DUP3 PUSH20 0xFFFFFFFFFFFFFFFFFFFFFFFFFFFFFFFFFFFFFFFF AND PUSH20 0xFFFFFFFFFFFFFFFFFFFFFFFFFFFFFFFFFFFFFFFF AND DUP2 MSTORE PUSH1 0x20 ADD SWAP2 POP POP PUSH1 0x40 MLOAD DUP1 SWAP2 SUB SWAP1 RETURN JUMPDEST PUSH2 0x4C3 PUSH1 0x4 DUP1 CALLDATASIZE SUB PUSH1 0x20 DUP2 LT ISZERO PUSH2 0x4AD JUMPI PUSH1 0x0 DUP1 REVERT JUMPDEST DUP2 ADD SWAP1 DUP1 DUP1 CALLDATALOAD SWAP1 PUSH1 0x20 ADD SWAP1 SWAP3 SWAP2 SWAP1 POP POP POP PUSH2 0x1025 JUMP JUMPDEST PUSH1 0x40 MLOAD DUP1 DUP4 DUP2 MSTORE PUSH1 0x20 ADD DUP3 PUSH4 0xFFFFFFFF AND PUSH4 0xFFFFFFFF AND DUP2 MSTORE PUSH1 0x20 ADD SWAP3 POP POP POP PUSH1 0x40 MLOAD DUP1 SWAP2 SUB SWAP1 RETURN JUMPDEST PUSH2 0x52E PUSH1 0x4 DUP1 CALLDATASIZE SUB PUSH1 0x20 DUP2 LT ISZERO PUSH2 0x502 JUMPI PUSH1 0x0 DUP1 REVERT JUMPDEST DUP2 ADD SWAP1 DUP1 DUP1 CALLDATALOAD PUSH20 0xFFFFFFFFFFFFFFFFFFFFFFFFFFFFFFFFFFFFFFFF AND SWAP1 PUSH1 0x20 ADD SWAP1 SWAP3 SWAP2 SWAP1 POP POP POP PUSH2 0x1059 JUMP JUMPDEST PUSH1 0x40 MLOAD DUP1 DUP3 DUP2 MSTORE PUSH1 0x20 ADD SWAP2 POP POP PUSH1 0x40 MLOAD DUP1 SWAP2 SUB SWAP1 RETURN JUMPDEST PUSH2 0x586 PUSH1 0x4 DUP1 CALLDATASIZE SUB PUSH1 0x20 DUP2 LT ISZERO PUSH2 0x55A JUMPI PUSH1 0x0 DUP1 REVERT JUMPDEST DUP2 ADD SWAP1 DUP1 DUP1 CALLDATALOAD PUSH20 0xFFFFFFFFFFFFFFFFFFFFFFFFFFFFFFFFFFFFFFFF AND SWAP1 PUSH1 0x20 ADD SWAP1 SWAP3 SWAP2 SWAP1 POP POP POP PUSH2 0x112E JUMP JUMPDEST PUSH1 0x40 MLOAD DUP1 DUP3 DUP2 MSTORE PUSH1 0x20 ADD SWAP2 POP POP PUSH1 0x40 MLOAD DUP1 SWAP2 SUB SWAP1 RETURN JUMPDEST PUSH2 0x5EA PUSH1 0x4 DUP1 CALLDATASIZE SUB PUSH1 0x40 DUP2 LT ISZERO PUSH2 0x5B2 JUMPI PUSH1 0x0 DUP1 REVERT JUMPDEST DUP2 ADD SWAP1 DUP1 DUP1 CALLDATALOAD PUSH20 0xFFFFFFFFFFFFFFFFFFFFFFFFFFFFFFFFFFFFFFFF AND SWAP1 PUSH1 0x20 ADD SWAP1 SWAP3 SWAP2 SWAP1 DUP1 CALLDATALOAD ISZERO ISZERO SWAP1 PUSH1 0x20 ADD SWAP1 SWAP3 SWAP2 SWAP1 POP POP POP PUSH2 0x1211 JUMP JUMPDEST STOP JUMPDEST PUSH2 0x618 PUSH1 0x4 DUP1 CALLDATASIZE SUB PUSH1 0x20 DUP2 LT ISZERO PUSH2 0x602 JUMPI PUSH1 0x0 DUP1 REVERT JUMPDEST DUP2 ADD SWAP1 DUP1 DUP1 CALLDATALOAD SWAP1 PUSH1 0x20 ADD SWAP1 SWAP3 SWAP2 SWAP1 POP POP POP PUSH2 0x13C9 JUMP JUMPDEST STOP JUMPDEST PUSH2 0x65C PUSH1 0x4 DUP1 CALLDATASIZE SUB PUSH1 0x20 DUP2 LT ISZERO PUSH2 0x630 JUMPI PUSH1 0x0 DUP1 REVERT JUMPDEST DUP2 ADD SWAP1 DUP1 DUP1 CALLDATALOAD PUSH20 0xFFFFFFFFFFFFFFFFFFFFFFFFFFFFFFFFFFFFFFFF AND SWAP1 PUSH1 0x20 ADD SWAP1 SWAP3 SWAP2 SWAP1 POP POP POP PUSH2 0x15D5 JUMP JUMPDEST PUSH1 0x40 MLOAD DUP1 DUP3 DUP2 MSTORE PUSH1 0x20 ADD SWAP2 POP POP PUSH1 0x40 MLOAD DUP1 SWAP2 SUB SWAP1 RETURN JUMPDEST PUSH2 0x775 PUSH1 0x4 DUP1 CALLDATASIZE SUB PUSH1 0x80 DUP2 LT ISZERO PUSH2 0x688 JUMPI PUSH1 0x0 DUP1 REVERT JUMPDEST DUP2 ADD SWAP1 DUP1 DUP1 CALLDATALOAD PUSH20 0xFFFFFFFFFFFFFFFFFFFFFFFFFFFFFFFFFFFFFFFF AND SWAP1 PUSH1 0x20 ADD SWAP1 SWAP3 SWAP2 SWAP1 DUP1 CALLDATALOAD PUSH20 0xFFFFFFFFFFFFFFFFFFFFFFFFFFFFFFFFFFFFFFFF AND SWAP1 PUSH1 0x20 ADD SWAP1 SWAP3 SWAP2 SWAP1 DUP1 CALLDATALOAD SWAP1 PUSH1 0x20 ADD SWAP1 SWAP3 SWAP2 SWAP1 DUP1 CALLDATALOAD SWAP1 PUSH1 0x20 ADD SWAP1 PUSH5 0x100000000 DUP2 GT ISZERO PUSH2 0x6EF JUMPI PUSH1 0x0 DUP1 REVERT JUMPDEST DUP3 ADD DUP4 PUSH1 0x20 DUP3 ADD GT ISZERO PUSH2 0x701 JUMPI PUSH1 0x0 DUP1 REVERT JUMPDEST DUP1 CALLDATALOAD SWAP1 PUSH1 0x20 ADD SWAP2 DUP5 PUSH1 0x1 DUP4 MUL DUP5 ADD GT PUSH5 0x100000000 DUP4 GT OR ISZERO PUSH2 0x723 JUMPI PUSH1 0x0 DUP1 REVERT JUMPDEST SWAP2 SWAP1 DUP1 DUP1 PUSH1 0x1F ADD PUSH1 0x20 DUP1 SWAP2 DIV MUL PUSH1 0x20 ADD PUSH1 0x40 MLOAD SWAP1 DUP2 ADD PUSH1 0x40 MSTORE DUP1 SWAP4 SWAP3 SWAP2 SWAP1 DUP2 DUP2 MSTORE PUSH1 0x20 ADD DUP4 DUP4 DUP1 DUP3 DUP5 CALLDATACOPY PUSH1 0x0 DUP2 DUP5 ADD MSTORE PUSH1 0x1F NOT PUSH1 0x1F DUP3 ADD AND SWAP1 POP DUP1 DUP4 ADD SWAP3 POP POP POP POP POP POP POP SWAP2 SWAP3 SWAP2 SWAP3 SWAP1 POP POP POP PUSH2 0x1776 JUMP JUMPDEST STOP JUMPDEST PUSH2 0x7D9 PUSH1 0x4 DUP1 CALLDATASIZE SUB PUSH1 0x40 DUP2 LT ISZERO PUSH2 0x78D JUMPI PUSH1 0x0 DUP1 REVERT JUMPDEST DUP2 ADD SWAP1 DUP1 DUP1 CALLDATALOAD PUSH20 0xFFFFFFFFFFFFFFFFFFFFFFFFFFFFFFFFFFFFFFFF AND SWAP1 PUSH1 0x20 ADD SWAP1 SWAP3 SWAP2 SWAP1 DUP1 CALLDATALOAD PUSH20 0xFFFFFFFFFFFFFFFFFFFFFFFFFFFFFFFFFFFFFFFF AND SWAP1 PUSH1 0x20 ADD SWAP1 SWAP3 SWAP2 SWAP1 POP POP POP PUSH2 0x17EE JUMP JUMPDEST PUSH1 0x40 MLOAD DUP1 DUP3 ISZERO ISZERO ISZERO ISZERO DUP2 MSTORE PUSH1 0x20 ADD SWAP2 POP POP PUSH1 0x40 MLOAD DUP1 SWAP2 SUB SWAP1 RETURN JUMPDEST PUSH2 0x81F PUSH1 0x4 DUP1 CALLDATASIZE SUB PUSH1 0x20 DUP2 LT ISZERO PUSH2 0x809 JUMPI PUSH1 0x0 DUP1 REVERT JUMPDEST DUP2 ADD SWAP1 DUP1 DUP1 CALLDATALOAD SWAP1 PUSH1 0x20 ADD SWAP1 SWAP3 SWAP2 SWAP1 POP POP POP PUSH2 0x1882 JUMP JUMPDEST PUSH1 0x40 MLOAD DUP1 DUP3 ISZERO ISZERO ISZERO ISZERO DUP2 MSTORE PUSH1 0x20 ADD SWAP2 POP POP PUSH1 0x40 MLOAD DUP1 SWAP2 SUB SWAP1 RETURN JUMPDEST PUSH2 0x865 PUSH1 0x4 DUP1 CALLDATASIZE SUB PUSH1 0x20 DUP2 LT ISZERO PUSH2 0x84F JUMPI PUSH1 0x0 DUP1 REVERT JUMPDEST DUP2 ADD SWAP1 DUP1 DUP1 CALLDATALOAD SWAP1 PUSH1 0x20 ADD SWAP1 SWAP3 SWAP2 SWAP1 POP POP POP PUSH2 0x1A46 JUMP JUMPDEST PUSH1 0x40 MLOAD DUP1 DUP3 DUP2 MSTORE PUSH1 0x20 ADD SWAP2 POP POP PUSH1 0x40 MLOAD DUP1 SWAP2 SUB SWAP1 RETURN JUMPDEST PUSH2 0x8A7 PUSH1 0x4 DUP1 CALLDATASIZE SUB PUSH1 0x20 DUP2 LT ISZERO PUSH2 0x891 JUMPI PUSH1 0x0 DUP1 REVERT JUMPDEST DUP2 ADD SWAP1 DUP1 DUP1 CALLDATALOAD SWAP1 PUSH1 0x20 ADD SWAP1 SWAP3 SWAP2 SWAP1 POP POP POP PUSH2 0x1B4C JUMP JUMPDEST STOP JUMPDEST PUSH1 0x0 DUP1 PUSH1 0x0 DUP4 PUSH28 0xFFFFFFFFFFFFFFFFFFFFFFFFFFFFFFFFFFFFFFFFFFFFFFFFFFFFFFFF NOT AND PUSH28 0xFFFFFFFFFFFFFFFFFFFFFFFFFFFFFFFFFFFFFFFFFFFFFFFFFFFFFFFF NOT AND DUP2 MSTORE PUSH1 0x20 ADD SWAP1 DUP2 MSTORE PUSH1 0x20 ADD PUSH1 0x0 KECCAK256 PUSH1 0x0 SWAP1 SLOAD SWAP1 PUSH2 0x100 EXP SWAP1 DIV PUSH1 0xFF AND SWAP1 POP SWAP2 SWAP1 POP JUMP JUMPDEST PUSH1 0x0 PUSH2 0x91B DUP3 PUSH2 0x1CFC JUMP JUMPDEST PUSH2 0x970 JUMPI PUSH1 0x40 MLOAD PUSH32 0x8C379A000000000000000000000000000000000000000000000000000000000 DUP2 MSTORE PUSH1 0x4 ADD DUP1 DUP1 PUSH1 0x20 ADD DUP3 DUP2 SUB DUP3 MSTORE PUSH1 0x2C DUP2 MSTORE PUSH1 0x20 ADD DUP1 PUSH2 0x38A3 PUSH1 0x2C SWAP2 CODECOPY PUSH1 0x40 ADD SWAP2 POP POP PUSH1 0x40 MLOAD DUP1 SWAP2 SUB SWAP1 REVERT JUMPDEST PUSH1 0x2 PUSH1 0x0 DUP4 DUP2 MSTORE PUSH1 0x20 ADD SWAP1 DUP2 MSTORE PUSH1 0x20 ADD PUSH1 0x0 KECCAK256 PUSH1 0x0 SWAP1 SLOAD SWAP1 PUSH2 0x100 EXP SWAP1 DIV PUSH20 0xFFFFFFFFFFFFFFFFFFFFFFFFFFFFFFFFFFFFFFFF AND SWAP1 POP SWAP2 SWAP1 POP JUMP JUMPDEST PUSH1 0x0 PUSH2 0x9B6 DUP3 PUSH2 0xF5D JUMP JUMPDEST SWAP1 POP DUP1 PUSH20 0xFFFFFFFFFFFFFFFFFFFFFFFFFFFFFFFFFFFFFFFF AND DUP4 PUSH20 0xFFFFFFFFFFFFFFFFFFFFFFFFFFFFFFFFFFFFFFFF AND EQ ISZERO PUSH2 0xA3D JUMPI PUSH1 0x40 MLOAD PUSH32 0x8C379A000000000000000000000000000000000000000000000000000000000 DUP2 MSTORE PUSH1 0x4 ADD DUP1 DUP1 PUSH1 0x20 ADD DUP3 DUP2 SUB DUP3 MSTORE PUSH1 0x21 DUP2 MSTORE PUSH1 0x20 ADD DUP1 PUSH2 0x38F8 PUSH1 0x21 SWAP2 CODECOPY PUSH1 0x40 ADD SWAP2 POP POP PUSH1 0x40 MLOAD DUP1 SWAP2 SUB SWAP1 REVERT JUMPDEST DUP1 PUSH20 0xFFFFFFFFFFFFFFFFFFFFFFFFFFFFFFFFFFFFFFFF AND PUSH2 0xA5C PUSH2 0x1D6E JUMP JUMPDEST PUSH20 0xFFFFFFFFFFFFFFFFFFFFFFFFFFFFFFFFFFFFFFFF AND EQ DUP1 PUSH2 0xA8B JUMPI POP PUSH2 0xA8A DUP2 PUSH2 0xA85 PUSH2 0x1D6E JUMP JUMPDEST PUSH2 0x17EE JUMP JUMPDEST JUMPDEST PUSH2 0xAE0 JUMPI PUSH1 0x40 MLOAD PUSH32 0x8C379A000000000000000000000000000000000000000000000000000000000 DUP2 MSTORE PUSH1 0x4 ADD DUP1 DUP1 PUSH1 0x20 ADD DUP3 DUP2 SUB DUP3 MSTORE PUSH1 0x38 DUP2 MSTORE PUSH1 0x20 ADD DUP1 PUSH2 0x37F7 PUSH1 0x38 SWAP2 CODECOPY PUSH1 0x40 ADD SWAP2 POP POP PUSH1 0x40 MLOAD DUP1 SWAP2 SUB SWAP1 REVERT JUMPDEST DUP3 PUSH1 0x2 PUSH1 0x0 DUP5 DUP2 MSTORE PUSH1 0x20 ADD SWAP1 DUP2 MSTORE PUSH1 0x20 ADD PUSH1 0x0 KECCAK256 PUSH1 0x0 PUSH2 0x100 EXP DUP2 SLOAD DUP2 PUSH20 0xFFFFFFFFFFFFFFFFFFFFFFFFFFFFFFFFFFFFFFFF MUL NOT AND SWAP1 DUP4 PUSH20 0xFFFFFFFFFFFFFFFFFFFFFFFFFFFFFFFFFFFFFFFF AND MUL OR SWAP1 SSTORE POP DUP2 DUP4 PUSH20 0xFFFFFFFFFFFFFFFFFFFFFFFFFFFFFFFFFFFFFFFF AND DUP3 PUSH20 0xFFFFFFFFFFFFFFFFFFFFFFFFFFFFFFFFFFFFFFFF AND PUSH32 0x8C5BE1E5EBEC7D5BD14F71427D1E84F3DD0314C0F7B2291E5B200AC8C7C3B925 PUSH1 0x40 MLOAD PUSH1 0x40 MLOAD DUP1 SWAP2 SUB SWAP1 LOG4 POP POP POP JUMP JUMPDEST PUSH1 0x0 PUSH1 0x7 DUP1 SLOAD SWAP1 POP SWAP1 POP SWAP1 JUMP JUMPDEST PUSH2 0xBB0 PUSH2 0xBAA PUSH2 0x1D6E JUMP JUMPDEST DUP3 PUSH2 0x1D76 JUMP JUMPDEST PUSH2 0xC05 JUMPI PUSH1 0x40 MLOAD PUSH32 0x8C379A000000000000000000000000000000000000000000000000000000000 DUP2 MSTORE PUSH1 0x4 ADD DUP1 DUP1 PUSH1 0x20 ADD DUP3 DUP2 SUB DUP3 MSTORE PUSH1 0x31 DUP2 MSTORE PUSH1 0x20 ADD DUP1 PUSH2 0x3919 PUSH1 0x31 SWAP2 CODECOPY PUSH1 0x40 ADD SWAP2 POP POP PUSH1 0x40 MLOAD DUP1 SWAP2 SUB SWAP1 REVERT JUMPDEST PUSH2 0xC10 DUP4 DUP4 DUP4 PUSH2 0x1E6A JUMP JUMPDEST POP POP POP JUMP JUMPDEST PUSH1 0x0 PUSH2 0xC20 DUP4 PUSH2 0x1059 JUMP JUMPDEST DUP3 LT PUSH2 0xC77 JUMPI PUSH1 0x40 MLOAD PUSH32 0x8C379A000000000000000000000000000000000000000000000000000000000 DUP2 MSTORE PUSH1 0x4 ADD DUP1 DUP1 PUSH1 0x20 ADD DUP3 DUP2 SUB DUP3 MSTORE PUSH1 0x2B DUP2 MSTORE PUSH1 0x20 ADD DUP1 PUSH2 0x374A PUSH1 0x2B SWAP2 CODECOPY PUSH1 0x40 ADD SWAP2 POP POP PUSH1 0x40 MLOAD DUP1 SWAP2 SUB SWAP1 REVERT JUMPDEST PUSH1 0x5 PUSH1 0x0 DUP5 PUSH20 0xFFFFFFFFFFFFFFFFFFFFFFFFFFFFFFFFFFFFFFFF AND PUSH20 0xFFFFFFFFFFFFFFFFFFFFFFFFFFFFFFFFFFFFFFFF AND DUP2 MSTORE PUSH1 0x20 ADD SWAP1 DUP2 MSTORE PUSH1 0x20 ADD PUSH1 0x0 KECCAK256 DUP3 DUP2 SLOAD DUP2 LT PUSH2 0xCC1 JUMPI INVALID JUMPDEST SWAP1 PUSH1 0x0 MSTORE PUSH1 0x20 PUSH1 0x0 KECCAK256 ADD SLOAD SWAP1 POP SWAP3 SWAP2 POP POP JUMP JUMPDEST PUSH2 0xCEF DUP4 DUP4 DUP4 PUSH1 0x40 MLOAD DUP1 PUSH1 0x20 ADD PUSH1 0x40 MSTORE DUP1 PUSH1 0x0 DUP2 MSTORE POP PUSH2 0x1776 JUMP JUMPDEST POP POP POP JUMP JUMPDEST PUSH2 0xCFC PUSH2 0x36D8 JUMP JUMPDEST PUSH1 0x9 PUSH1 0x0 DUP4 DUP2 MSTORE PUSH1 0x20 ADD SWAP1 DUP2 MSTORE PUSH1 0x20 ADD PUSH1 0x0 KECCAK256 PUSH1 0x40 MLOAD DUP1 PUSH1 0x40 ADD PUSH1 0x40 MSTORE SWAP1 DUP2 PUSH1 0x0 DUP3 ADD SLOAD DUP2 MSTORE PUSH1 0x20 ADD PUSH1 0x1 DUP3 ADD PUSH1 0x0 SWAP1 SLOAD SWAP1 PUSH2 0x100 EXP SWAP1 DIV PUSH4 0xFFFFFFFF AND PUSH4 0xFFFFFFFF AND PUSH4 0xFFFFFFFF AND DUP2 MSTORE POP POP SWAP1 POP PUSH2 0xD54 PUSH2 0x1E8E JUMP JUMPDEST PUSH4 0xFFFFFFFF AND DUP2 PUSH1 0x20 ADD MLOAD PUSH4 0xFFFFFFFF AND GT ISZERO PUSH2 0xD70 JUMPI PUSH1 0x0 DUP1 REVERT JUMPDEST CALLER PUSH20 0xFFFFFFFFFFFFFFFFFFFFFFFFFFFFFFFFFFFFFFFF AND PUSH2 0xD90 DUP4 PUSH2 0xF5D JUMP JUMPDEST PUSH20 0xFFFFFFFFFFFFFFFFFFFFFFFFFFFFFFFFFFFFFFFF AND EQ PUSH2 0xDB0 JUMPI PUSH1 0x0 DUP1 REVERT JUMPDEST PUSH2 0xDB9 DUP3 PUSH2 0x1B4C JUMP JUMPDEST PUSH1 0xC PUSH1 0x0 SWAP1 SLOAD SWAP1 PUSH2 0x100 EXP SWAP1 DIV PUSH20 0xFFFFFFFFFFFFFFFFFFFFFFFFFFFFFFFFFFFFFFFF AND PUSH20 0xFFFFFFFFFFFFFFFFFFFFFFFFFFFFFFFFFFFFFFFF AND PUSH4 0xA29B3F5B CALLER PUSH1 0x2 DUP5 PUSH1 0x0 ADD MLOAD PUSH1 0x40 MLOAD DUP5 PUSH4 0xFFFFFFFF AND PUSH1 0xE0 SHL DUP2 MSTORE PUSH1 0x4 ADD DUP1 DUP5 PUSH20 0xFFFFFFFFFFFFFFFFFFFFFFFFFFFFFFFFFFFFFFFF AND PUSH20 0xFFFFFFFFFFFFFFFFFFFFFFFFFFFFFFFFFFFFFFFF AND DUP2 MSTORE PUSH1 0x20 ADD DUP4 PUSH1 0xFF AND PUSH1 0xFF AND DUP2 MSTORE PUSH1 0x20 ADD DUP3 DUP2 MSTORE PUSH1 0x20 ADD SWAP4 POP POP POP POP PUSH1 0x0 PUSH1 0x40 MLOAD DUP1 DUP4 SUB DUP2 PUSH1 0x0 DUP8 DUP1 EXTCODESIZE ISZERO DUP1 ISZERO PUSH2 0xE75 JUMPI PUSH1 0x0 DUP1 REVERT JUMPDEST POP GAS CALL ISZERO DUP1 ISZERO PUSH2 0xE89 JUMPI RETURNDATASIZE PUSH1 0x0 DUP1 RETURNDATACOPY RETURNDATASIZE PUSH1 0x0 REVERT JUMPDEST POP POP POP POP PUSH2 0xE96 DUP3 PUSH2 0x1EA2 JUMP JUMPDEST PUSH32 0xE5771CA835D75662152150DCE65B057C47B5CE118330212BC43EAFF94C5BD80C DUP3 DUP3 PUSH1 0x0 ADD MLOAD PUSH1 0x40 MLOAD DUP1 DUP4 DUP2 MSTORE PUSH1 0x20 ADD DUP3 DUP2 MSTORE PUSH1 0x20 ADD SWAP3 POP POP POP PUSH1 0x40 MLOAD DUP1 SWAP2 SUB SWAP1 LOG1 POP POP JUMP JUMPDEST PUSH1 0x0 PUSH2 0xEE7 PUSH2 0xB92 JUMP JUMPDEST DUP3 LT PUSH2 0xF3E JUMPI PUSH1 0x40 MLOAD PUSH32 0x8C379A000000000000000000000000000000000000000000000000000000000 DUP2 MSTORE PUSH1 0x4 ADD DUP1 DUP1 PUSH1 0x20 ADD DUP3 DUP2 SUB DUP3 MSTORE PUSH1 0x2C DUP2 MSTORE PUSH1 0x20 ADD DUP1 PUSH2 0x394A PUSH1 0x2C SWAP2 CODECOPY PUSH1 0x40 ADD SWAP2 POP POP PUSH1 0x40 MLOAD DUP1 SWAP2 SUB SWAP1 REVERT JUMPDEST PUSH1 0x7 DUP3 DUP2 SLOAD DUP2 LT PUSH2 0xF4B JUMPI INVALID JUMPDEST SWAP1 PUSH1 0x0 MSTORE PUSH1 0x20 PUSH1 0x0 KECCAK256 ADD SLOAD SWAP1 POP SWAP2 SWAP1 POP JUMP JUMPDEST PUSH1 0x0 DUP1 PUSH1 0x1 PUSH1 0x0 DUP5 DUP2 MSTORE PUSH1 0x20 ADD SWAP1 DUP2 MSTORE PUSH1 0x20 ADD PUSH1 0x0 KECCAK256 PUSH1 0x0 SWAP1 SLOAD SWAP1 PUSH2 0x100 EXP SWAP1 DIV PUSH20 0xFFFFFFFFFFFFFFFFFFFFFFFFFFFFFFFFFFFFFFFF AND SWAP1 POP PUSH1 0x0 PUSH20 0xFFFFFFFFFFFFFFFFFFFFFFFFFFFFFFFFFFFFFFFF AND DUP2 PUSH20 0xFFFFFFFFFFFFFFFFFFFFFFFFFFFFFFFFFFFFFFFF AND EQ ISZERO PUSH2 0x101C JUMPI PUSH1 0x40 MLOAD PUSH32 0x8C379A000000000000000000000000000000000000000000000000000000000 DUP2 MSTORE PUSH1 0x4 ADD DUP1 DUP1 PUSH1 0x20 ADD DUP3 DUP2 SUB DUP3 MSTORE PUSH1 0x29 DUP2 MSTORE PUSH1 0x20 ADD DUP1 PUSH2 0x3859 PUSH1 0x29 SWAP2 CODECOPY PUSH1 0x40 ADD SWAP2 POP POP PUSH1 0x40 MLOAD DUP1 SWAP2 SUB SWAP1 REVERT JUMPDEST DUP1 SWAP2 POP POP SWAP2 SWAP1 POP JUMP JUMPDEST PUSH1 0x9 PUSH1 0x20 MSTORE DUP1 PUSH1 0x0 MSTORE PUSH1 0x40 PUSH1 0x0 KECCAK256 PUSH1 0x0 SWAP2 POP SWAP1 POP DUP1 PUSH1 0x0 ADD SLOAD SWAP1 DUP1 PUSH1 0x1 ADD PUSH1 0x0 SWAP1 SLOAD SWAP1 PUSH2 0x100 EXP SWAP1 DIV PUSH4 0xFFFFFFFF AND SWAP1 POP DUP3 JUMP JUMPDEST PUSH1 0x0 DUP1 PUSH20 0xFFFFFFFFFFFFFFFFFFFFFFFFFFFFFFFFFFFFFFFF AND DUP3 PUSH20 0xFFFFFFFFFFFFFFFFFFFFFFFFFFFFFFFFFFFFFFFF AND EQ ISZERO PUSH2 0x10E0 JUMPI PUSH1 0x40 MLOAD PUSH32 0x8C379A000000000000000000000000000000000000000000000000000000000 DUP2 MSTORE PUSH1 0x4 ADD DUP1 DUP1 PUSH1 0x20 ADD DUP3 DUP2 SUB DUP3 MSTORE PUSH1 0x2A DUP2 MSTORE PUSH1 0x20 ADD DUP1 PUSH2 0x382F PUSH1 0x2A SWAP2 CODECOPY PUSH1 0x40 ADD SWAP2 POP POP PUSH1 0x40 MLOAD DUP1 SWAP2 SUB SWAP1 REVERT JUMPDEST PUSH2 0x1127 PUSH1 0x3 PUSH1 0x0 DUP5 PUSH20 0xFFFFFFFFFFFFFFFFFFFFFFFFFFFFFFFFFFFFFFFF AND PUSH20 0xFFFFFFFFFFFFFFFFFFFFFFFFFFFFFFFFFFFFFFFF AND DUP2 MSTORE PUSH1 0x20 ADD SWAP1 DUP2 MSTORE PUSH1 0x20 ADD PUSH1 0x0 KECCAK256 PUSH2 0x1EB7 JUMP JUMPDEST SWAP1 POP SWAP2 SWAP1 POP JUMP JUMPDEST PUSH1 0x0 PUSH1 0xB PUSH1 0x0 SWAP1 SLOAD SWAP1 PUSH2 0x100 EXP SWAP1 DIV PUSH20 0xFFFFFFFFFFFFFFFFFFFFFFFFFFFFFFFFFFFFFFFF AND PUSH20 0xFFFFFFFFFFFFFFFFFFFFFFFFFFFFFFFFFFFFFFFF AND PUSH4 0x70A08231 DUP4 PUSH1 0x40 MLOAD DUP3 PUSH4 0xFFFFFFFF AND PUSH1 0xE0 SHL DUP2 MSTORE PUSH1 0x4 ADD DUP1 DUP3 PUSH20 0xFFFFFFFFFFFFFFFFFFFFFFFFFFFFFFFFFFFFFFFF AND PUSH20 0xFFFFFFFFFFFFFFFFFFFFFFFFFFFFFFFFFFFFFFFF AND DUP2 MSTORE PUSH1 0x20 ADD SWAP2 POP POP PUSH1 0x20 PUSH1 0x40 MLOAD DUP1 DUP4 SUB DUP2 DUP7 DUP1 EXTCODESIZE ISZERO DUP1 ISZERO PUSH2 0x11CF JUMPI PUSH1 0x0 DUP1 REVERT JUMPDEST POP GAS STATICCALL ISZERO DUP1 ISZERO PUSH2 0x11E3 JUMPI RETURNDATASIZE PUSH1 0x0 DUP1 RETURNDATACOPY RETURNDATASIZE PUSH1 0x0 REVERT JUMPDEST POP POP POP POP PUSH1 0x40 MLOAD RETURNDATASIZE PUSH1 0x20 DUP2 LT ISZERO PUSH2 0x11F9 JUMPI PUSH1 0x0 DUP1 REVERT JUMPDEST DUP2 ADD SWAP1 DUP1 DUP1 MLOAD SWAP1 PUSH1 0x20 ADD SWAP1 SWAP3 SWAP2 SWAP1 POP POP POP SWAP1 POP SWAP2 SWAP1 POP JUMP JUMPDEST PUSH2 0x1219 PUSH2 0x1D6E JUMP JUMPDEST PUSH20 0xFFFFFFFFFFFFFFFFFFFFFFFFFFFFFFFFFFFFFFFF AND DUP3 PUSH20 0xFFFFFFFFFFFFFFFFFFFFFFFFFFFFFFFFFFFFFFFF AND EQ ISZERO PUSH2 0x12BA JUMPI PUSH1 0x40 MLOAD PUSH32 0x8C379A000000000000000000000000000000000000000000000000000000000 DUP2 MSTORE PUSH1 0x4 ADD DUP1 DUP1 PUSH1 0x20 ADD DUP3 DUP2 SUB DUP3 MSTORE PUSH1 0x19 DUP2 MSTORE PUSH1 0x20 ADD DUP1 PUSH32 0x4552433732313A20617070726F766520746F2063616C6C657200000000000000 DUP2 MSTORE POP PUSH1 0x20 ADD SWAP2 POP POP PUSH1 0x40 MLOAD DUP1 SWAP2 SUB SWAP1 REVERT JUMPDEST DUP1 PUSH1 0x4 PUSH1 0x0 PUSH2 0x12C7 PUSH2 0x1D6E JUMP JUMPDEST PUSH20 0xFFFFFFFFFFFFFFFFFFFFFFFFFFFFFFFFFFFFFFFF AND PUSH20 0xFFFFFFFFFFFFFFFFFFFFFFFFFFFFFFFFFFFFFFFF AND DUP2 MSTORE PUSH1 0x20 ADD SWAP1 DUP2 MSTORE PUSH1 0x20 ADD PUSH1 0x0 KECCAK256 PUSH1 0x0 DUP5 PUSH20 0xFFFFFFFFFFFFFFFFFFFFFFFFFFFFFFFFFFFFFFFF AND PUSH20 0xFFFFFFFFFFFFFFFFFFFFFFFFFFFFFFFFFFFFFFFF AND DUP2 MSTORE PUSH1 0x20 ADD SWAP1 DUP2 MSTORE PUSH1 0x20 ADD PUSH1 0x0 KECCAK256 PUSH1 0x0 PUSH2 0x100 EXP DUP2 SLOAD DUP2 PUSH1 0xFF MUL NOT AND SWAP1 DUP4 ISZERO ISZERO MUL OR SWAP1 SSTORE POP DUP2 PUSH20 0xFFFFFFFFFFFFFFFFFFFFFFFFFFFFFFFFFFFFFFFF AND PUSH2 0x1374 PUSH2 0x1D6E JUMP JUMPDEST PUSH20 0xFFFFFFFFFFFFFFFFFFFFFFFFFFFFFFFFFFFFFFFF AND PUSH32 0x17307EAB39AB6107E8899845AD3D59BD9653F200F220920489CA2B5937696C31 DUP4 PUSH1 0x40 MLOAD DUP1 DUP3 ISZERO ISZERO ISZERO ISZERO DUP2 MSTORE PUSH1 0x20 ADD SWAP2 POP POP PUSH1 0x40 MLOAD DUP1 SWAP2 SUB SWAP1 LOG3 POP POP JUMP JUMPDEST PUSH1 0x0 DUP2 GT PUSH2 0x13D6 JUMPI PUSH1 0x0 DUP1 REVERT JUMPDEST PUSH1 0xB PUSH1 0x0 SWAP1 SLOAD SWAP1 PUSH2 0x100 EXP SWAP1 DIV PUSH20 0xFFFFFFFFFFFFFFFFFFFFFFFFFFFFFFFFFFFFFFFF AND PUSH20 0xFFFFFFFFFFFFFFFFFFFFFFFFFFFFFFFFFFFFFFFF AND PUSH4 0x23B872DD CALLER ADDRESS DUP5 PUSH1 0x40 MLOAD DUP5 PUSH4 0xFFFFFFFF AND PUSH1 0xE0 SHL DUP2 MSTORE PUSH1 0x4 ADD DUP1 DUP5 PUSH20 0xFFFFFFFFFFFFFFFFFFFFFFFFFFFFFFFFFFFFFFFF AND PUSH20 0xFFFFFFFFFFFFFFFFFFFFFFFFFFFFFFFFFFFFFFFF AND DUP2 MSTORE PUSH1 0x20 ADD DUP4 PUSH20 0xFFFFFFFFFFFFFFFFFFFFFFFFFFFFFFFFFFFFFFFF AND PUSH20 0xFFFFFFFFFFFFFFFFFFFFFFFFFFFFFFFFFFFFFFFF AND DUP2 MSTORE PUSH1 0x20 ADD DUP3 DUP2 MSTORE PUSH1 0x20 ADD SWAP4 POP POP POP POP PUSH1 0x20 PUSH1 0x40 MLOAD DUP1 DUP4 SUB DUP2 PUSH1 0x0 DUP8 DUP1 EXTCODESIZE ISZERO DUP1 ISZERO PUSH2 0x14B3 JUMPI PUSH1 0x0 DUP1 REVERT JUMPDEST POP GAS CALL ISZERO DUP1 ISZERO PUSH2 0x14C7 JUMPI RETURNDATASIZE PUSH1 0x0 DUP1 RETURNDATACOPY RETURNDATASIZE PUSH1 0x0 REVERT JUMPDEST POP POP POP POP PUSH1 0x40 MLOAD RETURNDATASIZE PUSH1 0x20 DUP2 LT ISZERO PUSH2 0x14DD JUMPI PUSH1 0x0 DUP1 REVERT JUMPDEST DUP2 ADD SWAP1 DUP1 DUP1 MLOAD SWAP1 PUSH1 0x20 ADD SWAP1 SWAP3 SWAP2 SWAP1 POP POP POP POP PUSH2 0x14F7 PUSH2 0x1EC5 JUMP JUMPDEST PUSH1 0xC PUSH1 0x0 SWAP1 SLOAD SWAP1 PUSH2 0x100 EXP SWAP1 DIV PUSH20 0xFFFFFFFFFFFFFFFFFFFFFFFFFFFFFFFFFFFFFFFF AND PUSH20 0xFFFFFFFFFFFFFFFFFFFFFFFFFFFFFFFFFFFFFFFF AND PUSH4 0x6112E8AC ADDRESS DUP4 PUSH1 0x2 PUSH1 0x40 MLOAD DUP5 PUSH4 0xFFFFFFFF AND PUSH1 0xE0 SHL DUP2 MSTORE PUSH1 0x4 ADD DUP1 DUP5 PUSH20 0xFFFFFFFFFFFFFFFFFFFFFFFFFFFFFFFFFFFFFFFF AND PUSH20 0xFFFFFFFFFFFFFFFFFFFFFFFFFFFFFFFFFFFFFFFF AND DUP2 MSTORE PUSH1 0x20 ADD DUP4 DUP2 MSTORE PUSH1 0x20 ADD DUP3 PUSH1 0xFF AND PUSH1 0xFF AND DUP2 MSTORE PUSH1 0x20 ADD SWAP4 POP POP POP POP PUSH1 0x0 PUSH1 0x40 MLOAD DUP1 DUP4 SUB DUP2 PUSH1 0x0 DUP8 DUP1 EXTCODESIZE ISZERO DUP1 ISZERO PUSH2 0x15AF JUMPI PUSH1 0x0 DUP1 REVERT JUMPDEST POP GAS CALL ISZERO DUP1 ISZERO PUSH2 0x15C3 JUMPI RETURNDATASIZE PUSH1 0x0 DUP1 RETURNDATACOPY RETURNDATASIZE PUSH1 0x0 REVERT JUMPDEST POP POP POP POP PUSH2 0x15D1 CALLER DUP3 PUSH2 0x210C JUMP JUMPDEST POP POP JUMP JUMPDEST PUSH1 0x0 PUSH1 0x60 PUSH2 0x15E2 DUP4 PUSH2 0x2246 JUMP JUMPDEST DUP1 SLOAD DUP1 PUSH1 0x20 MUL PUSH1 0x20 ADD PUSH1 0x40 MLOAD SWAP1 DUP2 ADD PUSH1 0x40 MSTORE DUP1 SWAP3 SWAP2 SWAP1 DUP2 DUP2 MSTORE PUSH1 0x20 ADD DUP3 DUP1 SLOAD DUP1 ISZERO PUSH2 0x162C JUMPI PUSH1 0x20 MUL DUP3 ADD SWAP2 SWAP1 PUSH1 0x0 MSTORE PUSH1 0x20 PUSH1 0x0 KECCAK256 SWAP1 JUMPDEST DUP2 SLOAD DUP2 MSTORE PUSH1 0x20 ADD SWAP1 PUSH1 0x1 ADD SWAP1 DUP1 DUP4 GT PUSH2 0x1618 JUMPI JUMPDEST POP POP POP POP POP SWAP1 POP PUSH1 0x0 DUP1 PUSH1 0xD PUSH1 0x0 SWAP1 SLOAD SWAP1 PUSH2 0x100 EXP SWAP1 DIV PUSH20 0xFFFFFFFFFFFFFFFFFFFFFFFFFFFFFFFFFFFFFFFF AND PUSH20 0xFFFFFFFFFFFFFFFFFFFFFFFFFFFFFFFFFFFFFFFF AND PUSH4 0x77B170F2 ADDRESS PUSH1 0x40 MLOAD DUP3 PUSH4 0xFFFFFFFF AND PUSH1 0xE0 SHL DUP2 MSTORE PUSH1 0x4 ADD DUP1 DUP3 PUSH20 0xFFFFFFFFFFFFFFFFFFFFFFFFFFFFFFFFFFFFFFFF AND PUSH20 0xFFFFFFFFFFFFFFFFFFFFFFFFFFFFFFFFFFFFFFFF AND DUP2 MSTORE PUSH1 0x20 ADD SWAP2 POP POP PUSH1 0x20 PUSH1 0x40 MLOAD DUP1 DUP4 SUB DUP2 DUP7 DUP1 EXTCODESIZE ISZERO DUP1 ISZERO PUSH2 0x16D5 JUMPI PUSH1 0x0 DUP1 REVERT JUMPDEST POP GAS STATICCALL ISZERO DUP1 ISZERO PUSH2 0x16E9 JUMPI RETURNDATASIZE PUSH1 0x0 DUP1 RETURNDATACOPY RETURNDATASIZE PUSH1 0x0 REVERT JUMPDEST POP POP POP POP PUSH1 0x40 MLOAD RETURNDATASIZE PUSH1 0x20 DUP2 LT ISZERO PUSH2 0x16FF JUMPI PUSH1 0x0 DUP1 REVERT JUMPDEST DUP2 ADD SWAP1 DUP1 DUP1 MLOAD SWAP1 PUSH1 0x20 ADD SWAP1 SWAP3 SWAP2 SWAP1 POP POP POP SWAP1 POP PUSH1 0x0 DUP1 SWAP1 POP JUMPDEST DUP4 MLOAD DUP2 LT ISZERO PUSH2 0x176A JUMPI PUSH1 0x0 DUP5 DUP3 DUP2 MLOAD DUP2 LT PUSH2 0x172F JUMPI INVALID JUMPDEST PUSH1 0x20 MUL PUSH1 0x20 ADD ADD MLOAD SWAP1 POP PUSH2 0x1743 DUP2 DUP5 PUSH2 0x228E JUMP JUMPDEST PUSH1 0xA PUSH1 0x0 DUP4 DUP2 MSTORE PUSH1 0x20 ADD SWAP1 DUP2 MSTORE PUSH1 0x20 ADD PUSH1 0x0 KECCAK256 SLOAD ADD DUP5 ADD SWAP4 POP POP DUP1 DUP1 PUSH1 0x1 ADD SWAP2 POP POP PUSH2 0x1718 JUMP JUMPDEST POP DUP2 SWAP4 POP POP POP POP SWAP2 SWAP1 POP JUMP JUMPDEST PUSH2 0x1787 PUSH2 0x1781 PUSH2 0x1D6E JUMP JUMPDEST DUP4 PUSH2 0x1D76 JUMP JUMPDEST PUSH2 0x17DC JUMPI PUSH1 0x40 MLOAD PUSH32 0x8C379A000000000000000000000000000000000000000000000000000000000 DUP2 MSTORE PUSH1 0x4 ADD DUP1 DUP1 PUSH1 0x20 ADD DUP3 DUP2 SUB DUP3 MSTORE PUSH1 0x31 DUP2 MSTORE PUSH1 0x20 ADD DUP1 PUSH2 0x3919 PUSH1 0x31 SWAP2 CODECOPY PUSH1 0x40 ADD SWAP2 POP POP PUSH1 0x40 MLOAD DUP1 SWAP2 SUB SWAP1 REVERT JUMPDEST PUSH2 0x17E8 DUP5 DUP5 DUP5 DUP5 PUSH2 0x24F8 JUMP JUMPDEST POP POP POP POP JUMP JUMPDEST PUSH1 0x0 PUSH1 0x4 PUSH1 0x0 DUP5 PUSH20 0xFFFFFFFFFFFFFFFFFFFFFFFFFFFFFFFFFFFFFFFF AND PUSH20 0xFFFFFFFFFFFFFFFFFFFFFFFFFFFFFFFFFFFFFFFF AND DUP2 MSTORE PUSH1 0x20 ADD SWAP1 DUP2 MSTORE PUSH1 0x20 ADD PUSH1 0x0 KECCAK256 PUSH1 0x0 DUP4 PUSH20 0xFFFFFFFFFFFFFFFFFFFFFFFFFFFFFFFFFFFFFFFF AND PUSH20 0xFFFFFFFFFFFFFFFFFFFFFFFFFFFFFFFFFFFFFFFF AND DUP2 MSTORE PUSH1 0x20 ADD SWAP1 DUP2 MSTORE PUSH1 0x20 ADD PUSH1 0x0 KECCAK256 PUSH1 0x0 SWAP1 SLOAD SWAP1 PUSH2 0x100 EXP SWAP1 DIV PUSH1 0xFF AND SWAP1 POP SWAP3 SWAP2 POP POP JUMP JUMPDEST PUSH1 0x0 DUP1 PUSH1 0x60 PUSH20 0xCF87F94FD8F6B6F0B479771F10DF672F99EADA63 PUSH20 0xFFFFFFFFFFFFFFFFFFFFFFFFFFFFFFFFFFFFFFFF AND ADDRESS DUP6 PUSH1 0x40 MLOAD PUSH1 0x24 ADD DUP1 DUP4 PUSH20 0xFFFFFFFFFFFFFFFFFFFFFFFFFFFFFFFFFFFFFFFF AND PUSH20 0xFFFFFFFFFFFFFFFFFFFFFFFFFFFFFFFFFFFFFFFF AND DUP2 MSTORE PUSH1 0x20 ADD DUP3 DUP2 MSTORE PUSH1 0x20 ADD SWAP3 POP POP POP PUSH1 0x40 MLOAD PUSH1 0x20 DUP2 DUP4 SUB SUB DUP2 MSTORE SWAP1 PUSH1 0x40 MSTORE PUSH32 0x8B069F2A00000000000000000000000000000000000000000000000000000000 PUSH28 0xFFFFFFFFFFFFFFFFFFFFFFFFFFFFFFFFFFFFFFFFFFFFFFFFFFFFFFFF NOT AND PUSH1 0x20 DUP3 ADD DUP1 MLOAD PUSH28 0xFFFFFFFFFFFFFFFFFFFFFFFFFFFFFFFFFFFFFFFFFFFFFFFFFFFFFFFF DUP4 DUP2 DUP4 AND OR DUP4 MSTORE POP POP POP POP PUSH1 0x40 MLOAD DUP1 DUP3 DUP1 MLOAD SWAP1 PUSH1 0x20 ADD SWAP1 DUP1 DUP4 DUP4 JUMPDEST PUSH1 0x20 DUP4 LT PUSH2 0x19A7 JUMPI DUP1 MLOAD DUP3 MSTORE PUSH1 0x20 DUP3 ADD SWAP2 POP PUSH1 0x20 DUP2 ADD SWAP1 POP PUSH1 0x20 DUP4 SUB SWAP3 POP PUSH2 0x1984 JUMP JUMPDEST PUSH1 0x1 DUP4 PUSH1 0x20 SUB PUSH2 0x100 EXP SUB DUP1 NOT DUP3 MLOAD AND DUP2 DUP5 MLOAD AND DUP1 DUP3 OR DUP6 MSTORE POP POP POP POP POP POP SWAP1 POP ADD SWAP2 POP POP PUSH1 0x0 PUSH1 0x40 MLOAD DUP1 DUP4 SUB DUP2 DUP6 GAS DELEGATECALL SWAP2 POP POP RETURNDATASIZE DUP1 PUSH1 0x0 DUP2 EQ PUSH2 0x1A07 JUMPI PUSH1 0x40 MLOAD SWAP2 POP PUSH1 0x1F NOT PUSH1 0x3F RETURNDATASIZE ADD AND DUP3 ADD PUSH1 0x40 MSTORE RETURNDATASIZE DUP3 MSTORE RETURNDATASIZE PUSH1 0x0 PUSH1 0x20 DUP5 ADD RETURNDATACOPY PUSH2 0x1A0C JUMP JUMPDEST PUSH1 0x60 SWAP2 POP JUMPDEST POP SWAP2 POP SWAP2 POP PUSH1 0x0 DUP2 DUP1 PUSH1 0x20 ADD SWAP1 MLOAD PUSH1 0x20 DUP2 LT ISZERO PUSH2 0x1A28 JUMPI PUSH1 0x0 DUP1 REVERT JUMPDEST DUP2 ADD SWAP1 DUP1 DUP1 MLOAD SWAP1 PUSH1 0x20 ADD SWAP1 SWAP3 SWAP2 SWAP1 POP POP POP SWAP1 POP DUP1 SWAP4 POP POP POP POP SWAP2 SWAP1 POP JUMP JUMPDEST PUSH1 0x0 DUP1 PUSH1 0xD PUSH1 0x0 SWAP1 SLOAD SWAP1 PUSH2 0x100 EXP SWAP1 DIV PUSH20 0xFFFFFFFFFFFFFFFFFFFFFFFFFFFFFFFFFFFFFFFF AND PUSH20 0xFFFFFFFFFFFFFFFFFFFFFFFFFFFFFFFFFFFFFFFF AND PUSH4 0x77B170F2 ADDRESS PUSH1 0x40 MLOAD DUP3 PUSH4 0xFFFFFFFF AND PUSH1 0xE0 SHL DUP2 MSTORE PUSH1 0x4 ADD DUP1 DUP3 PUSH20 0xFFFFFFFFFFFFFFFFFFFFFFFFFFFFFFFFFFFFFFFF AND PUSH20 0xFFFFFFFFFFFFFFFFFFFFFFFFFFFFFFFFFFFFFFFF AND DUP2 MSTORE PUSH1 0x20 ADD SWAP2 POP POP PUSH1 0x20 PUSH1 0x40 MLOAD DUP1 DUP4 SUB DUP2 DUP7 DUP1 EXTCODESIZE ISZERO DUP1 ISZERO PUSH2 0x1AE8 JUMPI PUSH1 0x0 DUP1 REVERT JUMPDEST POP GAS STATICCALL ISZERO DUP1 ISZERO PUSH2 0x1AFC JUMPI RETURNDATASIZE PUSH1 0x0 DUP1 RETURNDATACOPY RETURNDATASIZE PUSH1 0x0 REVERT JUMPDEST POP POP POP POP PUSH1 0x40 MLOAD RETURNDATASIZE PUSH1 0x20 DUP2 LT ISZERO PUSH2 0x1B12 JUMPI PUSH1 0x0 DUP1 REVERT JUMPDEST DUP2 ADD SWAP1 DUP1 DUP1 MLOAD SWAP1 PUSH1 0x20 ADD SWAP1 SWAP3 SWAP2 SWAP1 POP POP POP SWAP1 POP PUSH2 0x1B2F DUP4 DUP3 PUSH2 0x228E JUMP JUMPDEST PUSH1 0xA PUSH1 0x0 DUP6 DUP2 MSTORE PUSH1 0x20 ADD SWAP1 DUP2 MSTORE PUSH1 0x20 ADD PUSH1 0x0 KECCAK256 SLOAD ADD SWAP2 POP POP SWAP2 SWAP1 POP JUMP JUMPDEST PUSH2 0x1B55 DUP2 PUSH2 0xF5D JUMP JUMPDEST PUSH20 0xFFFFFFFFFFFFFFFFFFFFFFFFFFFFFFFFFFFFFFFF AND CALLER PUSH20 0xFFFFFFFFFFFFFFFFFFFFFFFFFFFFFFFFFFFFFFFF AND EQ PUSH2 0x1B8C JUMPI PUSH1 0x0 DUP1 REVERT JUMPDEST PUSH2 0x1B94 PUSH2 0x1EC5 JUMP JUMPDEST PUSH1 0x0 PUSH1 0xA PUSH1 0x0 DUP4 DUP2 MSTORE PUSH1 0x20 ADD SWAP1 DUP2 MSTORE PUSH1 0x20 ADD PUSH1 0x0 KECCAK256 SLOAD GT PUSH2 0x1BB4 JUMPI PUSH1 0x0 DUP1 REVERT JUMPDEST PUSH1 0xB PUSH1 0x0 SWAP1 SLOAD SWAP1 PUSH2 0x100 EXP SWAP1 DIV PUSH20 0xFFFFFFFFFFFFFFFFFFFFFFFFFFFFFFFFFFFFFFFF AND PUSH20 0xFFFFFFFFFFFFFFFFFFFFFFFFFFFFFFFFFFFFFFFF AND PUSH4 0x23B872DD ADDRESS CALLER PUSH1 0xA PUSH1 0x0 DUP7 DUP2 MSTORE PUSH1 0x20 ADD SWAP1 DUP2 MSTORE PUSH1 0x20 ADD PUSH1 0x0 KECCAK256 SLOAD PUSH1 0x40 MLOAD DUP5 PUSH4 0xFFFFFFFF AND PUSH1 0xE0 SHL DUP2 MSTORE PUSH1 0x4 ADD DUP1 DUP5 PUSH20 0xFFFFFFFFFFFFFFFFFFFFFFFFFFFFFFFFFFFFFFFF AND PUSH20 0xFFFFFFFFFFFFFFFFFFFFFFFFFFFFFFFFFFFFFFFF AND DUP2 MSTORE PUSH1 0x20 ADD DUP4 PUSH20 0xFFFFFFFFFFFFFFFFFFFFFFFFFFFFFFFFFFFFFFFF AND PUSH20 0xFFFFFFFFFFFFFFFFFFFFFFFFFFFFFFFFFFFFFFFF AND DUP2 MSTORE PUSH1 0x20 ADD DUP3 DUP2 MSTORE PUSH1 0x20 ADD SWAP4 POP POP POP POP PUSH1 0x20 PUSH1 0x40 MLOAD DUP1 DUP4 SUB DUP2 PUSH1 0x0 DUP8 DUP1 EXTCODESIZE ISZERO DUP1 ISZERO PUSH2 0x1CA4 JUMPI PUSH1 0x0 DUP1 REVERT JUMPDEST POP GAS CALL ISZERO DUP1 ISZERO PUSH2 0x1CB8 JUMPI RETURNDATASIZE PUSH1 0x0 DUP1 RETURNDATACOPY RETURNDATASIZE PUSH1 0x0 REVERT JUMPDEST POP POP POP POP PUSH1 0x40 MLOAD RETURNDATASIZE PUSH1 0x20 DUP2 LT ISZERO PUSH2 0x1CCE JUMPI PUSH1 0x0 DUP1 REVERT JUMPDEST DUP2 ADD SWAP1 DUP1 DUP1 MLOAD SWAP1 PUSH1 0x20 ADD SWAP1 SWAP3 SWAP2 SWAP1 POP POP POP POP PUSH1 0x0 PUSH1 0xA PUSH1 0x0 DUP4 DUP2 MSTORE PUSH1 0x20 ADD SWAP1 DUP2 MSTORE PUSH1 0x20 ADD PUSH1 0x0 KECCAK256 DUP2 SWAP1 SSTORE POP POP JUMP JUMPDEST PUSH1 0x0 DUP1 PUSH1 0x1 PUSH1 0x0 DUP5 DUP2 MSTORE PUSH1 0x20 ADD SWAP1 DUP2 MSTORE PUSH1 0x20 ADD PUSH1 0x0 KECCAK256 PUSH1 0x0 SWAP1 SLOAD SWAP1 PUSH2 0x100 EXP SWAP1 DIV PUSH20 0xFFFFFFFFFFFFFFFFFFFFFFFFFFFFFFFFFFFFFFFF AND SWAP1 POP PUSH1 0x0 PUSH20 0xFFFFFFFFFFFFFFFFFFFFFFFFFFFFFFFFFFFFFFFF AND DUP2 PUSH20 0xFFFFFFFFFFFFFFFFFFFFFFFFFFFFFFFFFFFFFFFF AND EQ ISZERO SWAP2 POP POP SWAP2 SWAP1 POP JUMP JUMPDEST PUSH1 0x0 CALLER SWAP1 POP SWAP1 JUMP JUMPDEST PUSH1 0x0 PUSH2 0x1D81 DUP3 PUSH2 0x1CFC JUMP JUMPDEST PUSH2 0x1DD6 JUMPI PUSH1 0x40 MLOAD PUSH32 0x8C379A000000000000000000000000000000000000000000000000000000000 DUP2 MSTORE PUSH1 0x4 ADD DUP1 DUP1 PUSH1 0x20 ADD DUP3 DUP2 SUB DUP3 MSTORE PUSH1 0x2C DUP2 MSTORE PUSH1 0x20 ADD DUP1 PUSH2 0x37CB PUSH1 0x2C SWAP2 CODECOPY PUSH1 0x40 ADD SWAP2 POP POP PUSH1 0x40 MLOAD DUP1 SWAP2 SUB SWAP1 REVERT JUMPDEST PUSH1 0x0 PUSH2 0x1DE1 DUP4 PUSH2 0xF5D JUMP JUMPDEST SWAP1 POP DUP1 PUSH20 0xFFFFFFFFFFFFFFFFFFFFFFFFFFFFFFFFFFFFFFFF AND DUP5 PUSH20 0xFFFFFFFFFFFFFFFFFFFFFFFFFFFFFFFFFFFFFFFF AND EQ DUP1 PUSH2 0x1E50 JUMPI POP DUP4 PUSH20 0xFFFFFFFFFFFFFFFFFFFFFFFFFFFFFFFFFFFFFFFF AND PUSH2 0x1E38 DUP5 PUSH2 0x910 JUMP JUMPDEST PUSH20 0xFFFFFFFFFFFFFFFFFFFFFFFFFFFFFFFFFFFFFFFF AND EQ JUMPDEST DUP1 PUSH2 0x1E61 JUMPI POP PUSH2 0x1E60 DUP2 DUP6 PUSH2 0x17EE JUMP JUMPDEST JUMPDEST SWAP2 POP POP SWAP3 SWAP2 POP POP JUMP JUMPDEST PUSH2 0x1E75 DUP4 DUP4 DUP4 PUSH2 0x256A JUMP JUMPDEST PUSH2 0x1E7F DUP4 DUP3 PUSH2 0x27C5 JUMP JUMPDEST PUSH2 0x1E89 DUP3 DUP3 PUSH2 0x2963 JUMP JUMPDEST POP POP POP JUMP JUMPDEST PUSH1 0x0 PUSH3 0x15180 TIMESTAMP DUP2 PUSH2 0x1E9C JUMPI INVALID JUMPDEST DIV SWAP1 POP SWAP1 JUMP JUMPDEST PUSH2 0x1EB4 PUSH2 0x1EAE DUP3 PUSH2 0xF5D JUMP JUMPDEST DUP3 PUSH2 0x2A2A JUMP JUMPDEST POP JUMP JUMPDEST PUSH1 0x0 DUP2 PUSH1 0x0 ADD SLOAD SWAP1 POP SWAP2 SWAP1 POP JUMP JUMPDEST PUSH1 0x0 PUSH1 0xD PUSH1 0x0 SWAP1 SLOAD SWAP1 PUSH2 0x100 EXP SWAP1 DIV PUSH20 0xFFFFFFFFFFFFFFFFFFFFFFFFFFFFFFFFFFFFFFFF AND PUSH20 0xFFFFFFFFFFFFFFFFFFFFFFFFFFFFFFFFFFFFFFFF AND PUSH4 0x77B170F2 ADDRESS PUSH1 0x40 MLOAD DUP3 PUSH4 0xFFFFFFFF AND PUSH1 0xE0 SHL DUP2 MSTORE PUSH1 0x4 ADD DUP1 DUP3 PUSH20 0xFFFFFFFFFFFFFFFFFFFFFFFFFFFFFFFFFFFFFFFF AND PUSH20 0xFFFFFFFFFFFFFFFFFFFFFFFFFFFFFFFFFFFFFFFF AND DUP2 MSTORE PUSH1 0x20 ADD SWAP2 POP POP PUSH1 0x20 PUSH1 0x40 MLOAD DUP1 DUP4 SUB DUP2 DUP7 DUP1 EXTCODESIZE ISZERO DUP1 ISZERO PUSH2 0x1F66 JUMPI PUSH1 0x0 DUP1 REVERT JUMPDEST POP GAS STATICCALL ISZERO DUP1 ISZERO PUSH2 0x1F7A JUMPI RETURNDATASIZE PUSH1 0x0 DUP1 RETURNDATACOPY RETURNDATASIZE PUSH1 0x0 REVERT JUMPDEST POP POP POP POP PUSH1 0x40 MLOAD RETURNDATASIZE PUSH1 0x20 DUP2 LT ISZERO PUSH2 0x1F90 JUMPI PUSH1 0x0 DUP1 REVERT JUMPDEST DUP2 ADD SWAP1 DUP1 DUP1 MLOAD SWAP1 PUSH1 0x20 ADD SWAP1 SWAP3 SWAP2 SWAP1 POP POP POP SWAP1 POP PUSH1 0xD PUSH1 0x0 SWAP1 SLOAD SWAP1 PUSH2 0x100 EXP SWAP1 DIV PUSH20 0xFFFFFFFFFFFFFFFFFFFFFFFFFFFFFFFFFFFFFFFF AND PUSH20 0xFFFFFFFFFFFFFFFFFFFFFFFFFFFFFFFFFFFFFFFF AND PUSH4 0xE5C011E ADDRESS PUSH1 0x40 MLOAD DUP3 PUSH4 0xFFFFFFFF AND PUSH1 0xE0 SHL DUP2 MSTORE PUSH1 0x4 ADD DUP1 DUP3 PUSH20 0xFFFFFFFFFFFFFFFFFFFFFFFFFFFFFFFFFFFFFFFF AND PUSH20 0xFFFFFFFFFFFFFFFFFFFFFFFFFFFFFFFFFFFFFFFF AND DUP2 MSTORE PUSH1 0x20 ADD SWAP2 POP POP PUSH1 0x0 PUSH1 0x40 MLOAD DUP1 DUP4 SUB DUP2 PUSH1 0x0 DUP8 DUP1 EXTCODESIZE ISZERO DUP1 ISZERO PUSH2 0x2044 JUMPI PUSH1 0x0 DUP1 REVERT JUMPDEST POP GAS CALL ISZERO DUP1 ISZERO PUSH2 0x2058 JUMPI RETURNDATASIZE PUSH1 0x0 DUP1 RETURNDATACOPY RETURNDATASIZE PUSH1 0x0 REVERT JUMPDEST POP POP POP POP PUSH1 0x0 DUP1 SWAP1 POP JUMPDEST PUSH2 0x206A PUSH2 0xB92 JUMP JUMPDEST DUP2 LT ISZERO PUSH2 0x2108 JUMPI PUSH1 0x0 PUSH2 0x207C DUP3 PUSH2 0xEDD JUMP JUMPDEST SWAP1 POP PUSH2 0x2088 DUP2 DUP5 PUSH2 0x228E JUMP JUMPDEST PUSH1 0xA PUSH1 0x0 DUP4 DUP2 MSTORE PUSH1 0x20 ADD SWAP1 DUP2 MSTORE PUSH1 0x20 ADD PUSH1 0x0 KECCAK256 PUSH1 0x0 DUP3 DUP3 SLOAD ADD SWAP3 POP POP DUP2 SWAP1 SSTORE POP PUSH32 0xBBBDE36D7FA86CA28F11D3FF5B6EB4C880B241ECA4EFF68EAC1B043A49133BFC DUP2 PUSH1 0xA PUSH1 0x0 DUP5 DUP2 MSTORE PUSH1 0x20 ADD SWAP1 DUP2 MSTORE PUSH1 0x20 ADD PUSH1 0x0 KECCAK256 SLOAD PUSH1 0x40 MLOAD DUP1 DUP4 DUP2 MSTORE PUSH1 0x20 ADD DUP3 DUP2 MSTORE PUSH1 0x20 ADD SWAP3 POP POP POP PUSH1 0x40 MLOAD DUP1 SWAP2 SUB SWAP1 LOG1 POP DUP1 DUP1 PUSH1 0x1 ADD SWAP2 POP POP PUSH2 0x2062 JUMP JUMPDEST POP POP JUMP JUMPDEST PUSH1 0x0 DUP1 PUSH2 0x212A PUSH1 0x1 PUSH2 0x211C PUSH2 0xB92 JUMP JUMPDEST PUSH2 0x2A64 SWAP1 SWAP2 SWAP1 PUSH4 0xFFFFFFFF AND JUMP JUMPDEST SWAP1 POP PUSH1 0x0 PUSH2 0x2149 PUSH2 0x2139 PUSH2 0x1E8E JUMP JUMPDEST PUSH4 0xFFFFFFFF AND PUSH1 0xB4 PUSH1 0xFF AND PUSH2 0x2A64 JUMP JUMPDEST SWAP1 POP PUSH1 0x40 MLOAD DUP1 PUSH1 0x40 ADD PUSH1 0x40 MSTORE DUP1 DUP6 DUP2 MSTORE PUSH1 0x20 ADD DUP3 PUSH4 0xFFFFFFFF AND DUP2 MSTORE POP PUSH1 0x9 PUSH1 0x0 DUP5 DUP2 MSTORE PUSH1 0x20 ADD SWAP1 DUP2 MSTORE PUSH1 0x20 ADD PUSH1 0x0 KECCAK256 PUSH1 0x0 DUP3 ADD MLOAD DUP2 PUSH1 0x0 ADD SSTORE PUSH1 0x20 DUP3 ADD MLOAD DUP2 PUSH1 0x1 ADD PUSH1 0x0 PUSH2 0x100 EXP DUP2 SLOAD DUP2 PUSH4 0xFFFFFFFF MUL NOT AND SWAP1 DUP4 PUSH4 0xFFFFFFFF AND MUL OR SWAP1 SSTORE POP SWAP1 POP POP PUSH2 0x21B7 DUP6 DUP4 PUSH2 0x2AEC JUMP JUMPDEST PUSH32 0xF1BD9A04909CAD626A24C087B8C58E50E359AF3FB711EAC8190471C525CD861E DUP3 DUP6 DUP4 DUP9 PUSH1 0x40 MLOAD DUP1 DUP6 DUP2 MSTORE PUSH1 0x20 ADD DUP5 DUP2 MSTORE PUSH1 0x20 ADD DUP4 PUSH4 0xFFFFFFFF AND PUSH4 0xFFFFFFFF AND DUP2 MSTORE PUSH1 0x20 ADD DUP3 PUSH20 0xFFFFFFFFFFFFFFFFFFFFFFFFFFFFFFFFFFFFFFFF AND PUSH20 0xFFFFFFFFFFFFFFFFFFFFFFFFFFFFFFFFFFFFFFFF AND DUP2 MSTORE PUSH1 0x20 ADD SWAP5 POP POP POP POP POP PUSH1 0x40 MLOAD DUP1 SWAP2 SUB SWAP1 LOG1 POP POP SWAP3 SWAP2 POP POP JUMP JUMPDEST PUSH1 0x0 PUSH1 0x5 PUSH1 0x0 DUP4 PUSH20 0xFFFFFFFFFFFFFFFFFFFFFFFFFFFFFFFFFFFFFFFF AND PUSH20 0xFFFFFFFFFFFFFFFFFFFFFFFFFFFFFFFFFFFFFFFF AND DUP2 MSTORE PUSH1 0x20 ADD SWAP1 DUP2 MSTORE PUSH1 0x20 ADD PUSH1 0x0 KECCAK256 SWAP1 POP SWAP2 SWAP1 POP JUMP JUMPDEST PUSH1 0x0 DUP1 PUSH1 0x9 PUSH1 0x0 DUP6 DUP2 MSTORE PUSH1 0x20 ADD SWAP1 DUP2 MSTORE PUSH1 0x20 ADD PUSH1 0x0 KECCAK256 PUSH1 0x0 ADD SLOAD SWAP1 POP PUSH1 0x0 PUSH1 0xC PUSH1 0x0 SWAP1 SLOAD SWAP1 PUSH2 0x100 EXP SWAP1 DIV PUSH20 0xFFFFFFFFFFFFFFFFFFFFFFFFFFFFFFFFFFFFFFFF AND PUSH20 0xFFFFFFFFFFFFFFFFFFFFFFFFFFFFFFFFFFFFFFFF AND PUSH4 0xE4363CCA ADDRESS PUSH1 0x2 PUSH1 0x40 MLOAD DUP4 PUSH4 0xFFFFFFFF AND PUSH1 0xE0 SHL DUP2 MSTORE PUSH1 0x4 ADD DUP1 DUP4 PUSH20 0xFFFFFFFFFFFFFFFFFFFFFFFFFFFFFFFFFFFFFFFF AND PUSH20 0xFFFFFFFFFFFFFFFFFFFFFFFFFFFFFFFFFFFFFFFF AND DUP2 MSTORE PUSH1 0x20 ADD DUP3 PUSH1 0xFF AND PUSH1 0xFF AND DUP2 MSTORE PUSH1 0x20 ADD SWAP3 POP POP POP PUSH1 0x0 PUSH1 0x40 MLOAD DUP1 DUP4 SUB DUP2 DUP7 DUP1 EXTCODESIZE ISZERO DUP1 ISZERO PUSH2 0x235A JUMPI PUSH1 0x0 DUP1 REVERT JUMPDEST POP GAS STATICCALL ISZERO DUP1 ISZERO PUSH2 0x236E JUMPI RETURNDATASIZE PUSH1 0x0 DUP1 RETURNDATACOPY RETURNDATASIZE PUSH1 0x0 REVERT JUMPDEST POP POP POP POP PUSH1 0x40 MLOAD RETURNDATASIZE PUSH1 0x0 DUP3 RETURNDATACOPY RETURNDATASIZE PUSH1 0x1F NOT PUSH1 0x1F DUP3 ADD AND DUP3 ADD DUP1 PUSH1 0x40 MSTORE POP PUSH1 0x80 DUP2 LT ISZERO PUSH2 0x2398 JUMPI PUSH1 0x0 DUP1 REVERT JUMPDEST DUP2 ADD SWAP1 DUP1 DUP1 MLOAD SWAP1 PUSH1 0x20 ADD SWAP1 SWAP3 SWAP2 SWAP1 DUP1 MLOAD SWAP1 PUSH1 0x20 ADD SWAP1 SWAP3 SWAP2 SWAP1 DUP1 MLOAD PUSH1 0x40 MLOAD SWAP4 SWAP3 SWAP2 SWAP1 DUP5 PUSH5 0x100000000 DUP3 GT ISZERO PUSH2 0x23CC JUMPI PUSH1 0x0 DUP1 REVERT JUMPDEST DUP4 DUP3 ADD SWAP2 POP PUSH1 0x20 DUP3 ADD DUP6 DUP2 GT ISZERO PUSH2 0x23E2 JUMPI PUSH1 0x0 DUP1 REVERT JUMPDEST DUP3 MLOAD DUP7 PUSH1 0x20 DUP3 MUL DUP4 ADD GT PUSH5 0x100000000 DUP3 GT OR ISZERO PUSH2 0x23FF JUMPI PUSH1 0x0 DUP1 REVERT JUMPDEST DUP1 DUP4 MSTORE PUSH1 0x20 DUP4 ADD SWAP3 POP POP POP SWAP1 DUP1 MLOAD SWAP1 PUSH1 0x20 ADD SWAP1 PUSH1 0x20 MUL DUP1 DUP4 DUP4 PUSH1 0x0 JUMPDEST DUP4 DUP2 LT ISZERO PUSH2 0x2436 JUMPI DUP1 DUP3 ADD MLOAD DUP2 DUP5 ADD MSTORE PUSH1 0x20 DUP2 ADD SWAP1 POP PUSH2 0x241B JUMP JUMPDEST POP POP POP POP SWAP1 POP ADD PUSH1 0x40 MSTORE PUSH1 0x20 ADD DUP1 MLOAD PUSH1 0x40 MLOAD SWAP4 SWAP3 SWAP2 SWAP1 DUP5 PUSH5 0x100000000 DUP3 GT ISZERO PUSH2 0x245F JUMPI PUSH1 0x0 DUP1 REVERT JUMPDEST DUP4 DUP3 ADD SWAP2 POP PUSH1 0x20 DUP3 ADD DUP6 DUP2 GT ISZERO PUSH2 0x2475 JUMPI PUSH1 0x0 DUP1 REVERT JUMPDEST DUP3 MLOAD DUP7 PUSH1 0x20 DUP3 MUL DUP4 ADD GT PUSH5 0x100000000 DUP3 GT OR ISZERO PUSH2 0x2492 JUMPI PUSH1 0x0 DUP1 REVERT JUMPDEST DUP1 DUP4 MSTORE PUSH1 0x20 DUP4 ADD SWAP3 POP POP POP SWAP1 DUP1 MLOAD SWAP1 PUSH1 0x20 ADD SWAP1 PUSH1 0x20 MUL DUP1 DUP4 DUP4 PUSH1 0x0 JUMPDEST DUP4 DUP2 LT ISZERO PUSH2 0x24C9 JUMPI DUP1 DUP3 ADD MLOAD DUP2 DUP5 ADD MSTORE PUSH1 0x20 DUP2 ADD SWAP1 POP PUSH2 0x24AE JUMP JUMPDEST POP POP POP POP SWAP1 POP ADD PUSH1 0x40 MSTORE POP POP POP POP POP SWAP2 POP POP PUSH2 0x24EE PUSH2 0x24E8 DUP6 DUP5 PUSH2 0x2B0D JUMP JUMPDEST DUP3 PUSH2 0x2B93 JUMP JUMPDEST SWAP3 POP POP POP SWAP3 SWAP2 POP POP JUMP JUMPDEST PUSH2 0x2503 DUP5 DUP5 DUP5 PUSH2 0x1E6A JUMP JUMPDEST PUSH2 0x250F DUP5 DUP5 DUP5 DUP5 PUSH2 0x2BDD JUMP JUMPDEST PUSH2 0x2564 JUMPI PUSH1 0x40 MLOAD PUSH32 0x8C379A000000000000000000000000000000000000000000000000000000000 DUP2 MSTORE PUSH1 0x4 ADD DUP1 DUP1 PUSH1 0x20 ADD DUP3 DUP2 SUB DUP3 MSTORE PUSH1 0x32 DUP2 MSTORE PUSH1 0x20 ADD DUP1 PUSH2 0x3775 PUSH1 0x32 SWAP2 CODECOPY PUSH1 0x40 ADD SWAP2 POP POP PUSH1 0x40 MLOAD DUP1 SWAP2 SUB SWAP1 REVERT JUMPDEST POP POP POP POP JUMP JUMPDEST DUP3 PUSH20 0xFFFFFFFFFFFFFFFFFFFFFFFFFFFFFFFFFFFFFFFF AND PUSH2 0x258A DUP3 PUSH2 0xF5D JUMP JUMPDEST PUSH20 0xFFFFFFFFFFFFFFFFFFFFFFFFFFFFFFFFFFFFFFFF AND EQ PUSH2 0x25F6 JUMPI PUSH1 0x40 MLOAD PUSH32 0x8C379A000000000000000000000000000000000000000000000000000000000 DUP2 MSTORE PUSH1 0x4 ADD DUP1 DUP1 PUSH1 0x20 ADD DUP3 DUP2 SUB DUP3 MSTORE PUSH1 0x29 DUP2 MSTORE PUSH1 0x20 ADD DUP1 PUSH2 0x38CF PUSH1 0x29 SWAP2 CODECOPY PUSH1 0x40 ADD SWAP2 POP POP PUSH1 0x40 MLOAD DUP1 SWAP2 SUB SWAP1 REVERT JUMPDEST PUSH1 0x0 PUSH20 0xFFFFFFFFFFFFFFFFFFFFFFFFFFFFFFFFFFFFFFFF AND DUP3 PUSH20 0xFFFFFFFFFFFFFFFFFFFFFFFFFFFFFFFFFFFFFFFF AND EQ ISZERO PUSH2 0x267C JUMPI PUSH1 0x40 MLOAD PUSH32 0x8C379A000000000000000000000000000000000000000000000000000000000 DUP2 MSTORE PUSH1 0x4 ADD DUP1 DUP1 PUSH1 0x20 ADD DUP3 DUP2 SUB DUP3 MSTORE PUSH1 0x24 DUP2 MSTORE PUSH1 0x20 ADD DUP1 PUSH2 0x37A7 PUSH1 0x24 SWAP2 CODECOPY PUSH1 0x40 ADD SWAP2 POP POP PUSH1 0x40 MLOAD DUP1 SWAP2 SUB SWAP1 REVERT JUMPDEST PUSH2 0x2685 DUP2 PUSH2 0x2F19 JUMP JUMPDEST PUSH2 0x26CC PUSH1 0x3 PUSH1 0x0 DUP6 PUSH20 0xFFFFFFFFFFFFFFFFFFFFFFFFFFFFFFFFFFFFFFFF AND PUSH20 0xFFFFFFFFFFFFFFFFFFFFFFFFFFFFFFFFFFFFFFFF AND DUP2 MSTORE PUSH1 0x20 ADD SWAP1 DUP2 MSTORE PUSH1 0x20 ADD PUSH1 0x0 KECCAK256 PUSH2 0x2FD7 JUMP JUMPDEST PUSH2 0x2713 PUSH1 0x3 PUSH1 0x0 DUP5 PUSH20 0xFFFFFFFFFFFFFFFFFFFFFFFFFFFFFFFFFFFFFFFF AND PUSH20 0xFFFFFFFFFFFFFFFFFFFFFFFFFFFFFFFFFFFFFFFF AND DUP2 MSTORE PUSH1 0x20 ADD SWAP1 DUP2 MSTORE PUSH1 0x20 ADD PUSH1 0x0 KECCAK256 PUSH2 0x2FFA JUMP JUMPDEST DUP2 PUSH1 0x1 PUSH1 0x0 DUP4 DUP2 MSTORE PUSH1 0x20 ADD SWAP1 DUP2 MSTORE PUSH1 0x20 ADD PUSH1 0x0 KECCAK256 PUSH1 0x0 PUSH2 0x100 EXP DUP2 SLOAD DUP2 PUSH20 0xFFFFFFFFFFFFFFFFFFFFFFFFFFFFFFFFFFFFFFFF MUL NOT AND SWAP1 DUP4 PUSH20 0xFFFFFFFFFFFFFFFFFFFFFFFFFFFFFFFFFFFFFFFF AND MUL OR SWAP1 SSTORE POP DUP1 DUP3 PUSH20 0xFFFFFFFFFFFFFFFFFFFFFFFFFFFFFFFFFFFFFFFF AND DUP5 PUSH20 0xFFFFFFFFFFFFFFFFFFFFFFFFFFFFFFFFFFFFFFFF AND PUSH32 0xDDF252AD1BE2C89B69C2B068FC378DAA952BA7F163C4A11628F55A4DF523B3EF PUSH1 0x40 MLOAD PUSH1 0x40 MLOAD DUP1 SWAP2 SUB SWAP1 LOG4 POP POP POP JUMP JUMPDEST PUSH1 0x0 PUSH2 0x281D PUSH1 0x1 PUSH1 0x5 PUSH1 0x0 DUP7 PUSH20 0xFFFFFFFFFFFFFFFFFFFFFFFFFFFFFFFFFFFFFFFF AND PUSH20 0xFFFFFFFFFFFFFFFFFFFFFFFFFFFFFFFFFFFFFFFF AND DUP2 MSTORE PUSH1 0x20 ADD SWAP1 DUP2 MSTORE PUSH1 0x20 ADD PUSH1 0x0 KECCAK256 DUP1 SLOAD SWAP1 POP PUSH2 0x3010 SWAP1 SWAP2 SWAP1 PUSH4 0xFFFFFFFF AND JUMP JUMPDEST SWAP1 POP PUSH1 0x0 PUSH1 0x6 PUSH1 0x0 DUP5 DUP2 MSTORE PUSH1 0x20 ADD SWAP1 DUP2 MSTORE PUSH1 0x20 ADD PUSH1 0x0 KECCAK256 SLOAD SWAP1 POP DUP2 DUP2 EQ PUSH2 0x290A JUMPI PUSH1 0x0 PUSH1 0x5 PUSH1 0x0 DUP7 PUSH20 0xFFFFFFFFFFFFFFFFFFFFFFFFFFFFFFFFFFFFFFFF AND PUSH20 0xFFFFFFFFFFFFFFFFFFFFFFFFFFFFFFFFFFFFFFFF AND DUP2 MSTORE PUSH1 0x20 ADD SWAP1 DUP2 MSTORE PUSH1 0x20 ADD PUSH1 0x0 KECCAK256 DUP4 DUP2 SLOAD DUP2 LT PUSH2 0x288A JUMPI INVALID JUMPDEST SWAP1 PUSH1 0x0 MSTORE PUSH1 0x20 PUSH1 0x0 KECCAK256 ADD SLOAD SWAP1 POP DUP1 PUSH1 0x5 PUSH1 0x0 DUP8 PUSH20 0xFFFFFFFFFFFFFFFFFFFFFFFFFFFFFFFFFFFFFFFF AND PUSH20 0xFFFFFFFFFFFFFFFFFFFFFFFFFFFFFFFFFFFFFFFF AND DUP2 MSTORE PUSH1 0x20 ADD SWAP1 DUP2 MSTORE PUSH1 0x20 ADD PUSH1 0x0 KECCAK256 DUP4 DUP2 SLOAD DUP2 LT PUSH2 0x28E2 JUMPI INVALID JUMPDEST SWAP1 PUSH1 0x0 MSTORE PUSH1 0x20 PUSH1 0x0 KECCAK256 ADD DUP2 SWAP1 SSTORE POP DUP2 PUSH1 0x6 PUSH1 0x0 DUP4 DUP2 MSTORE PUSH1 0x20 ADD SWAP1 DUP2 MSTORE PUSH1 0x20 ADD PUSH1 0x0 KECCAK256 DUP2 SWAP1 SSTORE POP POP JUMPDEST PUSH1 0x5 PUSH1 0x0 DUP6 PUSH20 0xFFFFFFFFFFFFFFFFFFFFFFFFFFFFFFFFFFFFFFFF AND PUSH20 0xFFFFFFFFFFFFFFFFFFFFFFFFFFFFFFFFFFFFFFFF AND DUP2 MSTORE PUSH1 0x20 ADD SWAP1 DUP2 MSTORE PUSH1 0x20 ADD PUSH1 0x0 KECCAK256 DUP1 SLOAD DUP1 SWAP2 SWAP1 PUSH1 0x1 SWAP1 SUB PUSH2 0x295C SWAP2 SWAP1 PUSH2 0x36F8 JUMP JUMPDEST POP POP POP POP POP JUMP JUMPDEST PUSH1 0x5 PUSH1 0x0 DUP4 PUSH20 0xFFFFFFFFFFFFFFFFFFFFFFFFFFFFFFFFFFFFFFFF AND PUSH20 0xFFFFFFFFFFFFFFFFFFFFFFFFFFFFFFFFFFFFFFFF AND DUP2 MSTORE PUSH1 0x20 ADD SWAP1 DUP2 MSTORE PUSH1 0x20 ADD PUSH1 0x0 KECCAK256 DUP1 SLOAD SWAP1 POP PUSH1 0x6 PUSH1 0x0 DUP4 DUP2 MSTORE PUSH1 0x20 ADD SWAP1 DUP2 MSTORE PUSH1 0x20 ADD PUSH1 0x0 KECCAK256 DUP2 SWAP1 SSTORE POP PUSH1 0x5 PUSH1 0x0 DUP4 PUSH20 0xFFFFFFFFFFFFFFFFFFFFFFFFFFFFFFFFFFFFFFFF AND PUSH20 0xFFFFFFFFFFFFFFFFFFFFFFFFFFFFFFFFFFFFFFFF AND DUP2 MSTORE PUSH1 0x20 ADD SWAP1 DUP2 MSTORE PUSH1 0x20 ADD PUSH1 0x0 KECCAK256 DUP2 SWAP1 DUP1 PUSH1 0x1 DUP2 SLOAD ADD DUP1 DUP3 SSTORE DUP1 SWAP2 POP POP SWAP1 PUSH1 0x1 DUP3 SUB SWAP1 PUSH1 0x0 MSTORE PUSH1 0x20 PUSH1 0x0 KECCAK256 ADD PUSH1 0x0 SWAP1 SWAP2 SWAP3 SWAP1 SWAP2 SWAP1 SWAP2 POP SSTORE POP POP POP JUMP JUMPDEST PUSH2 0x2A34 DUP3 DUP3 PUSH2 0x305A JUMP JUMPDEST PUSH2 0x2A3E DUP3 DUP3 PUSH2 0x27C5 JUMP JUMPDEST PUSH1 0x0 PUSH1 0x6 PUSH1 0x0 DUP4 DUP2 MSTORE PUSH1 0x20 ADD SWAP1 DUP2 MSTORE PUSH1 0x20 ADD PUSH1 0x0 KECCAK256 DUP2 SWAP1 SSTORE POP PUSH2 0x2A60 DUP2 PUSH2 0x31E9 JUMP JUMPDEST POP POP JUMP JUMPDEST PUSH1 0x0 DUP1 DUP3 DUP5 ADD SWAP1 POP DUP4 DUP2 LT ISZERO PUSH2 0x2AE2 JUMPI PUSH1 0x40 MLOAD PUSH32 0x8C379A000000000000000000000000000000000000000000000000000000000 DUP2 MSTORE PUSH1 0x4 ADD DUP1 DUP1 PUSH1 0x20 ADD DUP3 DUP2 SUB DUP3 MSTORE PUSH1 0x1B DUP2 MSTORE PUSH1 0x20 ADD DUP1 PUSH32 0x536166654D6174683A206164646974696F6E206F766572666C6F770000000000 DUP2 MSTORE POP PUSH1 0x20 ADD SWAP2 POP POP PUSH1 0x40 MLOAD DUP1 SWAP2 SUB SWAP1 REVERT JUMPDEST DUP1 SWAP2 POP POP SWAP3 SWAP2 POP POP JUMP JUMPDEST PUSH2 0x2AF6 DUP3 DUP3 PUSH2 0x32A3 JUMP JUMPDEST PUSH2 0x2B00 DUP3 DUP3 PUSH2 0x2963 JUMP JUMPDEST PUSH2 0x2B09 DUP2 PUSH2 0x34BB JUMP JUMPDEST POP POP JUMP JUMPDEST PUSH1 0x0 DUP1 DUP4 EQ ISZERO PUSH2 0x2B20 JUMPI PUSH1 0x0 SWAP1 POP PUSH2 0x2B8D JUMP JUMPDEST PUSH1 0x0 DUP3 DUP5 MUL SWAP1 POP DUP3 DUP5 DUP3 DUP2 PUSH2 0x2B31 JUMPI INVALID JUMPDEST DIV EQ PUSH2 0x2B88 JUMPI PUSH1 0x40 MLOAD PUSH32 0x8C379A000000000000000000000000000000000000000000000000000000000 DUP2 MSTORE PUSH1 0x4 ADD DUP1 DUP1 PUSH1 0x20 ADD DUP3 DUP2 SUB DUP3 MSTORE PUSH1 0x21 DUP2 MSTORE PUSH1 0x20 ADD DUP1 PUSH2 0x3882 PUSH1 0x21 SWAP2 CODECOPY PUSH1 0x40 ADD SWAP2 POP POP PUSH1 0x40 MLOAD DUP1 SWAP2 SUB SWAP1 REVERT JUMPDEST DUP1 SWAP2 POP POP JUMPDEST SWAP3 SWAP2 POP POP JUMP JUMPDEST PUSH1 0x0 PUSH2 0x2BD5 DUP4 DUP4 PUSH1 0x40 MLOAD DUP1 PUSH1 0x40 ADD PUSH1 0x40 MSTORE DUP1 PUSH1 0x1A DUP2 MSTORE PUSH1 0x20 ADD PUSH32 0x536166654D6174683A206469766973696F6E206279207A65726F000000000000 DUP2 MSTORE POP PUSH2 0x3507 JUMP JUMPDEST SWAP1 POP SWAP3 SWAP2 POP POP JUMP JUMPDEST PUSH1 0x0 PUSH2 0x2BFE DUP5 PUSH20 0xFFFFFFFFFFFFFFFFFFFFFFFFFFFFFFFFFFFFFFFF AND PUSH2 0x35CD JUMP JUMPDEST PUSH2 0x2C0B JUMPI PUSH1 0x1 SWAP1 POP PUSH2 0x2F11 JUMP JUMPDEST PUSH1 0x0 PUSH1 0x60 DUP6 PUSH20 0xFFFFFFFFFFFFFFFFFFFFFFFFFFFFFFFFFFFFFFFF AND DUP7 PUSH20 0xFFFFFFFFFFFFFFFFFFFFFFFFFFFFFFFFFFFFFFFF AND PUSH4 0x150B7A02 SWAP1 POP PUSH1 0xE0 SHL PUSH2 0x2C4F PUSH2 0x1D6E JUMP JUMPDEST DUP10 DUP9 DUP9 PUSH1 0x40 MLOAD PUSH1 0x24 ADD DUP1 DUP6 PUSH20 0xFFFFFFFFFFFFFFFFFFFFFFFFFFFFFFFFFFFFFFFF AND PUSH20 0xFFFFFFFFFFFFFFFFFFFFFFFFFFFFFFFFFFFFFFFF AND DUP2 MSTORE PUSH1 0x20 ADD DUP5 PUSH20 0xFFFFFFFFFFFFFFFFFFFFFFFFFFFFFFFFFFFFFFFF AND PUSH20 0xFFFFFFFFFFFFFFFFFFFFFFFFFFFFFFFFFFFFFFFF AND DUP2 MSTORE PUSH1 0x20 ADD DUP4 DUP2 MSTORE PUSH1 0x20 ADD DUP1 PUSH1 0x20 ADD DUP3 DUP2 SUB DUP3 MSTORE DUP4 DUP2 DUP2 MLOAD DUP2 MSTORE PUSH1 0x20 ADD SWAP2 POP DUP1 MLOAD SWAP1 PUSH1 0x20 ADD SWAP1 DUP1 DUP4 DUP4 PUSH1 0x0 JUMPDEST DUP4 DUP2 LT ISZERO PUSH2 0x2CFF JUMPI DUP1 DUP3 ADD MLOAD DUP2 DUP5 ADD MSTORE PUSH1 0x20 DUP2 ADD SWAP1 POP PUSH2 0x2CE4 JUMP JUMPDEST POP POP POP POP SWAP1 POP SWAP1 DUP2 ADD SWAP1 PUSH1 0x1F AND DUP1 ISZERO PUSH2 0x2D2C JUMPI DUP1 DUP3 SUB DUP1 MLOAD PUSH1 0x1 DUP4 PUSH1 0x20 SUB PUSH2 0x100 EXP SUB NOT AND DUP2 MSTORE PUSH1 0x20 ADD SWAP2 POP JUMPDEST POP SWAP6 POP POP POP POP POP POP PUSH1 0x40 MLOAD PUSH1 0x20 DUP2 DUP4 SUB SUB DUP2 MSTORE SWAP1 PUSH1 0x40 MSTORE SWAP1 PUSH28 0xFFFFFFFFFFFFFFFFFFFFFFFFFFFFFFFFFFFFFFFFFFFFFFFFFFFFFFFF NOT AND PUSH1 0x20 DUP3 ADD DUP1 MLOAD PUSH28 0xFFFFFFFFFFFFFFFFFFFFFFFFFFFFFFFFFFFFFFFFFFFFFFFFFFFFFFFF DUP4 DUP2 DUP4 AND OR DUP4 MSTORE POP POP POP POP PUSH1 0x40 MLOAD DUP1 DUP3 DUP1 MLOAD SWAP1 PUSH1 0x20 ADD SWAP1 DUP1 DUP4 DUP4 JUMPDEST PUSH1 0x20 DUP4 LT PUSH2 0x2DC4 JUMPI DUP1 MLOAD DUP3 MSTORE PUSH1 0x20 DUP3 ADD SWAP2 POP PUSH1 0x20 DUP2 ADD SWAP1 POP PUSH1 0x20 DUP4 SUB SWAP3 POP PUSH2 0x2DA1 JUMP JUMPDEST PUSH1 0x1 DUP4 PUSH1 0x20 SUB PUSH2 0x100 EXP SUB DUP1 NOT DUP3 MLOAD AND DUP2 DUP5 MLOAD AND DUP1 DUP3 OR DUP6 MSTORE POP POP POP POP POP POP SWAP1 POP ADD SWAP2 POP POP PUSH1 0x0 PUSH1 0x40 MLOAD DUP1 DUP4 SUB DUP2 PUSH1 0x0 DUP7 GAS CALL SWAP2 POP POP RETURNDATASIZE DUP1 PUSH1 0x0 DUP2 EQ PUSH2 0x2E26 JUMPI PUSH1 0x40 MLOAD SWAP2 POP PUSH1 0x1F NOT PUSH1 0x3F RETURNDATASIZE ADD AND DUP3 ADD PUSH1 0x40 MSTORE RETURNDATASIZE DUP3 MSTORE RETURNDATASIZE PUSH1 0x0 PUSH1 0x20 DUP5 ADD RETURNDATACOPY PUSH2 0x2E2B JUMP JUMPDEST PUSH1 0x60 SWAP2 POP JUMPDEST POP SWAP2 POP SWAP2 POP DUP2 PUSH2 0x2E99 JUMPI PUSH1 0x0 DUP2 MLOAD GT ISZERO PUSH2 0x2E48 JUMPI DUP1 MLOAD DUP1 DUP3 PUSH1 0x20 ADD REVERT JUMPDEST PUSH1 0x40 MLOAD PUSH32 0x8C379A000000000000000000000000000000000000000000000000000000000 DUP2 MSTORE PUSH1 0x4 ADD DUP1 DUP1 PUSH1 0x20 ADD DUP3 DUP2 SUB DUP3 MSTORE PUSH1 0x32 DUP2 MSTORE PUSH1 0x20 ADD DUP1 PUSH2 0x3775 PUSH1 0x32 SWAP2 CODECOPY PUSH1 0x40 ADD SWAP2 POP POP PUSH1 0x40 MLOAD DUP1 SWAP2 SUB SWAP1 REVERT JUMPDEST PUSH1 0x0 DUP2 DUP1 PUSH1 0x20 ADD SWAP1 MLOAD PUSH1 0x20 DUP2 LT ISZERO PUSH2 0x2EB0 JUMPI PUSH1 0x0 DUP1 REVERT JUMPDEST DUP2 ADD SWAP1 DUP1 DUP1 MLOAD SWAP1 PUSH1 0x20 ADD SWAP1 SWAP3 SWAP2 SWAP1 POP POP POP SWAP1 POP PUSH4 0x150B7A02 PUSH1 0xE0 SHL PUSH28 0xFFFFFFFFFFFFFFFFFFFFFFFFFFFFFFFFFFFFFFFFFFFFFFFFFFFFFFFF NOT AND DUP2 PUSH28 0xFFFFFFFFFFFFFFFFFFFFFFFFFFFFFFFFFFFFFFFFFFFFFFFFFFFFFFFF NOT AND EQ SWAP4 POP POP POP POP JUMPDEST SWAP5 SWAP4 POP POP POP POP JUMP JUMPDEST PUSH1 0x0 PUSH20 0xFFFFFFFFFFFFFFFFFFFFFFFFFFFFFFFFFFFFFFFF AND PUSH1 0x2 PUSH1 0x0 DUP4 DUP2 MSTORE PUSH1 0x20 ADD SWAP1 DUP2 MSTORE PUSH1 0x20 ADD PUSH1 0x0 KECCAK256 PUSH1 0x0 SWAP1 SLOAD SWAP1 PUSH2 0x100 EXP SWAP1 DIV PUSH20 0xFFFFFFFFFFFFFFFFFFFFFFFFFFFFFFFFFFFFFFFF AND PUSH20 0xFFFFFFFFFFFFFFFFFFFFFFFFFFFFFFFFFFFFFFFF AND EQ PUSH2 0x2FD4 JUMPI PUSH1 0x0 PUSH1 0x2 PUSH1 0x0 DUP4 DUP2 MSTORE PUSH1 0x20 ADD SWAP1 DUP2 MSTORE PUSH1 0x20 ADD PUSH1 0x0 KECCAK256 PUSH1 0x0 PUSH2 0x100 EXP DUP2 SLOAD DUP2 PUSH20 0xFFFFFFFFFFFFFFFFFFFFFFFFFFFFFFFFFFFFFFFF MUL NOT AND SWAP1 DUP4 PUSH20 0xFFFFFFFFFFFFFFFFFFFFFFFFFFFFFFFFFFFFFFFF AND MUL OR SWAP1 SSTORE POP JUMPDEST POP JUMP JUMPDEST PUSH2 0x2FEF PUSH1 0x1 DUP3 PUSH1 0x0 ADD SLOAD PUSH2 0x3010 SWAP1 SWAP2 SWAP1 PUSH4 0xFFFFFFFF AND JUMP JUMPDEST DUP2 PUSH1 0x0 ADD DUP2 SWAP1 SSTORE POP POP JUMP JUMPDEST PUSH1 0x1 DUP2 PUSH1 0x0 ADD PUSH1 0x0 DUP3 DUP3 SLOAD ADD SWAP3 POP POP DUP2 SWAP1 SSTORE POP POP JUMP JUMPDEST PUSH1 0x0 PUSH2 0x3052 DUP4 DUP4 PUSH1 0x40 MLOAD DUP1 PUSH1 0x40 ADD PUSH1 0x40 MSTORE DUP1 PUSH1 0x1E DUP2 MSTORE PUSH1 0x20 ADD PUSH32 0x536166654D6174683A207375627472616374696F6E206F766572666C6F770000 DUP2 MSTORE POP PUSH2 0x3618 JUMP JUMPDEST SWAP1 POP SWAP3 SWAP2 POP POP JUMP JUMPDEST DUP2 PUSH20 0xFFFFFFFFFFFFFFFFFFFFFFFFFFFFFFFFFFFFFFFF AND PUSH2 0x307A DUP3 PUSH2 0xF5D JUMP JUMPDEST PUSH20 0xFFFFFFFFFFFFFFFFFFFFFFFFFFFFFFFFFFFFFFFF AND EQ PUSH2 0x30E6 JUMPI PUSH1 0x40 MLOAD PUSH32 0x8C379A000000000000000000000000000000000000000000000000000000000 DUP2 MSTORE PUSH1 0x4 ADD DUP1 DUP1 PUSH1 0x20 ADD DUP3 DUP2 SUB DUP3 MSTORE PUSH1 0x25 DUP2 MSTORE PUSH1 0x20 ADD DUP1 PUSH2 0x3976 PUSH1 0x25 SWAP2 CODECOPY PUSH1 0x40 ADD SWAP2 POP POP PUSH1 0x40 MLOAD DUP1 SWAP2 SUB SWAP1 REVERT JUMPDEST PUSH2 0x30EF DUP2 PUSH2 0x2F19 JUMP JUMPDEST PUSH2 0x3136 PUSH1 0x3 PUSH1 0x0 DUP5 PUSH20 0xFFFFFFFFFFFFFFFFFFFFFFFFFFFFFFFFFFFFFFFF AND PUSH20 0xFFFFFFFFFFFFFFFFFFFFFFFFFFFFFFFFFFFFFFFF AND DUP2 MSTORE PUSH1 0x20 ADD SWAP1 DUP2 MSTORE PUSH1 0x20 ADD PUSH1 0x0 KECCAK256 PUSH2 0x2FD7 JUMP JUMPDEST PUSH1 0x0 PUSH1 0x1 PUSH1 0x0 DUP4 DUP2 MSTORE PUSH1 0x20 ADD SWAP1 DUP2 MSTORE PUSH1 0x20 ADD PUSH1 0x0 KECCAK256 PUSH1 0x0 PUSH2 0x100 EXP DUP2 SLOAD DUP2 PUSH20 0xFFFFFFFFFFFFFFFFFFFFFFFFFFFFFFFFFFFFFFFF MUL NOT AND SWAP1 DUP4 PUSH20 0xFFFFFFFFFFFFFFFFFFFFFFFFFFFFFFFFFFFFFFFF AND MUL OR SWAP1 SSTORE POP DUP1 PUSH1 0x0 PUSH20 0xFFFFFFFFFFFFFFFFFFFFFFFFFFFFFFFFFFFFFFFF AND DUP4 PUSH20 0xFFFFFFFFFFFFFFFFFFFFFFFFFFFFFFFFFFFFFFFF AND PUSH32 0xDDF252AD1BE2C89B69C2B068FC378DAA952BA7F163C4A11628F55A4DF523B3EF PUSH1 0x40 MLOAD PUSH1 0x40 MLOAD DUP1 SWAP2 SUB SWAP1 LOG4 POP POP JUMP JUMPDEST PUSH1 0x0 PUSH2 0x3204 PUSH1 0x1 PUSH1 0x7 DUP1 SLOAD SWAP1 POP PUSH2 0x3010 SWAP1 SWAP2 SWAP1 PUSH4 0xFFFFFFFF AND JUMP JUMPDEST SWAP1 POP PUSH1 0x0 PUSH1 0x8 PUSH1 0x0 DUP5 DUP2 MSTORE PUSH1 0x20 ADD SWAP1 DUP2 MSTORE PUSH1 0x20 ADD PUSH1 0x0 KECCAK256 SLOAD SWAP1 POP PUSH1 0x0 PUSH1 0x7 DUP4 DUP2 SLOAD DUP2 LT PUSH2 0x322D JUMPI INVALID JUMPDEST SWAP1 PUSH1 0x0 MSTORE PUSH1 0x20 PUSH1 0x0 KECCAK256 ADD SLOAD SWAP1 POP DUP1 PUSH1 0x7 DUP4 DUP2 SLOAD DUP2 LT PUSH2 0x3248 JUMPI INVALID JUMPDEST SWAP1 PUSH1 0x0 MSTORE PUSH1 0x20 PUSH1 0x0 KECCAK256 ADD DUP2 SWAP1 SSTORE POP DUP2 PUSH1 0x8 PUSH1 0x0 DUP4 DUP2 MSTORE PUSH1 0x20 ADD SWAP1 DUP2 MSTORE PUSH1 0x20 ADD PUSH1 0x0 KECCAK256 DUP2 SWAP1 SSTORE POP PUSH1 0x7 DUP1 SLOAD DUP1 SWAP2 SWAP1 PUSH1 0x1 SWAP1 SUB PUSH2 0x3283 SWAP2 SWAP1 PUSH2 0x36F8 JUMP JUMPDEST POP PUSH1 0x0 PUSH1 0x8 PUSH1 0x0 DUP7 DUP2 MSTORE PUSH1 0x20 ADD SWAP1 DUP2 MSTORE PUSH1 0x20 ADD PUSH1 0x0 KECCAK256 DUP2 SWAP1 SSTORE POP POP POP POP POP JUMP JUMPDEST PUSH1 0x0 PUSH20 0xFFFFFFFFFFFFFFFFFFFFFFFFFFFFFFFFFFFFFFFF AND DUP3 PUSH20 0xFFFFFFFFFFFFFFFFFFFFFFFFFFFFFFFFFFFFFFFF AND EQ ISZERO PUSH2 0x3346 JUMPI PUSH1 0x40 MLOAD PUSH32 0x8C379A000000000000000000000000000000000000000000000000000000000 DUP2 MSTORE PUSH1 0x4 ADD DUP1 DUP1 PUSH1 0x20 ADD DUP3 DUP2 SUB DUP3 MSTORE PUSH1 0x20 DUP2 MSTORE PUSH1 0x20 ADD DUP1 PUSH32 0x4552433732313A206D696E7420746F20746865207A65726F2061646472657373 DUP2 MSTORE POP PUSH1 0x20 ADD SWAP2 POP POP PUSH1 0x40 MLOAD DUP1 SWAP2 SUB SWAP1 REVERT JUMPDEST PUSH2 0x334F DUP2 PUSH2 0x1CFC JUMP JUMPDEST ISZERO PUSH2 0x33C2 JUMPI PUSH1 0x40 MLOAD PUSH32 0x8C379A000000000000000000000000000000000000000000000000000000000 DUP2 MSTORE PUSH1 0x4 ADD DUP1 DUP1 PUSH1 0x20 ADD DUP3 DUP2 SUB DUP3 MSTORE PUSH1 0x1C DUP2 MSTORE PUSH1 0x20 ADD DUP1 PUSH32 0x4552433732313A20746F6B656E20616C7265616479206D696E74656400000000 DUP2 MSTORE POP PUSH1 0x20 ADD SWAP2 POP POP PUSH1 0x40 MLOAD DUP1 SWAP2 SUB SWAP1 REVERT JUMPDEST DUP2 PUSH1 0x1 PUSH1 0x0 DUP4 DUP2 MSTORE PUSH1 0x20 ADD SWAP1 DUP2 MSTORE PUSH1 0x20 ADD PUSH1 0x0 KECCAK256 PUSH1 0x0 PUSH2 0x100 EXP DUP2 SLOAD DUP2 PUSH20 0xFFFFFFFFFFFFFFFFFFFFFFFFFFFFFFFFFFFFFFFF MUL NOT AND SWAP1 DUP4 PUSH20 0xFFFFFFFFFFFFFFFFFFFFFFFFFFFFFFFFFFFFFFFF AND MUL OR SWAP1 SSTORE POP PUSH2 0x345B PUSH1 0x3 PUSH1 0x0 DUP5 PUSH20 0xFFFFFFFFFFFFFFFFFFFFFFFFFFFFFFFFFFFFFFFF AND PUSH20 0xFFFFFFFFFFFFFFFFFFFFFFFFFFFFFFFFFFFFFFFF AND DUP2 MSTORE PUSH1 0x20 ADD SWAP1 DUP2 MSTORE PUSH1 0x20 ADD PUSH1 0x0 KECCAK256 PUSH2 0x2FFA JUMP JUMPDEST DUP1 DUP3 PUSH20 0xFFFFFFFFFFFFFFFFFFFFFFFFFFFFFFFFFFFFFFFF AND PUSH1 0x0 PUSH20 0xFFFFFFFFFFFFFFFFFFFFFFFFFFFFFFFFFFFFFFFF AND PUSH32 0xDDF252AD1BE2C89B69C2B068FC378DAA952BA7F163C4A11628F55A4DF523B3EF PUSH1 0x40 MLOAD PUSH1 0x40 MLOAD DUP1 SWAP2 SUB SWAP1 LOG4 POP POP JUMP JUMPDEST PUSH1 0x7 DUP1 SLOAD SWAP1 POP PUSH1 0x8 PUSH1 0x0 DUP4 DUP2 MSTORE PUSH1 0x20 ADD SWAP1 DUP2 MSTORE PUSH1 0x20 ADD PUSH1 0x0 KECCAK256 DUP2 SWAP1 SSTORE POP PUSH1 0x7 DUP2 SWAP1 DUP1 PUSH1 0x1 DUP2 SLOAD ADD DUP1 DUP3 SSTORE DUP1 SWAP2 POP POP SWAP1 PUSH1 0x1 DUP3 SUB SWAP1 PUSH1 0x0 MSTORE PUSH1 0x20 PUSH1 0x0 KECCAK256 ADD PUSH1 0x0 SWAP1 SWAP2 SWAP3 SWAP1 SWAP2 SWAP1 SWAP2 POP SSTORE POP POP JUMP JUMPDEST PUSH1 0x0 DUP1 DUP4 GT DUP3 SWAP1 PUSH2 0x35B3 JUMPI PUSH1 0x40 MLOAD PUSH32 0x8C379A000000000000000000000000000000000000000000000000000000000 DUP2 MSTORE PUSH1 0x4 ADD DUP1 DUP1 PUSH1 0x20 ADD DUP3 DUP2 SUB DUP3 MSTORE DUP4 DUP2 DUP2 MLOAD DUP2 MSTORE PUSH1 0x20 ADD SWAP2 POP DUP1 MLOAD SWAP1 PUSH1 0x20 ADD SWAP1 DUP1 DUP4 DUP4 PUSH1 0x0 JUMPDEST DUP4 DUP2 LT ISZERO PUSH2 0x3578 JUMPI DUP1 DUP3 ADD MLOAD DUP2 DUP5 ADD MSTORE PUSH1 0x20 DUP2 ADD SWAP1 POP PUSH2 0x355D JUMP JUMPDEST POP POP POP POP SWAP1 POP SWAP1 DUP2 ADD SWAP1 PUSH1 0x1F AND DUP1 ISZERO PUSH2 0x35A5 JUMPI DUP1 DUP3 SUB DUP1 MLOAD PUSH1 0x1 DUP4 PUSH1 0x20 SUB PUSH2 0x100 EXP SUB NOT AND DUP2 MSTORE PUSH1 0x20 ADD SWAP2 POP JUMPDEST POP SWAP3 POP POP POP PUSH1 0x40 MLOAD DUP1 SWAP2 SUB SWAP1 REVERT JUMPDEST POP PUSH1 0x0 DUP4 DUP6 DUP2 PUSH2 0x35BF JUMPI INVALID JUMPDEST DIV SWAP1 POP DUP1 SWAP2 POP POP SWAP4 SWAP3 POP POP POP JUMP JUMPDEST PUSH1 0x0 DUP1 PUSH1 0x0 PUSH32 0xC5D2460186F7233C927E7DB2DCC703C0E500B653CA82273B7BFAD8045D85A470 PUSH1 0x0 SHL SWAP1 POP DUP4 EXTCODEHASH SWAP2 POP DUP1 DUP3 EQ ISZERO DUP1 ISZERO PUSH2 0x360F JUMPI POP PUSH1 0x0 DUP1 SHL DUP3 EQ ISZERO JUMPDEST SWAP3 POP POP POP SWAP2 SWAP1 POP JUMP JUMPDEST PUSH1 0x0 DUP4 DUP4 GT ISZERO DUP3 SWAP1 PUSH2 0x36C5 JUMPI PUSH1 0x40 MLOAD PUSH32 0x8C379A000000000000000000000000000000000000000000000000000000000 DUP2 MSTORE PUSH1 0x4 ADD DUP1 DUP1 PUSH1 0x20 ADD DUP3 DUP2 SUB DUP3 MSTORE DUP4 DUP2 DUP2 MLOAD DUP2 MSTORE PUSH1 0x20 ADD SWAP2 POP DUP1 MLOAD SWAP1 PUSH1 0x20 ADD SWAP1 DUP1 DUP4 DUP4 PUSH1 0x0 JUMPDEST DUP4 DUP2 LT ISZERO PUSH2 0x368A JUMPI DUP1 DUP3 ADD MLOAD DUP2 DUP5 ADD MSTORE PUSH1 0x20 DUP2 ADD SWAP1 POP PUSH2 0x366F JUMP JUMPDEST POP POP POP POP SWAP1 POP SWAP1 DUP2 ADD SWAP1 PUSH1 0x1F AND DUP1 ISZERO PUSH2 0x36B7 JUMPI DUP1 DUP3 SUB DUP1 MLOAD PUSH1 0x1 DUP4 PUSH1 0x20 SUB PUSH2 0x100 EXP SUB NOT AND DUP2 MSTORE PUSH1 0x20 ADD SWAP2 POP JUMPDEST POP SWAP3 POP POP POP PUSH1 0x40 MLOAD DUP1 SWAP2 SUB SWAP1 REVERT JUMPDEST POP PUSH1 0x0 DUP4 DUP6 SUB SWAP1 POP DUP1 SWAP2 POP POP SWAP4 SWAP3 POP POP POP JUMP JUMPDEST PUSH1 0x40 MLOAD DUP1 PUSH1 0x40 ADD PUSH1 0x40 MSTORE DUP1 PUSH1 0x0 DUP2 MSTORE PUSH1 0x20 ADD PUSH1 0x0 PUSH4 0xFFFFFFFF AND DUP2 MSTORE POP SWAP1 JUMP JUMPDEST DUP2 SLOAD DUP2 DUP4 SSTORE DUP2 DUP2 GT ISZERO PUSH2 0x371F JUMPI DUP2 DUP4 PUSH1 0x0 MSTORE PUSH1 0x20 PUSH1 0x0 KECCAK256 SWAP2 DUP3 ADD SWAP2 ADD PUSH2 0x371E SWAP2 SWAP1 PUSH2 0x3724 JUMP JUMPDEST JUMPDEST POP POP POP JUMP JUMPDEST PUSH2 0x3746 SWAP2 SWAP1 JUMPDEST DUP1 DUP3 GT ISZERO PUSH2 0x3742 JUMPI PUSH1 0x0 DUP2 PUSH1 0x0 SWAP1 SSTORE POP PUSH1 0x1 ADD PUSH2 0x372A JUMP JUMPDEST POP SWAP1 JUMP JUMPDEST SWAP1 JUMP INVALID GASLIMIT MSTORE NUMBER CALLDATACOPY ORIGIN BALANCE GASLIMIT PUSH15 0x756D657261626C653A206F776E6572 KECCAK256 PUSH10 0x6E646578206F7574206F PUSH7 0x20626F756E6473 GASLIMIT MSTORE NUMBER CALLDATACOPY ORIGIN BALANCE GASPRICE KECCAK256 PUSH21 0x72616E7366657220746F206E6F6E20455243373231 MSTORE PUSH6 0x636569766572 KECCAK256 PUSH10 0x6D706C656D656E746572 GASLIMIT MSTORE NUMBER CALLDATACOPY ORIGIN BALANCE GASPRICE KECCAK256 PUSH21 0x72616E7366657220746F20746865207A65726F2061 PUSH5 0x6472657373 GASLIMIT MSTORE NUMBER CALLDATACOPY ORIGIN BALANCE GASPRICE KECCAK256 PUSH16 0x70657261746F7220717565727920666F PUSH19 0x206E6F6E6578697374656E7420746F6B656E45 MSTORE NUMBER CALLDATACOPY ORIGIN BALANCE GASPRICE KECCAK256 PUSH2 0x7070 PUSH19 0x6F76652063616C6C6572206973206E6F74206F PUSH24 0x6E6572206E6F7220617070726F76656420666F7220616C6C GASLIMIT MSTORE NUMBER CALLDATACOPY ORIGIN BALANCE GASPRICE KECCAK256 PUSH3 0x616C61 PUSH15 0x636520717565727920666F72207468 PUSH6 0x207A65726F20 PUSH2 0x6464 PUSH19 0x6573734552433732313A206F776E6572207175 PUSH6 0x727920666F72 KECCAK256 PUSH15 0x6F6E6578697374656E7420746F6B65 PUSH15 0x536166654D6174683A206D756C7469 PUSH17 0x6C69636174696F6E206F766572666C6F77 GASLIMIT MSTORE NUMBER CALLDATACOPY ORIGIN BALANCE GASPRICE KECCAK256 PUSH2 0x7070 PUSH19 0x6F76656420717565727920666F72206E6F6E65 PUSH25 0x697374656E7420746F6B656E4552433732313A207472616E73 PUSH7 0x6572206F662074 PUSH16 0x6B656E2074686174206973206E6F7420 PUSH16 0x776E4552433732313A20617070726F76 PUSH2 0x6C20 PUSH21 0x6F2063757272656E74206F776E6572455243373231 GASPRICE KECCAK256 PUSH21 0x72616E736665722063616C6C6572206973206E6F74 KECCAK256 PUSH16 0x776E6572206E6F7220617070726F7665 PUSH5 0x4552433732 BALANCE GASLIMIT PUSH15 0x756D657261626C653A20676C6F6261 PUSH13 0x20696E646578206F7574206F66 KECCAK256 PUSH3 0x6F756E PUSH5 0x7345524337 ORIGIN BALANCE GASPRICE KECCAK256 PUSH3 0x75726E KECCAK256 PUSH16 0x6620746F6B656E207468617420697320 PUSH15 0x6F74206F776EA265627A7A72315820 0xCF PUSH19 0xD216C5CBF57D070F08EF6F35DC21DAB94F9A4F 0xC6 POP BALANCE SMOD 0xA9 0x2B 0x27 SWAP8 DIFFICULTY PUSH6 0x4E64736F6C63 NUMBER STOP SDIV GT STOP ORIGIN "
				},
				"gasEstimates": {
					"creation": {
						"codeDepositCost": "2959800",
						"executionCost": "infinite",
						"totalCost": "infinite"
					},
					"external": {
						"accumulatedRewardCla(uint256)": "infinite",
						"approve(address,uint256)": "infinite",
						"approveCla(uint256)": "infinite",
						"balanceOf(address)": "infinite",
						"burn(uint256)": "infinite",
						"ccts(uint256)": "2080",
						"claBalanceOf(address)": "infinite",
						"claimClaReward(uint256)": "infinite",
						"convertClaToCct(uint256)": "infinite",
						"getApproved(uint256)": "infinite",
						"isApprovedForAll(address,address)": "1435",
						"ownerOf(uint256)": "infinite",
						"safeTransferFrom(address,address,uint256)": "infinite",
						"safeTransferFrom(address,address,uint256,bytes)": "infinite",
						"setApprovalForAll(address,bool)": "infinite",
						"supportsInterface(bytes4)": "1277",
						"tokenByIndex(uint256)": "infinite",
						"tokenOfOwnerByIndex(address,uint256)": "infinite",
						"totalAccumulatedRewardCla(address)": "infinite",
						"totalSupply()": "1111",
						"transferFrom(address,address,uint256)": "infinite"
					},
					"internal": {
						"_getDay()": "47",
						"_mintCCT(address,uint256)": "infinite",
						"_pendingClaPerToken(uint256,uint256)": "infinite",
						"_updateAllTokensReward()": "infinite"
					}
				},
				"methodIdentifiers": {
					"accumulatedRewardCla(uint256)": "fba2a1b2",
					"approve(address,uint256)": "095ea7b3",
					"approveCla(uint256)": "fad27ffe",
					"balanceOf(address)": "70a08231",
					"burn(uint256)": "42966c68",
					"ccts(uint256)": "6cd3e0eb",
					"claBalanceOf(address)": "9dc5d5ef",
					"claimClaReward(uint256)": "fc86bf15",
					"convertClaToCct(uint256)": "a56236e4",
					"getApproved(uint256)": "081812fc",
					"isApprovedForAll(address,address)": "e985e9c5",
					"ownerOf(uint256)": "6352211e",
					"safeTransferFrom(address,address,uint256)": "42842e0e",
					"safeTransferFrom(address,address,uint256,bytes)": "b88d4fde",
					"setApprovalForAll(address,bool)": "a22cb465",
					"supportsInterface(bytes4)": "01ffc9a7",
					"tokenByIndex(uint256)": "4f6ccce7",
					"tokenOfOwnerByIndex(address,uint256)": "2f745c59",
					"totalAccumulatedRewardCla(address)": "b40e5cfb",
					"totalSupply()": "18160ddd",
					"transferFrom(address,address,uint256)": "23b872dd"
				}
			},
			"storageLayout": {
				"storage": [
					{
						"astId": 87,
						"contract": "contracts/ClaConvertNFT.sol:ClaConvertNFT",
						"label": "_supportedInterfaces",
						"offset": 0,
						"slot": "0",
						"type": "t_mapping(t_bytes4,t_bool)"
					},
					{
						"astId": 355,
						"contract": "contracts/ClaConvertNFT.sol:ClaConvertNFT",
						"label": "_tokenOwner",
						"offset": 0,
						"slot": "1",
						"type": "t_mapping(t_uint256,t_address)"
					},
					{
						"astId": 359,
						"contract": "contracts/ClaConvertNFT.sol:ClaConvertNFT",
						"label": "_tokenApprovals",
						"offset": 0,
						"slot": "2",
						"type": "t_mapping(t_uint256,t_address)"
					},
					{
						"astId": 363,
						"contract": "contracts/ClaConvertNFT.sol:ClaConvertNFT",
						"label": "_ownedTokensCount",
						"offset": 0,
						"slot": "3",
						"type": "t_mapping(t_address,t_struct(Counter)35_storage)"
					},
					{
						"astId": 369,
						"contract": "contracts/ClaConvertNFT.sol:ClaConvertNFT",
						"label": "_operatorApprovals",
						"offset": 0,
						"slot": "4",
						"type": "t_mapping(t_address,t_mapping(t_address,t_bool))"
					},
					{
						"astId": 1014,
						"contract": "contracts/ClaConvertNFT.sol:ClaConvertNFT",
						"label": "_ownedTokens",
						"offset": 0,
						"slot": "5",
						"type": "t_mapping(t_address,t_array(t_uint256)dyn_storage)"
					},
					{
						"astId": 1018,
						"contract": "contracts/ClaConvertNFT.sol:ClaConvertNFT",
						"label": "_ownedTokensIndex",
						"offset": 0,
						"slot": "6",
						"type": "t_mapping(t_uint256,t_uint256)"
					},
					{
						"astId": 1021,
						"contract": "contracts/ClaConvertNFT.sol:ClaConvertNFT",
						"label": "_allTokens",
						"offset": 0,
						"slot": "7",
						"type": "t_array(t_uint256)dyn_storage"
					},
					{
						"astId": 1025,
						"contract": "contracts/ClaConvertNFT.sol:ClaConvertNFT",
						"label": "_allTokensIndex",
						"offset": 0,
						"slot": "8",
						"type": "t_mapping(t_uint256,t_uint256)"
					},
					{
						"astId": 1577,
						"contract": "contracts/ClaConvertNFT.sol:ClaConvertNFT",
						"label": "ccts",
						"offset": 0,
						"slot": "9",
						"type": "t_mapping(t_uint256,t_struct(CCT)1616_storage)"
					},
					{
						"astId": 1581,
						"contract": "contracts/ClaConvertNFT.sol:ClaConvertNFT",
						"label": "_distributedRewardPerToken",
						"offset": 0,
						"slot": "10",
						"type": "t_mapping(t_uint256,t_uint256)"
					},
					{
						"astId": 1601,
						"contract": "contracts/ClaConvertNFT.sol:ClaConvertNFT",
						"label": "claContract",
						"offset": 0,
						"slot": "11",
						"type": "t_contract(IClaContract)2123"
					},
					{
						"astId": 1606,
						"contract": "contracts/ClaConvertNFT.sol:ClaConvertNFT",
						"label": "clsToken",
						"offset": 0,
						"slot": "12",
						"type": "t_contract(IClsToken)2176"
					},
					{
						"astId": 1611,
						"contract": "contracts/ClaConvertNFT.sol:ClaConvertNFT",
						"label": "claDistributor",
						"offset": 0,
						"slot": "13",
						"type": "t_contract(IClaDistributor)2138"
					}
				],
				"types": {
					"t_address": {
						"encoding": "inplace",
						"label": "address",
						"numberOfBytes": "20"
					},
					"t_array(t_uint256)dyn_storage": {
						"base": "t_uint256",
						"encoding": "dynamic_array",
						"label": "uint256[]",
						"numberOfBytes": "32"
					},
					"t_bool": {
						"encoding": "inplace",
						"label": "bool",
						"numberOfBytes": "1"
					},
					"t_bytes4": {
						"encoding": "inplace",
						"label": "bytes4",
						"numberOfBytes": "4"
					},
					"t_contract(IClaContract)2123": {
						"encoding": "inplace",
						"label": "contract IClaContract",
						"numberOfBytes": "20"
					},
					"t_contract(IClaDistributor)2138": {
						"encoding": "inplace",
						"label": "contract IClaDistributor",
						"numberOfBytes": "20"
					},
					"t_contract(IClsToken)2176": {
						"encoding": "inplace",
						"label": "contract IClsToken",
						"numberOfBytes": "20"
					},
					"t_mapping(t_address,t_array(t_uint256)dyn_storage)": {
						"encoding": "mapping",
						"key": "t_address",
						"label": "mapping(address => uint256[])",
						"numberOfBytes": "32",
						"value": "t_array(t_uint256)dyn_storage"
					},
					"t_mapping(t_address,t_bool)": {
						"encoding": "mapping",
						"key": "t_address",
						"label": "mapping(address => bool)",
						"numberOfBytes": "32",
						"value": "t_bool"
					},
					"t_mapping(t_address,t_mapping(t_address,t_bool))": {
						"encoding": "mapping",
						"key": "t_address",
						"label": "mapping(address => mapping(address => bool))",
						"numberOfBytes": "32",
						"value": "t_mapping(t_address,t_bool)"
					},
					"t_mapping(t_address,t_struct(Counter)35_storage)": {
						"encoding": "mapping",
						"key": "t_address",
						"label": "mapping(address => struct Counters.Counter)",
						"numberOfBytes": "32",
						"value": "t_struct(Counter)35_storage"
					},
					"t_mapping(t_bytes4,t_bool)": {
						"encoding": "mapping",
						"key": "t_bytes4",
						"label": "mapping(bytes4 => bool)",
						"numberOfBytes": "32",
						"value": "t_bool"
					},
					"t_mapping(t_uint256,t_address)": {
						"encoding": "mapping",
						"key": "t_uint256",
						"label": "mapping(uint256 => address)",
						"numberOfBytes": "32",
						"value": "t_address"
					},
					"t_mapping(t_uint256,t_struct(CCT)1616_storage)": {
						"encoding": "mapping",
						"key": "t_uint256",
						"label": "mapping(uint256 => struct ClaConvertNFT.CCT)",
						"numberOfBytes": "32",
						"value": "t_struct(CCT)1616_storage"
					},
					"t_mapping(t_uint256,t_uint256)": {
						"encoding": "mapping",
						"key": "t_uint256",
						"label": "mapping(uint256 => uint256)",
						"numberOfBytes": "32",
						"value": "t_uint256"
					},
					"t_struct(CCT)1616_storage": {
						"encoding": "inplace",
						"label": "struct ClaConvertNFT.CCT",
						"members": [
							{
								"astId": 1613,
								"contract": "contracts/ClaConvertNFT.sol:ClaConvertNFT",
								"label": "claAmount",
								"offset": 0,
								"slot": "0",
								"type": "t_uint256"
							},
							{
								"astId": 1615,
								"contract": "contracts/ClaConvertNFT.sol:ClaConvertNFT",
								"label": "endDay",
								"offset": 0,
								"slot": "1",
								"type": "t_uint32"
							}
						],
						"numberOfBytes": "64"
					},
					"t_struct(Counter)35_storage": {
						"encoding": "inplace",
						"label": "struct Counters.Counter",
						"members": [
							{
								"astId": 34,
								"contract": "contracts/ClaConvertNFT.sol:ClaConvertNFT",
								"label": "_value",
								"offset": 0,
								"slot": "0",
								"type": "t_uint256"
							}
						],
						"numberOfBytes": "32"
					},
					"t_uint256": {
						"encoding": "inplace",
						"label": "uint256",
						"numberOfBytes": "32"
					},
					"t_uint32": {
						"encoding": "inplace",
						"label": "uint32",
						"numberOfBytes": "4"
					}
				}
			},
			"userdoc": {
				"methods": {
					"accumulatedRewardCla(uint256)": {
						"notice": "(쓰기 작업 없는 단순 조회 용도) 컨트랙트 상태 변수 _distributedRewardPerToken 업데이트 없이 현재까지 쌓인 CLA 이자 반환(본 컨트랙트와 claDistributor 컨트랙트 각각의 이자를 합산)"
					},
					"approveCla(uint256)": {
						"notice": "CCT 컨트랙트의 CLA 전송 승인 "
					},
					"burn(uint256)": {
						"notice": "CCT 소각"
					},
					"claBalanceOf(address)": {
						"notice": "CLA 토큰 잔고 반환"
					},
					"claimClaReward(uint256)": {
						"notice": "Claims CLA reward entitled to NFT"
					},
					"convertClaToCct(uint256)": {
						"notice": "CLA 토큰을 EOA에서 CCT 컨트랙트로 전송하고, 해당 토큰을 CLS 토큰 컨트랙트에 180일 예치"
					},
					"totalAccumulatedRewardCla(address)": {
						"notice": "유저가 가진 모든 NFT에 쌓인 CLA 이자 조회"
					}
				}
			}
		}
	}
}